{
  "_format": "hh-sol-artifact-1",
  "contractName": "BNPLInstallmentsProrated",
  "sourceName": "src/buy-now-pay-later/BNPLInstallmentsProrated.sol",
  "abi": [
    {
      "inputs": [
        {
          "internalType": "address",
          "name": "initialOwner",
          "type": "address"
        },
        {
          "internalType": "contract IERC20",
          "name": "_token",
          "type": "address"
        },
        {
          "internalType": "address",
          "name": "_treasury",
          "type": "address"
        },
        {
          "internalType": "uint256",
          "name": "_maxPurchasePerOrder",
          "type": "uint256"
        },
        {
          "internalType": "uint16",
          "name": "_repayScoreIncrease",
          "type": "uint16"
        },
        {
          "internalType": "uint16",
          "name": "_liquidateScoreDecrease",
          "type": "uint16"
        },
        {
          "internalType": "uint16",
          "name": "_earlyRepayDiscountBps",
          "type": "uint16"
        },
        {
          "internalType": "uint16",
          "name": "_minInstallmentAmountBps",
          "type": "uint16"
        }
      ],
      "stateMutability": "nonpayable",
      "type": "constructor"
    },
    {
      "anonymous": false,
      "inputs": [
        {
          "indexed": true,
          "internalType": "address",
          "name": "who",
          "type": "address"
        },
        {
          "indexed": false,
          "internalType": "uint16",
          "name": "oldScore",
          "type": "uint16"
        },
        {
          "indexed": false,
          "internalType": "uint16",
          "name": "newScore",
          "type": "uint16"
        }
      ],
      "name": "CreditScoreUpdated",
      "type": "event"
    },
    {
      "anonymous": false,
      "inputs": [
        {
          "indexed": true,
          "internalType": "uint256",
          "name": "id",
          "type": "uint256"
        },
        {
          "indexed": true,
          "internalType": "address",
          "name": "payer",
          "type": "address"
        },
        {
          "indexed": false,
          "internalType": "uint256",
          "name": "amount",
          "type": "uint256"
        },
        {
          "indexed": false,
          "internalType": "uint256",
          "name": "paidPrincipal",
          "type": "uint256"
        },
        {
          "indexed": false,
          "internalType": "uint256",
          "name": "paidFee",
          "type": "uint256"
        }
      ],
      "name": "InstallmentPaid",
      "type": "event"
    },
    {
      "anonymous": false,
      "inputs": [
        {
          "indexed": true,
          "internalType": "address",
          "name": "from",
          "type": "address"
        },
        {
          "indexed": false,
          "internalType": "uint256",
          "name": "amount",
          "type": "uint256"
        }
      ],
      "name": "LiquidityFunded",
      "type": "event"
    },
    {
      "anonymous": false,
      "inputs": [
        {
          "indexed": true,
          "internalType": "address",
          "name": "to",
          "type": "address"
        },
        {
          "indexed": false,
          "internalType": "uint256",
          "name": "amount",
          "type": "uint256"
        }
      ],
      "name": "LiquidityWithdrawn",
      "type": "event"
    },
    {
      "anonymous": false,
      "inputs": [
        {
          "indexed": true,
          "internalType": "uint256",
          "name": "id",
          "type": "uint256"
        },
        {
          "indexed": true,
          "internalType": "address",
          "name": "buyer",
          "type": "address"
        },
        {
          "indexed": true,
          "internalType": "address",
          "name": "merchant",
          "type": "address"
        },
        {
          "indexed": false,
          "internalType": "uint256",
          "name": "principal",
          "type": "uint256"
        },
        {
          "indexed": false,
          "internalType": "uint256",
          "name": "collateral",
          "type": "uint256"
        },
        {
          "indexed": false,
          "internalType": "uint256",
          "name": "totalFee",
          "type": "uint256"
        },
        {
          "indexed": false,
          "internalType": "uint256",
          "name": "dueAt",
          "type": "uint256"
        },
        {
          "indexed": false,
          "internalType": "uint256",
          "name": "installments",
          "type": "uint256"
        }
      ],
      "name": "OrderCreated",
      "type": "event"
    },
    {
      "anonymous": false,
      "inputs": [
        {
          "indexed": true,
          "internalType": "uint256",
          "name": "id",
          "type": "uint256"
        },
        {
          "indexed": true,
          "internalType": "address",
          "name": "payer",
          "type": "address"
        },
        {
          "indexed": false,
          "internalType": "uint256",
          "name": "totalPaid",
          "type": "uint256"
        },
        {
          "indexed": false,
          "internalType": "uint256",
          "name": "feeDiscount",
          "type": "uint256"
        }
      ],
      "name": "OrderFullyRepaid",
      "type": "event"
    },
    {
      "anonymous": false,
      "inputs": [
        {
          "indexed": true,
          "internalType": "uint256",
          "name": "id",
          "type": "uint256"
        },
        {
          "indexed": false,
          "internalType": "uint256",
          "name": "seizedCollateral",
          "type": "uint256"
        }
      ],
      "name": "OrderLiquidated",
      "type": "event"
    },
    {
      "anonymous": false,
      "inputs": [
        {
          "indexed": true,
          "internalType": "address",
          "name": "previousOwner",
          "type": "address"
        },
        {
          "indexed": true,
          "internalType": "address",
          "name": "newOwner",
          "type": "address"
        }
      ],
      "name": "OwnershipTransferred",
      "type": "event"
    },
    {
      "anonymous": false,
      "inputs": [],
      "name": "ParamsUpdated",
      "type": "event"
    },
    {
      "anonymous": false,
      "inputs": [
        {
          "indexed": false,
          "internalType": "uint256",
          "name": "idx",
          "type": "uint256"
        }
      ],
      "name": "TierUpdated",
      "type": "event"
    },
    {
      "anonymous": false,
      "inputs": [
        {
          "indexed": false,
          "internalType": "address",
          "name": "oldTreasury",
          "type": "address"
        },
        {
          "indexed": false,
          "internalType": "address",
          "name": "newTreasury",
          "type": "address"
        }
      ],
      "name": "TreasuryUpdated",
      "type": "event"
    },
    {
      "inputs": [
        {
          "internalType": "uint256",
          "name": "minScore",
          "type": "uint256"
        },
        {
          "internalType": "uint16",
          "name": "collateralBps",
          "type": "uint16"
        },
        {
          "internalType": "uint16",
          "name": "feeBps",
          "type": "uint16"
        },
        {
          "internalType": "uint256",
          "name": "maxLoan",
          "type": "uint256"
        }
      ],
      "name": "addTier",
      "outputs": [],
      "stateMutability": "nonpayable",
      "type": "function"
    },
    {
      "inputs": [],
      "name": "availableLiquidity",
      "outputs": [
        {
          "internalType": "uint256",
          "name": "",
          "type": "uint256"
        }
      ],
      "stateMutability": "view",
      "type": "function"
    },
    {
      "inputs": [
        {
          "internalType": "uint256",
          "name": "purchaseAmount",
          "type": "uint256"
        },
        {
          "internalType": "address",
          "name": "merchant",
          "type": "address"
        },
        {
          "internalType": "uint256",
          "name": "dueAt",
          "type": "uint256"
        },
        {
          "internalType": "uint256",
          "name": "installments",
          "type": "uint256"
        }
      ],
      "name": "createOrder",
      "outputs": [
        {
          "internalType": "uint256",
          "name": "",
          "type": "uint256"
        }
      ],
      "stateMutability": "nonpayable",
      "type": "function"
    },
    {
      "inputs": [
        {
          "internalType": "address",
          "name": "",
          "type": "address"
        }
      ],
      "name": "creditScore",
      "outputs": [
        {
          "internalType": "uint16",
          "name": "",
          "type": "uint16"
        }
      ],
      "stateMutability": "view",
      "type": "function"
    },
    {
      "inputs": [],
      "name": "earlyRepayDiscountBps",
      "outputs": [
        {
          "internalType": "uint16",
          "name": "",
          "type": "uint16"
        }
      ],
      "stateMutability": "view",
      "type": "function"
    },
    {
      "inputs": [
        {
          "internalType": "address",
          "name": "to",
          "type": "address"
        },
        {
          "internalType": "uint256",
          "name": "amount",
          "type": "uint256"
        }
      ],
      "name": "emergencyWithdraw",
      "outputs": [],
      "stateMutability": "nonpayable",
      "type": "function"
    },
    {
      "inputs": [
        {
          "internalType": "uint256",
          "name": "amount",
          "type": "uint256"
        }
      ],
      "name": "fundLiquidity",
      "outputs": [],
      "stateMutability": "nonpayable",
      "type": "function"
    },
    {
      "inputs": [
        {
          "internalType": "uint256",
          "name": "id",
          "type": "uint256"
        }
      ],
      "name": "getOrder",
      "outputs": [
        {
          "components": [
            {
              "internalType": "address",
              "name": "buyer",
              "type": "address"
            },
            {
              "internalType": "address",
              "name": "merchant",
              "type": "address"
            },
            {
              "internalType": "uint256",
              "name": "principal",
              "type": "uint256"
            },
            {
              "internalType": "uint256",
              "name": "collateral",
              "type": "uint256"
            },
            {
              "internalType": "uint256",
              "name": "totalFee",
              "type": "uint256"
            },
            {
              "internalType": "uint256",
              "name": "createdAt",
              "type": "uint256"
            },
            {
              "internalType": "uint256",
              "name": "dueAt",
              "type": "uint256"
            },
            {
              "internalType": "uint256",
              "name": "installments",
              "type": "uint256"
            },
            {
              "internalType": "uint256",
              "name": "nominalPrincipal",
              "type": "uint256"
            },
            {
              "internalType": "uint256",
              "name": "nominalFee",
              "type": "uint256"
            },
            {
              "internalType": "uint256",
              "name": "paidPrincipal",
              "type": "uint256"
            },
            {
              "internalType": "uint256",
              "name": "paidFee",
              "type": "uint256"
            },
            {
              "internalType": "uint256",
              "name": "paidInstallments",
              "type": "uint256"
            },
            {
              "internalType": "bool",
              "name": "closed",
              "type": "bool"
            }
          ],
          "internalType": "struct IBNPLStructs.Order",
          "name": "",
          "type": "tuple"
        }
      ],
      "stateMutability": "view",
      "type": "function"
    },
    {
      "inputs": [],
      "name": "getTiersCount",
      "outputs": [
        {
          "internalType": "uint256",
          "name": "",
          "type": "uint256"
        }
      ],
      "stateMutability": "view",
      "type": "function"
    },
    {
      "inputs": [],
      "name": "lastOrderId",
      "outputs": [
        {
          "internalType": "uint256",
          "name": "",
          "type": "uint256"
        }
      ],
      "stateMutability": "view",
      "type": "function"
    },
    {
      "inputs": [
        {
          "internalType": "uint256",
          "name": "id",
          "type": "uint256"
        }
      ],
      "name": "liquidate",
      "outputs": [],
      "stateMutability": "nonpayable",
      "type": "function"
    },
    {
      "inputs": [],
      "name": "liquidateScoreDecrease",
      "outputs": [
        {
          "internalType": "uint16",
          "name": "",
          "type": "uint16"
        }
      ],
      "stateMutability": "view",
      "type": "function"
    },
    {
      "inputs": [],
      "name": "maxPurchasePerOrder",
      "outputs": [
        {
          "internalType": "uint256",
          "name": "",
          "type": "uint256"
        }
      ],
      "stateMutability": "view",
      "type": "function"
    },
    {
      "inputs": [],
      "name": "minInstallmentAmountBps",
      "outputs": [
        {
          "internalType": "uint16",
          "name": "",
          "type": "uint16"
        }
      ],
      "stateMutability": "view",
      "type": "function"
    },
    {
      "inputs": [
        {
          "internalType": "uint256",
          "name": "id",
          "type": "uint256"
        }
      ],
      "name": "nominalInstallment",
      "outputs": [
        {
          "internalType": "uint256",
          "name": "principalPart",
          "type": "uint256"
        },
        {
          "internalType": "uint256",
          "name": "feePart",
          "type": "uint256"
        }
      ],
      "stateMutability": "view",
      "type": "function"
    },
    {
      "inputs": [
        {
          "internalType": "uint256",
          "name": "",
          "type": "uint256"
        }
      ],
      "name": "orders",
      "outputs": [
        {
          "internalType": "address",
          "name": "buyer",
          "type": "address"
        },
        {
          "internalType": "address",
          "name": "merchant",
          "type": "address"
        },
        {
          "internalType": "uint256",
          "name": "principal",
          "type": "uint256"
        },
        {
          "internalType": "uint256",
          "name": "collateral",
          "type": "uint256"
        },
        {
          "internalType": "uint256",
          "name": "totalFee",
          "type": "uint256"
        },
        {
          "internalType": "uint256",
          "name": "createdAt",
          "type": "uint256"
        },
        {
          "internalType": "uint256",
          "name": "dueAt",
          "type": "uint256"
        },
        {
          "internalType": "uint256",
          "name": "installments",
          "type": "uint256"
        },
        {
          "internalType": "uint256",
          "name": "nominalPrincipal",
          "type": "uint256"
        },
        {
          "internalType": "uint256",
          "name": "nominalFee",
          "type": "uint256"
        },
        {
          "internalType": "uint256",
          "name": "paidPrincipal",
          "type": "uint256"
        },
        {
          "internalType": "uint256",
          "name": "paidFee",
          "type": "uint256"
        },
        {
          "internalType": "uint256",
          "name": "paidInstallments",
          "type": "uint256"
        },
        {
          "internalType": "bool",
          "name": "closed",
          "type": "bool"
        }
      ],
      "stateMutability": "view",
      "type": "function"
    },
    {
      "inputs": [],
      "name": "owner",
      "outputs": [
        {
          "internalType": "address",
          "name": "",
          "type": "address"
        }
      ],
      "stateMutability": "view",
      "type": "function"
    },
    {
      "inputs": [
        {
          "internalType": "uint256",
          "name": "purchaseAmount",
          "type": "uint256"
        },
        {
          "internalType": "address",
          "name": "buyer",
          "type": "address"
        }
      ],
      "name": "quote",
      "outputs": [
        {
          "internalType": "uint256",
          "name": "collateralRequired",
          "type": "uint256"
        },
        {
          "internalType": "uint256",
          "name": "totalFee",
          "type": "uint256"
        }
      ],
      "stateMutability": "view",
      "type": "function"
    },
    {
      "inputs": [],
      "name": "renounceOwnership",
      "outputs": [],
      "stateMutability": "nonpayable",
      "type": "function"
    },
    {
      "inputs": [
        {
          "internalType": "uint256",
          "name": "id",
          "type": "uint256"
        }
      ],
      "name": "repayFull",
      "outputs": [],
      "stateMutability": "nonpayable",
      "type": "function"
    },
    {
      "inputs": [
        {
          "internalType": "uint256",
          "name": "id",
          "type": "uint256"
        },
        {
          "internalType": "uint256",
          "name": "amount",
          "type": "uint256"
        }
      ],
      "name": "repayInstallment",
      "outputs": [],
      "stateMutability": "nonpayable",
      "type": "function"
    },
    {
      "inputs": [],
      "name": "repayScoreIncrease",
      "outputs": [
        {
          "internalType": "uint16",
          "name": "",
          "type": "uint16"
        }
      ],
      "stateMutability": "view",
      "type": "function"
    },
    {
      "inputs": [
        {
          "internalType": "address",
          "name": "who",
          "type": "address"
        },
        {
          "internalType": "uint16",
          "name": "score",
          "type": "uint16"
        }
      ],
      "name": "setCreditScore",
      "outputs": [],
      "stateMutability": "nonpayable",
      "type": "function"
    },
    {
      "inputs": [
        {
          "internalType": "uint16",
          "name": "bps",
          "type": "uint16"
        }
      ],
      "name": "setEarlyRepayDiscountBps",
      "outputs": [],
      "stateMutability": "nonpayable",
      "type": "function"
    },
    {
      "inputs": [
        {
          "internalType": "uint256",
          "name": "_max",
          "type": "uint256"
        }
      ],
      "name": "setMaxPurchasePerOrder",
      "outputs": [],
      "stateMutability": "nonpayable",
      "type": "function"
    },
    {
      "inputs": [
        {
          "internalType": "uint16",
          "name": "bps",
          "type": "uint16"
        }
      ],
      "name": "setMinInstallmentAmountBps",
      "outputs": [],
      "stateMutability": "nonpayable",
      "type": "function"
    },
    {
      "inputs": [
        {
          "internalType": "uint16",
          "name": "repayInc",
          "type": "uint16"
        },
        {
          "internalType": "uint16",
          "name": "liqDec",
          "type": "uint16"
        }
      ],
      "name": "setScoreDeltas",
      "outputs": [],
      "stateMutability": "nonpayable",
      "type": "function"
    },
    {
      "inputs": [
        {
          "internalType": "uint256",
          "name": "idx",
          "type": "uint256"
        },
        {
          "internalType": "uint256",
          "name": "minScore",
          "type": "uint256"
        },
        {
          "internalType": "uint16",
          "name": "collateralBps",
          "type": "uint16"
        },
        {
          "internalType": "uint16",
          "name": "feeBps",
          "type": "uint16"
        },
        {
          "internalType": "uint256",
          "name": "maxLoan",
          "type": "uint256"
        }
      ],
      "name": "setTier",
      "outputs": [],
      "stateMutability": "nonpayable",
      "type": "function"
    },
    {
      "inputs": [
        {
          "internalType": "address",
          "name": "_treasury",
          "type": "address"
        }
      ],
      "name": "setTreasury",
      "outputs": [],
      "stateMutability": "nonpayable",
      "type": "function"
    },
    {
      "inputs": [
        {
          "internalType": "uint256",
          "name": "",
          "type": "uint256"
        }
      ],
      "name": "tiers",
      "outputs": [
        {
          "internalType": "uint256",
          "name": "minScore",
          "type": "uint256"
        },
        {
          "internalType": "uint16",
          "name": "collateralBps",
          "type": "uint16"
        },
        {
          "internalType": "uint16",
          "name": "feeBps",
          "type": "uint16"
        },
        {
          "internalType": "uint256",
          "name": "maxLoan",
          "type": "uint256"
        }
      ],
      "stateMutability": "view",
      "type": "function"
    },
    {
      "inputs": [],
      "name": "token",
      "outputs": [
        {
          "internalType": "contract IERC20",
          "name": "",
          "type": "address"
        }
      ],
      "stateMutability": "view",
      "type": "function"
    },
    {
      "inputs": [
        {
          "internalType": "uint256",
          "name": "id",
          "type": "uint256"
        }
      ],
      "name": "totalDue",
      "outputs": [
        {
          "internalType": "uint256",
          "name": "",
          "type": "uint256"
        }
      ],
      "stateMutability": "view",
      "type": "function"
    },
    {
      "inputs": [
        {
          "internalType": "address",
          "name": "newOwner",
          "type": "address"
        }
      ],
      "name": "transferOwnership",
      "outputs": [],
      "stateMutability": "nonpayable",
      "type": "function"
    },
    {
      "inputs": [],
      "name": "treasury",
      "outputs": [
        {
          "internalType": "address",
          "name": "",
          "type": "address"
        }
      ],
      "stateMutability": "view",
      "type": "function"
    },
    {
      "inputs": [],
      "name": "version",
      "outputs": [
        {
          "internalType": "string",
          "name": "",
          "type": "string"
        }
      ],
      "stateMutability": "pure",
      "type": "function"
    },
    {
      "inputs": [
        {
          "internalType": "address",
          "name": "to",
          "type": "address"
        },
        {
          "internalType": "uint256",
          "name": "amount",
          "type": "uint256"
        }
      ],
      "name": "withdrawLiquidity",
      "outputs": [],
      "stateMutability": "nonpayable",
      "type": "function"
    }
  ],
  "bytecode": "0x60a034620002d557601f6200292938819003918201601f191683019291906001600160401b03841183851017620002da57816101009284926040968752833981010312620002d557620000528162000310565b602080830151909290916001600160a01b039190828416808503620002d5576200007e87840162000310565b91606084015195620000936080860162000325565b95620000a260a0870162000325565b94620000bf60e0620000b760c08a0162000325565b980162000325565b94620000cb33620003ba565b6001805515620002a75716908115620002765761ffff92838516801515908162000268575b50156200023b579365ffff0000000093600a98969363ffff0000936200011d620001e59d9c9a98620003ba565b60805260018060a01b031960025416176002558760035567ffff0000000000006007549260301b1696169060018060401b031916179160101b161791861b1617176007556200018d6200016f620002f0565b6102ee81526107d08582015260c88782015282606082015262000335565b620001bd6200019b620002f0565b6102588152610fa085820152610190878201528260011c606082015262000335565b611f40620001ca620002f0565b93600085528401526103208584015204606082015262000335565b5161252790816200040282396080518181816101c1015281816103dd015281816107e901528181610aec01528181611041015281816111630152818161134401528181611da90152818161203201526122680152f35b8a5162461bcd60e51b8152600481018b905260066024820152656d696e42707360d01b6044820152606490fd5b6127109150111538620000f0565b895162461bcd60e51b8152600481018a9052600a602482015269074726561737572793d360b41b6044820152606490fd5b8a5162461bcd60e51b8152600481018b905260076024820152660746f6b656e3d360cc1b6044820152606490fd5b600080fd5b634e487b7160e01b600052604160045260246000fd5b60405190608082016001600160401b03811183821017620002da57604052565b51906001600160a01b0382168203620002d557565b519061ffff82168203620002d557565b60065468010000000000000000811015620002da576001810180600655811015620003a457606060029160066000526003602060002091020192805184556001840161ffff60208301511681549063ffff0000604085015160101b169163ffffffff1916171790550151910155565b634e487b7160e01b600052603260045260246000fd5b600080546001600160a01b039283166001600160a01b03198216811783559216907f8be0079c531659141344cd1fd0a4f28419497f9722a3daafe3b4186f6b6457e09080a356fe608080604052600436101561001357600080fd5b60003560e01c90816301f28d911461163557508063039af9eb146115db57806306d47de91461156357806313b0be33146115315780631dd0c13f1461150f578063285eb37314611468578063328efc47146110d55780633a5d8d6c1461109d578063415f124014610f0957806344dac75b14610eb657806354fd4d5014610e5c5780635662ecc714610e3e57806361d027b314610e15578063715018a614610dbc57806373c5ca0914610cb35780637437535914610c98578063752df2db14610b9c578063784aee3514610b685780637d52722014610b3b5780638da5cb5b14610b1257806395ccea6714610aae5780639c21c3a114610a8a578063a8311c3b14610a65578063a85c38ef14610996578063a8841db914610971578063be02075214610914578063be62e7df1461073c578063d09ef2411461056a578063e02ef56514610477578063e5eeb32c14610451578063ec14476f14610433578063f0f437b6146103a6578063f0f44260146102fc578063f2fde38b14610233578063f7e590ee146101f55763fc0c546a146101ab57600080fd5b346101f05760003660031901126101f0576040517f00000000000000000000000000000000000000000000000000000000000000006001600160a01b03168152602090f35b600080fd5b346101f05760203660031901126101f0576001600160a01b036102166116a1565b166000526005602052602061ffff60406000205416604051908152f35b346101f05760203660031901126101f05761024c6116a1565b610254611749565b6001600160a01b039081169081156102a857600054826bffffffffffffffffffffffff60a01b821617600055167f8be0079c531659141344cd1fd0a4f28419497f9722a3daafe3b4186f6b6457e0600080a3005b60405162461bcd60e51b815260206004820152602660248201527f4f776e61626c653a206e6577206f776e657220697320746865207a65726f206160448201526564647265737360d01b6064820152608490fd5b346101f05760203660031901126101f0576103156116a1565b61031d611749565b6001600160a01b03908116908115610374577f4ab5be82436d353e61ca18726e984e561f5c1cc7c6d38b29d2553c790434705a60406002549281519084168152846020820152a16001600160a01b03191617600255005b60405162461bcd60e51b815260206004820152600a602482015269074726561737572793d360b41b6044820152606490fd5b346101f05760203660031901126101f0576004356103c2611749565b6103ca6118ea565b6103d58115156118b3565b6104018130337f0000000000000000000000000000000000000000000000000000000000000000611940565b6040519081527fbb9e497a5b82d1a37f9496dd70c6efb97ba0d98c66c3422d05010105d063359860203392a260018055005b346101f05760003660031901126101f0576020600354604051908152f35b346101f05760203660031901126101f057602061046f6004356122de565b604051908152f35b346101f05760a03660031901126101f0576004356104936116ef565b6064359161ffff918284168094036101f0576104ad611749565b60065482101561053f577ffe2efe9272eb0deb4938823c5d646855a80e10848bf50af99ef34310d8f92b8d9360209361052b9216906104f9612710808411159081610534575b506117a1565b60405191610506836117f6565b6024358352858301526040820152608435606082015261052583611650565b90611850565b604051908152a1005b9050821115886104f3565b60405162461bcd60e51b81526020600482015260036024820152620d2c8f60eb1b6044820152606490fd5b346101f05760203660031901126101f05760006101a060405161058c816117d9565b8281528260208201528260408201528260608201528260808201528260a08201528260c08201528260e08201528261010082015282610120820152826101408201528261016082015282610180820152015260043560005260086020526101c060406000206101a0604051610600816117d9565b60ff600d60018060a01b038554169485845260018060a01b036001820154166020850152600281015460408501526003810154606085015260048101546080850152600581015460a0850152600681015460c0850152600781015460e085015260088101546101008501526009810154610120850152600a810154610140850152600b810154610160850152600c81015461018085015201541615158282015260405192835260018060a01b03602082015116602084015260408101516040840152606081015160608401526080810151608084015260a081015160a084015260c081015160c084015260e081015160e0840152610100810151610100840152610120810151610120840152610140810151610140840152610160810151610160840152610180810151610180840152015115156101a0820152f35b346101f05760203660031901126101f0576004356107586118ea565b806000526008602052604060002090600d82019161077a60ff84541615611c18565b80546001600160a01b0393906107939085163314611c4d565b6107a36006830154421115611c85565b6002820154936107b9600a8401958654906118a6565b926004810154926107d0600b8301948554906118a6565b946107db8682611beb565b976107e7891515611cbb565b7f0000000000000000000000000000000000000000000000000000000000000000916108158a303386611940565b60009661ffff60075460201c16806108f3575b5090610842918961086d999a6108b9575b50508254611beb565b90556003830154806108a4575b50506007820154600c830155805460ff19166001179055541661218f565b60405192835260208301527feb0a2406213f12fe23f25f04c31b79ef4f7d9cee2889324c2b86a06f35142f3c60403393a360018055005b6108b2918585541690611bad565b878061084f565b806108c78c6108d5936118a6565b806108de575b508254611beb565b90558b80610839565b6108ed908b6002541689611bad565b8e6108cd565b61086d98509061271061090a61084294938c61217c565b0498509091610828565b346101f05760403660031901126101f05761092d6116cd565b6109356116de565b61093d611749565b61ffff63ffff00006007549260101b1692169063ffffffff191617176007556000805160206124b2833981519152600080a1005b346101f05760003660031901126101f057602061ffff60075460101c16604051908152f35b346101f05760203660031901126101f05760043560005260086020526101c0604060002060018060a01b039081815416916001820154169060028101546003820154600483015460058401546006850154600786015490600887015492600988015494600a89015496600b8a01549860ff600d600c8d01549c0154169b60206040519e8f908152015260408d015260608c015260808b015260a08a015260c089015260e088015261010087015261012086015261014085015261016084015261018083015215156101a0820152f35b346101f05760003660031901126101f057602061ffff60075460301c16604051908152f35b346101f05760003660031901126101f057602060075461ffff60405191831c168152f35b346101f05760403660031901126101f057610b10610aca6116a1565b610ad2611749565b610ae66001600160a01b0382161515611b7b565b602435907f0000000000000000000000000000000000000000000000000000000000000000611bad565b005b346101f05760003660031901126101f0576000546040516001600160a01b039091168152602090f35b346101f05760403660031901126101f057610b546118ea565b610b62602435600435611cf5565b60018055005b346101f05760203660031901126101f057610b81611749565b6004356003556000805160206124b2833981519152600080a1005b346101f05760403660031901126101f057610bb56116a1565b610bbd6116de565b90610bc6611749565b6001600160a01b0316908115610c6b5761ffff8082166103e88111610c3957610c346000805160206124d283398151915293856000526005602052604060002080549361ffff198516179055604051938493168390602090939293604083019461ffff809216845216910152565b0390a2005b60405162461bcd60e51b815260206004820152600a602482015269073636f72653e313030360b41b6044820152606490fd5b60405162461bcd60e51b8152602060048201526005602482015264077686f3d360dc1b6044820152606490fd5b346101f05760003660031901126101f057602061046f61224d565b346101f05760803660031901126101f057610ccc6116de565b610cd46116ef565b90610cdd611749565b61ffff80911691610cfa612710808511159081610daf57506117a1565b60405192610d07846117f6565b6004358452602084015216604082015260643560608201526006549068010000000000000000821015610d9957610525826001610d479401600655611650565b6006546000198101908111610d835760207ffe2efe9272eb0deb4938823c5d646855a80e10848bf50af99ef34310d8f92b8d91604051908152a1005b634e487b7160e01b600052601160045260246000fd5b634e487b7160e01b600052604160045260246000fd5b90508383161115856104f3565b346101f05760003660031901126101f057610dd5611749565b600080546001600160a01b0319811682556001600160a01b03167f8be0079c531659141344cd1fd0a4f28419497f9722a3daafe3b4186f6b6457e08280a3005b346101f05760003660031901126101f0576002546040516001600160a01b039091168152602090f35b346101f05760003660031901126101f0576020600454604051908152f35b346101f05760003660031901126101f057610eb2604051610e7c81611812565b601d81527f424e504c496e7374616c6c6d656e747350726f72617465642076312e30000000602082015260405191829182611700565b0390f35b346101f05760203660031901126101f057610ecf6116cd565b610ed7611749565b65ffff000000006007549160201b169065ffff000000001916176007556000805160206124b2833981519152600080a1005b346101f0576020806003193601126101f05760043590610f276118ea565b81600052600881526040600020600d810190610f4760ff83541615611c18565b600681015442111561106a57908160037f3c24207173ca3400f76eac3fa0d6f98e2ab53c0e661e5de8c3d9386b0249df3294930154918261102d575b805460ff19166001179055546001600160a01b031660008181526005845260409020546007546000805160206124d28339815191529161ffff9081169160101c81168083111561102557610fd790836118a6565b1690836000526005865260406000208261ffff198254161790556110156040519283928390602090939293604083019461ffff809216845216910152565b0390a2604051908152a260018055005b506000610fd7565b6002546110659084906001600160a01b03167f0000000000000000000000000000000000000000000000000000000000000000611bad565b610f83565b60405162461bcd60e51b815260048101849052600b60248201526a6e6f74206f76657264756560a81b6044820152606490fd5b346101f05760203660031901126101f05760043560005260086020526040806000206009600882015491015482519182526020820152f35b346101f05760803660031901126101f0576004356110f16116b7565b60649160449190833583356111046118ea565b6001600160a01b038416938415611438576111208415156118b3565b4282111561140857600183106113d35760035484116113a2576111433385612331565b9790968561114f61224d565b1061136d57505083611187918761133c575b7f0000000000000000000000000000000000000000000000000000000000000000611bad565b60045495600187018711610d83578660016020980160045560016111ab8587611bf8565b916111b68685611bf8565b604051936111c3856117d9565b338552898c8601528860408601528a60608601528560808601524260a08601528660c08601528760e086015261010085015261012084015260006101408401526000610160840152600061018084015260006101a084015201600052600888526101a0600d604060002060018060a01b038451166bffffffffffffffffffffffff60a01b9081835416178255600182019060018060a01b038d870151169082541617905560408401516002820155606084015160038201556080840151600482015560a0840151600582015560c0840151600682015560e0840151600782015561010084015160088201556101208401516009820155610140840151600a820155610160840151600b820155610180840151600c82015501910151151560ff801983541691161790556004549560405194855287850152604084015260608301526080820152827f7111179a6dc4e2e1d73cfbdd46690bffab838320ecaccd2d7836bd095f362ec960a03393a460018055604051908152f35b6113688830337f0000000000000000000000000000000000000000000000000000000000000000611940565b611161565b701a5b9cdd59999a58da595b9d081c1bdbdb607a1b6040519162461bcd60e51b83526020600484015260116024840152820152fd5b60405162461bcd60e51b815260206004820152600b60248201526a065786365656473206361760ac1b818801528790fd5b60405162461bcd60e51b815260206004820152600f60248201526e696e7374616c6c6d656e74733e3d3160881b818801528790fd5b60405162461bcd60e51b815260206004820152600a60248201526964756541743c3d6e6f7760b01b818801528790fd5b60405162461bcd60e51b815260206004820152600a60248201526906d65726368616e743d360b41b818801528790fd5b346101f05760203660031901126101f0576114816116cd565b611489611749565b61ffff81168015159081611502575b50156114d45767ffff0000000000006007549160301b169067ffff0000000000001916176007556000805160206124b2833981519152600080a1005b60405162461bcd60e51b81526020600482015260066024820152656d696e42707360d01b6044820152606490fd5b6127109150111582611498565b346101f05760003660031901126101f057602061ffff60075416604051908152f35b346101f05760403660031901126101f057604061155761154f6116b7565b600435612331565b82519182526020820152f35b346101f05760403660031901126101f05761157c6116a1565b7fb1cce8684b4ffa8667b4577654e61ee3480d661ee9c27522ac80e211f6bd4d2560206024356115aa611749565b6115b26118ea565b6001600160a01b038416936115ce908290611161871515611b7b565b604051908152a260018055005b346101f05760203660031901126101f0576004356006548110156101f057611604608091611650565b50805490600260018201549101549060405192835261ffff90818116602085015260101c1660408301526060820152f35b346101f05760003660031901126101f0576020906006548152f35b60065481101561168b576003906006600052027ff652222313e28459528d920b65115c16c04f3efc82aaedc97be59f3f377c0d3f0190600090565b634e487b7160e01b600052603260045260246000fd5b600435906001600160a01b03821682036101f057565b602435906001600160a01b03821682036101f057565b6004359061ffff821682036101f057565b6024359061ffff821682036101f057565b6044359061ffff821682036101f057565b6020808252825181830181905290939260005b82811061173557505060409293506000838284010152601f8019910116010190565b818101860151848201604001528501611713565b6000546001600160a01b0316330361175d57565b606460405162461bcd60e51b815260206004820152602060248201527f4f776e61626c653a2063616c6c6572206973206e6f7420746865206f776e65726044820152fd5b156117a857565b60405162461bcd60e51b815260206004820152600960248201526806270733e31303030360bc1b6044820152606490fd5b6101c0810190811067ffffffffffffffff821117610d9957604052565b6080810190811067ffffffffffffffff821117610d9957604052565b6040810190811067ffffffffffffffff821117610d9957604052565b90601f8019910116810190811067ffffffffffffffff821117610d9957604052565b9190611890576060816002925184556001840161ffff60208301511681549063ffff0000604085015160101b169163ffffffff1916171790550151910155565b634e487b7160e01b600052600060045260246000fd5b91908203918211610d8357565b156118ba57565b60405162461bcd60e51b81526020600482015260086024820152670616d6f756e743d360c41b6044820152606490fd5b6002600154146118fb576002600155565b60405162461bcd60e51b815260206004820152601f60248201527f5265656e7472616e637947756172643a207265656e7472616e742063616c6c006044820152606490fd5b6040516323b872dd60e01b60208201526001600160a01b03928316602482015292909116604483015260648083019390935291815260a081019181831067ffffffffffffffff841117610d99576119999260405261199b565b565b60018060a01b0316906040516119b081611812565b6020928382527f5361666545524332303a206c6f772d6c6576656c2063616c6c206661696c6564848301526000808486829651910182855af13d15611adc573d9167ffffffffffffffff8311611ac85790611a2b93929160405192611a1e88601f19601f840116018561182e565b83523d868885013e611ae6565b805191821591848315611a9d575b505050905015611a465750565b6084906040519062461bcd60e51b82526004820152602a60248201527f5361666545524332303a204552433230206f7065726174696f6e20646964206e6044820152691bdd081cdd58d8d9595960b21b6064820152fd5b919381809450010312611ac457820151908115158203611ac1575080388084611a39565b80fd5b5080fd5b634e487b7160e01b85526041600452602485fd5b90611a2b92916060915b91929015611b485750815115611afa575090565b3b15611b035790565b60405162461bcd60e51b815260206004820152601d60248201527f416464726573733a2063616c6c20746f206e6f6e2d636f6e74726163740000006044820152606490fd5b825190915015611b5b5750805190602001fd5b60405162461bcd60e51b8152908190611b779060048301611700565b0390fd5b15611b8257565b606460405162461bcd60e51b81526020600482015260046024820152630746f3d360e41b6044820152fd5b60405163a9059cbb60e01b60208201526001600160a01b03909216602483015260448083019390935291815261199991611be6826117f6565b61199b565b91908201809211610d8357565b8115611c02570490565b634e487b7160e01b600052601260045260246000fd5b15611c1f57565b60405162461bcd60e51b815260206004820152600660248201526518db1bdcd95960d21b6044820152606490fd5b15611c5457565b60405162461bcd60e51b81526020600482015260096024820152683737ba10313abcb2b960b91b6044820152606490fd5b15611c8c57565b60405162461bcd60e51b81526020600482015260076024820152666f76657264756560c81b6044820152606490fd5b15611cc257565b60405162461bcd60e51b815260206004820152600b60248201526a6e6f7468696e672064756560a81b6044820152606490fd5b60008181526020906008825260409081812092600d840193611d1b60ff86541615611c18565b80546001600160a01b0390611d339082163314611c4d565b60068201611d448154421115611c85565b611d4f8915156118b3565b611d58886122de565b90611d64821515611cbb565b818a10156120095750506008820190815492611d866009820194855490611beb565b93612710611d9f61ffff968760075460301c169061217c565b048b10611fd2578a7f000000000000000000000000000000000000000000000000000000000000000094611dd582303389611940565b611e066004850193845493611df0600b8801958654906118a6565b915491808311611fca575b5081611fa9576118a6565b91600285015491611e2f600a8701948554611e2181876118a6565b808311611fa1575b50611beb565b8094555480611f76575b5054918d8b51908152818a820152838c8201528d7f6c2ad965418e364223fcc71b275f3b0aff554a3a01def28c4eb08366671dba8460603393a310159182611f6a575b5050611e8f575b50505050505050505050565b7feb0a2406213f12fe23f25f04c31b79ef4f7d9cee2889324c2b86a06f35142f3c976000805160206124d283398151915293600383015480611f55575b5050600160ff198254161790555416918285526005845280868620541690611ef8816007541683611beb565b6103e8808211611f4d575b5084875260058652878720805461ffff1916929091169182179055865161ffff928316815291166020820152604090a282519586528501523393a338808080808080808080611e83565b905038611f03565b611f63918585541690611bad565b3880611ecc565b54111590503880611e7c565b611f809084611bf8565b6007860154808211611f99575b50600c86015538611e39565b905038611f8d565b915038611e29565b611fb88289600254168b611bad565b611fc3828654611beb565b85556118a6565b915038611dfb565b875162461bcd60e51b815260048101879052601060248201526f185b5bdd5b9d081d1bdbc81cdb585b1b60821b6044820152606490fd5b93929098507feb0a2406213f12fe23f25f04c31b79ef4f7d9cee2889324c2b86a06f35142f3c967f00000000000000000000000000000000000000000000000000000000000000009561205e8b30338a611940565b600483015490612074600b8501928354906118a6565b9060028501549861208b600a87019a8b54906118a6565b9198544211158061216b575b612138575b986120c483926120eb999a9b6120cd9561210d575b6003890154806120f85750508254611beb565b90558254611beb565b90556007820154600c830155805460ff19166001179055541661218f565b82519586528501523393a3565b612106918b8b541690611bad565b3880610839565b6121178d866118a6565b80612123575b506120b1565b612132908b6002541683611bad565b3861211d565b988798506120c46120cd939261271061215d61ffff6120eb9c600754901c168661217c565b049a9950929350509861209c565b5061ffff600754891c161515612097565b81810292918115918404141715610d8357565b60018060a01b03168060005260056020526000805160206124d283398151915261ffff8060406000205416906121d7600754828082169160201c168061222f575b5083611beb565b6103e8808211612227575b50169083600052600560205260406000208261ffff198254161790556122226040519283928390602090939293604083019461ffff809216845216910152565b0390a2565b9050386121e2565b90612710612240612247938361217c565b0490611beb565b386121d0565b6040516370a0823160e01b81523060048201526020816024817f00000000000000000000000000000000000000000000000000000000000000006001600160a01b03165afa9081156122d2576000916122a4575090565b906020823d82116122ca575b816122bd6020938361182e565b81010312611ac157505190565b3d91506122b0565b6040513d6000823e3d90fd5b6000526008602052604060002060ff600d8201541661232b57806123226123116002612328940154600a840154906118a6565b91600b6004820154910154906118a6565b90611beb565b90565b50600090565b9061233b906123e8565b90606082015181116123735761236f6127109161ffff602084612364836040890151168561217c565b04950151169061217c565b0491565b60405162461bcd60e51b815260206004820152601560248201527432bc31b2b2b239903a34b2b91036b0bc103637b0b760591b6044820152606490fd5b906040516123bd816117f6565b60606002829480548452600181015461ffff90818116602087015260101c1660408501520154910152565b6060906040516123f7816117f6565b6000928184809352826020820152826040820152015260018060a01b03168152600560205261ffff604082205416908091600654925b8381106124695750506000198201918211612455575061244f61232891611650565b506123b0565b634e487b7160e01b81526011600452602490fd5b61247281611650565b50548210156124a057600019811461248c5760010161242d565b634e487b7160e01b83526011600452602483fd5b9050612328925061244f915061165056fe4e5005547c24dfd12003c2845fd20f2071c49fa3cd30b0be7a064e3f4c3f8d2af0476f83a777b892446c4939723caba7d89f8de16505f4dfe3c17f8b1dda4868a26469706673582212205fcf300d9d1103db72b3c5e7210f3569b17ff8e92b5d52aa62309128ae3b41ee64736f6c63430008120033",
  "linkReferences": {},
  "deployedLinkReferences": {}
}