{
  "_format": "hh-sol-artifact-1",
  "contractName": "BNPLRepayments",
  "sourceName": "src/buy-now-pay-later/BNPLRepayments.sol",
  "abi": [
    {
      "inputs": [
        {
          "internalType": "address",
          "name": "initialOwner",
          "type": "address"
        },
        {
          "internalType": "contract IERC20",
          "name": "_token",
          "type": "address"
        },
        {
          "internalType": "address",
          "name": "_treasury",
          "type": "address"
        },
        {
          "internalType": "uint256",
          "name": "_maxPurchasePerOrder",
          "type": "uint256"
        },
        {
          "internalType": "uint16",
          "name": "_repayScoreIncrease",
          "type": "uint16"
        },
        {
          "internalType": "uint16",
          "name": "_liquidateScoreDecrease",
          "type": "uint16"
        },
        {
          "internalType": "uint16",
          "name": "_earlyRepayDiscountBps",
          "type": "uint16"
        },
        {
          "internalType": "uint16",
          "name": "_minInstallmentAmountBps",
          "type": "uint16"
        }
      ],
      "stateMutability": "nonpayable",
      "type": "constructor"
    },
    {
      "anonymous": false,
      "inputs": [
        {
          "indexed": true,
          "internalType": "address",
          "name": "who",
          "type": "address"
        },
        {
          "indexed": false,
          "internalType": "uint16",
          "name": "oldScore",
          "type": "uint16"
        },
        {
          "indexed": false,
          "internalType": "uint16",
          "name": "newScore",
          "type": "uint16"
        }
      ],
      "name": "CreditScoreUpdated",
      "type": "event"
    },
    {
      "anonymous": false,
      "inputs": [
        {
          "indexed": true,
          "internalType": "uint256",
          "name": "id",
          "type": "uint256"
        },
        {
          "indexed": true,
          "internalType": "address",
          "name": "payer",
          "type": "address"
        },
        {
          "indexed": false,
          "internalType": "uint256",
          "name": "amount",
          "type": "uint256"
        },
        {
          "indexed": false,
          "internalType": "uint256",
          "name": "paidPrincipal",
          "type": "uint256"
        },
        {
          "indexed": false,
          "internalType": "uint256",
          "name": "paidFee",
          "type": "uint256"
        }
      ],
      "name": "InstallmentPaid",
      "type": "event"
    },
    {
      "anonymous": false,
      "inputs": [
        {
          "indexed": true,
          "internalType": "address",
          "name": "from",
          "type": "address"
        },
        {
          "indexed": false,
          "internalType": "uint256",
          "name": "amount",
          "type": "uint256"
        }
      ],
      "name": "LiquidityFunded",
      "type": "event"
    },
    {
      "anonymous": false,
      "inputs": [
        {
          "indexed": true,
          "internalType": "address",
          "name": "to",
          "type": "address"
        },
        {
          "indexed": false,
          "internalType": "uint256",
          "name": "amount",
          "type": "uint256"
        }
      ],
      "name": "LiquidityWithdrawn",
      "type": "event"
    },
    {
      "anonymous": false,
      "inputs": [
        {
          "indexed": true,
          "internalType": "uint256",
          "name": "id",
          "type": "uint256"
        },
        {
          "indexed": true,
          "internalType": "address",
          "name": "buyer",
          "type": "address"
        },
        {
          "indexed": true,
          "internalType": "address",
          "name": "merchant",
          "type": "address"
        },
        {
          "indexed": false,
          "internalType": "uint256",
          "name": "principal",
          "type": "uint256"
        },
        {
          "indexed": false,
          "internalType": "uint256",
          "name": "collateral",
          "type": "uint256"
        },
        {
          "indexed": false,
          "internalType": "uint256",
          "name": "totalFee",
          "type": "uint256"
        },
        {
          "indexed": false,
          "internalType": "uint256",
          "name": "dueAt",
          "type": "uint256"
        },
        {
          "indexed": false,
          "internalType": "uint256",
          "name": "installments",
          "type": "uint256"
        }
      ],
      "name": "OrderCreated",
      "type": "event"
    },
    {
      "anonymous": false,
      "inputs": [
        {
          "indexed": true,
          "internalType": "uint256",
          "name": "id",
          "type": "uint256"
        },
        {
          "indexed": true,
          "internalType": "address",
          "name": "payer",
          "type": "address"
        },
        {
          "indexed": false,
          "internalType": "uint256",
          "name": "totalPaid",
          "type": "uint256"
        },
        {
          "indexed": false,
          "internalType": "uint256",
          "name": "feeDiscount",
          "type": "uint256"
        }
      ],
      "name": "OrderFullyRepaid",
      "type": "event"
    },
    {
      "anonymous": false,
      "inputs": [
        {
          "indexed": true,
          "internalType": "uint256",
          "name": "id",
          "type": "uint256"
        },
        {
          "indexed": false,
          "internalType": "uint256",
          "name": "seizedCollateral",
          "type": "uint256"
        }
      ],
      "name": "OrderLiquidated",
      "type": "event"
    },
    {
      "anonymous": false,
      "inputs": [
        {
          "indexed": true,
          "internalType": "address",
          "name": "previousOwner",
          "type": "address"
        },
        {
          "indexed": true,
          "internalType": "address",
          "name": "newOwner",
          "type": "address"
        }
      ],
      "name": "OwnershipTransferred",
      "type": "event"
    },
    {
      "anonymous": false,
      "inputs": [],
      "name": "ParamsUpdated",
      "type": "event"
    },
    {
      "anonymous": false,
      "inputs": [
        {
          "indexed": false,
          "internalType": "uint256",
          "name": "idx",
          "type": "uint256"
        }
      ],
      "name": "TierUpdated",
      "type": "event"
    },
    {
      "anonymous": false,
      "inputs": [
        {
          "indexed": false,
          "internalType": "address",
          "name": "oldTreasury",
          "type": "address"
        },
        {
          "indexed": false,
          "internalType": "address",
          "name": "newTreasury",
          "type": "address"
        }
      ],
      "name": "TreasuryUpdated",
      "type": "event"
    },
    {
      "inputs": [
        {
          "internalType": "uint256",
          "name": "minScore",
          "type": "uint256"
        },
        {
          "internalType": "uint16",
          "name": "collateralBps",
          "type": "uint16"
        },
        {
          "internalType": "uint16",
          "name": "feeBps",
          "type": "uint16"
        },
        {
          "internalType": "uint256",
          "name": "maxLoan",
          "type": "uint256"
        }
      ],
      "name": "addTier",
      "outputs": [],
      "stateMutability": "nonpayable",
      "type": "function"
    },
    {
      "inputs": [],
      "name": "availableLiquidity",
      "outputs": [
        {
          "internalType": "uint256",
          "name": "",
          "type": "uint256"
        }
      ],
      "stateMutability": "view",
      "type": "function"
    },
    {
      "inputs": [
        {
          "internalType": "uint256",
          "name": "purchaseAmount",
          "type": "uint256"
        },
        {
          "internalType": "address",
          "name": "merchant",
          "type": "address"
        },
        {
          "internalType": "uint256",
          "name": "dueAt",
          "type": "uint256"
        },
        {
          "internalType": "uint256",
          "name": "installments",
          "type": "uint256"
        }
      ],
      "name": "createOrder",
      "outputs": [
        {
          "internalType": "uint256",
          "name": "",
          "type": "uint256"
        }
      ],
      "stateMutability": "nonpayable",
      "type": "function"
    },
    {
      "inputs": [
        {
          "internalType": "address",
          "name": "",
          "type": "address"
        }
      ],
      "name": "creditScore",
      "outputs": [
        {
          "internalType": "uint16",
          "name": "",
          "type": "uint16"
        }
      ],
      "stateMutability": "view",
      "type": "function"
    },
    {
      "inputs": [],
      "name": "earlyRepayDiscountBps",
      "outputs": [
        {
          "internalType": "uint16",
          "name": "",
          "type": "uint16"
        }
      ],
      "stateMutability": "view",
      "type": "function"
    },
    {
      "inputs": [
        {
          "internalType": "address",
          "name": "to",
          "type": "address"
        },
        {
          "internalType": "uint256",
          "name": "amount",
          "type": "uint256"
        }
      ],
      "name": "emergencyWithdraw",
      "outputs": [],
      "stateMutability": "nonpayable",
      "type": "function"
    },
    {
      "inputs": [
        {
          "internalType": "uint256",
          "name": "amount",
          "type": "uint256"
        }
      ],
      "name": "fundLiquidity",
      "outputs": [],
      "stateMutability": "nonpayable",
      "type": "function"
    },
    {
      "inputs": [
        {
          "internalType": "uint256",
          "name": "id",
          "type": "uint256"
        }
      ],
      "name": "getOrder",
      "outputs": [
        {
          "components": [
            {
              "internalType": "address",
              "name": "buyer",
              "type": "address"
            },
            {
              "internalType": "address",
              "name": "merchant",
              "type": "address"
            },
            {
              "internalType": "uint256",
              "name": "principal",
              "type": "uint256"
            },
            {
              "internalType": "uint256",
              "name": "collateral",
              "type": "uint256"
            },
            {
              "internalType": "uint256",
              "name": "totalFee",
              "type": "uint256"
            },
            {
              "internalType": "uint256",
              "name": "createdAt",
              "type": "uint256"
            },
            {
              "internalType": "uint256",
              "name": "dueAt",
              "type": "uint256"
            },
            {
              "internalType": "uint256",
              "name": "installments",
              "type": "uint256"
            },
            {
              "internalType": "uint256",
              "name": "nominalPrincipal",
              "type": "uint256"
            },
            {
              "internalType": "uint256",
              "name": "nominalFee",
              "type": "uint256"
            },
            {
              "internalType": "uint256",
              "name": "paidPrincipal",
              "type": "uint256"
            },
            {
              "internalType": "uint256",
              "name": "paidFee",
              "type": "uint256"
            },
            {
              "internalType": "uint256",
              "name": "paidInstallments",
              "type": "uint256"
            },
            {
              "internalType": "bool",
              "name": "closed",
              "type": "bool"
            }
          ],
          "internalType": "struct IBNPLStructs.Order",
          "name": "",
          "type": "tuple"
        }
      ],
      "stateMutability": "view",
      "type": "function"
    },
    {
      "inputs": [],
      "name": "getTiersCount",
      "outputs": [
        {
          "internalType": "uint256",
          "name": "",
          "type": "uint256"
        }
      ],
      "stateMutability": "view",
      "type": "function"
    },
    {
      "inputs": [],
      "name": "lastOrderId",
      "outputs": [
        {
          "internalType": "uint256",
          "name": "",
          "type": "uint256"
        }
      ],
      "stateMutability": "view",
      "type": "function"
    },
    {
      "inputs": [
        {
          "internalType": "uint256",
          "name": "id",
          "type": "uint256"
        }
      ],
      "name": "liquidate",
      "outputs": [],
      "stateMutability": "nonpayable",
      "type": "function"
    },
    {
      "inputs": [],
      "name": "liquidateScoreDecrease",
      "outputs": [
        {
          "internalType": "uint16",
          "name": "",
          "type": "uint16"
        }
      ],
      "stateMutability": "view",
      "type": "function"
    },
    {
      "inputs": [],
      "name": "maxPurchasePerOrder",
      "outputs": [
        {
          "internalType": "uint256",
          "name": "",
          "type": "uint256"
        }
      ],
      "stateMutability": "view",
      "type": "function"
    },
    {
      "inputs": [],
      "name": "minInstallmentAmountBps",
      "outputs": [
        {
          "internalType": "uint16",
          "name": "",
          "type": "uint16"
        }
      ],
      "stateMutability": "view",
      "type": "function"
    },
    {
      "inputs": [
        {
          "internalType": "uint256",
          "name": "id",
          "type": "uint256"
        }
      ],
      "name": "nominalInstallment",
      "outputs": [
        {
          "internalType": "uint256",
          "name": "principalPart",
          "type": "uint256"
        },
        {
          "internalType": "uint256",
          "name": "feePart",
          "type": "uint256"
        }
      ],
      "stateMutability": "view",
      "type": "function"
    },
    {
      "inputs": [
        {
          "internalType": "uint256",
          "name": "",
          "type": "uint256"
        }
      ],
      "name": "orders",
      "outputs": [
        {
          "internalType": "address",
          "name": "buyer",
          "type": "address"
        },
        {
          "internalType": "address",
          "name": "merchant",
          "type": "address"
        },
        {
          "internalType": "uint256",
          "name": "principal",
          "type": "uint256"
        },
        {
          "internalType": "uint256",
          "name": "collateral",
          "type": "uint256"
        },
        {
          "internalType": "uint256",
          "name": "totalFee",
          "type": "uint256"
        },
        {
          "internalType": "uint256",
          "name": "createdAt",
          "type": "uint256"
        },
        {
          "internalType": "uint256",
          "name": "dueAt",
          "type": "uint256"
        },
        {
          "internalType": "uint256",
          "name": "installments",
          "type": "uint256"
        },
        {
          "internalType": "uint256",
          "name": "nominalPrincipal",
          "type": "uint256"
        },
        {
          "internalType": "uint256",
          "name": "nominalFee",
          "type": "uint256"
        },
        {
          "internalType": "uint256",
          "name": "paidPrincipal",
          "type": "uint256"
        },
        {
          "internalType": "uint256",
          "name": "paidFee",
          "type": "uint256"
        },
        {
          "internalType": "uint256",
          "name": "paidInstallments",
          "type": "uint256"
        },
        {
          "internalType": "bool",
          "name": "closed",
          "type": "bool"
        }
      ],
      "stateMutability": "view",
      "type": "function"
    },
    {
      "inputs": [],
      "name": "owner",
      "outputs": [
        {
          "internalType": "address",
          "name": "",
          "type": "address"
        }
      ],
      "stateMutability": "view",
      "type": "function"
    },
    {
      "inputs": [
        {
          "internalType": "uint256",
          "name": "purchaseAmount",
          "type": "uint256"
        },
        {
          "internalType": "address",
          "name": "buyer",
          "type": "address"
        }
      ],
      "name": "quote",
      "outputs": [
        {
          "internalType": "uint256",
          "name": "collateralRequired",
          "type": "uint256"
        },
        {
          "internalType": "uint256",
          "name": "totalFee",
          "type": "uint256"
        }
      ],
      "stateMutability": "view",
      "type": "function"
    },
    {
      "inputs": [],
      "name": "renounceOwnership",
      "outputs": [],
      "stateMutability": "nonpayable",
      "type": "function"
    },
    {
      "inputs": [
        {
          "internalType": "uint256",
          "name": "id",
          "type": "uint256"
        }
      ],
      "name": "repayFull",
      "outputs": [],
      "stateMutability": "nonpayable",
      "type": "function"
    },
    {
      "inputs": [
        {
          "internalType": "uint256",
          "name": "id",
          "type": "uint256"
        },
        {
          "internalType": "uint256",
          "name": "amount",
          "type": "uint256"
        }
      ],
      "name": "repayInstallment",
      "outputs": [],
      "stateMutability": "nonpayable",
      "type": "function"
    },
    {
      "inputs": [],
      "name": "repayScoreIncrease",
      "outputs": [
        {
          "internalType": "uint16",
          "name": "",
          "type": "uint16"
        }
      ],
      "stateMutability": "view",
      "type": "function"
    },
    {
      "inputs": [
        {
          "internalType": "address",
          "name": "who",
          "type": "address"
        },
        {
          "internalType": "uint16",
          "name": "score",
          "type": "uint16"
        }
      ],
      "name": "setCreditScore",
      "outputs": [],
      "stateMutability": "nonpayable",
      "type": "function"
    },
    {
      "inputs": [
        {
          "internalType": "uint16",
          "name": "bps",
          "type": "uint16"
        }
      ],
      "name": "setEarlyRepayDiscountBps",
      "outputs": [],
      "stateMutability": "nonpayable",
      "type": "function"
    },
    {
      "inputs": [
        {
          "internalType": "uint256",
          "name": "_max",
          "type": "uint256"
        }
      ],
      "name": "setMaxPurchasePerOrder",
      "outputs": [],
      "stateMutability": "nonpayable",
      "type": "function"
    },
    {
      "inputs": [
        {
          "internalType": "uint16",
          "name": "bps",
          "type": "uint16"
        }
      ],
      "name": "setMinInstallmentAmountBps",
      "outputs": [],
      "stateMutability": "nonpayable",
      "type": "function"
    },
    {
      "inputs": [
        {
          "internalType": "uint16",
          "name": "repayInc",
          "type": "uint16"
        },
        {
          "internalType": "uint16",
          "name": "liqDec",
          "type": "uint16"
        }
      ],
      "name": "setScoreDeltas",
      "outputs": [],
      "stateMutability": "nonpayable",
      "type": "function"
    },
    {
      "inputs": [
        {
          "internalType": "uint256",
          "name": "idx",
          "type": "uint256"
        },
        {
          "internalType": "uint256",
          "name": "minScore",
          "type": "uint256"
        },
        {
          "internalType": "uint16",
          "name": "collateralBps",
          "type": "uint16"
        },
        {
          "internalType": "uint16",
          "name": "feeBps",
          "type": "uint16"
        },
        {
          "internalType": "uint256",
          "name": "maxLoan",
          "type": "uint256"
        }
      ],
      "name": "setTier",
      "outputs": [],
      "stateMutability": "nonpayable",
      "type": "function"
    },
    {
      "inputs": [
        {
          "internalType": "address",
          "name": "_treasury",
          "type": "address"
        }
      ],
      "name": "setTreasury",
      "outputs": [],
      "stateMutability": "nonpayable",
      "type": "function"
    },
    {
      "inputs": [
        {
          "internalType": "uint256",
          "name": "",
          "type": "uint256"
        }
      ],
      "name": "tiers",
      "outputs": [
        {
          "internalType": "uint256",
          "name": "minScore",
          "type": "uint256"
        },
        {
          "internalType": "uint16",
          "name": "collateralBps",
          "type": "uint16"
        },
        {
          "internalType": "uint16",
          "name": "feeBps",
          "type": "uint16"
        },
        {
          "internalType": "uint256",
          "name": "maxLoan",
          "type": "uint256"
        }
      ],
      "stateMutability": "view",
      "type": "function"
    },
    {
      "inputs": [],
      "name": "token",
      "outputs": [
        {
          "internalType": "contract IERC20",
          "name": "",
          "type": "address"
        }
      ],
      "stateMutability": "view",
      "type": "function"
    },
    {
      "inputs": [
        {
          "internalType": "uint256",
          "name": "id",
          "type": "uint256"
        }
      ],
      "name": "totalDue",
      "outputs": [
        {
          "internalType": "uint256",
          "name": "",
          "type": "uint256"
        }
      ],
      "stateMutability": "view",
      "type": "function"
    },
    {
      "inputs": [
        {
          "internalType": "address",
          "name": "newOwner",
          "type": "address"
        }
      ],
      "name": "transferOwnership",
      "outputs": [],
      "stateMutability": "nonpayable",
      "type": "function"
    },
    {
      "inputs": [],
      "name": "treasury",
      "outputs": [
        {
          "internalType": "address",
          "name": "",
          "type": "address"
        }
      ],
      "stateMutability": "view",
      "type": "function"
    },
    {
      "inputs": [
        {
          "internalType": "address",
          "name": "to",
          "type": "address"
        },
        {
          "internalType": "uint256",
          "name": "amount",
          "type": "uint256"
        }
      ],
      "name": "withdrawLiquidity",
      "outputs": [],
      "stateMutability": "nonpayable",
      "type": "function"
    }
  ],
  "bytecode": "0x60a034620002d557601f620028aa38819003918201601f191683019291906001600160401b03841183851017620002da57816101009284926040968752833981010312620002d557620000528162000310565b602080830151909290916001600160a01b039190828416808503620002d5576200007e87840162000310565b91606084015195620000936080860162000325565b95620000a260a0870162000325565b94620000bf60e0620000b760c08a0162000325565b980162000325565b94620000cb33620003ba565b6001805515620002a75716908115620002765761ffff92838516801515908162000268575b50156200023b579365ffff0000000093600a98969363ffff0000936200011d620001e59d9c9a98620003ba565b60805260018060a01b031960025416176002558760035567ffff0000000000006007549260301b1696169060018060401b031916179160101b161791861b1617176007556200018d6200016f620002f0565b6102ee81526107d08582015260c88782015282606082015262000335565b620001bd6200019b620002f0565b6102588152610fa085820152610190878201528260011c606082015262000335565b611f40620001ca620002f0565b93600085528401526103208584015204606082015262000335565b516124a890816200040282396080518181816101b6015281816103d2015281816107de01528181610ae101528181610fdc015281816110fe015281816112df01528181611d2a01528181611fb301526121e90152f35b8a5162461bcd60e51b8152600481018b905260066024820152656d696e42707360d01b6044820152606490fd5b6127109150111538620000f0565b895162461bcd60e51b8152600481018a9052600a602482015269074726561737572793d360b41b6044820152606490fd5b8a5162461bcd60e51b8152600481018b905260076024820152660746f6b656e3d360cc1b6044820152606490fd5b600080fd5b634e487b7160e01b600052604160045260246000fd5b60405190608082016001600160401b03811183821017620002da57604052565b51906001600160a01b0382168203620002d557565b519061ffff82168203620002d557565b60065468010000000000000000811015620002da576001810180600655811015620003a457606060029160066000526003602060002091020192805184556001840161ffff60208301511681549063ffff0000604085015160101b169163ffffffff1916171790550151910155565b634e487b7160e01b600052603260045260246000fd5b600080546001600160a01b039283166001600160a01b03198216811783559216907f8be0079c531659141344cd1fd0a4f28419497f9722a3daafe3b4186f6b6457e09080a356fe608080604052600436101561001357600080fd5b60003560e01c90816301f28d91146115d057508063039af9eb1461157657806306d47de9146114fe57806313b0be33146114cc5780631dd0c13f146114aa578063285eb37314611403578063328efc47146110705780633a5d8d6c14611038578063415f124014610ea457806344dac75b14610e515780635662ecc714610e3357806361d027b314610e0a578063715018a614610db157806373c5ca0914610ca85780637437535914610c8d578063752df2db14610b91578063784aee3514610b5d5780637d52722014610b305780638da5cb5b14610b0757806395ccea6714610aa35780639c21c3a114610a7f578063a8311c3b14610a5a578063a85c38ef1461098b578063a8841db914610966578063be02075214610909578063be62e7df14610731578063d09ef2411461055f578063e02ef5651461046c578063e5eeb32c14610446578063ec14476f14610428578063f0f437b61461039b578063f0f44260146102f1578063f2fde38b14610228578063f7e590ee146101ea5763fc0c546a146101a057600080fd5b346101e55760003660031901126101e5576040517f00000000000000000000000000000000000000000000000000000000000000006001600160a01b03168152602090f35b600080fd5b346101e55760203660031901126101e5576001600160a01b0361020b61163c565b166000526005602052602061ffff60406000205416604051908152f35b346101e55760203660031901126101e55761024161163c565b61024961169b565b6001600160a01b0390811690811561029d57600054826bffffffffffffffffffffffff60a01b821617600055167f8be0079c531659141344cd1fd0a4f28419497f9722a3daafe3b4186f6b6457e0600080a3005b60405162461bcd60e51b815260206004820152602660248201527f4f776e61626c653a206e6577206f776e657220697320746865207a65726f206160448201526564647265737360d01b6064820152608490fd5b346101e55760203660031901126101e55761030a61163c565b61031261169b565b6001600160a01b03908116908115610369577f4ab5be82436d353e61ca18726e984e561f5c1cc7c6d38b29d2553c790434705a60406002549281519084168152846020820152a16001600160a01b03191617600255005b60405162461bcd60e51b815260206004820152600a602482015269074726561737572793d360b41b6044820152606490fd5b346101e55760203660031901126101e5576004356103b761169b565b6103bf611820565b6103ca8115156117e9565b6103f68130337f0000000000000000000000000000000000000000000000000000000000000000611876565b6040519081527fbb9e497a5b82d1a37f9496dd70c6efb97ba0d98c66c3422d05010105d063359860203392a260018055005b346101e55760003660031901126101e5576020600354604051908152f35b346101e55760203660031901126101e557602061046460043561225f565b604051908152f35b346101e55760a03660031901126101e55760043561048861168a565b6064359161ffff918284168094036101e5576104a261169b565b600654821015610534577ffe2efe9272eb0deb4938823c5d646855a80e10848bf50af99ef34310d8f92b8d936020936105209216906104ee612710808411159081610529575b506116f3565b604051916104fb83611748565b6024358352858301526040820152608435606082015261051a836115eb565b90611786565b604051908152a1005b9050821115886104e8565b60405162461bcd60e51b81526020600482015260036024820152620d2c8f60eb1b6044820152606490fd5b346101e55760203660031901126101e55760006101a06040516105818161172b565b8281528260208201528260408201528260608201528260808201528260a08201528260c08201528260e08201528261010082015282610120820152826101408201528261016082015282610180820152015260043560005260086020526101c060406000206101a06040516105f58161172b565b60ff600d60018060a01b038554169485845260018060a01b036001820154166020850152600281015460408501526003810154606085015260048101546080850152600581015460a0850152600681015460c0850152600781015460e085015260088101546101008501526009810154610120850152600a810154610140850152600b810154610160850152600c81015461018085015201541615158282015260405192835260018060a01b03602082015116602084015260408101516040840152606081015160608401526080810151608084015260a081015160a084015260c081015160c084015260e081015160e0840152610100810151610100840152610120810151610120840152610140810151610140840152610160810151610160840152610180810151610180840152015115156101a0820152f35b346101e55760203660031901126101e55760043561074d611820565b806000526008602052604060002090600d82019161076f60ff84541615611b99565b80546001600160a01b0393906107889085163314611bce565b6107986006830154421115611c06565b6002820154936107ae600a8401958654906117dc565b926004810154926107c5600b8301948554906117dc565b946107d08682611b6c565b976107dc891515611c3c565b7f00000000000000000000000000000000000000000000000000000000000000009161080a8a303386611876565b60009661ffff60075460201c16806108e8575b50906108379189610862999a6108ae575b50508254611b6c565b9055600383015480610899575b50506007820154600c830155805460ff191660011790555416612110565b60405192835260208301527feb0a2406213f12fe23f25f04c31b79ef4f7d9cee2889324c2b86a06f35142f3c60403393a360018055005b6108a7918585541690611b2e565b8780610844565b806108bc8c6108ca936117dc565b806108d3575b508254611b6c565b90558b8061082e565b6108e2908b6002541689611b2e565b8e6108c2565b6108629850906127106108ff61083794938c6120fd565b049850909161081d565b346101e55760403660031901126101e557610922611668565b61092a611679565b61093261169b565b61ffff63ffff00006007549260101b1692169063ffffffff19161717600755600080516020612433833981519152600080a1005b346101e55760003660031901126101e557602061ffff60075460101c16604051908152f35b346101e55760203660031901126101e55760043560005260086020526101c0604060002060018060a01b039081815416916001820154169060028101546003820154600483015460058401546006850154600786015490600887015492600988015494600a89015496600b8a01549860ff600d600c8d01549c0154169b60206040519e8f908152015260408d015260608c015260808b015260a08a015260c089015260e088015261010087015261012086015261014085015261016084015261018083015215156101a0820152f35b346101e55760003660031901126101e557602061ffff60075460301c16604051908152f35b346101e55760003660031901126101e557602060075461ffff60405191831c168152f35b346101e55760403660031901126101e557610b05610abf61163c565b610ac761169b565b610adb6001600160a01b0382161515611afc565b602435907f0000000000000000000000000000000000000000000000000000000000000000611b2e565b005b346101e55760003660031901126101e5576000546040516001600160a01b039091168152602090f35b346101e55760403660031901126101e557610b49611820565b610b57602435600435611c76565b60018055005b346101e55760203660031901126101e557610b7661169b565b600435600355600080516020612433833981519152600080a1005b346101e55760403660031901126101e557610baa61163c565b610bb2611679565b90610bbb61169b565b6001600160a01b0316908115610c605761ffff8082166103e88111610c2e57610c2960008051602061245383398151915293856000526005602052604060002080549361ffff198516179055604051938493168390602090939293604083019461ffff809216845216910152565b0390a2005b60405162461bcd60e51b815260206004820152600a602482015269073636f72653e313030360b41b6044820152606490fd5b60405162461bcd60e51b8152602060048201526005602482015264077686f3d360dc1b6044820152606490fd5b346101e55760003660031901126101e55760206104646121ce565b346101e55760803660031901126101e557610cc1611679565b610cc961168a565b90610cd261169b565b61ffff80911691610cef612710808511159081610da457506116f3565b60405192610cfc84611748565b6004358452602084015216604082015260643560608201526006549068010000000000000000821015610d8e5761051a826001610d3c94016006556115eb565b6006546000198101908111610d785760207ffe2efe9272eb0deb4938823c5d646855a80e10848bf50af99ef34310d8f92b8d91604051908152a1005b634e487b7160e01b600052601160045260246000fd5b634e487b7160e01b600052604160045260246000fd5b90508383161115856104e8565b346101e55760003660031901126101e557610dca61169b565b600080546001600160a01b0319811682556001600160a01b03167f8be0079c531659141344cd1fd0a4f28419497f9722a3daafe3b4186f6b6457e08280a3005b346101e55760003660031901126101e5576002546040516001600160a01b039091168152602090f35b346101e55760003660031901126101e5576020600454604051908152f35b346101e55760203660031901126101e557610e6a611668565b610e7261169b565b65ffff000000006007549160201b169065ffff00000000191617600755600080516020612433833981519152600080a1005b346101e5576020806003193601126101e55760043590610ec2611820565b81600052600881526040600020600d810190610ee260ff83541615611b99565b600681015442111561100557908160037f3c24207173ca3400f76eac3fa0d6f98e2ab53c0e661e5de8c3d9386b0249df32949301549182610fc8575b805460ff19166001179055546001600160a01b031660008181526005845260409020546007546000805160206124538339815191529161ffff9081169160101c811680831115610fc057610f7290836117dc565b1690836000526005865260406000208261ffff19825416179055610fb06040519283928390602090939293604083019461ffff809216845216910152565b0390a2604051908152a260018055005b506000610f72565b6002546110009084906001600160a01b03167f0000000000000000000000000000000000000000000000000000000000000000611b2e565b610f1e565b60405162461bcd60e51b815260048101849052600b60248201526a6e6f74206f76657264756560a81b6044820152606490fd5b346101e55760203660031901126101e55760043560005260086020526040806000206009600882015491015482519182526020820152f35b346101e55760803660031901126101e55760043561108c611652565b606491604491908335833561109f611820565b6001600160a01b0384169384156113d3576110bb8415156117e9565b428211156113a3576001831061136e57600354841161133d576110de33856122b2565b979096856110ea6121ce565b106113085750508361112291876112d7575b7f0000000000000000000000000000000000000000000000000000000000000000611b2e565b60045495600187018711610d78578660016020980160045560016111468587611b79565b916111518685611b79565b6040519361115e8561172b565b338552898c8601528860408601528a60608601528560808601524260a08601528660c08601528760e086015261010085015261012084015260006101408401526000610160840152600061018084015260006101a084015201600052600888526101a0600d604060002060018060a01b038451166bffffffffffffffffffffffff60a01b9081835416178255600182019060018060a01b038d870151169082541617905560408401516002820155606084015160038201556080840151600482015560a0840151600582015560c0840151600682015560e0840151600782015561010084015160088201556101208401516009820155610140840151600a820155610160840151600b820155610180840151600c82015501910151151560ff801983541691161790556004549560405194855287850152604084015260608301526080820152827f7111179a6dc4e2e1d73cfbdd46690bffab838320ecaccd2d7836bd095f362ec960a03393a460018055604051908152f35b6113038830337f0000000000000000000000000000000000000000000000000000000000000000611876565b6110fc565b701a5b9cdd59999a58da595b9d081c1bdbdb607a1b6040519162461bcd60e51b83526020600484015260116024840152820152fd5b60405162461bcd60e51b815260206004820152600b60248201526a065786365656473206361760ac1b818801528790fd5b60405162461bcd60e51b815260206004820152600f60248201526e696e7374616c6c6d656e74733e3d3160881b818801528790fd5b60405162461bcd60e51b815260206004820152600a60248201526964756541743c3d6e6f7760b01b818801528790fd5b60405162461bcd60e51b815260206004820152600a60248201526906d65726368616e743d360b41b818801528790fd5b346101e55760203660031901126101e55761141c611668565b61142461169b565b61ffff8116801515908161149d575b501561146f5767ffff0000000000006007549160301b169067ffff000000000000191617600755600080516020612433833981519152600080a1005b60405162461bcd60e51b81526020600482015260066024820152656d696e42707360d01b6044820152606490fd5b6127109150111582611433565b346101e55760003660031901126101e557602061ffff60075416604051908152f35b346101e55760403660031901126101e55760406114f26114ea611652565b6004356122b2565b82519182526020820152f35b346101e55760403660031901126101e55761151761163c565b7fb1cce8684b4ffa8667b4577654e61ee3480d661ee9c27522ac80e211f6bd4d25602060243561154561169b565b61154d611820565b6001600160a01b038416936115699082906110fc871515611afc565b604051908152a260018055005b346101e55760203660031901126101e5576004356006548110156101e55761159f6080916115eb565b50805490600260018201549101549060405192835261ffff90818116602085015260101c1660408301526060820152f35b346101e55760003660031901126101e5576020906006548152f35b600654811015611626576003906006600052027ff652222313e28459528d920b65115c16c04f3efc82aaedc97be59f3f377c0d3f0190600090565b634e487b7160e01b600052603260045260246000fd5b600435906001600160a01b03821682036101e557565b602435906001600160a01b03821682036101e557565b6004359061ffff821682036101e557565b6024359061ffff821682036101e557565b6044359061ffff821682036101e557565b6000546001600160a01b031633036116af57565b606460405162461bcd60e51b815260206004820152602060248201527f4f776e61626c653a2063616c6c6572206973206e6f7420746865206f776e65726044820152fd5b156116fa57565b60405162461bcd60e51b815260206004820152600960248201526806270733e31303030360bc1b6044820152606490fd5b6101c0810190811067ffffffffffffffff821117610d8e57604052565b6080810190811067ffffffffffffffff821117610d8e57604052565b90601f8019910116810190811067ffffffffffffffff821117610d8e57604052565b91906117c6576060816002925184556001840161ffff60208301511681549063ffff0000604085015160101b169163ffffffff1916171790550151910155565b634e487b7160e01b600052600060045260246000fd5b91908203918211610d7857565b156117f057565b60405162461bcd60e51b81526020600482015260086024820152670616d6f756e743d360c41b6044820152606490fd5b600260015414611831576002600155565b60405162461bcd60e51b815260206004820152601f60248201527f5265656e7472616e637947756172643a207265656e7472616e742063616c6c006044820152606490fd5b6040516323b872dd60e01b60208201526001600160a01b03928316602482015292909116604483015260648083019390935291815260a081019181831067ffffffffffffffff841117610d8e576118cf926040526118d1565b565b60018060a01b0316906040516040810167ffffffffffffffff9082811082821117610d8e576040526020938483527f5361666545524332303a206c6f772d6c6576656c2063616c6c206661696c6564858401526000808587829751910182855af1903d15611a1d573d928311611a09579061196c9392916040519261195f88601f19601f8401160185611764565b83523d868885013e611a28565b8051918215918483156119de575b5050509050156119875750565b6084906040519062461bcd60e51b82526004820152602a60248201527f5361666545524332303a204552433230206f7065726174696f6e20646964206e6044820152691bdd081cdd58d8d9595960b21b6064820152fd5b919381809450010312611a0557820151908115158203611a0257508038808461197a565b80fd5b5080fd5b634e487b7160e01b85526041600452602485fd5b9061196c9392506060915b91929015611a8a5750815115611a3c575090565b3b15611a455790565b60405162461bcd60e51b815260206004820152601d60248201527f416464726573733a2063616c6c20746f206e6f6e2d636f6e74726163740000006044820152606490fd5b825190915015611a9d5750805190602001fd5b6040519062461bcd60e51b82528160208060048301528251908160248401526000935b828510611ae3575050604492506000838284010152601f80199101168101030190fd5b8481018201518686016044015293810193859350611ac0565b15611b0357565b606460405162461bcd60e51b81526020600482015260046024820152630746f3d360e41b6044820152fd5b60405163a9059cbb60e01b60208201526001600160a01b0390921660248301526044808301939093529181526118cf91611b6782611748565b6118d1565b91908201809211610d7857565b8115611b83570490565b634e487b7160e01b600052601260045260246000fd5b15611ba057565b60405162461bcd60e51b815260206004820152600660248201526518db1bdcd95960d21b6044820152606490fd5b15611bd557565b60405162461bcd60e51b81526020600482015260096024820152683737ba10313abcb2b960b91b6044820152606490fd5b15611c0d57565b60405162461bcd60e51b81526020600482015260076024820152666f76657264756560c81b6044820152606490fd5b15611c4357565b60405162461bcd60e51b815260206004820152600b60248201526a6e6f7468696e672064756560a81b6044820152606490fd5b60008181526020906008825260409081812092600d840193611c9c60ff86541615611b99565b80546001600160a01b0390611cb49082163314611bce565b60068201611cc58154421115611c06565b611cd08915156117e9565b611cd98861225f565b90611ce5821515611c3c565b818a1015611f8a5750506008820190815492611d076009820194855490611b6c565b93612710611d2061ffff968760075460301c16906120fd565b048b10611f53578a7f000000000000000000000000000000000000000000000000000000000000000094611d5682303389611876565b611d876004850193845493611d71600b8801958654906117dc565b915491808311611f4b575b5081611f2a576117dc565b91600285015491611db0600a8701948554611da281876117dc565b808311611f22575b50611b6c565b8094555480611ef7575b5054918d8b51908152818a820152838c8201528d7f6c2ad965418e364223fcc71b275f3b0aff554a3a01def28c4eb08366671dba8460603393a310159182611eeb575b5050611e10575b50505050505050505050565b7feb0a2406213f12fe23f25f04c31b79ef4f7d9cee2889324c2b86a06f35142f3c9760008051602061245383398151915293600383015480611ed6575b5050600160ff198254161790555416918285526005845280868620541690611e79816007541683611b6c565b6103e8808211611ece575b5084875260058652878720805461ffff1916929091169182179055865161ffff928316815291166020820152604090a282519586528501523393a338808080808080808080611e04565b905038611e84565b611ee4918585541690611b2e565b3880611e4d565b54111590503880611dfd565b611f019084611b79565b6007860154808211611f1a575b50600c86015538611dba565b905038611f0e565b915038611daa565b611f398289600254168b611b2e565b611f44828654611b6c565b85556117dc565b915038611d7c565b875162461bcd60e51b815260048101879052601060248201526f185b5bdd5b9d081d1bdbc81cdb585b1b60821b6044820152606490fd5b93929098507feb0a2406213f12fe23f25f04c31b79ef4f7d9cee2889324c2b86a06f35142f3c967f000000000000000000000000000000000000000000000000000000000000000095611fdf8b30338a611876565b600483015490611ff5600b8501928354906117dc565b9060028501549861200c600a87019a8b54906117dc565b919854421115806120ec575b6120b9575b98612045839261206c999a9b61204e9561208e575b6003890154806120795750508254611b6c565b90558254611b6c565b90556007820154600c830155805460ff191660011790555416612110565b82519586528501523393a3565b612087918b8b541690611b2e565b388061082e565b6120988d866117dc565b806120a4575b50612032565b6120b3908b6002541683611b2e565b3861209e565b9887985061204561204e93926127106120de61ffff61206c9c600754901c16866120fd565b049a9950929350509861201d565b5061ffff600754891c161515612018565b81810292918115918404141715610d7857565b60018060a01b031680600052600560205260008051602061245383398151915261ffff806040600020541690612158600754828082169160201c16806121b0575b5083611b6c565b6103e88082116121a8575b50169083600052600560205260406000208261ffff198254161790556121a36040519283928390602090939293604083019461ffff809216845216910152565b0390a2565b905038612163565b906127106121c16121c893836120fd565b0490611b6c565b38612151565b6040516370a0823160e01b81523060048201526020816024817f00000000000000000000000000000000000000000000000000000000000000006001600160a01b03165afa90811561225357600091612225575090565b906020823d821161224b575b8161223e60209383611764565b81010312611a0257505190565b3d9150612231565b6040513d6000823e3d90fd5b6000526008602052604060002060ff600d820154166122ac57806122a361229260026122a9940154600a840154906117dc565b91600b6004820154910154906117dc565b90611b6c565b90565b50600090565b906122bc90612369565b90606082015181116122f4576122f06127109161ffff6020846122e583604089015116856120fd565b0495015116906120fd565b0491565b60405162461bcd60e51b815260206004820152601560248201527432bc31b2b2b239903a34b2b91036b0bc103637b0b760591b6044820152606490fd5b9060405161233e81611748565b60606002829480548452600181015461ffff90818116602087015260101c1660408501520154910152565b60609060405161237881611748565b6000928184809352826020820152826040820152015260018060a01b03168152600560205261ffff604082205416908091600654925b8381106123ea57505060001982019182116123d657506123d06122a9916115eb565b50612331565b634e487b7160e01b81526011600452602490fd5b6123f3816115eb565b505482101561242157600019811461240d576001016123ae565b634e487b7160e01b83526011600452602483fd5b90506122a992506123d091506115eb56fe4e5005547c24dfd12003c2845fd20f2071c49fa3cd30b0be7a064e3f4c3f8d2af0476f83a777b892446c4939723caba7d89f8de16505f4dfe3c17f8b1dda4868a2646970667358221220f2b77ed1508387b7eadd7fbf27e25c63c75ebb57adb3b023db31664bc58749c764736f6c63430008120033",
  "linkReferences": {},
  "deployedLinkReferences": {}
}