{"src/buy-now-pay-later/BNPLRepayments.sol":{"BNPLRepayments":{"abi":[{"inputs":[{"internalType":"address","name":"initialOwner","type":"address"},{"internalType":"contract IERC20","name":"_token","type":"address"},{"internalType":"address","name":"_treasury","type":"address"},{"internalType":"uint256","name":"_maxPurchasePerOrder","type":"uint256"},{"internalType":"uint16","name":"_repayScoreIncrease","type":"uint16"},{"internalType":"uint16","name":"_liquidateScoreDecrease","type":"uint16"},{"internalType":"uint16","name":"_earlyRepayDiscountBps","type":"uint16"},{"internalType":"uint16","name":"_minInstallmentAmountBps","type":"uint16"}],"stateMutability":"nonpayable","type":"constructor"},{"anonymous":false,"inputs":[{"indexed":true,"internalType":"address","name":"who","type":"address"},{"indexed":false,"internalType":"uint16","name":"oldScore","type":"uint16"},{"indexed":false,"internalType":"uint16","name":"newScore","type":"uint16"}],"name":"CreditScoreUpdated","type":"event"},{"anonymous":false,"inputs":[{"indexed":true,"internalType":"uint256","name":"id","type":"uint256"},{"indexed":true,"internalType":"address","name":"payer","type":"address"},{"indexed":false,"internalType":"uint256","name":"amount","type":"uint256"},{"indexed":false,"internalType":"uint256","name":"paidPrincipal","type":"uint256"},{"indexed":false,"internalType":"uint256","name":"paidFee","type":"uint256"}],"name":"InstallmentPaid","type":"event"},{"anonymous":false,"inputs":[{"indexed":true,"internalType":"address","name":"from","type":"address"},{"indexed":false,"internalType":"uint256","name":"amount","type":"uint256"}],"name":"LiquidityFunded","type":"event"},{"anonymous":false,"inputs":[{"indexed":true,"internalType":"address","name":"to","type":"address"},{"indexed":false,"internalType":"uint256","name":"amount","type":"uint256"}],"name":"LiquidityWithdrawn","type":"event"},{"anonymous":false,"inputs":[{"indexed":true,"internalType":"uint256","name":"id","type":"uint256"},{"indexed":true,"internalType":"address","name":"buyer","type":"address"},{"indexed":true,"internalType":"address","name":"merchant","type":"address"},{"indexed":false,"internalType":"uint256","name":"principal","type":"uint256"},{"indexed":false,"internalType":"uint256","name":"collateral","type":"uint256"},{"indexed":false,"internalType":"uint256","name":"totalFee","type":"uint256"},{"indexed":false,"internalType":"uint256","name":"dueAt","type":"uint256"},{"indexed":false,"internalType":"uint256","name":"installments","type":"uint256"}],"name":"OrderCreated","type":"event"},{"anonymous":false,"inputs":[{"indexed":true,"internalType":"uint256","name":"id","type":"uint256"},{"indexed":true,"internalType":"address","name":"payer","type":"address"},{"indexed":false,"internalType":"uint256","name":"totalPaid","type":"uint256"},{"indexed":false,"internalType":"uint256","name":"feeDiscount","type":"uint256"}],"name":"OrderFullyRepaid","type":"event"},{"anonymous":false,"inputs":[{"indexed":true,"internalType":"uint256","name":"id","type":"uint256"},{"indexed":false,"internalType":"uint256","name":"seizedCollateral","type":"uint256"}],"name":"OrderLiquidated","type":"event"},{"anonymous":false,"inputs":[{"indexed":true,"internalType":"address","name":"previousOwner","type":"address"},{"indexed":true,"internalType":"address","name":"newOwner","type":"address"}],"name":"OwnershipTransferred","type":"event"},{"anonymous":false,"inputs":[],"name":"ParamsUpdated","type":"event"},{"anonymous":false,"inputs":[{"indexed":false,"internalType":"uint256","name":"idx","type":"uint256"}],"name":"TierUpdated","type":"event"},{"anonymous":false,"inputs":[{"indexed":false,"internalType":"address","name":"oldTreasury","type":"address"},{"indexed":false,"internalType":"address","name":"newTreasury","type":"address"}],"name":"TreasuryUpdated","type":"event"},{"inputs":[{"internalType":"uint256","name":"minScore","type":"uint256"},{"internalType":"uint16","name":"collateralBps","type":"uint16"},{"internalType":"uint16","name":"feeBps","type":"uint16"},{"internalType":"uint256","name":"maxLoan","type":"uint256"}],"name":"addTier","outputs":[],"stateMutability":"nonpayable","type":"function"},{"inputs":[],"name":"availableLiquidity","outputs":[{"internalType":"uint256","name":"","type":"uint256"}],"stateMutability":"view","type":"function"},{"inputs":[{"internalType":"uint256","name":"purchaseAmount","type":"uint256"},{"internalType":"address","name":"merchant","type":"address"},{"internalType":"uint256","name":"dueAt","type":"uint256"},{"internalType":"uint256","name":"installments","type":"uint256"}],"name":"createOrder","outputs":[{"internalType":"uint256","name":"","type":"uint256"}],"stateMutability":"nonpayable","type":"function"},{"inputs":[{"internalType":"address","name":"","type":"address"}],"name":"creditScore","outputs":[{"internalType":"uint16","name":"","type":"uint16"}],"stateMutability":"view","type":"function"},{"inputs":[],"name":"earlyRepayDiscountBps","outputs":[{"internalType":"uint16","name":"","type":"uint16"}],"stateMutability":"view","type":"function"},{"inputs":[{"internalType":"address","name":"to","type":"address"},{"internalType":"uint256","name":"amount","type":"uint256"}],"name":"emergencyWithdraw","outputs":[],"stateMutability":"nonpayable","type":"function"},{"inputs":[{"internalType":"uint256","name":"amount","type":"uint256"}],"name":"fundLiquidity","outputs":[],"stateMutability":"nonpayable","type":"function"},{"inputs":[{"internalType":"uint256","name":"id","type":"uint256"}],"name":"getOrder","outputs":[{"components":[{"internalType":"address","name":"buyer","type":"address"},{"internalType":"address","name":"merchant","type":"address"},{"internalType":"uint256","name":"principal","type":"uint256"},{"internalType":"uint256","name":"collateral","type":"uint256"},{"internalType":"uint256","name":"totalFee","type":"uint256"},{"internalType":"uint256","name":"createdAt","type":"uint256"},{"internalType":"uint256","name":"dueAt","type":"uint256"},{"internalType":"uint256","name":"installments","type":"uint256"},{"internalType":"uint256","name":"nominalPrincipal","type":"uint256"},{"internalType":"uint256","name":"nominalFee","type":"uint256"},{"internalType":"uint256","name":"paidPrincipal","type":"uint256"},{"internalType":"uint256","name":"paidFee","type":"uint256"},{"internalType":"uint256","name":"paidInstallments","type":"uint256"},{"internalType":"bool","name":"closed","type":"bool"}],"internalType":"struct IBNPLStructs.Order","name":"","type":"tuple"}],"stateMutability":"view","type":"function"},{"inputs":[],"name":"getTiersCount","outputs":[{"internalType":"uint256","name":"","type":"uint256"}],"stateMutability":"view","type":"function"},{"inputs":[],"name":"lastOrderId","outputs":[{"internalType":"uint256","name":"","type":"uint256"}],"stateMutability":"view","type":"function"},{"inputs":[{"internalType":"uint256","name":"id","type":"uint256"}],"name":"liquidate","outputs":[],"stateMutability":"nonpayable","type":"function"},{"inputs":[],"name":"liquidateScoreDecrease","outputs":[{"internalType":"uint16","name":"","type":"uint16"}],"stateMutability":"view","type":"function"},{"inputs":[],"name":"maxPurchasePerOrder","outputs":[{"internalType":"uint256","name":"","type":"uint256"}],"stateMutability":"view","type":"function"},{"inputs":[],"name":"minInstallmentAmountBps","outputs":[{"internalType":"uint16","name":"","type":"uint16"}],"stateMutability":"view","type":"function"},{"inputs":[{"internalType":"uint256","name":"id","type":"uint256"}],"name":"nominalInstallment","outputs":[{"internalType":"uint256","name":"principalPart","type":"uint256"},{"internalType":"uint256","name":"feePart","type":"uint256"}],"stateMutability":"view","type":"function"},{"inputs":[{"internalType":"uint256","name":"","type":"uint256"}],"name":"orders","outputs":[{"internalType":"address","name":"buyer","type":"address"},{"internalType":"address","name":"merchant","type":"address"},{"internalType":"uint256","name":"principal","type":"uint256"},{"internalType":"uint256","name":"collateral","type":"uint256"},{"internalType":"uint256","name":"totalFee","type":"uint256"},{"internalType":"uint256","name":"createdAt","type":"uint256"},{"internalType":"uint256","name":"dueAt","type":"uint256"},{"internalType":"uint256","name":"installments","type":"uint256"},{"internalType":"uint256","name":"nominalPrincipal","type":"uint256"},{"internalType":"uint256","name":"nominalFee","type":"uint256"},{"internalType":"uint256","name":"paidPrincipal","type":"uint256"},{"internalType":"uint256","name":"paidFee","type":"uint256"},{"internalType":"uint256","name":"paidInstallments","type":"uint256"},{"internalType":"bool","name":"closed","type":"bool"}],"stateMutability":"view","type":"function"},{"inputs":[],"name":"owner","outputs":[{"internalType":"address","name":"","type":"address"}],"stateMutability":"view","type":"function"},{"inputs":[{"internalType":"uint256","name":"purchaseAmount","type":"uint256"},{"internalType":"address","name":"buyer","type":"address"}],"name":"quote","outputs":[{"internalType":"uint256","name":"collateralRequired","type":"uint256"},{"internalType":"uint256","name":"totalFee","type":"uint256"}],"stateMutability":"view","type":"function"},{"inputs":[],"name":"renounceOwnership","outputs":[],"stateMutability":"nonpayable","type":"function"},{"inputs":[{"internalType":"uint256","name":"id","type":"uint256"}],"name":"repayFull","outputs":[],"stateMutability":"nonpayable","type":"function"},{"inputs":[{"internalType":"uint256","name":"id","type":"uint256"},{"internalType":"uint256","name":"amount","type":"uint256"}],"name":"repayInstallment","outputs":[],"stateMutability":"nonpayable","type":"function"},{"inputs":[],"name":"repayScoreIncrease","outputs":[{"internalType":"uint16","name":"","type":"uint16"}],"stateMutability":"view","type":"function"},{"inputs":[{"internalType":"address","name":"who","type":"address"},{"internalType":"uint16","name":"score","type":"uint16"}],"name":"setCreditScore","outputs":[],"stateMutability":"nonpayable","type":"function"},{"inputs":[{"internalType":"uint16","name":"bps","type":"uint16"}],"name":"setEarlyRepayDiscountBps","outputs":[],"stateMutability":"nonpayable","type":"function"},{"inputs":[{"internalType":"uint256","name":"_max","type":"uint256"}],"name":"setMaxPurchasePerOrder","outputs":[],"stateMutability":"nonpayable","type":"function"},{"inputs":[{"internalType":"uint16","name":"bps","type":"uint16"}],"name":"setMinInstallmentAmountBps","outputs":[],"stateMutability":"nonpayable","type":"function"},{"inputs":[{"internalType":"uint16","name":"repayInc","type":"uint16"},{"internalType":"uint16","name":"liqDec","type":"uint16"}],"name":"setScoreDeltas","outputs":[],"stateMutability":"nonpayable","type":"function"},{"inputs":[{"internalType":"uint256","name":"idx","type":"uint256"},{"internalType":"uint256","name":"minScore","type":"uint256"},{"internalType":"uint16","name":"collateralBps","type":"uint16"},{"internalType":"uint16","name":"feeBps","type":"uint16"},{"internalType":"uint256","name":"maxLoan","type":"uint256"}],"name":"setTier","outputs":[],"stateMutability":"nonpayable","type":"function"},{"inputs":[{"internalType":"address","name":"_treasury","type":"address"}],"name":"setTreasury","outputs":[],"stateMutability":"nonpayable","type":"function"},{"inputs":[{"internalType":"uint256","name":"","type":"uint256"}],"name":"tiers","outputs":[{"internalType":"uint256","name":"minScore","type":"uint256"},{"internalType":"uint16","name":"collateralBps","type":"uint16"},{"internalType":"uint16","name":"feeBps","type":"uint16"},{"internalType":"uint256","name":"maxLoan","type":"uint256"}],"stateMutability":"view","type":"function"},{"inputs":[],"name":"token","outputs":[{"internalType":"contract IERC20","name":"","type":"address"}],"stateMutability":"view","type":"function"},{"inputs":[{"internalType":"uint256","name":"id","type":"uint256"}],"name":"totalDue","outputs":[{"internalType":"uint256","name":"","type":"uint256"}],"stateMutability":"view","type":"function"},{"inputs":[{"internalType":"address","name":"newOwner","type":"address"}],"name":"transferOwnership","outputs":[],"stateMutability":"nonpayable","type":"function"},{"inputs":[],"name":"treasury","outputs":[{"internalType":"address","name":"","type":"address"}],"stateMutability":"view","type":"function"},{"inputs":[{"internalType":"address","name":"to","type":"address"},{"internalType":"uint256","name":"amount","type":"uint256"}],"name":"withdrawLiquidity","outputs":[],"stateMutability":"nonpayable","type":"function"}],"evm":{"bytecode":{"linkReferences":{},"object":"60a034620002d557601f620028aa38819003918201601f191683019291906001600160401b03841183851017620002da57816101009284926040968752833981010312620002d557620000528162000310565b602080830151909290916001600160a01b039190828416808503620002d5576200007e87840162000310565b91606084015195620000936080860162000325565b95620000a260a0870162000325565b94620000bf60e0620000b760c08a0162000325565b980162000325565b94620000cb33620003ba565b6001805515620002a75716908115620002765761ffff92838516801515908162000268575b50156200023b579365ffff0000000093600a98969363ffff0000936200011d620001e59d9c9a98620003ba565b60805260018060a01b031960025416176002558760035567ffff0000000000006007549260301b1696169060018060401b031916179160101b161791861b1617176007556200018d6200016f620002f0565b6102ee81526107d08582015260c88782015282606082015262000335565b620001bd6200019b620002f0565b6102588152610fa085820152610190878201528260011c606082015262000335565b611f40620001ca620002f0565b93600085528401526103208584015204606082015262000335565b516124a890816200040282396080518181816101b6015281816103d2015281816107de01528181610ae101528181610fdc015281816110fe015281816112df01528181611d2a01528181611fb301526121e90152f35b8a5162461bcd60e51b8152600481018b905260066024820152656d696e42707360d01b6044820152606490fd5b6127109150111538620000f0565b895162461bcd60e51b8152600481018a9052600a602482015269074726561737572793d360b41b6044820152606490fd5b8a5162461bcd60e51b8152600481018b905260076024820152660746f6b656e3d360cc1b6044820152606490fd5b600080fd5b634e487b7160e01b600052604160045260246000fd5b60405190608082016001600160401b03811183821017620002da57604052565b51906001600160a01b0382168203620002d557565b519061ffff82168203620002d557565b60065468010000000000000000811015620002da576001810180600655811015620003a457606060029160066000526003602060002091020192805184556001840161ffff60208301511681549063ffff0000604085015160101b169163ffffffff1916171790550151910155565b634e487b7160e01b600052603260045260246000fd5b600080546001600160a01b039283166001600160a01b03198216811783559216907f8be0079c531659141344cd1fd0a4f28419497f9722a3daafe3b4186f6b6457e09080a356fe608080604052600436101561001357600080fd5b60003560e01c90816301f28d91146115d057508063039af9eb1461157657806306d47de9146114fe57806313b0be33146114cc5780631dd0c13f146114aa578063285eb37314611403578063328efc47146110705780633a5d8d6c14611038578063415f124014610ea457806344dac75b14610e515780635662ecc714610e3357806361d027b314610e0a578063715018a614610db157806373c5ca0914610ca85780637437535914610c8d578063752df2db14610b91578063784aee3514610b5d5780637d52722014610b305780638da5cb5b14610b0757806395ccea6714610aa35780639c21c3a114610a7f578063a8311c3b14610a5a578063a85c38ef1461098b578063a8841db914610966578063be02075214610909578063be62e7df14610731578063d09ef2411461055f578063e02ef5651461046c578063e5eeb32c14610446578063ec14476f14610428578063f0f437b61461039b578063f0f44260146102f1578063f2fde38b14610228578063f7e590ee146101ea5763fc0c546a146101a057600080fd5b346101e55760003660031901126101e5576040517f00000000000000000000000000000000000000000000000000000000000000006001600160a01b03168152602090f35b600080fd5b346101e55760203660031901126101e5576001600160a01b0361020b61163c565b166000526005602052602061ffff60406000205416604051908152f35b346101e55760203660031901126101e55761024161163c565b61024961169b565b6001600160a01b0390811690811561029d57600054826bffffffffffffffffffffffff60a01b821617600055167f8be0079c531659141344cd1fd0a4f28419497f9722a3daafe3b4186f6b6457e0600080a3005b60405162461bcd60e51b815260206004820152602660248201527f4f776e61626c653a206e6577206f776e657220697320746865207a65726f206160448201526564647265737360d01b6064820152608490fd5b346101e55760203660031901126101e55761030a61163c565b61031261169b565b6001600160a01b03908116908115610369577f4ab5be82436d353e61ca18726e984e561f5c1cc7c6d38b29d2553c790434705a60406002549281519084168152846020820152a16001600160a01b03191617600255005b60405162461bcd60e51b815260206004820152600a602482015269074726561737572793d360b41b6044820152606490fd5b346101e55760203660031901126101e5576004356103b761169b565b6103bf611820565b6103ca8115156117e9565b6103f68130337f0000000000000000000000000000000000000000000000000000000000000000611876565b6040519081527fbb9e497a5b82d1a37f9496dd70c6efb97ba0d98c66c3422d05010105d063359860203392a260018055005b346101e55760003660031901126101e5576020600354604051908152f35b346101e55760203660031901126101e557602061046460043561225f565b604051908152f35b346101e55760a03660031901126101e55760043561048861168a565b6064359161ffff918284168094036101e5576104a261169b565b600654821015610534577ffe2efe9272eb0deb4938823c5d646855a80e10848bf50af99ef34310d8f92b8d936020936105209216906104ee612710808411159081610529575b506116f3565b604051916104fb83611748565b6024358352858301526040820152608435606082015261051a836115eb565b90611786565b604051908152a1005b9050821115886104e8565b60405162461bcd60e51b81526020600482015260036024820152620d2c8f60eb1b6044820152606490fd5b346101e55760203660031901126101e55760006101a06040516105818161172b565b8281528260208201528260408201528260608201528260808201528260a08201528260c08201528260e08201528261010082015282610120820152826101408201528261016082015282610180820152015260043560005260086020526101c060406000206101a06040516105f58161172b565b60ff600d60018060a01b038554169485845260018060a01b036001820154166020850152600281015460408501526003810154606085015260048101546080850152600581015460a0850152600681015460c0850152600781015460e085015260088101546101008501526009810154610120850152600a810154610140850152600b810154610160850152600c81015461018085015201541615158282015260405192835260018060a01b03602082015116602084015260408101516040840152606081015160608401526080810151608084015260a081015160a084015260c081015160c084015260e081015160e0840152610100810151610100840152610120810151610120840152610140810151610140840152610160810151610160840152610180810151610180840152015115156101a0820152f35b346101e55760203660031901126101e55760043561074d611820565b806000526008602052604060002090600d82019161076f60ff84541615611b99565b80546001600160a01b0393906107889085163314611bce565b6107986006830154421115611c06565b6002820154936107ae600a8401958654906117dc565b926004810154926107c5600b8301948554906117dc565b946107d08682611b6c565b976107dc891515611c3c565b7f00000000000000000000000000000000000000000000000000000000000000009161080a8a303386611876565b60009661ffff60075460201c16806108e8575b50906108379189610862999a6108ae575b50508254611b6c565b9055600383015480610899575b50506007820154600c830155805460ff191660011790555416612110565b60405192835260208301527feb0a2406213f12fe23f25f04c31b79ef4f7d9cee2889324c2b86a06f35142f3c60403393a360018055005b6108a7918585541690611b2e565b8780610844565b806108bc8c6108ca936117dc565b806108d3575b508254611b6c565b90558b8061082e565b6108e2908b6002541689611b2e565b8e6108c2565b6108629850906127106108ff61083794938c6120fd565b049850909161081d565b346101e55760403660031901126101e557610922611668565b61092a611679565b61093261169b565b61ffff63ffff00006007549260101b1692169063ffffffff19161717600755600080516020612433833981519152600080a1005b346101e55760003660031901126101e557602061ffff60075460101c16604051908152f35b346101e55760203660031901126101e55760043560005260086020526101c0604060002060018060a01b039081815416916001820154169060028101546003820154600483015460058401546006850154600786015490600887015492600988015494600a89015496600b8a01549860ff600d600c8d01549c0154169b60206040519e8f908152015260408d015260608c015260808b015260a08a015260c089015260e088015261010087015261012086015261014085015261016084015261018083015215156101a0820152f35b346101e55760003660031901126101e557602061ffff60075460301c16604051908152f35b346101e55760003660031901126101e557602060075461ffff60405191831c168152f35b346101e55760403660031901126101e557610b05610abf61163c565b610ac761169b565b610adb6001600160a01b0382161515611afc565b602435907f0000000000000000000000000000000000000000000000000000000000000000611b2e565b005b346101e55760003660031901126101e5576000546040516001600160a01b039091168152602090f35b346101e55760403660031901126101e557610b49611820565b610b57602435600435611c76565b60018055005b346101e55760203660031901126101e557610b7661169b565b600435600355600080516020612433833981519152600080a1005b346101e55760403660031901126101e557610baa61163c565b610bb2611679565b90610bbb61169b565b6001600160a01b0316908115610c605761ffff8082166103e88111610c2e57610c2960008051602061245383398151915293856000526005602052604060002080549361ffff198516179055604051938493168390602090939293604083019461ffff809216845216910152565b0390a2005b60405162461bcd60e51b815260206004820152600a602482015269073636f72653e313030360b41b6044820152606490fd5b60405162461bcd60e51b8152602060048201526005602482015264077686f3d360dc1b6044820152606490fd5b346101e55760003660031901126101e55760206104646121ce565b346101e55760803660031901126101e557610cc1611679565b610cc961168a565b90610cd261169b565b61ffff80911691610cef612710808511159081610da457506116f3565b60405192610cfc84611748565b6004358452602084015216604082015260643560608201526006549068010000000000000000821015610d8e5761051a826001610d3c94016006556115eb565b6006546000198101908111610d785760207ffe2efe9272eb0deb4938823c5d646855a80e10848bf50af99ef34310d8f92b8d91604051908152a1005b634e487b7160e01b600052601160045260246000fd5b634e487b7160e01b600052604160045260246000fd5b90508383161115856104e8565b346101e55760003660031901126101e557610dca61169b565b600080546001600160a01b0319811682556001600160a01b03167f8be0079c531659141344cd1fd0a4f28419497f9722a3daafe3b4186f6b6457e08280a3005b346101e55760003660031901126101e5576002546040516001600160a01b039091168152602090f35b346101e55760003660031901126101e5576020600454604051908152f35b346101e55760203660031901126101e557610e6a611668565b610e7261169b565b65ffff000000006007549160201b169065ffff00000000191617600755600080516020612433833981519152600080a1005b346101e5576020806003193601126101e55760043590610ec2611820565b81600052600881526040600020600d810190610ee260ff83541615611b99565b600681015442111561100557908160037f3c24207173ca3400f76eac3fa0d6f98e2ab53c0e661e5de8c3d9386b0249df32949301549182610fc8575b805460ff19166001179055546001600160a01b031660008181526005845260409020546007546000805160206124538339815191529161ffff9081169160101c811680831115610fc057610f7290836117dc565b1690836000526005865260406000208261ffff19825416179055610fb06040519283928390602090939293604083019461ffff809216845216910152565b0390a2604051908152a260018055005b506000610f72565b6002546110009084906001600160a01b03167f0000000000000000000000000000000000000000000000000000000000000000611b2e565b610f1e565b60405162461bcd60e51b815260048101849052600b60248201526a6e6f74206f76657264756560a81b6044820152606490fd5b346101e55760203660031901126101e55760043560005260086020526040806000206009600882015491015482519182526020820152f35b346101e55760803660031901126101e55760043561108c611652565b606491604491908335833561109f611820565b6001600160a01b0384169384156113d3576110bb8415156117e9565b428211156113a3576001831061136e57600354841161133d576110de33856122b2565b979096856110ea6121ce565b106113085750508361112291876112d7575b7f0000000000000000000000000000000000000000000000000000000000000000611b2e565b60045495600187018711610d78578660016020980160045560016111468587611b79565b916111518685611b79565b6040519361115e8561172b565b338552898c8601528860408601528a60608601528560808601524260a08601528660c08601528760e086015261010085015261012084015260006101408401526000610160840152600061018084015260006101a084015201600052600888526101a0600d604060002060018060a01b038451166bffffffffffffffffffffffff60a01b9081835416178255600182019060018060a01b038d870151169082541617905560408401516002820155606084015160038201556080840151600482015560a0840151600582015560c0840151600682015560e0840151600782015561010084015160088201556101208401516009820155610140840151600a820155610160840151600b820155610180840151600c82015501910151151560ff801983541691161790556004549560405194855287850152604084015260608301526080820152827f7111179a6dc4e2e1d73cfbdd46690bffab838320ecaccd2d7836bd095f362ec960a03393a460018055604051908152f35b6113038830337f0000000000000000000000000000000000000000000000000000000000000000611876565b6110fc565b701a5b9cdd59999a58da595b9d081c1bdbdb607a1b6040519162461bcd60e51b83526020600484015260116024840152820152fd5b60405162461bcd60e51b815260206004820152600b60248201526a065786365656473206361760ac1b818801528790fd5b60405162461bcd60e51b815260206004820152600f60248201526e696e7374616c6c6d656e74733e3d3160881b818801528790fd5b60405162461bcd60e51b815260206004820152600a60248201526964756541743c3d6e6f7760b01b818801528790fd5b60405162461bcd60e51b815260206004820152600a60248201526906d65726368616e743d360b41b818801528790fd5b346101e55760203660031901126101e55761141c611668565b61142461169b565b61ffff8116801515908161149d575b501561146f5767ffff0000000000006007549160301b169067ffff000000000000191617600755600080516020612433833981519152600080a1005b60405162461bcd60e51b81526020600482015260066024820152656d696e42707360d01b6044820152606490fd5b6127109150111582611433565b346101e55760003660031901126101e557602061ffff60075416604051908152f35b346101e55760403660031901126101e55760406114f26114ea611652565b6004356122b2565b82519182526020820152f35b346101e55760403660031901126101e55761151761163c565b7fb1cce8684b4ffa8667b4577654e61ee3480d661ee9c27522ac80e211f6bd4d25602060243561154561169b565b61154d611820565b6001600160a01b038416936115699082906110fc871515611afc565b604051908152a260018055005b346101e55760203660031901126101e5576004356006548110156101e55761159f6080916115eb565b50805490600260018201549101549060405192835261ffff90818116602085015260101c1660408301526060820152f35b346101e55760003660031901126101e5576020906006548152f35b600654811015611626576003906006600052027ff652222313e28459528d920b65115c16c04f3efc82aaedc97be59f3f377c0d3f0190600090565b634e487b7160e01b600052603260045260246000fd5b600435906001600160a01b03821682036101e557565b602435906001600160a01b03821682036101e557565b6004359061ffff821682036101e557565b6024359061ffff821682036101e557565b6044359061ffff821682036101e557565b6000546001600160a01b031633036116af57565b606460405162461bcd60e51b815260206004820152602060248201527f4f776e61626c653a2063616c6c6572206973206e6f7420746865206f776e65726044820152fd5b156116fa57565b60405162461bcd60e51b815260206004820152600960248201526806270733e31303030360bc1b6044820152606490fd5b6101c0810190811067ffffffffffffffff821117610d8e57604052565b6080810190811067ffffffffffffffff821117610d8e57604052565b90601f8019910116810190811067ffffffffffffffff821117610d8e57604052565b91906117c6576060816002925184556001840161ffff60208301511681549063ffff0000604085015160101b169163ffffffff1916171790550151910155565b634e487b7160e01b600052600060045260246000fd5b91908203918211610d7857565b156117f057565b60405162461bcd60e51b81526020600482015260086024820152670616d6f756e743d360c41b6044820152606490fd5b600260015414611831576002600155565b60405162461bcd60e51b815260206004820152601f60248201527f5265656e7472616e637947756172643a207265656e7472616e742063616c6c006044820152606490fd5b6040516323b872dd60e01b60208201526001600160a01b03928316602482015292909116604483015260648083019390935291815260a081019181831067ffffffffffffffff841117610d8e576118cf926040526118d1565b565b60018060a01b0316906040516040810167ffffffffffffffff9082811082821117610d8e576040526020938483527f5361666545524332303a206c6f772d6c6576656c2063616c6c206661696c6564858401526000808587829751910182855af1903d15611a1d573d928311611a09579061196c9392916040519261195f88601f19601f8401160185611764565b83523d868885013e611a28565b8051918215918483156119de575b5050509050156119875750565b6084906040519062461bcd60e51b82526004820152602a60248201527f5361666545524332303a204552433230206f7065726174696f6e20646964206e6044820152691bdd081cdd58d8d9595960b21b6064820152fd5b919381809450010312611a0557820151908115158203611a0257508038808461197a565b80fd5b5080fd5b634e487b7160e01b85526041600452602485fd5b9061196c9392506060915b91929015611a8a5750815115611a3c575090565b3b15611a455790565b60405162461bcd60e51b815260206004820152601d60248201527f416464726573733a2063616c6c20746f206e6f6e2d636f6e74726163740000006044820152606490fd5b825190915015611a9d5750805190602001fd5b6040519062461bcd60e51b82528160208060048301528251908160248401526000935b828510611ae3575050604492506000838284010152601f80199101168101030190fd5b8481018201518686016044015293810193859350611ac0565b15611b0357565b606460405162461bcd60e51b81526020600482015260046024820152630746f3d360e41b6044820152fd5b60405163a9059cbb60e01b60208201526001600160a01b0390921660248301526044808301939093529181526118cf91611b6782611748565b6118d1565b91908201809211610d7857565b8115611b83570490565b634e487b7160e01b600052601260045260246000fd5b15611ba057565b60405162461bcd60e51b815260206004820152600660248201526518db1bdcd95960d21b6044820152606490fd5b15611bd557565b60405162461bcd60e51b81526020600482015260096024820152683737ba10313abcb2b960b91b6044820152606490fd5b15611c0d57565b60405162461bcd60e51b81526020600482015260076024820152666f76657264756560c81b6044820152606490fd5b15611c4357565b60405162461bcd60e51b815260206004820152600b60248201526a6e6f7468696e672064756560a81b6044820152606490fd5b60008181526020906008825260409081812092600d840193611c9c60ff86541615611b99565b80546001600160a01b0390611cb49082163314611bce565b60068201611cc58154421115611c06565b611cd08915156117e9565b611cd98861225f565b90611ce5821515611c3c565b818a1015611f8a5750506008820190815492611d076009820194855490611b6c565b93612710611d2061ffff968760075460301c16906120fd565b048b10611f53578a7f000000000000000000000000000000000000000000000000000000000000000094611d5682303389611876565b611d876004850193845493611d71600b8801958654906117dc565b915491808311611f4b575b5081611f2a576117dc565b91600285015491611db0600a8701948554611da281876117dc565b808311611f22575b50611b6c565b8094555480611ef7575b5054918d8b51908152818a820152838c8201528d7f6c2ad965418e364223fcc71b275f3b0aff554a3a01def28c4eb08366671dba8460603393a310159182611eeb575b5050611e10575b50505050505050505050565b7feb0a2406213f12fe23f25f04c31b79ef4f7d9cee2889324c2b86a06f35142f3c9760008051602061245383398151915293600383015480611ed6575b5050600160ff198254161790555416918285526005845280868620541690611e79816007541683611b6c565b6103e8808211611ece575b5084875260058652878720805461ffff1916929091169182179055865161ffff928316815291166020820152604090a282519586528501523393a338808080808080808080611e04565b905038611e84565b611ee4918585541690611b2e565b3880611e4d565b54111590503880611dfd565b611f019084611b79565b6007860154808211611f1a575b50600c86015538611dba565b905038611f0e565b915038611daa565b611f398289600254168b611b2e565b611f44828654611b6c565b85556117dc565b915038611d7c565b875162461bcd60e51b815260048101879052601060248201526f185b5bdd5b9d081d1bdbc81cdb585b1b60821b6044820152606490fd5b93929098507feb0a2406213f12fe23f25f04c31b79ef4f7d9cee2889324c2b86a06f35142f3c967f000000000000000000000000000000000000000000000000000000000000000095611fdf8b30338a611876565b600483015490611ff5600b8501928354906117dc565b9060028501549861200c600a87019a8b54906117dc565b919854421115806120ec575b6120b9575b98612045839261206c999a9b61204e9561208e575b6003890154806120795750508254611b6c565b90558254611b6c565b90556007820154600c830155805460ff191660011790555416612110565b82519586528501523393a3565b612087918b8b541690611b2e565b388061082e565b6120988d866117dc565b806120a4575b50612032565b6120b3908b6002541683611b2e565b3861209e565b9887985061204561204e93926127106120de61ffff61206c9c600754901c16866120fd565b049a9950929350509861201d565b5061ffff600754891c161515612018565b81810292918115918404141715610d7857565b60018060a01b031680600052600560205260008051602061245383398151915261ffff806040600020541690612158600754828082169160201c16806121b0575b5083611b6c565b6103e88082116121a8575b50169083600052600560205260406000208261ffff198254161790556121a36040519283928390602090939293604083019461ffff809216845216910152565b0390a2565b905038612163565b906127106121c16121c893836120fd565b0490611b6c565b38612151565b6040516370a0823160e01b81523060048201526020816024817f00000000000000000000000000000000000000000000000000000000000000006001600160a01b03165afa90811561225357600091612225575090565b906020823d821161224b575b8161223e60209383611764565b81010312611a0257505190565b3d9150612231565b6040513d6000823e3d90fd5b6000526008602052604060002060ff600d820154166122ac57806122a361229260026122a9940154600a840154906117dc565b91600b6004820154910154906117dc565b90611b6c565b90565b50600090565b906122bc90612369565b90606082015181116122f4576122f06127109161ffff6020846122e583604089015116856120fd565b0495015116906120fd565b0491565b60405162461bcd60e51b815260206004820152601560248201527432bc31b2b2b239903a34b2b91036b0bc103637b0b760591b6044820152606490fd5b9060405161233e81611748565b60606002829480548452600181015461ffff90818116602087015260101c1660408501520154910152565b60609060405161237881611748565b6000928184809352826020820152826040820152015260018060a01b03168152600560205261ffff604082205416908091600654925b8381106123ea57505060001982019182116123d657506123d06122a9916115eb565b50612331565b634e487b7160e01b81526011600452602490fd5b6123f3816115eb565b505482101561242157600019811461240d576001016123ae565b634e487b7160e01b83526011600452602483fd5b90506122a992506123d091506115eb56fe4e5005547c24dfd12003c2845fd20f2071c49fa3cd30b0be7a064e3f4c3f8d2af0476f83a777b892446c4939723caba7d89f8de16505f4dfe3c17f8b1dda4868a2646970667358221220f2b77ed1508387b7eadd7fbf27e25c63c75ebb57adb3b023db31664bc58749c764736f6c63430008120033","opcodes":"PUSH1 0xA0 CALLVALUE PUSH3 0x2D5 JUMPI PUSH1 0x1F PUSH3 0x28AA CODESIZE DUP2 SWAP1 SUB SWAP2 DUP3 ADD PUSH1 0x1F NOT AND DUP4 ADD SWAP3 SWAP2 SWAP1 PUSH1 0x1 PUSH1 0x1 PUSH1 0x40 SHL SUB DUP5 GT DUP4 DUP6 LT OR PUSH3 0x2DA JUMPI DUP2 PUSH2 0x100 SWAP3 DUP5 SWAP3 PUSH1 0x40 SWAP7 DUP8 MSTORE DUP4 CODECOPY DUP2 ADD SUB SLT PUSH3 0x2D5 JUMPI PUSH3 0x52 DUP2 PUSH3 0x310 JUMP JUMPDEST PUSH1 0x20 DUP1 DUP4 ADD MLOAD SWAP1 SWAP3 SWAP1 SWAP2 PUSH1 0x1 PUSH1 0x1 PUSH1 0xA0 SHL SUB SWAP2 SWAP1 DUP3 DUP5 AND DUP1 DUP6 SUB PUSH3 0x2D5 JUMPI PUSH3 0x7E DUP8 DUP5 ADD PUSH3 0x310 JUMP JUMPDEST SWAP2 PUSH1 0x60 DUP5 ADD MLOAD SWAP6 PUSH3 0x93 PUSH1 0x80 DUP7 ADD PUSH3 0x325 JUMP JUMPDEST SWAP6 PUSH3 0xA2 PUSH1 0xA0 DUP8 ADD PUSH3 0x325 JUMP JUMPDEST SWAP5 PUSH3 0xBF PUSH1 0xE0 PUSH3 0xB7 PUSH1 0xC0 DUP11 ADD PUSH3 0x325 JUMP JUMPDEST SWAP9 ADD PUSH3 0x325 JUMP JUMPDEST SWAP5 PUSH3 0xCB CALLER PUSH3 0x3BA JUMP JUMPDEST PUSH1 0x1 DUP1 SSTORE ISZERO PUSH3 0x2A7 JUMPI AND SWAP1 DUP2 ISZERO PUSH3 0x276 JUMPI PUSH2 0xFFFF SWAP3 DUP4 DUP6 AND DUP1 ISZERO ISZERO SWAP1 DUP2 PUSH3 0x268 JUMPI JUMPDEST POP ISZERO PUSH3 0x23B JUMPI SWAP4 PUSH6 0xFFFF00000000 SWAP4 PUSH1 0xA SWAP9 SWAP7 SWAP4 PUSH4 0xFFFF0000 SWAP4 PUSH3 0x11D PUSH3 0x1E5 SWAP14 SWAP13 SWAP11 SWAP9 PUSH3 0x3BA JUMP JUMPDEST PUSH1 0x80 MSTORE PUSH1 0x1 DUP1 PUSH1 0xA0 SHL SUB NOT PUSH1 0x2 SLOAD AND OR PUSH1 0x2 SSTORE DUP8 PUSH1 0x3 SSTORE PUSH8 0xFFFF000000000000 PUSH1 0x7 SLOAD SWAP3 PUSH1 0x30 SHL AND SWAP7 AND SWAP1 PUSH1 0x1 DUP1 PUSH1 0x40 SHL SUB NOT AND OR SWAP2 PUSH1 0x10 SHL AND OR SWAP2 DUP7 SHL AND OR OR PUSH1 0x7 SSTORE PUSH3 0x18D PUSH3 0x16F PUSH3 0x2F0 JUMP JUMPDEST PUSH2 0x2EE DUP2 MSTORE PUSH2 0x7D0 DUP6 DUP3 ADD MSTORE PUSH1 0xC8 DUP8 DUP3 ADD MSTORE DUP3 PUSH1 0x60 DUP3 ADD MSTORE PUSH3 0x335 JUMP JUMPDEST PUSH3 0x1BD PUSH3 0x19B PUSH3 0x2F0 JUMP JUMPDEST PUSH2 0x258 DUP2 MSTORE PUSH2 0xFA0 DUP6 DUP3 ADD MSTORE PUSH2 0x190 DUP8 DUP3 ADD MSTORE DUP3 PUSH1 0x1 SHR PUSH1 0x60 DUP3 ADD MSTORE PUSH3 0x335 JUMP JUMPDEST PUSH2 0x1F40 PUSH3 0x1CA PUSH3 0x2F0 JUMP JUMPDEST SWAP4 PUSH1 0x0 DUP6 MSTORE DUP5 ADD MSTORE PUSH2 0x320 DUP6 DUP5 ADD MSTORE DIV PUSH1 0x60 DUP3 ADD MSTORE PUSH3 0x335 JUMP JUMPDEST MLOAD PUSH2 0x24A8 SWAP1 DUP2 PUSH3 0x402 DUP3 CODECOPY PUSH1 0x80 MLOAD DUP2 DUP2 DUP2 PUSH2 0x1B6 ADD MSTORE DUP2 DUP2 PUSH2 0x3D2 ADD MSTORE DUP2 DUP2 PUSH2 0x7DE ADD MSTORE DUP2 DUP2 PUSH2 0xAE1 ADD MSTORE DUP2 DUP2 PUSH2 0xFDC ADD MSTORE DUP2 DUP2 PUSH2 0x10FE ADD MSTORE DUP2 DUP2 PUSH2 0x12DF ADD MSTORE DUP2 DUP2 PUSH2 0x1D2A ADD MSTORE DUP2 DUP2 PUSH2 0x1FB3 ADD MSTORE PUSH2 0x21E9 ADD MSTORE RETURN JUMPDEST DUP11 MLOAD PUSH3 0x461BCD PUSH1 0xE5 SHL DUP2 MSTORE PUSH1 0x4 DUP2 ADD DUP12 SWAP1 MSTORE PUSH1 0x6 PUSH1 0x24 DUP3 ADD MSTORE PUSH6 0x6D696E427073 PUSH1 0xD0 SHL PUSH1 0x44 DUP3 ADD MSTORE PUSH1 0x64 SWAP1 REVERT JUMPDEST PUSH2 0x2710 SWAP2 POP GT ISZERO CODESIZE PUSH3 0xF0 JUMP JUMPDEST DUP10 MLOAD PUSH3 0x461BCD PUSH1 0xE5 SHL DUP2 MSTORE PUSH1 0x4 DUP2 ADD DUP11 SWAP1 MSTORE PUSH1 0xA PUSH1 0x24 DUP3 ADD MSTORE PUSH10 0x74726561737572793D3 PUSH1 0xB4 SHL PUSH1 0x44 DUP3 ADD MSTORE PUSH1 0x64 SWAP1 REVERT JUMPDEST DUP11 MLOAD PUSH3 0x461BCD PUSH1 0xE5 SHL DUP2 MSTORE PUSH1 0x4 DUP2 ADD DUP12 SWAP1 MSTORE PUSH1 0x7 PUSH1 0x24 DUP3 ADD MSTORE PUSH7 0x746F6B656E3D3 PUSH1 0xCC SHL PUSH1 0x44 DUP3 ADD MSTORE PUSH1 0x64 SWAP1 REVERT JUMPDEST PUSH1 0x0 DUP1 REVERT JUMPDEST PUSH4 0x4E487B71 PUSH1 0xE0 SHL PUSH1 0x0 MSTORE PUSH1 0x41 PUSH1 0x4 MSTORE PUSH1 0x24 PUSH1 0x0 REVERT JUMPDEST PUSH1 0x40 MLOAD SWAP1 PUSH1 0x80 DUP3 ADD PUSH1 0x1 PUSH1 0x1 PUSH1 0x40 SHL SUB DUP2 GT DUP4 DUP3 LT OR PUSH3 0x2DA JUMPI PUSH1 0x40 MSTORE JUMP JUMPDEST MLOAD SWAP1 PUSH1 0x1 PUSH1 0x1 PUSH1 0xA0 SHL SUB DUP3 AND DUP3 SUB PUSH3 0x2D5 JUMPI JUMP JUMPDEST MLOAD SWAP1 PUSH2 0xFFFF DUP3 AND DUP3 SUB PUSH3 0x2D5 JUMPI JUMP JUMPDEST PUSH1 0x6 SLOAD PUSH9 0x10000000000000000 DUP2 LT ISZERO PUSH3 0x2DA JUMPI PUSH1 0x1 DUP2 ADD DUP1 PUSH1 0x6 SSTORE DUP2 LT ISZERO PUSH3 0x3A4 JUMPI PUSH1 0x60 PUSH1 0x2 SWAP2 PUSH1 0x6 PUSH1 0x0 MSTORE PUSH1 0x3 PUSH1 0x20 PUSH1 0x0 KECCAK256 SWAP2 MUL ADD SWAP3 DUP1 MLOAD DUP5 SSTORE PUSH1 0x1 DUP5 ADD PUSH2 0xFFFF PUSH1 0x20 DUP4 ADD MLOAD AND DUP2 SLOAD SWAP1 PUSH4 0xFFFF0000 PUSH1 0x40 DUP6 ADD MLOAD PUSH1 0x10 SHL AND SWAP2 PUSH4 0xFFFFFFFF NOT AND OR OR SWAP1 SSTORE ADD MLOAD SWAP2 ADD SSTORE JUMP JUMPDEST PUSH4 0x4E487B71 PUSH1 0xE0 SHL PUSH1 0x0 MSTORE PUSH1 0x32 PUSH1 0x4 MSTORE PUSH1 0x24 PUSH1 0x0 REVERT JUMPDEST PUSH1 0x0 DUP1 SLOAD PUSH1 0x1 PUSH1 0x1 PUSH1 0xA0 SHL SUB SWAP3 DUP4 AND PUSH1 0x1 PUSH1 0x1 PUSH1 0xA0 SHL SUB NOT DUP3 AND DUP2 OR DUP4 SSTORE SWAP3 AND SWAP1 PUSH32 0x8BE0079C531659141344CD1FD0A4F28419497F9722A3DAAFE3B4186F6B6457E0 SWAP1 DUP1 LOG3 JUMP INVALID PUSH1 0x80 DUP1 PUSH1 0x40 MSTORE PUSH1 0x4 CALLDATASIZE LT ISZERO PUSH2 0x13 JUMPI PUSH1 0x0 DUP1 REVERT JUMPDEST PUSH1 0x0 CALLDATALOAD PUSH1 0xE0 SHR SWAP1 DUP2 PUSH4 0x1F28D91 EQ PUSH2 0x15D0 JUMPI POP DUP1 PUSH4 0x39AF9EB EQ PUSH2 0x1576 JUMPI DUP1 PUSH4 0x6D47DE9 EQ PUSH2 0x14FE JUMPI DUP1 PUSH4 0x13B0BE33 EQ PUSH2 0x14CC JUMPI DUP1 PUSH4 0x1DD0C13F EQ PUSH2 0x14AA JUMPI DUP1 PUSH4 0x285EB373 EQ PUSH2 0x1403 JUMPI DUP1 PUSH4 0x328EFC47 EQ PUSH2 0x1070 JUMPI DUP1 PUSH4 0x3A5D8D6C EQ PUSH2 0x1038 JUMPI DUP1 PUSH4 0x415F1240 EQ PUSH2 0xEA4 JUMPI DUP1 PUSH4 0x44DAC75B EQ PUSH2 0xE51 JUMPI DUP1 PUSH4 0x5662ECC7 EQ PUSH2 0xE33 JUMPI DUP1 PUSH4 0x61D027B3 EQ PUSH2 0xE0A JUMPI DUP1 PUSH4 0x715018A6 EQ PUSH2 0xDB1 JUMPI DUP1 PUSH4 0x73C5CA09 EQ PUSH2 0xCA8 JUMPI DUP1 PUSH4 0x74375359 EQ PUSH2 0xC8D JUMPI DUP1 PUSH4 0x752DF2DB EQ PUSH2 0xB91 JUMPI DUP1 PUSH4 0x784AEE35 EQ PUSH2 0xB5D JUMPI DUP1 PUSH4 0x7D527220 EQ PUSH2 0xB30 JUMPI DUP1 PUSH4 0x8DA5CB5B EQ PUSH2 0xB07 JUMPI DUP1 PUSH4 0x95CCEA67 EQ PUSH2 0xAA3 JUMPI DUP1 PUSH4 0x9C21C3A1 EQ PUSH2 0xA7F JUMPI DUP1 PUSH4 0xA8311C3B EQ PUSH2 0xA5A JUMPI DUP1 PUSH4 0xA85C38EF EQ PUSH2 0x98B JUMPI DUP1 PUSH4 0xA8841DB9 EQ PUSH2 0x966 JUMPI DUP1 PUSH4 0xBE020752 EQ PUSH2 0x909 JUMPI DUP1 PUSH4 0xBE62E7DF EQ PUSH2 0x731 JUMPI DUP1 PUSH4 0xD09EF241 EQ PUSH2 0x55F JUMPI DUP1 PUSH4 0xE02EF565 EQ PUSH2 0x46C JUMPI DUP1 PUSH4 0xE5EEB32C EQ PUSH2 0x446 JUMPI DUP1 PUSH4 0xEC14476F EQ PUSH2 0x428 JUMPI DUP1 PUSH4 0xF0F437B6 EQ PUSH2 0x39B JUMPI DUP1 PUSH4 0xF0F44260 EQ PUSH2 0x2F1 JUMPI DUP1 PUSH4 0xF2FDE38B EQ PUSH2 0x228 JUMPI DUP1 PUSH4 0xF7E590EE EQ PUSH2 0x1EA JUMPI PUSH4 0xFC0C546A EQ PUSH2 0x1A0 JUMPI PUSH1 0x0 DUP1 REVERT JUMPDEST CALLVALUE PUSH2 0x1E5 JUMPI PUSH1 0x0 CALLDATASIZE PUSH1 0x3 NOT ADD SLT PUSH2 0x1E5 JUMPI PUSH1 0x40 MLOAD PUSH32 0x0 PUSH1 0x1 PUSH1 0x1 PUSH1 0xA0 SHL SUB AND DUP2 MSTORE PUSH1 0x20 SWAP1 RETURN JUMPDEST PUSH1 0x0 DUP1 REVERT JUMPDEST CALLVALUE PUSH2 0x1E5 JUMPI PUSH1 0x20 CALLDATASIZE PUSH1 0x3 NOT ADD SLT PUSH2 0x1E5 JUMPI PUSH1 0x1 PUSH1 0x1 PUSH1 0xA0 SHL SUB PUSH2 0x20B PUSH2 0x163C JUMP JUMPDEST AND PUSH1 0x0 MSTORE PUSH1 0x5 PUSH1 0x20 MSTORE PUSH1 0x20 PUSH2 0xFFFF PUSH1 0x40 PUSH1 0x0 KECCAK256 SLOAD AND PUSH1 0x40 MLOAD SWAP1 DUP2 MSTORE RETURN JUMPDEST CALLVALUE PUSH2 0x1E5 JUMPI PUSH1 0x20 CALLDATASIZE PUSH1 0x3 NOT ADD SLT PUSH2 0x1E5 JUMPI PUSH2 0x241 PUSH2 0x163C JUMP JUMPDEST PUSH2 0x249 PUSH2 0x169B JUMP JUMPDEST PUSH1 0x1 PUSH1 0x1 PUSH1 0xA0 SHL SUB SWAP1 DUP2 AND SWAP1 DUP2 ISZERO PUSH2 0x29D JUMPI PUSH1 0x0 SLOAD DUP3 PUSH12 0xFFFFFFFFFFFFFFFFFFFFFFFF PUSH1 0xA0 SHL DUP3 AND OR PUSH1 0x0 SSTORE AND PUSH32 0x8BE0079C531659141344CD1FD0A4F28419497F9722A3DAAFE3B4186F6B6457E0 PUSH1 0x0 DUP1 LOG3 STOP JUMPDEST PUSH1 0x40 MLOAD PUSH3 0x461BCD PUSH1 0xE5 SHL DUP2 MSTORE PUSH1 0x20 PUSH1 0x4 DUP3 ADD MSTORE PUSH1 0x26 PUSH1 0x24 DUP3 ADD MSTORE PUSH32 0x4F776E61626C653A206E6577206F776E657220697320746865207A65726F2061 PUSH1 0x44 DUP3 ADD MSTORE PUSH6 0x646472657373 PUSH1 0xD0 SHL PUSH1 0x64 DUP3 ADD MSTORE PUSH1 0x84 SWAP1 REVERT JUMPDEST CALLVALUE PUSH2 0x1E5 JUMPI PUSH1 0x20 CALLDATASIZE PUSH1 0x3 NOT ADD SLT PUSH2 0x1E5 JUMPI PUSH2 0x30A PUSH2 0x163C JUMP JUMPDEST PUSH2 0x312 PUSH2 0x169B JUMP JUMPDEST PUSH1 0x1 PUSH1 0x1 PUSH1 0xA0 SHL SUB SWAP1 DUP2 AND SWAP1 DUP2 ISZERO PUSH2 0x369 JUMPI PUSH32 0x4AB5BE82436D353E61CA18726E984E561F5C1CC7C6D38B29D2553C790434705A PUSH1 0x40 PUSH1 0x2 SLOAD SWAP3 DUP2 MLOAD SWAP1 DUP5 AND DUP2 MSTORE DUP5 PUSH1 0x20 DUP3 ADD MSTORE LOG1 PUSH1 0x1 PUSH1 0x1 PUSH1 0xA0 SHL SUB NOT AND OR PUSH1 0x2 SSTORE STOP JUMPDEST PUSH1 0x40 MLOAD PUSH3 0x461BCD PUSH1 0xE5 SHL DUP2 MSTORE PUSH1 0x20 PUSH1 0x4 DUP3 ADD MSTORE PUSH1 0xA PUSH1 0x24 DUP3 ADD MSTORE PUSH10 0x74726561737572793D3 PUSH1 0xB4 SHL PUSH1 0x44 DUP3 ADD MSTORE PUSH1 0x64 SWAP1 REVERT JUMPDEST CALLVALUE PUSH2 0x1E5 JUMPI PUSH1 0x20 CALLDATASIZE PUSH1 0x3 NOT ADD SLT PUSH2 0x1E5 JUMPI PUSH1 0x4 CALLDATALOAD PUSH2 0x3B7 PUSH2 0x169B JUMP JUMPDEST PUSH2 0x3BF PUSH2 0x1820 JUMP JUMPDEST PUSH2 0x3CA DUP2 ISZERO ISZERO PUSH2 0x17E9 JUMP JUMPDEST PUSH2 0x3F6 DUP2 ADDRESS CALLER PUSH32 0x0 PUSH2 0x1876 JUMP JUMPDEST PUSH1 0x40 MLOAD SWAP1 DUP2 MSTORE PUSH32 0xBB9E497A5B82D1A37F9496DD70C6EFB97BA0D98C66C3422D05010105D0633598 PUSH1 0x20 CALLER SWAP3 LOG2 PUSH1 0x1 DUP1 SSTORE STOP JUMPDEST CALLVALUE PUSH2 0x1E5 JUMPI PUSH1 0x0 CALLDATASIZE PUSH1 0x3 NOT ADD SLT PUSH2 0x1E5 JUMPI PUSH1 0x20 PUSH1 0x3 SLOAD PUSH1 0x40 MLOAD SWAP1 DUP2 MSTORE RETURN JUMPDEST CALLVALUE PUSH2 0x1E5 JUMPI PUSH1 0x20 CALLDATASIZE PUSH1 0x3 NOT ADD SLT PUSH2 0x1E5 JUMPI PUSH1 0x20 PUSH2 0x464 PUSH1 0x4 CALLDATALOAD PUSH2 0x225F JUMP JUMPDEST PUSH1 0x40 MLOAD SWAP1 DUP2 MSTORE RETURN JUMPDEST CALLVALUE PUSH2 0x1E5 JUMPI PUSH1 0xA0 CALLDATASIZE PUSH1 0x3 NOT ADD SLT PUSH2 0x1E5 JUMPI PUSH1 0x4 CALLDATALOAD PUSH2 0x488 PUSH2 0x168A JUMP JUMPDEST PUSH1 0x64 CALLDATALOAD SWAP2 PUSH2 0xFFFF SWAP2 DUP3 DUP5 AND DUP1 SWAP5 SUB PUSH2 0x1E5 JUMPI PUSH2 0x4A2 PUSH2 0x169B JUMP JUMPDEST PUSH1 0x6 SLOAD DUP3 LT ISZERO PUSH2 0x534 JUMPI PUSH32 0xFE2EFE9272EB0DEB4938823C5D646855A80E10848BF50AF99EF34310D8F92B8D SWAP4 PUSH1 0x20 SWAP4 PUSH2 0x520 SWAP3 AND SWAP1 PUSH2 0x4EE PUSH2 0x2710 DUP1 DUP5 GT ISZERO SWAP1 DUP2 PUSH2 0x529 JUMPI JUMPDEST POP PUSH2 0x16F3 JUMP JUMPDEST PUSH1 0x40 MLOAD SWAP2 PUSH2 0x4FB DUP4 PUSH2 0x1748 JUMP JUMPDEST PUSH1 0x24 CALLDATALOAD DUP4 MSTORE DUP6 DUP4 ADD MSTORE PUSH1 0x40 DUP3 ADD MSTORE PUSH1 0x84 CALLDATALOAD PUSH1 0x60 DUP3 ADD MSTORE PUSH2 0x51A DUP4 PUSH2 0x15EB JUMP JUMPDEST SWAP1 PUSH2 0x1786 JUMP JUMPDEST PUSH1 0x40 MLOAD SWAP1 DUP2 MSTORE LOG1 STOP JUMPDEST SWAP1 POP DUP3 GT ISZERO DUP9 PUSH2 0x4E8 JUMP JUMPDEST PUSH1 0x40 MLOAD PUSH3 0x461BCD PUSH1 0xE5 SHL DUP2 MSTORE PUSH1 0x20 PUSH1 0x4 DUP3 ADD MSTORE PUSH1 0x3 PUSH1 0x24 DUP3 ADD MSTORE PUSH3 0xD2C8F PUSH1 0xEB SHL PUSH1 0x44 DUP3 ADD MSTORE PUSH1 0x64 SWAP1 REVERT JUMPDEST CALLVALUE PUSH2 0x1E5 JUMPI PUSH1 0x20 CALLDATASIZE PUSH1 0x3 NOT ADD SLT PUSH2 0x1E5 JUMPI PUSH1 0x0 PUSH2 0x1A0 PUSH1 0x40 MLOAD PUSH2 0x581 DUP2 PUSH2 0x172B JUMP JUMPDEST DUP3 DUP2 MSTORE DUP3 PUSH1 0x20 DUP3 ADD MSTORE DUP3 PUSH1 0x40 DUP3 ADD MSTORE DUP3 PUSH1 0x60 DUP3 ADD MSTORE DUP3 PUSH1 0x80 DUP3 ADD MSTORE DUP3 PUSH1 0xA0 DUP3 ADD MSTORE DUP3 PUSH1 0xC0 DUP3 ADD MSTORE DUP3 PUSH1 0xE0 DUP3 ADD MSTORE DUP3 PUSH2 0x100 DUP3 ADD MSTORE DUP3 PUSH2 0x120 DUP3 ADD MSTORE DUP3 PUSH2 0x140 DUP3 ADD MSTORE DUP3 PUSH2 0x160 DUP3 ADD MSTORE DUP3 PUSH2 0x180 DUP3 ADD MSTORE ADD MSTORE PUSH1 0x4 CALLDATALOAD PUSH1 0x0 MSTORE PUSH1 0x8 PUSH1 0x20 MSTORE PUSH2 0x1C0 PUSH1 0x40 PUSH1 0x0 KECCAK256 PUSH2 0x1A0 PUSH1 0x40 MLOAD PUSH2 0x5F5 DUP2 PUSH2 0x172B JUMP JUMPDEST PUSH1 0xFF PUSH1 0xD PUSH1 0x1 DUP1 PUSH1 0xA0 SHL SUB DUP6 SLOAD AND SWAP5 DUP6 DUP5 MSTORE PUSH1 0x1 DUP1 PUSH1 0xA0 SHL SUB PUSH1 0x1 DUP3 ADD SLOAD AND PUSH1 0x20 DUP6 ADD MSTORE PUSH1 0x2 DUP2 ADD SLOAD PUSH1 0x40 DUP6 ADD MSTORE PUSH1 0x3 DUP2 ADD SLOAD PUSH1 0x60 DUP6 ADD MSTORE PUSH1 0x4 DUP2 ADD SLOAD PUSH1 0x80 DUP6 ADD MSTORE PUSH1 0x5 DUP2 ADD SLOAD PUSH1 0xA0 DUP6 ADD MSTORE PUSH1 0x6 DUP2 ADD SLOAD PUSH1 0xC0 DUP6 ADD MSTORE PUSH1 0x7 DUP2 ADD SLOAD PUSH1 0xE0 DUP6 ADD MSTORE PUSH1 0x8 DUP2 ADD SLOAD PUSH2 0x100 DUP6 ADD MSTORE PUSH1 0x9 DUP2 ADD SLOAD PUSH2 0x120 DUP6 ADD MSTORE PUSH1 0xA DUP2 ADD SLOAD PUSH2 0x140 DUP6 ADD MSTORE PUSH1 0xB DUP2 ADD SLOAD PUSH2 0x160 DUP6 ADD MSTORE PUSH1 0xC DUP2 ADD SLOAD PUSH2 0x180 DUP6 ADD MSTORE ADD SLOAD AND ISZERO ISZERO DUP3 DUP3 ADD MSTORE PUSH1 0x40 MLOAD SWAP3 DUP4 MSTORE PUSH1 0x1 DUP1 PUSH1 0xA0 SHL SUB PUSH1 0x20 DUP3 ADD MLOAD AND PUSH1 0x20 DUP5 ADD MSTORE PUSH1 0x40 DUP2 ADD MLOAD PUSH1 0x40 DUP5 ADD MSTORE PUSH1 0x60 DUP2 ADD MLOAD PUSH1 0x60 DUP5 ADD MSTORE PUSH1 0x80 DUP2 ADD MLOAD PUSH1 0x80 DUP5 ADD MSTORE PUSH1 0xA0 DUP2 ADD MLOAD PUSH1 0xA0 DUP5 ADD MSTORE PUSH1 0xC0 DUP2 ADD MLOAD PUSH1 0xC0 DUP5 ADD MSTORE PUSH1 0xE0 DUP2 ADD MLOAD PUSH1 0xE0 DUP5 ADD MSTORE PUSH2 0x100 DUP2 ADD MLOAD PUSH2 0x100 DUP5 ADD MSTORE PUSH2 0x120 DUP2 ADD MLOAD PUSH2 0x120 DUP5 ADD MSTORE PUSH2 0x140 DUP2 ADD MLOAD PUSH2 0x140 DUP5 ADD MSTORE PUSH2 0x160 DUP2 ADD MLOAD PUSH2 0x160 DUP5 ADD MSTORE PUSH2 0x180 DUP2 ADD MLOAD PUSH2 0x180 DUP5 ADD MSTORE ADD MLOAD ISZERO ISZERO PUSH2 0x1A0 DUP3 ADD MSTORE RETURN JUMPDEST CALLVALUE PUSH2 0x1E5 JUMPI PUSH1 0x20 CALLDATASIZE PUSH1 0x3 NOT ADD SLT PUSH2 0x1E5 JUMPI PUSH1 0x4 CALLDATALOAD PUSH2 0x74D PUSH2 0x1820 JUMP JUMPDEST DUP1 PUSH1 0x0 MSTORE PUSH1 0x8 PUSH1 0x20 MSTORE PUSH1 0x40 PUSH1 0x0 KECCAK256 SWAP1 PUSH1 0xD DUP3 ADD SWAP2 PUSH2 0x76F PUSH1 0xFF DUP5 SLOAD AND ISZERO PUSH2 0x1B99 JUMP JUMPDEST DUP1 SLOAD PUSH1 0x1 PUSH1 0x1 PUSH1 0xA0 SHL SUB SWAP4 SWAP1 PUSH2 0x788 SWAP1 DUP6 AND CALLER EQ PUSH2 0x1BCE JUMP JUMPDEST PUSH2 0x798 PUSH1 0x6 DUP4 ADD SLOAD TIMESTAMP GT ISZERO PUSH2 0x1C06 JUMP JUMPDEST PUSH1 0x2 DUP3 ADD SLOAD SWAP4 PUSH2 0x7AE PUSH1 0xA DUP5 ADD SWAP6 DUP7 SLOAD SWAP1 PUSH2 0x17DC JUMP JUMPDEST SWAP3 PUSH1 0x4 DUP2 ADD SLOAD SWAP3 PUSH2 0x7C5 PUSH1 0xB DUP4 ADD SWAP5 DUP6 SLOAD SWAP1 PUSH2 0x17DC JUMP JUMPDEST SWAP5 PUSH2 0x7D0 DUP7 DUP3 PUSH2 0x1B6C JUMP JUMPDEST SWAP8 PUSH2 0x7DC DUP10 ISZERO ISZERO PUSH2 0x1C3C JUMP JUMPDEST PUSH32 0x0 SWAP2 PUSH2 0x80A DUP11 ADDRESS CALLER DUP7 PUSH2 0x1876 JUMP JUMPDEST PUSH1 0x0 SWAP7 PUSH2 0xFFFF PUSH1 0x7 SLOAD PUSH1 0x20 SHR AND DUP1 PUSH2 0x8E8 JUMPI JUMPDEST POP SWAP1 PUSH2 0x837 SWAP2 DUP10 PUSH2 0x862 SWAP10 SWAP11 PUSH2 0x8AE JUMPI JUMPDEST POP POP DUP3 SLOAD PUSH2 0x1B6C JUMP JUMPDEST SWAP1 SSTORE PUSH1 0x3 DUP4 ADD SLOAD DUP1 PUSH2 0x899 JUMPI JUMPDEST POP POP PUSH1 0x7 DUP3 ADD SLOAD PUSH1 0xC DUP4 ADD SSTORE DUP1 SLOAD PUSH1 0xFF NOT AND PUSH1 0x1 OR SWAP1 SSTORE SLOAD AND PUSH2 0x2110 JUMP JUMPDEST PUSH1 0x40 MLOAD SWAP3 DUP4 MSTORE PUSH1 0x20 DUP4 ADD MSTORE PUSH32 0xEB0A2406213F12FE23F25F04C31B79EF4F7D9CEE2889324C2B86A06F35142F3C PUSH1 0x40 CALLER SWAP4 LOG3 PUSH1 0x1 DUP1 SSTORE STOP JUMPDEST PUSH2 0x8A7 SWAP2 DUP6 DUP6 SLOAD AND SWAP1 PUSH2 0x1B2E JUMP JUMPDEST DUP8 DUP1 PUSH2 0x844 JUMP JUMPDEST DUP1 PUSH2 0x8BC DUP13 PUSH2 0x8CA SWAP4 PUSH2 0x17DC JUMP JUMPDEST DUP1 PUSH2 0x8D3 JUMPI JUMPDEST POP DUP3 SLOAD PUSH2 0x1B6C JUMP JUMPDEST SWAP1 SSTORE DUP12 DUP1 PUSH2 0x82E JUMP JUMPDEST PUSH2 0x8E2 SWAP1 DUP12 PUSH1 0x2 SLOAD AND DUP10 PUSH2 0x1B2E JUMP JUMPDEST DUP15 PUSH2 0x8C2 JUMP JUMPDEST PUSH2 0x862 SWAP9 POP SWAP1 PUSH2 0x2710 PUSH2 0x8FF PUSH2 0x837 SWAP5 SWAP4 DUP13 PUSH2 0x20FD JUMP JUMPDEST DIV SWAP9 POP SWAP1 SWAP2 PUSH2 0x81D JUMP JUMPDEST CALLVALUE PUSH2 0x1E5 JUMPI PUSH1 0x40 CALLDATASIZE PUSH1 0x3 NOT ADD SLT PUSH2 0x1E5 JUMPI PUSH2 0x922 PUSH2 0x1668 JUMP JUMPDEST PUSH2 0x92A PUSH2 0x1679 JUMP JUMPDEST PUSH2 0x932 PUSH2 0x169B JUMP JUMPDEST PUSH2 0xFFFF PUSH4 0xFFFF0000 PUSH1 0x7 SLOAD SWAP3 PUSH1 0x10 SHL AND SWAP3 AND SWAP1 PUSH4 0xFFFFFFFF NOT AND OR OR PUSH1 0x7 SSTORE PUSH1 0x0 DUP1 MLOAD PUSH1 0x20 PUSH2 0x2433 DUP4 CODECOPY DUP2 MLOAD SWAP2 MSTORE PUSH1 0x0 DUP1 LOG1 STOP JUMPDEST CALLVALUE PUSH2 0x1E5 JUMPI PUSH1 0x0 CALLDATASIZE PUSH1 0x3 NOT ADD SLT PUSH2 0x1E5 JUMPI PUSH1 0x20 PUSH2 0xFFFF PUSH1 0x7 SLOAD PUSH1 0x10 SHR AND PUSH1 0x40 MLOAD SWAP1 DUP2 MSTORE RETURN JUMPDEST CALLVALUE PUSH2 0x1E5 JUMPI PUSH1 0x20 CALLDATASIZE PUSH1 0x3 NOT ADD SLT PUSH2 0x1E5 JUMPI PUSH1 0x4 CALLDATALOAD PUSH1 0x0 MSTORE PUSH1 0x8 PUSH1 0x20 MSTORE PUSH2 0x1C0 PUSH1 0x40 PUSH1 0x0 KECCAK256 PUSH1 0x1 DUP1 PUSH1 0xA0 SHL SUB SWAP1 DUP2 DUP2 SLOAD AND SWAP2 PUSH1 0x1 DUP3 ADD SLOAD AND SWAP1 PUSH1 0x2 DUP2 ADD SLOAD PUSH1 0x3 DUP3 ADD SLOAD PUSH1 0x4 DUP4 ADD SLOAD PUSH1 0x5 DUP5 ADD SLOAD PUSH1 0x6 DUP6 ADD SLOAD PUSH1 0x7 DUP7 ADD SLOAD SWAP1 PUSH1 0x8 DUP8 ADD SLOAD SWAP3 PUSH1 0x9 DUP9 ADD SLOAD SWAP5 PUSH1 0xA DUP10 ADD SLOAD SWAP7 PUSH1 0xB DUP11 ADD SLOAD SWAP9 PUSH1 0xFF PUSH1 0xD PUSH1 0xC DUP14 ADD SLOAD SWAP13 ADD SLOAD AND SWAP12 PUSH1 0x20 PUSH1 0x40 MLOAD SWAP15 DUP16 SWAP1 DUP2 MSTORE ADD MSTORE PUSH1 0x40 DUP14 ADD MSTORE PUSH1 0x60 DUP13 ADD MSTORE PUSH1 0x80 DUP12 ADD MSTORE PUSH1 0xA0 DUP11 ADD MSTORE PUSH1 0xC0 DUP10 ADD MSTORE PUSH1 0xE0 DUP9 ADD MSTORE PUSH2 0x100 DUP8 ADD MSTORE PUSH2 0x120 DUP7 ADD MSTORE PUSH2 0x140 DUP6 ADD MSTORE PUSH2 0x160 DUP5 ADD MSTORE PUSH2 0x180 DUP4 ADD MSTORE ISZERO ISZERO PUSH2 0x1A0 DUP3 ADD MSTORE RETURN JUMPDEST CALLVALUE PUSH2 0x1E5 JUMPI PUSH1 0x0 CALLDATASIZE PUSH1 0x3 NOT ADD SLT PUSH2 0x1E5 JUMPI PUSH1 0x20 PUSH2 0xFFFF PUSH1 0x7 SLOAD PUSH1 0x30 SHR AND PUSH1 0x40 MLOAD SWAP1 DUP2 MSTORE RETURN JUMPDEST CALLVALUE PUSH2 0x1E5 JUMPI PUSH1 0x0 CALLDATASIZE PUSH1 0x3 NOT ADD SLT PUSH2 0x1E5 JUMPI PUSH1 0x20 PUSH1 0x7 SLOAD PUSH2 0xFFFF PUSH1 0x40 MLOAD SWAP2 DUP4 SHR AND DUP2 MSTORE RETURN JUMPDEST CALLVALUE PUSH2 0x1E5 JUMPI PUSH1 0x40 CALLDATASIZE PUSH1 0x3 NOT ADD SLT PUSH2 0x1E5 JUMPI PUSH2 0xB05 PUSH2 0xABF PUSH2 0x163C JUMP JUMPDEST PUSH2 0xAC7 PUSH2 0x169B JUMP JUMPDEST PUSH2 0xADB PUSH1 0x1 PUSH1 0x1 PUSH1 0xA0 SHL SUB DUP3 AND ISZERO ISZERO PUSH2 0x1AFC JUMP JUMPDEST PUSH1 0x24 CALLDATALOAD SWAP1 PUSH32 0x0 PUSH2 0x1B2E JUMP JUMPDEST STOP JUMPDEST CALLVALUE PUSH2 0x1E5 JUMPI PUSH1 0x0 CALLDATASIZE PUSH1 0x3 NOT ADD SLT PUSH2 0x1E5 JUMPI PUSH1 0x0 SLOAD PUSH1 0x40 MLOAD PUSH1 0x1 PUSH1 0x1 PUSH1 0xA0 SHL SUB SWAP1 SWAP2 AND DUP2 MSTORE PUSH1 0x20 SWAP1 RETURN JUMPDEST CALLVALUE PUSH2 0x1E5 JUMPI PUSH1 0x40 CALLDATASIZE PUSH1 0x3 NOT ADD SLT PUSH2 0x1E5 JUMPI PUSH2 0xB49 PUSH2 0x1820 JUMP JUMPDEST PUSH2 0xB57 PUSH1 0x24 CALLDATALOAD PUSH1 0x4 CALLDATALOAD PUSH2 0x1C76 JUMP JUMPDEST PUSH1 0x1 DUP1 SSTORE STOP JUMPDEST CALLVALUE PUSH2 0x1E5 JUMPI PUSH1 0x20 CALLDATASIZE PUSH1 0x3 NOT ADD SLT PUSH2 0x1E5 JUMPI PUSH2 0xB76 PUSH2 0x169B JUMP JUMPDEST PUSH1 0x4 CALLDATALOAD PUSH1 0x3 SSTORE PUSH1 0x0 DUP1 MLOAD PUSH1 0x20 PUSH2 0x2433 DUP4 CODECOPY DUP2 MLOAD SWAP2 MSTORE PUSH1 0x0 DUP1 LOG1 STOP JUMPDEST CALLVALUE PUSH2 0x1E5 JUMPI PUSH1 0x40 CALLDATASIZE PUSH1 0x3 NOT ADD SLT PUSH2 0x1E5 JUMPI PUSH2 0xBAA PUSH2 0x163C JUMP JUMPDEST PUSH2 0xBB2 PUSH2 0x1679 JUMP JUMPDEST SWAP1 PUSH2 0xBBB PUSH2 0x169B JUMP JUMPDEST PUSH1 0x1 PUSH1 0x1 PUSH1 0xA0 SHL SUB AND SWAP1 DUP2 ISZERO PUSH2 0xC60 JUMPI PUSH2 0xFFFF DUP1 DUP3 AND PUSH2 0x3E8 DUP2 GT PUSH2 0xC2E JUMPI PUSH2 0xC29 PUSH1 0x0 DUP1 MLOAD PUSH1 0x20 PUSH2 0x2453 DUP4 CODECOPY DUP2 MLOAD SWAP2 MSTORE SWAP4 DUP6 PUSH1 0x0 MSTORE PUSH1 0x5 PUSH1 0x20 MSTORE PUSH1 0x40 PUSH1 0x0 KECCAK256 DUP1 SLOAD SWAP4 PUSH2 0xFFFF NOT DUP6 AND OR SWAP1 SSTORE PUSH1 0x40 MLOAD SWAP4 DUP5 SWAP4 AND DUP4 SWAP1 PUSH1 0x20 SWAP1 SWAP4 SWAP3 SWAP4 PUSH1 0x40 DUP4 ADD SWAP5 PUSH2 0xFFFF DUP1 SWAP3 AND DUP5 MSTORE AND SWAP2 ADD MSTORE JUMP JUMPDEST SUB SWAP1 LOG2 STOP JUMPDEST PUSH1 0x40 MLOAD PUSH3 0x461BCD PUSH1 0xE5 SHL DUP2 MSTORE PUSH1 0x20 PUSH1 0x4 DUP3 ADD MSTORE PUSH1 0xA PUSH1 0x24 DUP3 ADD MSTORE PUSH10 0x73636F72653E3130303 PUSH1 0xB4 SHL PUSH1 0x44 DUP3 ADD MSTORE PUSH1 0x64 SWAP1 REVERT JUMPDEST PUSH1 0x40 MLOAD PUSH3 0x461BCD PUSH1 0xE5 SHL DUP2 MSTORE PUSH1 0x20 PUSH1 0x4 DUP3 ADD MSTORE PUSH1 0x5 PUSH1 0x24 DUP3 ADD MSTORE PUSH5 0x77686F3D3 PUSH1 0xDC SHL PUSH1 0x44 DUP3 ADD MSTORE PUSH1 0x64 SWAP1 REVERT JUMPDEST CALLVALUE PUSH2 0x1E5 JUMPI PUSH1 0x0 CALLDATASIZE PUSH1 0x3 NOT ADD SLT PUSH2 0x1E5 JUMPI PUSH1 0x20 PUSH2 0x464 PUSH2 0x21CE JUMP JUMPDEST CALLVALUE PUSH2 0x1E5 JUMPI PUSH1 0x80 CALLDATASIZE PUSH1 0x3 NOT ADD SLT PUSH2 0x1E5 JUMPI PUSH2 0xCC1 PUSH2 0x1679 JUMP JUMPDEST PUSH2 0xCC9 PUSH2 0x168A JUMP JUMPDEST SWAP1 PUSH2 0xCD2 PUSH2 0x169B JUMP JUMPDEST PUSH2 0xFFFF DUP1 SWAP2 AND SWAP2 PUSH2 0xCEF PUSH2 0x2710 DUP1 DUP6 GT ISZERO SWAP1 DUP2 PUSH2 0xDA4 JUMPI POP PUSH2 0x16F3 JUMP JUMPDEST PUSH1 0x40 MLOAD SWAP3 PUSH2 0xCFC DUP5 PUSH2 0x1748 JUMP JUMPDEST PUSH1 0x4 CALLDATALOAD DUP5 MSTORE PUSH1 0x20 DUP5 ADD MSTORE AND PUSH1 0x40 DUP3 ADD MSTORE PUSH1 0x64 CALLDATALOAD PUSH1 0x60 DUP3 ADD MSTORE PUSH1 0x6 SLOAD SWAP1 PUSH9 0x10000000000000000 DUP3 LT ISZERO PUSH2 0xD8E JUMPI PUSH2 0x51A DUP3 PUSH1 0x1 PUSH2 0xD3C SWAP5 ADD PUSH1 0x6 SSTORE PUSH2 0x15EB JUMP JUMPDEST PUSH1 0x6 SLOAD PUSH1 0x0 NOT DUP2 ADD SWAP1 DUP2 GT PUSH2 0xD78 JUMPI PUSH1 0x20 PUSH32 0xFE2EFE9272EB0DEB4938823C5D646855A80E10848BF50AF99EF34310D8F92B8D SWAP2 PUSH1 0x40 MLOAD SWAP1 DUP2 MSTORE LOG1 STOP JUMPDEST PUSH4 0x4E487B71 PUSH1 0xE0 SHL PUSH1 0x0 MSTORE PUSH1 0x11 PUSH1 0x4 MSTORE PUSH1 0x24 PUSH1 0x0 REVERT JUMPDEST PUSH4 0x4E487B71 PUSH1 0xE0 SHL PUSH1 0x0 MSTORE PUSH1 0x41 PUSH1 0x4 MSTORE PUSH1 0x24 PUSH1 0x0 REVERT JUMPDEST SWAP1 POP DUP4 DUP4 AND GT ISZERO DUP6 PUSH2 0x4E8 JUMP JUMPDEST CALLVALUE PUSH2 0x1E5 JUMPI PUSH1 0x0 CALLDATASIZE PUSH1 0x3 NOT ADD SLT PUSH2 0x1E5 JUMPI PUSH2 0xDCA PUSH2 0x169B JUMP JUMPDEST PUSH1 0x0 DUP1 SLOAD PUSH1 0x1 PUSH1 0x1 PUSH1 0xA0 SHL SUB NOT DUP2 AND DUP3 SSTORE PUSH1 0x1 PUSH1 0x1 PUSH1 0xA0 SHL SUB AND PUSH32 0x8BE0079C531659141344CD1FD0A4F28419497F9722A3DAAFE3B4186F6B6457E0 DUP3 DUP1 LOG3 STOP JUMPDEST CALLVALUE PUSH2 0x1E5 JUMPI PUSH1 0x0 CALLDATASIZE PUSH1 0x3 NOT ADD SLT PUSH2 0x1E5 JUMPI PUSH1 0x2 SLOAD PUSH1 0x40 MLOAD PUSH1 0x1 PUSH1 0x1 PUSH1 0xA0 SHL SUB SWAP1 SWAP2 AND DUP2 MSTORE PUSH1 0x20 SWAP1 RETURN JUMPDEST CALLVALUE PUSH2 0x1E5 JUMPI PUSH1 0x0 CALLDATASIZE PUSH1 0x3 NOT ADD SLT PUSH2 0x1E5 JUMPI PUSH1 0x20 PUSH1 0x4 SLOAD PUSH1 0x40 MLOAD SWAP1 DUP2 MSTORE RETURN JUMPDEST CALLVALUE PUSH2 0x1E5 JUMPI PUSH1 0x20 CALLDATASIZE PUSH1 0x3 NOT ADD SLT PUSH2 0x1E5 JUMPI PUSH2 0xE6A PUSH2 0x1668 JUMP JUMPDEST PUSH2 0xE72 PUSH2 0x169B JUMP JUMPDEST PUSH6 0xFFFF00000000 PUSH1 0x7 SLOAD SWAP2 PUSH1 0x20 SHL AND SWAP1 PUSH6 0xFFFF00000000 NOT AND OR PUSH1 0x7 SSTORE PUSH1 0x0 DUP1 MLOAD PUSH1 0x20 PUSH2 0x2433 DUP4 CODECOPY DUP2 MLOAD SWAP2 MSTORE PUSH1 0x0 DUP1 LOG1 STOP JUMPDEST CALLVALUE PUSH2 0x1E5 JUMPI PUSH1 0x20 DUP1 PUSH1 0x3 NOT CALLDATASIZE ADD SLT PUSH2 0x1E5 JUMPI PUSH1 0x4 CALLDATALOAD SWAP1 PUSH2 0xEC2 PUSH2 0x1820 JUMP JUMPDEST DUP2 PUSH1 0x0 MSTORE PUSH1 0x8 DUP2 MSTORE PUSH1 0x40 PUSH1 0x0 KECCAK256 PUSH1 0xD DUP2 ADD SWAP1 PUSH2 0xEE2 PUSH1 0xFF DUP4 SLOAD AND ISZERO PUSH2 0x1B99 JUMP JUMPDEST PUSH1 0x6 DUP2 ADD SLOAD TIMESTAMP GT ISZERO PUSH2 0x1005 JUMPI SWAP1 DUP2 PUSH1 0x3 PUSH32 0x3C24207173CA3400F76EAC3FA0D6F98E2AB53C0E661E5DE8C3D9386B0249DF32 SWAP5 SWAP4 ADD SLOAD SWAP2 DUP3 PUSH2 0xFC8 JUMPI JUMPDEST DUP1 SLOAD PUSH1 0xFF NOT AND PUSH1 0x1 OR SWAP1 SSTORE SLOAD PUSH1 0x1 PUSH1 0x1 PUSH1 0xA0 SHL SUB AND PUSH1 0x0 DUP2 DUP2 MSTORE PUSH1 0x5 DUP5 MSTORE PUSH1 0x40 SWAP1 KECCAK256 SLOAD PUSH1 0x7 SLOAD PUSH1 0x0 DUP1 MLOAD PUSH1 0x20 PUSH2 0x2453 DUP4 CODECOPY DUP2 MLOAD SWAP2 MSTORE SWAP2 PUSH2 0xFFFF SWAP1 DUP2 AND SWAP2 PUSH1 0x10 SHR DUP2 AND DUP1 DUP4 GT ISZERO PUSH2 0xFC0 JUMPI PUSH2 0xF72 SWAP1 DUP4 PUSH2 0x17DC JUMP JUMPDEST AND SWAP1 DUP4 PUSH1 0x0 MSTORE PUSH1 0x5 DUP7 MSTORE PUSH1 0x40 PUSH1 0x0 KECCAK256 DUP3 PUSH2 0xFFFF NOT DUP3 SLOAD AND OR SWAP1 SSTORE PUSH2 0xFB0 PUSH1 0x40 MLOAD SWAP3 DUP4 SWAP3 DUP4 SWAP1 PUSH1 0x20 SWAP1 SWAP4 SWAP3 SWAP4 PUSH1 0x40 DUP4 ADD SWAP5 PUSH2 0xFFFF DUP1 SWAP3 AND DUP5 MSTORE AND SWAP2 ADD MSTORE JUMP JUMPDEST SUB SWAP1 LOG2 PUSH1 0x40 MLOAD SWAP1 DUP2 MSTORE LOG2 PUSH1 0x1 DUP1 SSTORE STOP JUMPDEST POP PUSH1 0x0 PUSH2 0xF72 JUMP JUMPDEST PUSH1 0x2 SLOAD PUSH2 0x1000 SWAP1 DUP5 SWAP1 PUSH1 0x1 PUSH1 0x1 PUSH1 0xA0 SHL SUB AND PUSH32 0x0 PUSH2 0x1B2E JUMP JUMPDEST PUSH2 0xF1E JUMP JUMPDEST PUSH1 0x40 MLOAD PUSH3 0x461BCD PUSH1 0xE5 SHL DUP2 MSTORE PUSH1 0x4 DUP2 ADD DUP5 SWAP1 MSTORE PUSH1 0xB PUSH1 0x24 DUP3 ADD MSTORE PUSH11 0x6E6F74206F766572647565 PUSH1 0xA8 SHL PUSH1 0x44 DUP3 ADD MSTORE PUSH1 0x64 SWAP1 REVERT JUMPDEST CALLVALUE PUSH2 0x1E5 JUMPI PUSH1 0x20 CALLDATASIZE PUSH1 0x3 NOT ADD SLT PUSH2 0x1E5 JUMPI PUSH1 0x4 CALLDATALOAD PUSH1 0x0 MSTORE PUSH1 0x8 PUSH1 0x20 MSTORE PUSH1 0x40 DUP1 PUSH1 0x0 KECCAK256 PUSH1 0x9 PUSH1 0x8 DUP3 ADD SLOAD SWAP2 ADD SLOAD DUP3 MLOAD SWAP2 DUP3 MSTORE PUSH1 0x20 DUP3 ADD MSTORE RETURN JUMPDEST CALLVALUE PUSH2 0x1E5 JUMPI PUSH1 0x80 CALLDATASIZE PUSH1 0x3 NOT ADD SLT PUSH2 0x1E5 JUMPI PUSH1 0x4 CALLDATALOAD PUSH2 0x108C PUSH2 0x1652 JUMP JUMPDEST PUSH1 0x64 SWAP2 PUSH1 0x44 SWAP2 SWAP1 DUP4 CALLDATALOAD DUP4 CALLDATALOAD PUSH2 0x109F PUSH2 0x1820 JUMP JUMPDEST PUSH1 0x1 PUSH1 0x1 PUSH1 0xA0 SHL SUB DUP5 AND SWAP4 DUP5 ISZERO PUSH2 0x13D3 JUMPI PUSH2 0x10BB DUP5 ISZERO ISZERO PUSH2 0x17E9 JUMP JUMPDEST TIMESTAMP DUP3 GT ISZERO PUSH2 0x13A3 JUMPI PUSH1 0x1 DUP4 LT PUSH2 0x136E JUMPI PUSH1 0x3 SLOAD DUP5 GT PUSH2 0x133D JUMPI PUSH2 0x10DE CALLER DUP6 PUSH2 0x22B2 JUMP JUMPDEST SWAP8 SWAP1 SWAP7 DUP6 PUSH2 0x10EA PUSH2 0x21CE JUMP JUMPDEST LT PUSH2 0x1308 JUMPI POP POP DUP4 PUSH2 0x1122 SWAP2 DUP8 PUSH2 0x12D7 JUMPI JUMPDEST PUSH32 0x0 PUSH2 0x1B2E JUMP JUMPDEST PUSH1 0x4 SLOAD SWAP6 PUSH1 0x1 DUP8 ADD DUP8 GT PUSH2 0xD78 JUMPI DUP7 PUSH1 0x1 PUSH1 0x20 SWAP9 ADD PUSH1 0x4 SSTORE PUSH1 0x1 PUSH2 0x1146 DUP6 DUP8 PUSH2 0x1B79 JUMP JUMPDEST SWAP2 PUSH2 0x1151 DUP7 DUP6 PUSH2 0x1B79 JUMP JUMPDEST PUSH1 0x40 MLOAD SWAP4 PUSH2 0x115E DUP6 PUSH2 0x172B JUMP JUMPDEST CALLER DUP6 MSTORE DUP10 DUP13 DUP7 ADD MSTORE DUP9 PUSH1 0x40 DUP7 ADD MSTORE DUP11 PUSH1 0x60 DUP7 ADD MSTORE DUP6 PUSH1 0x80 DUP7 ADD MSTORE TIMESTAMP PUSH1 0xA0 DUP7 ADD MSTORE DUP7 PUSH1 0xC0 DUP7 ADD MSTORE DUP8 PUSH1 0xE0 DUP7 ADD MSTORE PUSH2 0x100 DUP6 ADD MSTORE PUSH2 0x120 DUP5 ADD MSTORE PUSH1 0x0 PUSH2 0x140 DUP5 ADD MSTORE PUSH1 0x0 PUSH2 0x160 DUP5 ADD MSTORE PUSH1 0x0 PUSH2 0x180 DUP5 ADD MSTORE PUSH1 0x0 PUSH2 0x1A0 DUP5 ADD MSTORE ADD PUSH1 0x0 MSTORE PUSH1 0x8 DUP9 MSTORE PUSH2 0x1A0 PUSH1 0xD PUSH1 0x40 PUSH1 0x0 KECCAK256 PUSH1 0x1 DUP1 PUSH1 0xA0 SHL SUB DUP5 MLOAD AND PUSH12 0xFFFFFFFFFFFFFFFFFFFFFFFF PUSH1 0xA0 SHL SWAP1 DUP2 DUP4 SLOAD AND OR DUP3 SSTORE PUSH1 0x1 DUP3 ADD SWAP1 PUSH1 0x1 DUP1 PUSH1 0xA0 SHL SUB DUP14 DUP8 ADD MLOAD AND SWAP1 DUP3 SLOAD AND OR SWAP1 SSTORE PUSH1 0x40 DUP5 ADD MLOAD PUSH1 0x2 DUP3 ADD SSTORE PUSH1 0x60 DUP5 ADD MLOAD PUSH1 0x3 DUP3 ADD SSTORE PUSH1 0x80 DUP5 ADD MLOAD PUSH1 0x4 DUP3 ADD SSTORE PUSH1 0xA0 DUP5 ADD MLOAD PUSH1 0x5 DUP3 ADD SSTORE PUSH1 0xC0 DUP5 ADD MLOAD PUSH1 0x6 DUP3 ADD SSTORE PUSH1 0xE0 DUP5 ADD MLOAD PUSH1 0x7 DUP3 ADD SSTORE PUSH2 0x100 DUP5 ADD MLOAD PUSH1 0x8 DUP3 ADD SSTORE PUSH2 0x120 DUP5 ADD MLOAD PUSH1 0x9 DUP3 ADD SSTORE PUSH2 0x140 DUP5 ADD MLOAD PUSH1 0xA DUP3 ADD SSTORE PUSH2 0x160 DUP5 ADD MLOAD PUSH1 0xB DUP3 ADD SSTORE PUSH2 0x180 DUP5 ADD MLOAD PUSH1 0xC DUP3 ADD SSTORE ADD SWAP2 ADD MLOAD ISZERO ISZERO PUSH1 0xFF DUP1 NOT DUP4 SLOAD AND SWAP2 AND OR SWAP1 SSTORE PUSH1 0x4 SLOAD SWAP6 PUSH1 0x40 MLOAD SWAP5 DUP6 MSTORE DUP8 DUP6 ADD MSTORE PUSH1 0x40 DUP5 ADD MSTORE PUSH1 0x60 DUP4 ADD MSTORE PUSH1 0x80 DUP3 ADD MSTORE DUP3 PUSH32 0x7111179A6DC4E2E1D73CFBDD46690BFFAB838320ECACCD2D7836BD095F362EC9 PUSH1 0xA0 CALLER SWAP4 LOG4 PUSH1 0x1 DUP1 SSTORE PUSH1 0x40 MLOAD SWAP1 DUP2 MSTORE RETURN JUMPDEST PUSH2 0x1303 DUP9 ADDRESS CALLER PUSH32 0x0 PUSH2 0x1876 JUMP JUMPDEST PUSH2 0x10FC JUMP JUMPDEST PUSH17 0x1A5B9CDD59999A58DA595B9D081C1BDBDB PUSH1 0x7A SHL PUSH1 0x40 MLOAD SWAP2 PUSH3 0x461BCD PUSH1 0xE5 SHL DUP4 MSTORE PUSH1 0x20 PUSH1 0x4 DUP5 ADD MSTORE PUSH1 0x11 PUSH1 0x24 DUP5 ADD MSTORE DUP3 ADD MSTORE REVERT JUMPDEST PUSH1 0x40 MLOAD PUSH3 0x461BCD PUSH1 0xE5 SHL DUP2 MSTORE PUSH1 0x20 PUSH1 0x4 DUP3 ADD MSTORE PUSH1 0xB PUSH1 0x24 DUP3 ADD MSTORE PUSH11 0x657863656564732063617 PUSH1 0xAC SHL DUP2 DUP9 ADD MSTORE DUP8 SWAP1 REVERT JUMPDEST PUSH1 0x40 MLOAD PUSH3 0x461BCD PUSH1 0xE5 SHL DUP2 MSTORE PUSH1 0x20 PUSH1 0x4 DUP3 ADD MSTORE PUSH1 0xF PUSH1 0x24 DUP3 ADD MSTORE PUSH15 0x696E7374616C6C6D656E74733E3D31 PUSH1 0x88 SHL DUP2 DUP9 ADD MSTORE DUP8 SWAP1 REVERT JUMPDEST PUSH1 0x40 MLOAD PUSH3 0x461BCD PUSH1 0xE5 SHL DUP2 MSTORE PUSH1 0x20 PUSH1 0x4 DUP3 ADD MSTORE PUSH1 0xA PUSH1 0x24 DUP3 ADD MSTORE PUSH10 0x64756541743C3D6E6F77 PUSH1 0xB0 SHL DUP2 DUP9 ADD MSTORE DUP8 SWAP1 REVERT JUMPDEST PUSH1 0x40 MLOAD PUSH3 0x461BCD PUSH1 0xE5 SHL DUP2 MSTORE PUSH1 0x20 PUSH1 0x4 DUP3 ADD MSTORE PUSH1 0xA PUSH1 0x24 DUP3 ADD MSTORE PUSH10 0x6D65726368616E743D3 PUSH1 0xB4 SHL DUP2 DUP9 ADD MSTORE DUP8 SWAP1 REVERT JUMPDEST CALLVALUE PUSH2 0x1E5 JUMPI PUSH1 0x20 CALLDATASIZE PUSH1 0x3 NOT ADD SLT PUSH2 0x1E5 JUMPI PUSH2 0x141C PUSH2 0x1668 JUMP JUMPDEST PUSH2 0x1424 PUSH2 0x169B JUMP JUMPDEST PUSH2 0xFFFF DUP2 AND DUP1 ISZERO ISZERO SWAP1 DUP2 PUSH2 0x149D JUMPI JUMPDEST POP ISZERO PUSH2 0x146F JUMPI PUSH8 0xFFFF000000000000 PUSH1 0x7 SLOAD SWAP2 PUSH1 0x30 SHL AND SWAP1 PUSH8 0xFFFF000000000000 NOT AND OR PUSH1 0x7 SSTORE PUSH1 0x0 DUP1 MLOAD PUSH1 0x20 PUSH2 0x2433 DUP4 CODECOPY DUP2 MLOAD SWAP2 MSTORE PUSH1 0x0 DUP1 LOG1 STOP JUMPDEST PUSH1 0x40 MLOAD PUSH3 0x461BCD PUSH1 0xE5 SHL DUP2 MSTORE PUSH1 0x20 PUSH1 0x4 DUP3 ADD MSTORE PUSH1 0x6 PUSH1 0x24 DUP3 ADD MSTORE PUSH6 0x6D696E427073 PUSH1 0xD0 SHL PUSH1 0x44 DUP3 ADD MSTORE PUSH1 0x64 SWAP1 REVERT JUMPDEST PUSH2 0x2710 SWAP2 POP GT ISZERO DUP3 PUSH2 0x1433 JUMP JUMPDEST CALLVALUE PUSH2 0x1E5 JUMPI PUSH1 0x0 CALLDATASIZE PUSH1 0x3 NOT ADD SLT PUSH2 0x1E5 JUMPI PUSH1 0x20 PUSH2 0xFFFF PUSH1 0x7 SLOAD AND PUSH1 0x40 MLOAD SWAP1 DUP2 MSTORE RETURN JUMPDEST CALLVALUE PUSH2 0x1E5 JUMPI PUSH1 0x40 CALLDATASIZE PUSH1 0x3 NOT ADD SLT PUSH2 0x1E5 JUMPI PUSH1 0x40 PUSH2 0x14F2 PUSH2 0x14EA PUSH2 0x1652 JUMP JUMPDEST PUSH1 0x4 CALLDATALOAD PUSH2 0x22B2 JUMP JUMPDEST DUP3 MLOAD SWAP2 DUP3 MSTORE PUSH1 0x20 DUP3 ADD MSTORE RETURN JUMPDEST CALLVALUE PUSH2 0x1E5 JUMPI PUSH1 0x40 CALLDATASIZE PUSH1 0x3 NOT ADD SLT PUSH2 0x1E5 JUMPI PUSH2 0x1517 PUSH2 0x163C JUMP JUMPDEST PUSH32 0xB1CCE8684B4FFA8667B4577654E61EE3480D661EE9C27522AC80E211F6BD4D25 PUSH1 0x20 PUSH1 0x24 CALLDATALOAD PUSH2 0x1545 PUSH2 0x169B JUMP JUMPDEST PUSH2 0x154D PUSH2 0x1820 JUMP JUMPDEST PUSH1 0x1 PUSH1 0x1 PUSH1 0xA0 SHL SUB DUP5 AND SWAP4 PUSH2 0x1569 SWAP1 DUP3 SWAP1 PUSH2 0x10FC DUP8 ISZERO ISZERO PUSH2 0x1AFC JUMP JUMPDEST PUSH1 0x40 MLOAD SWAP1 DUP2 MSTORE LOG2 PUSH1 0x1 DUP1 SSTORE STOP JUMPDEST CALLVALUE PUSH2 0x1E5 JUMPI PUSH1 0x20 CALLDATASIZE PUSH1 0x3 NOT ADD SLT PUSH2 0x1E5 JUMPI PUSH1 0x4 CALLDATALOAD PUSH1 0x6 SLOAD DUP2 LT ISZERO PUSH2 0x1E5 JUMPI PUSH2 0x159F PUSH1 0x80 SWAP2 PUSH2 0x15EB JUMP JUMPDEST POP DUP1 SLOAD SWAP1 PUSH1 0x2 PUSH1 0x1 DUP3 ADD SLOAD SWAP2 ADD SLOAD SWAP1 PUSH1 0x40 MLOAD SWAP3 DUP4 MSTORE PUSH2 0xFFFF SWAP1 DUP2 DUP2 AND PUSH1 0x20 DUP6 ADD MSTORE PUSH1 0x10 SHR AND PUSH1 0x40 DUP4 ADD MSTORE PUSH1 0x60 DUP3 ADD MSTORE RETURN JUMPDEST CALLVALUE PUSH2 0x1E5 JUMPI PUSH1 0x0 CALLDATASIZE PUSH1 0x3 NOT ADD SLT PUSH2 0x1E5 JUMPI PUSH1 0x20 SWAP1 PUSH1 0x6 SLOAD DUP2 MSTORE RETURN JUMPDEST PUSH1 0x6 SLOAD DUP2 LT ISZERO PUSH2 0x1626 JUMPI PUSH1 0x3 SWAP1 PUSH1 0x6 PUSH1 0x0 MSTORE MUL PUSH32 0xF652222313E28459528D920B65115C16C04F3EFC82AAEDC97BE59F3F377C0D3F ADD SWAP1 PUSH1 0x0 SWAP1 JUMP JUMPDEST PUSH4 0x4E487B71 PUSH1 0xE0 SHL PUSH1 0x0 MSTORE PUSH1 0x32 PUSH1 0x4 MSTORE PUSH1 0x24 PUSH1 0x0 REVERT JUMPDEST PUSH1 0x4 CALLDATALOAD SWAP1 PUSH1 0x1 PUSH1 0x1 PUSH1 0xA0 SHL SUB DUP3 AND DUP3 SUB PUSH2 0x1E5 JUMPI JUMP JUMPDEST PUSH1 0x24 CALLDATALOAD SWAP1 PUSH1 0x1 PUSH1 0x1 PUSH1 0xA0 SHL SUB DUP3 AND DUP3 SUB PUSH2 0x1E5 JUMPI JUMP JUMPDEST PUSH1 0x4 CALLDATALOAD SWAP1 PUSH2 0xFFFF DUP3 AND DUP3 SUB PUSH2 0x1E5 JUMPI JUMP JUMPDEST PUSH1 0x24 CALLDATALOAD SWAP1 PUSH2 0xFFFF DUP3 AND DUP3 SUB PUSH2 0x1E5 JUMPI JUMP JUMPDEST PUSH1 0x44 CALLDATALOAD SWAP1 PUSH2 0xFFFF DUP3 AND DUP3 SUB PUSH2 0x1E5 JUMPI JUMP JUMPDEST PUSH1 0x0 SLOAD PUSH1 0x1 PUSH1 0x1 PUSH1 0xA0 SHL SUB AND CALLER SUB PUSH2 0x16AF JUMPI JUMP JUMPDEST PUSH1 0x64 PUSH1 0x40 MLOAD PUSH3 0x461BCD PUSH1 0xE5 SHL DUP2 MSTORE PUSH1 0x20 PUSH1 0x4 DUP3 ADD MSTORE PUSH1 0x20 PUSH1 0x24 DUP3 ADD MSTORE PUSH32 0x4F776E61626C653A2063616C6C6572206973206E6F7420746865206F776E6572 PUSH1 0x44 DUP3 ADD MSTORE REVERT JUMPDEST ISZERO PUSH2 0x16FA JUMPI JUMP JUMPDEST PUSH1 0x40 MLOAD PUSH3 0x461BCD PUSH1 0xE5 SHL DUP2 MSTORE PUSH1 0x20 PUSH1 0x4 DUP3 ADD MSTORE PUSH1 0x9 PUSH1 0x24 DUP3 ADD MSTORE PUSH9 0x6270733E313030303 PUSH1 0xBC SHL PUSH1 0x44 DUP3 ADD MSTORE PUSH1 0x64 SWAP1 REVERT JUMPDEST PUSH2 0x1C0 DUP2 ADD SWAP1 DUP2 LT PUSH8 0xFFFFFFFFFFFFFFFF DUP3 GT OR PUSH2 0xD8E JUMPI PUSH1 0x40 MSTORE JUMP JUMPDEST PUSH1 0x80 DUP2 ADD SWAP1 DUP2 LT PUSH8 0xFFFFFFFFFFFFFFFF DUP3 GT OR PUSH2 0xD8E JUMPI PUSH1 0x40 MSTORE JUMP JUMPDEST SWAP1 PUSH1 0x1F DUP1 NOT SWAP2 ADD AND DUP2 ADD SWAP1 DUP2 LT PUSH8 0xFFFFFFFFFFFFFFFF DUP3 GT OR PUSH2 0xD8E JUMPI PUSH1 0x40 MSTORE JUMP JUMPDEST SWAP2 SWAP1 PUSH2 0x17C6 JUMPI PUSH1 0x60 DUP2 PUSH1 0x2 SWAP3 MLOAD DUP5 SSTORE PUSH1 0x1 DUP5 ADD PUSH2 0xFFFF PUSH1 0x20 DUP4 ADD MLOAD AND DUP2 SLOAD SWAP1 PUSH4 0xFFFF0000 PUSH1 0x40 DUP6 ADD MLOAD PUSH1 0x10 SHL AND SWAP2 PUSH4 0xFFFFFFFF NOT AND OR OR SWAP1 SSTORE ADD MLOAD SWAP2 ADD SSTORE JUMP JUMPDEST PUSH4 0x4E487B71 PUSH1 0xE0 SHL PUSH1 0x0 MSTORE PUSH1 0x0 PUSH1 0x4 MSTORE PUSH1 0x24 PUSH1 0x0 REVERT JUMPDEST SWAP2 SWAP1 DUP3 SUB SWAP2 DUP3 GT PUSH2 0xD78 JUMPI JUMP JUMPDEST ISZERO PUSH2 0x17F0 JUMPI JUMP JUMPDEST PUSH1 0x40 MLOAD PUSH3 0x461BCD PUSH1 0xE5 SHL DUP2 MSTORE PUSH1 0x20 PUSH1 0x4 DUP3 ADD MSTORE PUSH1 0x8 PUSH1 0x24 DUP3 ADD MSTORE PUSH8 0x616D6F756E743D3 PUSH1 0xC4 SHL PUSH1 0x44 DUP3 ADD MSTORE PUSH1 0x64 SWAP1 REVERT JUMPDEST PUSH1 0x2 PUSH1 0x1 SLOAD EQ PUSH2 0x1831 JUMPI PUSH1 0x2 PUSH1 0x1 SSTORE JUMP JUMPDEST PUSH1 0x40 MLOAD PUSH3 0x461BCD PUSH1 0xE5 SHL DUP2 MSTORE PUSH1 0x20 PUSH1 0x4 DUP3 ADD MSTORE PUSH1 0x1F PUSH1 0x24 DUP3 ADD MSTORE PUSH32 0x5265656E7472616E637947756172643A207265656E7472616E742063616C6C00 PUSH1 0x44 DUP3 ADD MSTORE PUSH1 0x64 SWAP1 REVERT JUMPDEST PUSH1 0x40 MLOAD PUSH4 0x23B872DD PUSH1 0xE0 SHL PUSH1 0x20 DUP3 ADD MSTORE PUSH1 0x1 PUSH1 0x1 PUSH1 0xA0 SHL SUB SWAP3 DUP4 AND PUSH1 0x24 DUP3 ADD MSTORE SWAP3 SWAP1 SWAP2 AND PUSH1 0x44 DUP4 ADD MSTORE PUSH1 0x64 DUP1 DUP4 ADD SWAP4 SWAP1 SWAP4 MSTORE SWAP2 DUP2 MSTORE PUSH1 0xA0 DUP2 ADD SWAP2 DUP2 DUP4 LT PUSH8 0xFFFFFFFFFFFFFFFF DUP5 GT OR PUSH2 0xD8E JUMPI PUSH2 0x18CF SWAP3 PUSH1 0x40 MSTORE PUSH2 0x18D1 JUMP JUMPDEST JUMP JUMPDEST PUSH1 0x1 DUP1 PUSH1 0xA0 SHL SUB AND SWAP1 PUSH1 0x40 MLOAD PUSH1 0x40 DUP2 ADD PUSH8 0xFFFFFFFFFFFFFFFF SWAP1 DUP3 DUP2 LT DUP3 DUP3 GT OR PUSH2 0xD8E JUMPI PUSH1 0x40 MSTORE PUSH1 0x20 SWAP4 DUP5 DUP4 MSTORE PUSH32 0x5361666545524332303A206C6F772D6C6576656C2063616C6C206661696C6564 DUP6 DUP5 ADD MSTORE PUSH1 0x0 DUP1 DUP6 DUP8 DUP3 SWAP8 MLOAD SWAP2 ADD DUP3 DUP6 GAS CALL SWAP1 RETURNDATASIZE ISZERO PUSH2 0x1A1D JUMPI RETURNDATASIZE SWAP3 DUP4 GT PUSH2 0x1A09 JUMPI SWAP1 PUSH2 0x196C SWAP4 SWAP3 SWAP2 PUSH1 0x40 MLOAD SWAP3 PUSH2 0x195F DUP9 PUSH1 0x1F NOT PUSH1 0x1F DUP5 ADD AND ADD DUP6 PUSH2 0x1764 JUMP JUMPDEST DUP4 MSTORE RETURNDATASIZE DUP7 DUP9 DUP6 ADD RETURNDATACOPY PUSH2 0x1A28 JUMP JUMPDEST DUP1 MLOAD SWAP2 DUP3 ISZERO SWAP2 DUP5 DUP4 ISZERO PUSH2 0x19DE JUMPI JUMPDEST POP POP POP SWAP1 POP ISZERO PUSH2 0x1987 JUMPI POP JUMP JUMPDEST PUSH1 0x84 SWAP1 PUSH1 0x40 MLOAD SWAP1 PUSH3 0x461BCD PUSH1 0xE5 SHL DUP3 MSTORE PUSH1 0x4 DUP3 ADD MSTORE PUSH1 0x2A PUSH1 0x24 DUP3 ADD MSTORE PUSH32 0x5361666545524332303A204552433230206F7065726174696F6E20646964206E PUSH1 0x44 DUP3 ADD MSTORE PUSH10 0x1BDD081CDD58D8D95959 PUSH1 0xB2 SHL PUSH1 0x64 DUP3 ADD MSTORE REVERT JUMPDEST SWAP2 SWAP4 DUP2 DUP1 SWAP5 POP ADD SUB SLT PUSH2 0x1A05 JUMPI DUP3 ADD MLOAD SWAP1 DUP2 ISZERO ISZERO DUP3 SUB PUSH2 0x1A02 JUMPI POP DUP1 CODESIZE DUP1 DUP5 PUSH2 0x197A JUMP JUMPDEST DUP1 REVERT JUMPDEST POP DUP1 REVERT JUMPDEST PUSH4 0x4E487B71 PUSH1 0xE0 SHL DUP6 MSTORE PUSH1 0x41 PUSH1 0x4 MSTORE PUSH1 0x24 DUP6 REVERT JUMPDEST SWAP1 PUSH2 0x196C SWAP4 SWAP3 POP PUSH1 0x60 SWAP2 JUMPDEST SWAP2 SWAP3 SWAP1 ISZERO PUSH2 0x1A8A JUMPI POP DUP2 MLOAD ISZERO PUSH2 0x1A3C JUMPI POP SWAP1 JUMP JUMPDEST EXTCODESIZE ISZERO PUSH2 0x1A45 JUMPI SWAP1 JUMP JUMPDEST PUSH1 0x40 MLOAD PUSH3 0x461BCD PUSH1 0xE5 SHL DUP2 MSTORE PUSH1 0x20 PUSH1 0x4 DUP3 ADD MSTORE PUSH1 0x1D PUSH1 0x24 DUP3 ADD MSTORE PUSH32 0x416464726573733A2063616C6C20746F206E6F6E2D636F6E7472616374000000 PUSH1 0x44 DUP3 ADD MSTORE PUSH1 0x64 SWAP1 REVERT JUMPDEST DUP3 MLOAD SWAP1 SWAP2 POP ISZERO PUSH2 0x1A9D JUMPI POP DUP1 MLOAD SWAP1 PUSH1 0x20 ADD REVERT JUMPDEST PUSH1 0x40 MLOAD SWAP1 PUSH3 0x461BCD PUSH1 0xE5 SHL DUP3 MSTORE DUP2 PUSH1 0x20 DUP1 PUSH1 0x4 DUP4 ADD MSTORE DUP3 MLOAD SWAP1 DUP2 PUSH1 0x24 DUP5 ADD MSTORE PUSH1 0x0 SWAP4 JUMPDEST DUP3 DUP6 LT PUSH2 0x1AE3 JUMPI POP POP PUSH1 0x44 SWAP3 POP PUSH1 0x0 DUP4 DUP3 DUP5 ADD ADD MSTORE PUSH1 0x1F DUP1 NOT SWAP2 ADD AND DUP2 ADD SUB ADD SWAP1 REVERT JUMPDEST DUP5 DUP2 ADD DUP3 ADD MLOAD DUP7 DUP7 ADD PUSH1 0x44 ADD MSTORE SWAP4 DUP2 ADD SWAP4 DUP6 SWAP4 POP PUSH2 0x1AC0 JUMP JUMPDEST ISZERO PUSH2 0x1B03 JUMPI JUMP JUMPDEST PUSH1 0x64 PUSH1 0x40 MLOAD PUSH3 0x461BCD PUSH1 0xE5 SHL DUP2 MSTORE PUSH1 0x20 PUSH1 0x4 DUP3 ADD MSTORE PUSH1 0x4 PUSH1 0x24 DUP3 ADD MSTORE PUSH4 0x746F3D3 PUSH1 0xE4 SHL PUSH1 0x44 DUP3 ADD MSTORE REVERT JUMPDEST PUSH1 0x40 MLOAD PUSH4 0xA9059CBB PUSH1 0xE0 SHL PUSH1 0x20 DUP3 ADD MSTORE PUSH1 0x1 PUSH1 0x1 PUSH1 0xA0 SHL SUB SWAP1 SWAP3 AND PUSH1 0x24 DUP4 ADD MSTORE PUSH1 0x44 DUP1 DUP4 ADD SWAP4 SWAP1 SWAP4 MSTORE SWAP2 DUP2 MSTORE PUSH2 0x18CF SWAP2 PUSH2 0x1B67 DUP3 PUSH2 0x1748 JUMP JUMPDEST PUSH2 0x18D1 JUMP JUMPDEST SWAP2 SWAP1 DUP3 ADD DUP1 SWAP3 GT PUSH2 0xD78 JUMPI JUMP JUMPDEST DUP2 ISZERO PUSH2 0x1B83 JUMPI DIV SWAP1 JUMP JUMPDEST PUSH4 0x4E487B71 PUSH1 0xE0 SHL PUSH1 0x0 MSTORE PUSH1 0x12 PUSH1 0x4 MSTORE PUSH1 0x24 PUSH1 0x0 REVERT JUMPDEST ISZERO PUSH2 0x1BA0 JUMPI JUMP JUMPDEST PUSH1 0x40 MLOAD PUSH3 0x461BCD PUSH1 0xE5 SHL DUP2 MSTORE PUSH1 0x20 PUSH1 0x4 DUP3 ADD MSTORE PUSH1 0x6 PUSH1 0x24 DUP3 ADD MSTORE PUSH6 0x18DB1BDCD959 PUSH1 0xD2 SHL PUSH1 0x44 DUP3 ADD MSTORE PUSH1 0x64 SWAP1 REVERT JUMPDEST ISZERO PUSH2 0x1BD5 JUMPI JUMP JUMPDEST PUSH1 0x40 MLOAD PUSH3 0x461BCD PUSH1 0xE5 SHL DUP2 MSTORE PUSH1 0x20 PUSH1 0x4 DUP3 ADD MSTORE PUSH1 0x9 PUSH1 0x24 DUP3 ADD MSTORE PUSH9 0x3737BA10313ABCB2B9 PUSH1 0xB9 SHL PUSH1 0x44 DUP3 ADD MSTORE PUSH1 0x64 SWAP1 REVERT JUMPDEST ISZERO PUSH2 0x1C0D JUMPI JUMP JUMPDEST PUSH1 0x40 MLOAD PUSH3 0x461BCD PUSH1 0xE5 SHL DUP2 MSTORE PUSH1 0x20 PUSH1 0x4 DUP3 ADD MSTORE PUSH1 0x7 PUSH1 0x24 DUP3 ADD MSTORE PUSH7 0x6F766572647565 PUSH1 0xC8 SHL PUSH1 0x44 DUP3 ADD MSTORE PUSH1 0x64 SWAP1 REVERT JUMPDEST ISZERO PUSH2 0x1C43 JUMPI JUMP JUMPDEST PUSH1 0x40 MLOAD PUSH3 0x461BCD PUSH1 0xE5 SHL DUP2 MSTORE PUSH1 0x20 PUSH1 0x4 DUP3 ADD MSTORE PUSH1 0xB PUSH1 0x24 DUP3 ADD MSTORE PUSH11 0x6E6F7468696E6720647565 PUSH1 0xA8 SHL PUSH1 0x44 DUP3 ADD MSTORE PUSH1 0x64 SWAP1 REVERT JUMPDEST PUSH1 0x0 DUP2 DUP2 MSTORE PUSH1 0x20 SWAP1 PUSH1 0x8 DUP3 MSTORE PUSH1 0x40 SWAP1 DUP2 DUP2 KECCAK256 SWAP3 PUSH1 0xD DUP5 ADD SWAP4 PUSH2 0x1C9C PUSH1 0xFF DUP7 SLOAD AND ISZERO PUSH2 0x1B99 JUMP JUMPDEST DUP1 SLOAD PUSH1 0x1 PUSH1 0x1 PUSH1 0xA0 SHL SUB SWAP1 PUSH2 0x1CB4 SWAP1 DUP3 AND CALLER EQ PUSH2 0x1BCE JUMP JUMPDEST PUSH1 0x6 DUP3 ADD PUSH2 0x1CC5 DUP2 SLOAD TIMESTAMP GT ISZERO PUSH2 0x1C06 JUMP JUMPDEST PUSH2 0x1CD0 DUP10 ISZERO ISZERO PUSH2 0x17E9 JUMP JUMPDEST PUSH2 0x1CD9 DUP9 PUSH2 0x225F JUMP JUMPDEST SWAP1 PUSH2 0x1CE5 DUP3 ISZERO ISZERO PUSH2 0x1C3C JUMP JUMPDEST DUP2 DUP11 LT ISZERO PUSH2 0x1F8A JUMPI POP POP PUSH1 0x8 DUP3 ADD SWAP1 DUP2 SLOAD SWAP3 PUSH2 0x1D07 PUSH1 0x9 DUP3 ADD SWAP5 DUP6 SLOAD SWAP1 PUSH2 0x1B6C JUMP JUMPDEST SWAP4 PUSH2 0x2710 PUSH2 0x1D20 PUSH2 0xFFFF SWAP7 DUP8 PUSH1 0x7 SLOAD PUSH1 0x30 SHR AND SWAP1 PUSH2 0x20FD JUMP JUMPDEST DIV DUP12 LT PUSH2 0x1F53 JUMPI DUP11 PUSH32 0x0 SWAP5 PUSH2 0x1D56 DUP3 ADDRESS CALLER DUP10 PUSH2 0x1876 JUMP JUMPDEST PUSH2 0x1D87 PUSH1 0x4 DUP6 ADD SWAP4 DUP5 SLOAD SWAP4 PUSH2 0x1D71 PUSH1 0xB DUP9 ADD SWAP6 DUP7 SLOAD SWAP1 PUSH2 0x17DC JUMP JUMPDEST SWAP2 SLOAD SWAP2 DUP1 DUP4 GT PUSH2 0x1F4B JUMPI JUMPDEST POP DUP2 PUSH2 0x1F2A JUMPI PUSH2 0x17DC JUMP JUMPDEST SWAP2 PUSH1 0x2 DUP6 ADD SLOAD SWAP2 PUSH2 0x1DB0 PUSH1 0xA DUP8 ADD SWAP5 DUP6 SLOAD PUSH2 0x1DA2 DUP2 DUP8 PUSH2 0x17DC JUMP JUMPDEST DUP1 DUP4 GT PUSH2 0x1F22 JUMPI JUMPDEST POP PUSH2 0x1B6C JUMP JUMPDEST DUP1 SWAP5 SSTORE SLOAD DUP1 PUSH2 0x1EF7 JUMPI JUMPDEST POP SLOAD SWAP2 DUP14 DUP12 MLOAD SWAP1 DUP2 MSTORE DUP2 DUP11 DUP3 ADD MSTORE DUP4 DUP13 DUP3 ADD MSTORE DUP14 PUSH32 0x6C2AD965418E364223FCC71B275F3B0AFF554A3A01DEF28C4EB08366671DBA84 PUSH1 0x60 CALLER SWAP4 LOG3 LT ISZERO SWAP2 DUP3 PUSH2 0x1EEB JUMPI JUMPDEST POP POP PUSH2 0x1E10 JUMPI JUMPDEST POP POP POP POP POP POP POP POP POP POP JUMP JUMPDEST PUSH32 0xEB0A2406213F12FE23F25F04C31B79EF4F7D9CEE2889324C2B86A06F35142F3C SWAP8 PUSH1 0x0 DUP1 MLOAD PUSH1 0x20 PUSH2 0x2453 DUP4 CODECOPY DUP2 MLOAD SWAP2 MSTORE SWAP4 PUSH1 0x3 DUP4 ADD SLOAD DUP1 PUSH2 0x1ED6 JUMPI JUMPDEST POP POP PUSH1 0x1 PUSH1 0xFF NOT DUP3 SLOAD AND OR SWAP1 SSTORE SLOAD AND SWAP2 DUP3 DUP6 MSTORE PUSH1 0x5 DUP5 MSTORE DUP1 DUP7 DUP7 KECCAK256 SLOAD AND SWAP1 PUSH2 0x1E79 DUP2 PUSH1 0x7 SLOAD AND DUP4 PUSH2 0x1B6C JUMP JUMPDEST PUSH2 0x3E8 DUP1 DUP3 GT PUSH2 0x1ECE JUMPI JUMPDEST POP DUP5 DUP8 MSTORE PUSH1 0x5 DUP7 MSTORE DUP8 DUP8 KECCAK256 DUP1 SLOAD PUSH2 0xFFFF NOT AND SWAP3 SWAP1 SWAP2 AND SWAP2 DUP3 OR SWAP1 SSTORE DUP7 MLOAD PUSH2 0xFFFF SWAP3 DUP4 AND DUP2 MSTORE SWAP2 AND PUSH1 0x20 DUP3 ADD MSTORE PUSH1 0x40 SWAP1 LOG2 DUP3 MLOAD SWAP6 DUP7 MSTORE DUP6 ADD MSTORE CALLER SWAP4 LOG3 CODESIZE DUP1 DUP1 DUP1 DUP1 DUP1 DUP1 DUP1 DUP1 DUP1 PUSH2 0x1E04 JUMP JUMPDEST SWAP1 POP CODESIZE PUSH2 0x1E84 JUMP JUMPDEST PUSH2 0x1EE4 SWAP2 DUP6 DUP6 SLOAD AND SWAP1 PUSH2 0x1B2E JUMP JUMPDEST CODESIZE DUP1 PUSH2 0x1E4D JUMP JUMPDEST SLOAD GT ISZERO SWAP1 POP CODESIZE DUP1 PUSH2 0x1DFD JUMP JUMPDEST PUSH2 0x1F01 SWAP1 DUP5 PUSH2 0x1B79 JUMP JUMPDEST PUSH1 0x7 DUP7 ADD SLOAD DUP1 DUP3 GT PUSH2 0x1F1A JUMPI JUMPDEST POP PUSH1 0xC DUP7 ADD SSTORE CODESIZE PUSH2 0x1DBA JUMP JUMPDEST SWAP1 POP CODESIZE PUSH2 0x1F0E JUMP JUMPDEST SWAP2 POP CODESIZE PUSH2 0x1DAA JUMP JUMPDEST PUSH2 0x1F39 DUP3 DUP10 PUSH1 0x2 SLOAD AND DUP12 PUSH2 0x1B2E JUMP JUMPDEST PUSH2 0x1F44 DUP3 DUP7 SLOAD PUSH2 0x1B6C JUMP JUMPDEST DUP6 SSTORE PUSH2 0x17DC JUMP JUMPDEST SWAP2 POP CODESIZE PUSH2 0x1D7C JUMP JUMPDEST DUP8 MLOAD PUSH3 0x461BCD PUSH1 0xE5 SHL DUP2 MSTORE PUSH1 0x4 DUP2 ADD DUP8 SWAP1 MSTORE PUSH1 0x10 PUSH1 0x24 DUP3 ADD MSTORE PUSH16 0x185B5BDD5B9D081D1BDBC81CDB585B1B PUSH1 0x82 SHL PUSH1 0x44 DUP3 ADD MSTORE PUSH1 0x64 SWAP1 REVERT JUMPDEST SWAP4 SWAP3 SWAP1 SWAP9 POP PUSH32 0xEB0A2406213F12FE23F25F04C31B79EF4F7D9CEE2889324C2B86A06F35142F3C SWAP7 PUSH32 0x0 SWAP6 PUSH2 0x1FDF DUP12 ADDRESS CALLER DUP11 PUSH2 0x1876 JUMP JUMPDEST PUSH1 0x4 DUP4 ADD SLOAD SWAP1 PUSH2 0x1FF5 PUSH1 0xB DUP6 ADD SWAP3 DUP4 SLOAD SWAP1 PUSH2 0x17DC JUMP JUMPDEST SWAP1 PUSH1 0x2 DUP6 ADD SLOAD SWAP9 PUSH2 0x200C PUSH1 0xA DUP8 ADD SWAP11 DUP12 SLOAD SWAP1 PUSH2 0x17DC JUMP JUMPDEST SWAP2 SWAP9 SLOAD TIMESTAMP GT ISZERO DUP1 PUSH2 0x20EC JUMPI JUMPDEST PUSH2 0x20B9 JUMPI JUMPDEST SWAP9 PUSH2 0x2045 DUP4 SWAP3 PUSH2 0x206C SWAP10 SWAP11 SWAP12 PUSH2 0x204E SWAP6 PUSH2 0x208E JUMPI JUMPDEST PUSH1 0x3 DUP10 ADD SLOAD DUP1 PUSH2 0x2079 JUMPI POP POP DUP3 SLOAD PUSH2 0x1B6C JUMP JUMPDEST SWAP1 SSTORE DUP3 SLOAD PUSH2 0x1B6C JUMP JUMPDEST SWAP1 SSTORE PUSH1 0x7 DUP3 ADD SLOAD PUSH1 0xC DUP4 ADD SSTORE DUP1 SLOAD PUSH1 0xFF NOT AND PUSH1 0x1 OR SWAP1 SSTORE SLOAD AND PUSH2 0x2110 JUMP JUMPDEST DUP3 MLOAD SWAP6 DUP7 MSTORE DUP6 ADD MSTORE CALLER SWAP4 LOG3 JUMP JUMPDEST PUSH2 0x2087 SWAP2 DUP12 DUP12 SLOAD AND SWAP1 PUSH2 0x1B2E JUMP JUMPDEST CODESIZE DUP1 PUSH2 0x82E JUMP JUMPDEST PUSH2 0x2098 DUP14 DUP7 PUSH2 0x17DC JUMP JUMPDEST DUP1 PUSH2 0x20A4 JUMPI JUMPDEST POP PUSH2 0x2032 JUMP JUMPDEST PUSH2 0x20B3 SWAP1 DUP12 PUSH1 0x2 SLOAD AND DUP4 PUSH2 0x1B2E JUMP JUMPDEST CODESIZE PUSH2 0x209E JUMP JUMPDEST SWAP9 DUP8 SWAP9 POP PUSH2 0x2045 PUSH2 0x204E SWAP4 SWAP3 PUSH2 0x2710 PUSH2 0x20DE PUSH2 0xFFFF PUSH2 0x206C SWAP13 PUSH1 0x7 SLOAD SWAP1 SHR AND DUP7 PUSH2 0x20FD JUMP JUMPDEST DIV SWAP11 SWAP10 POP SWAP3 SWAP4 POP POP SWAP9 PUSH2 0x201D JUMP JUMPDEST POP PUSH2 0xFFFF PUSH1 0x7 SLOAD DUP10 SHR AND ISZERO ISZERO PUSH2 0x2018 JUMP JUMPDEST DUP2 DUP2 MUL SWAP3 SWAP2 DUP2 ISZERO SWAP2 DUP5 DIV EQ OR ISZERO PUSH2 0xD78 JUMPI JUMP JUMPDEST PUSH1 0x1 DUP1 PUSH1 0xA0 SHL SUB AND DUP1 PUSH1 0x0 MSTORE PUSH1 0x5 PUSH1 0x20 MSTORE PUSH1 0x0 DUP1 MLOAD PUSH1 0x20 PUSH2 0x2453 DUP4 CODECOPY DUP2 MLOAD SWAP2 MSTORE PUSH2 0xFFFF DUP1 PUSH1 0x40 PUSH1 0x0 KECCAK256 SLOAD AND SWAP1 PUSH2 0x2158 PUSH1 0x7 SLOAD DUP3 DUP1 DUP3 AND SWAP2 PUSH1 0x20 SHR AND DUP1 PUSH2 0x21B0 JUMPI JUMPDEST POP DUP4 PUSH2 0x1B6C JUMP JUMPDEST PUSH2 0x3E8 DUP1 DUP3 GT PUSH2 0x21A8 JUMPI JUMPDEST POP AND SWAP1 DUP4 PUSH1 0x0 MSTORE PUSH1 0x5 PUSH1 0x20 MSTORE PUSH1 0x40 PUSH1 0x0 KECCAK256 DUP3 PUSH2 0xFFFF NOT DUP3 SLOAD AND OR SWAP1 SSTORE PUSH2 0x21A3 PUSH1 0x40 MLOAD SWAP3 DUP4 SWAP3 DUP4 SWAP1 PUSH1 0x20 SWAP1 SWAP4 SWAP3 SWAP4 PUSH1 0x40 DUP4 ADD SWAP5 PUSH2 0xFFFF DUP1 SWAP3 AND DUP5 MSTORE AND SWAP2 ADD MSTORE JUMP JUMPDEST SUB SWAP1 LOG2 JUMP JUMPDEST SWAP1 POP CODESIZE PUSH2 0x2163 JUMP JUMPDEST SWAP1 PUSH2 0x2710 PUSH2 0x21C1 PUSH2 0x21C8 SWAP4 DUP4 PUSH2 0x20FD JUMP JUMPDEST DIV SWAP1 PUSH2 0x1B6C JUMP JUMPDEST CODESIZE PUSH2 0x2151 JUMP JUMPDEST PUSH1 0x40 MLOAD PUSH4 0x70A08231 PUSH1 0xE0 SHL DUP2 MSTORE ADDRESS PUSH1 0x4 DUP3 ADD MSTORE PUSH1 0x20 DUP2 PUSH1 0x24 DUP2 PUSH32 0x0 PUSH1 0x1 PUSH1 0x1 PUSH1 0xA0 SHL SUB AND GAS STATICCALL SWAP1 DUP2 ISZERO PUSH2 0x2253 JUMPI PUSH1 0x0 SWAP2 PUSH2 0x2225 JUMPI POP SWAP1 JUMP JUMPDEST SWAP1 PUSH1 0x20 DUP3 RETURNDATASIZE DUP3 GT PUSH2 0x224B JUMPI JUMPDEST DUP2 PUSH2 0x223E PUSH1 0x20 SWAP4 DUP4 PUSH2 0x1764 JUMP JUMPDEST DUP2 ADD SUB SLT PUSH2 0x1A02 JUMPI POP MLOAD SWAP1 JUMP JUMPDEST RETURNDATASIZE SWAP2 POP PUSH2 0x2231 JUMP JUMPDEST PUSH1 0x40 MLOAD RETURNDATASIZE PUSH1 0x0 DUP3 RETURNDATACOPY RETURNDATASIZE SWAP1 REVERT JUMPDEST PUSH1 0x0 MSTORE PUSH1 0x8 PUSH1 0x20 MSTORE PUSH1 0x40 PUSH1 0x0 KECCAK256 PUSH1 0xFF PUSH1 0xD DUP3 ADD SLOAD AND PUSH2 0x22AC JUMPI DUP1 PUSH2 0x22A3 PUSH2 0x2292 PUSH1 0x2 PUSH2 0x22A9 SWAP5 ADD SLOAD PUSH1 0xA DUP5 ADD SLOAD SWAP1 PUSH2 0x17DC JUMP JUMPDEST SWAP2 PUSH1 0xB PUSH1 0x4 DUP3 ADD SLOAD SWAP2 ADD SLOAD SWAP1 PUSH2 0x17DC JUMP JUMPDEST SWAP1 PUSH2 0x1B6C JUMP JUMPDEST SWAP1 JUMP JUMPDEST POP PUSH1 0x0 SWAP1 JUMP JUMPDEST SWAP1 PUSH2 0x22BC SWAP1 PUSH2 0x2369 JUMP JUMPDEST SWAP1 PUSH1 0x60 DUP3 ADD MLOAD DUP2 GT PUSH2 0x22F4 JUMPI PUSH2 0x22F0 PUSH2 0x2710 SWAP2 PUSH2 0xFFFF PUSH1 0x20 DUP5 PUSH2 0x22E5 DUP4 PUSH1 0x40 DUP10 ADD MLOAD AND DUP6 PUSH2 0x20FD JUMP JUMPDEST DIV SWAP6 ADD MLOAD AND SWAP1 PUSH2 0x20FD JUMP JUMPDEST DIV SWAP2 JUMP JUMPDEST PUSH1 0x40 MLOAD PUSH3 0x461BCD PUSH1 0xE5 SHL DUP2 MSTORE PUSH1 0x20 PUSH1 0x4 DUP3 ADD MSTORE PUSH1 0x15 PUSH1 0x24 DUP3 ADD MSTORE PUSH21 0x32BC31B2B2B239903A34B2B91036B0BC103637B0B7 PUSH1 0x59 SHL PUSH1 0x44 DUP3 ADD MSTORE PUSH1 0x64 SWAP1 REVERT JUMPDEST SWAP1 PUSH1 0x40 MLOAD PUSH2 0x233E DUP2 PUSH2 0x1748 JUMP JUMPDEST PUSH1 0x60 PUSH1 0x2 DUP3 SWAP5 DUP1 SLOAD DUP5 MSTORE PUSH1 0x1 DUP2 ADD SLOAD PUSH2 0xFFFF SWAP1 DUP2 DUP2 AND PUSH1 0x20 DUP8 ADD MSTORE PUSH1 0x10 SHR AND PUSH1 0x40 DUP6 ADD MSTORE ADD SLOAD SWAP2 ADD MSTORE JUMP JUMPDEST PUSH1 0x60 SWAP1 PUSH1 0x40 MLOAD PUSH2 0x2378 DUP2 PUSH2 0x1748 JUMP JUMPDEST PUSH1 0x0 SWAP3 DUP2 DUP5 DUP1 SWAP4 MSTORE DUP3 PUSH1 0x20 DUP3 ADD MSTORE DUP3 PUSH1 0x40 DUP3 ADD MSTORE ADD MSTORE PUSH1 0x1 DUP1 PUSH1 0xA0 SHL SUB AND DUP2 MSTORE PUSH1 0x5 PUSH1 0x20 MSTORE PUSH2 0xFFFF PUSH1 0x40 DUP3 KECCAK256 SLOAD AND SWAP1 DUP1 SWAP2 PUSH1 0x6 SLOAD SWAP3 JUMPDEST DUP4 DUP2 LT PUSH2 0x23EA JUMPI POP POP PUSH1 0x0 NOT DUP3 ADD SWAP2 DUP3 GT PUSH2 0x23D6 JUMPI POP PUSH2 0x23D0 PUSH2 0x22A9 SWAP2 PUSH2 0x15EB JUMP JUMPDEST POP PUSH2 0x2331 JUMP JUMPDEST PUSH4 0x4E487B71 PUSH1 0xE0 SHL DUP2 MSTORE PUSH1 0x11 PUSH1 0x4 MSTORE PUSH1 0x24 SWAP1 REVERT JUMPDEST PUSH2 0x23F3 DUP2 PUSH2 0x15EB JUMP JUMPDEST POP SLOAD DUP3 LT ISZERO PUSH2 0x2421 JUMPI PUSH1 0x0 NOT DUP2 EQ PUSH2 0x240D JUMPI PUSH1 0x1 ADD PUSH2 0x23AE JUMP JUMPDEST PUSH4 0x4E487B71 PUSH1 0xE0 SHL DUP4 MSTORE PUSH1 0x11 PUSH1 0x4 MSTORE PUSH1 0x24 DUP4 REVERT JUMPDEST SWAP1 POP PUSH2 0x22A9 SWAP3 POP PUSH2 0x23D0 SWAP2 POP PUSH2 0x15EB JUMP INVALID 0x4E POP SDIV SLOAD PUSH29 0x24DFD12003C2845FD20F2071C49FA3CD30B0BE7A064E3F4C3F8D2AF047 PUSH16 0x83A777B892446C4939723CABA7D89F8D 0xE1 PUSH6 0x5F4DFE3C17F DUP12 SAR 0xDA BASEFEE PUSH9 0xA26469706673582212 KECCAK256 CALLCODE 0xB7 PUSH31 0xD1508387B7EADD7FBF27E25C63C75EBB57ADB3B023DB31664BC58749C76473 PUSH16 0x6C634300081200330000000000000000 "},"methodIdentifiers":{"addTier(uint256,uint16,uint16,uint256)":"73c5ca09","availableLiquidity()":"74375359","createOrder(uint256,address,uint256,uint256)":"328efc47","creditScore(address)":"f7e590ee","earlyRepayDiscountBps()":"9c21c3a1","emergencyWithdraw(address,uint256)":"95ccea67","fundLiquidity(uint256)":"f0f437b6","getOrder(uint256)":"d09ef241","getTiersCount()":"01f28d91","lastOrderId()":"5662ecc7","liquidate(uint256)":"415f1240","liquidateScoreDecrease()":"a8841db9","maxPurchasePerOrder()":"ec14476f","minInstallmentAmountBps()":"a8311c3b","nominalInstallment(uint256)":"3a5d8d6c","orders(uint256)":"a85c38ef","owner()":"8da5cb5b","quote(uint256,address)":"13b0be33","renounceOwnership()":"715018a6","repayFull(uint256)":"be62e7df","repayInstallment(uint256,uint256)":"7d527220","repayScoreIncrease()":"1dd0c13f","setCreditScore(address,uint16)":"752df2db","setEarlyRepayDiscountBps(uint16)":"44dac75b","setMaxPurchasePerOrder(uint256)":"784aee35","setMinInstallmentAmountBps(uint16)":"285eb373","setScoreDeltas(uint16,uint16)":"be020752","setTier(uint256,uint256,uint16,uint16,uint256)":"e02ef565","setTreasury(address)":"f0f44260","tiers(uint256)":"039af9eb","token()":"fc0c546a","totalDue(uint256)":"e5eeb32c","transferOwnership(address)":"f2fde38b","treasury()":"61d027b3","withdrawLiquidity(address,uint256)":"06d47de9"}}}}}