{"src/buy-now-pay-later/BNPLOrders.sol":{"BNPLOrders":{"abi":[{"inputs":[{"internalType":"address","name":"initialOwner","type":"address"},{"internalType":"contract IERC20","name":"_token","type":"address"},{"internalType":"address","name":"_treasury","type":"address"},{"internalType":"uint256","name":"_maxPurchasePerOrder","type":"uint256"},{"internalType":"uint16","name":"_repayScoreIncrease","type":"uint16"},{"internalType":"uint16","name":"_liquidateScoreDecrease","type":"uint16"},{"internalType":"uint16","name":"_earlyRepayDiscountBps","type":"uint16"},{"internalType":"uint16","name":"_minInstallmentAmountBps","type":"uint16"}],"stateMutability":"nonpayable","type":"constructor"},{"anonymous":false,"inputs":[{"indexed":true,"internalType":"address","name":"who","type":"address"},{"indexed":false,"internalType":"uint16","name":"oldScore","type":"uint16"},{"indexed":false,"internalType":"uint16","name":"newScore","type":"uint16"}],"name":"CreditScoreUpdated","type":"event"},{"anonymous":false,"inputs":[{"indexed":true,"internalType":"uint256","name":"id","type":"uint256"},{"indexed":true,"internalType":"address","name":"payer","type":"address"},{"indexed":false,"internalType":"uint256","name":"amount","type":"uint256"},{"indexed":false,"internalType":"uint256","name":"paidPrincipal","type":"uint256"},{"indexed":false,"internalType":"uint256","name":"paidFee","type":"uint256"}],"name":"InstallmentPaid","type":"event"},{"anonymous":false,"inputs":[{"indexed":true,"internalType":"address","name":"from","type":"address"},{"indexed":false,"internalType":"uint256","name":"amount","type":"uint256"}],"name":"LiquidityFunded","type":"event"},{"anonymous":false,"inputs":[{"indexed":true,"internalType":"address","name":"to","type":"address"},{"indexed":false,"internalType":"uint256","name":"amount","type":"uint256"}],"name":"LiquidityWithdrawn","type":"event"},{"anonymous":false,"inputs":[{"indexed":true,"internalType":"uint256","name":"id","type":"uint256"},{"indexed":true,"internalType":"address","name":"buyer","type":"address"},{"indexed":true,"internalType":"address","name":"merchant","type":"address"},{"indexed":false,"internalType":"uint256","name":"principal","type":"uint256"},{"indexed":false,"internalType":"uint256","name":"collateral","type":"uint256"},{"indexed":false,"internalType":"uint256","name":"totalFee","type":"uint256"},{"indexed":false,"internalType":"uint256","name":"dueAt","type":"uint256"},{"indexed":false,"internalType":"uint256","name":"installments","type":"uint256"}],"name":"OrderCreated","type":"event"},{"anonymous":false,"inputs":[{"indexed":true,"internalType":"uint256","name":"id","type":"uint256"},{"indexed":true,"internalType":"address","name":"payer","type":"address"},{"indexed":false,"internalType":"uint256","name":"totalPaid","type":"uint256"},{"indexed":false,"internalType":"uint256","name":"feeDiscount","type":"uint256"}],"name":"OrderFullyRepaid","type":"event"},{"anonymous":false,"inputs":[{"indexed":true,"internalType":"uint256","name":"id","type":"uint256"},{"indexed":false,"internalType":"uint256","name":"seizedCollateral","type":"uint256"}],"name":"OrderLiquidated","type":"event"},{"anonymous":false,"inputs":[{"indexed":true,"internalType":"address","name":"previousOwner","type":"address"},{"indexed":true,"internalType":"address","name":"newOwner","type":"address"}],"name":"OwnershipTransferred","type":"event"},{"anonymous":false,"inputs":[],"name":"ParamsUpdated","type":"event"},{"anonymous":false,"inputs":[{"indexed":false,"internalType":"uint256","name":"idx","type":"uint256"}],"name":"TierUpdated","type":"event"},{"anonymous":false,"inputs":[{"indexed":false,"internalType":"address","name":"oldTreasury","type":"address"},{"indexed":false,"internalType":"address","name":"newTreasury","type":"address"}],"name":"TreasuryUpdated","type":"event"},{"inputs":[{"internalType":"uint256","name":"minScore","type":"uint256"},{"internalType":"uint16","name":"collateralBps","type":"uint16"},{"internalType":"uint16","name":"feeBps","type":"uint16"},{"internalType":"uint256","name":"maxLoan","type":"uint256"}],"name":"addTier","outputs":[],"stateMutability":"nonpayable","type":"function"},{"inputs":[],"name":"availableLiquidity","outputs":[{"internalType":"uint256","name":"","type":"uint256"}],"stateMutability":"view","type":"function"},{"inputs":[{"internalType":"uint256","name":"purchaseAmount","type":"uint256"},{"internalType":"address","name":"merchant","type":"address"},{"internalType":"uint256","name":"dueAt","type":"uint256"},{"internalType":"uint256","name":"installments","type":"uint256"}],"name":"createOrder","outputs":[{"internalType":"uint256","name":"","type":"uint256"}],"stateMutability":"nonpayable","type":"function"},{"inputs":[{"internalType":"address","name":"","type":"address"}],"name":"creditScore","outputs":[{"internalType":"uint16","name":"","type":"uint16"}],"stateMutability":"view","type":"function"},{"inputs":[],"name":"earlyRepayDiscountBps","outputs":[{"internalType":"uint16","name":"","type":"uint16"}],"stateMutability":"view","type":"function"},{"inputs":[{"internalType":"address","name":"to","type":"address"},{"internalType":"uint256","name":"amount","type":"uint256"}],"name":"emergencyWithdraw","outputs":[],"stateMutability":"nonpayable","type":"function"},{"inputs":[{"internalType":"uint256","name":"amount","type":"uint256"}],"name":"fundLiquidity","outputs":[],"stateMutability":"nonpayable","type":"function"},{"inputs":[{"internalType":"uint256","name":"id","type":"uint256"}],"name":"getOrder","outputs":[{"components":[{"internalType":"address","name":"buyer","type":"address"},{"internalType":"address","name":"merchant","type":"address"},{"internalType":"uint256","name":"principal","type":"uint256"},{"internalType":"uint256","name":"collateral","type":"uint256"},{"internalType":"uint256","name":"totalFee","type":"uint256"},{"internalType":"uint256","name":"createdAt","type":"uint256"},{"internalType":"uint256","name":"dueAt","type":"uint256"},{"internalType":"uint256","name":"installments","type":"uint256"},{"internalType":"uint256","name":"nominalPrincipal","type":"uint256"},{"internalType":"uint256","name":"nominalFee","type":"uint256"},{"internalType":"uint256","name":"paidPrincipal","type":"uint256"},{"internalType":"uint256","name":"paidFee","type":"uint256"},{"internalType":"uint256","name":"paidInstallments","type":"uint256"},{"internalType":"bool","name":"closed","type":"bool"}],"internalType":"struct IBNPLStructs.Order","name":"","type":"tuple"}],"stateMutability":"view","type":"function"},{"inputs":[],"name":"getTiersCount","outputs":[{"internalType":"uint256","name":"","type":"uint256"}],"stateMutability":"view","type":"function"},{"inputs":[],"name":"lastOrderId","outputs":[{"internalType":"uint256","name":"","type":"uint256"}],"stateMutability":"view","type":"function"},{"inputs":[{"internalType":"uint256","name":"id","type":"uint256"}],"name":"liquidate","outputs":[],"stateMutability":"nonpayable","type":"function"},{"inputs":[],"name":"liquidateScoreDecrease","outputs":[{"internalType":"uint16","name":"","type":"uint16"}],"stateMutability":"view","type":"function"},{"inputs":[],"name":"maxPurchasePerOrder","outputs":[{"internalType":"uint256","name":"","type":"uint256"}],"stateMutability":"view","type":"function"},{"inputs":[],"name":"minInstallmentAmountBps","outputs":[{"internalType":"uint16","name":"","type":"uint16"}],"stateMutability":"view","type":"function"},{"inputs":[{"internalType":"uint256","name":"id","type":"uint256"}],"name":"nominalInstallment","outputs":[{"internalType":"uint256","name":"principalPart","type":"uint256"},{"internalType":"uint256","name":"feePart","type":"uint256"}],"stateMutability":"view","type":"function"},{"inputs":[{"internalType":"uint256","name":"","type":"uint256"}],"name":"orders","outputs":[{"internalType":"address","name":"buyer","type":"address"},{"internalType":"address","name":"merchant","type":"address"},{"internalType":"uint256","name":"principal","type":"uint256"},{"internalType":"uint256","name":"collateral","type":"uint256"},{"internalType":"uint256","name":"totalFee","type":"uint256"},{"internalType":"uint256","name":"createdAt","type":"uint256"},{"internalType":"uint256","name":"dueAt","type":"uint256"},{"internalType":"uint256","name":"installments","type":"uint256"},{"internalType":"uint256","name":"nominalPrincipal","type":"uint256"},{"internalType":"uint256","name":"nominalFee","type":"uint256"},{"internalType":"uint256","name":"paidPrincipal","type":"uint256"},{"internalType":"uint256","name":"paidFee","type":"uint256"},{"internalType":"uint256","name":"paidInstallments","type":"uint256"},{"internalType":"bool","name":"closed","type":"bool"}],"stateMutability":"view","type":"function"},{"inputs":[],"name":"owner","outputs":[{"internalType":"address","name":"","type":"address"}],"stateMutability":"view","type":"function"},{"inputs":[{"internalType":"uint256","name":"purchaseAmount","type":"uint256"},{"internalType":"address","name":"buyer","type":"address"}],"name":"quote","outputs":[{"internalType":"uint256","name":"collateralRequired","type":"uint256"},{"internalType":"uint256","name":"totalFee","type":"uint256"}],"stateMutability":"view","type":"function"},{"inputs":[],"name":"renounceOwnership","outputs":[],"stateMutability":"nonpayable","type":"function"},{"inputs":[],"name":"repayScoreIncrease","outputs":[{"internalType":"uint16","name":"","type":"uint16"}],"stateMutability":"view","type":"function"},{"inputs":[{"internalType":"address","name":"who","type":"address"},{"internalType":"uint16","name":"score","type":"uint16"}],"name":"setCreditScore","outputs":[],"stateMutability":"nonpayable","type":"function"},{"inputs":[{"internalType":"uint16","name":"bps","type":"uint16"}],"name":"setEarlyRepayDiscountBps","outputs":[],"stateMutability":"nonpayable","type":"function"},{"inputs":[{"internalType":"uint256","name":"_max","type":"uint256"}],"name":"setMaxPurchasePerOrder","outputs":[],"stateMutability":"nonpayable","type":"function"},{"inputs":[{"internalType":"uint16","name":"bps","type":"uint16"}],"name":"setMinInstallmentAmountBps","outputs":[],"stateMutability":"nonpayable","type":"function"},{"inputs":[{"internalType":"uint16","name":"repayInc","type":"uint16"},{"internalType":"uint16","name":"liqDec","type":"uint16"}],"name":"setScoreDeltas","outputs":[],"stateMutability":"nonpayable","type":"function"},{"inputs":[{"internalType":"uint256","name":"idx","type":"uint256"},{"internalType":"uint256","name":"minScore","type":"uint256"},{"internalType":"uint16","name":"collateralBps","type":"uint16"},{"internalType":"uint16","name":"feeBps","type":"uint16"},{"internalType":"uint256","name":"maxLoan","type":"uint256"}],"name":"setTier","outputs":[],"stateMutability":"nonpayable","type":"function"},{"inputs":[{"internalType":"address","name":"_treasury","type":"address"}],"name":"setTreasury","outputs":[],"stateMutability":"nonpayable","type":"function"},{"inputs":[{"internalType":"uint256","name":"","type":"uint256"}],"name":"tiers","outputs":[{"internalType":"uint256","name":"minScore","type":"uint256"},{"internalType":"uint16","name":"collateralBps","type":"uint16"},{"internalType":"uint16","name":"feeBps","type":"uint16"},{"internalType":"uint256","name":"maxLoan","type":"uint256"}],"stateMutability":"view","type":"function"},{"inputs":[],"name":"token","outputs":[{"internalType":"contract IERC20","name":"","type":"address"}],"stateMutability":"view","type":"function"},{"inputs":[{"internalType":"uint256","name":"id","type":"uint256"}],"name":"totalDue","outputs":[{"internalType":"uint256","name":"","type":"uint256"}],"stateMutability":"view","type":"function"},{"inputs":[{"internalType":"address","name":"newOwner","type":"address"}],"name":"transferOwnership","outputs":[],"stateMutability":"nonpayable","type":"function"},{"inputs":[],"name":"treasury","outputs":[{"internalType":"address","name":"","type":"address"}],"stateMutability":"view","type":"function"},{"inputs":[{"internalType":"address","name":"to","type":"address"},{"internalType":"uint256","name":"amount","type":"uint256"}],"name":"withdrawLiquidity","outputs":[],"stateMutability":"nonpayable","type":"function"}],"evm":{"bytecode":{"linkReferences":{},"object":"60a034620002c057601f6200207a38819003918201601f191683019291906001600160401b03841183851017620002c557816101009284926040968752833981010312620002c0576200005281620002fb565b602080830151909290916001600160a01b039190828416808503620002c0576200007e878401620002fb565b91606084015195620000936080860162000310565b95620000a260a0870162000310565b94620000bf60e0620000b760c08a0162000310565b980162000310565b94620000cb33620003a5565b6001805515620002925716908115620002615761ffff92838516801515908162000253575b501562000226579365ffff0000000093600a98969363ffff0000936200011d620001e59d9c9a98620003a5565b60805260018060a01b031960025416176002558760035567ffff0000000000006007549260301b1696169060018060401b031916179160101b161791861b1617176007556200018d6200016f620002db565b6102ee81526107d08582015260c88782015282606082015262000320565b620001bd6200019b620002db565b6102588152610fa085820152610190878201528260011c606082015262000320565b611f40620001ca620002db565b93600085528401526103208584015204606082015262000320565b51611c8d9081620003ed82396080518181816101a0015281816103bc015281816108f301528181610de001528181610f300152818161111101526119d90152f35b8a5162461bcd60e51b8152600481018b905260066024820152656d696e42707360d01b6044820152606490fd5b6127109150111538620000f0565b895162461bcd60e51b8152600481018a9052600a602482015269074726561737572793d360b41b6044820152606490fd5b8a5162461bcd60e51b8152600481018b905260076024820152660746f6b656e3d360cc1b6044820152606490fd5b600080fd5b634e487b7160e01b600052604160045260246000fd5b60405190608082016001600160401b03811183821017620002c557604052565b51906001600160a01b0382168203620002c057565b519061ffff82168203620002c057565b60065468010000000000000000811015620002c55760018101806006558110156200038f57606060029160066000526003602060002091020192805184556001840161ffff60208301511681549063ffff0000604085015160101b169163ffffffff1916171790550151910155565b634e487b7160e01b600052603260045260246000fd5b600080546001600160a01b039283166001600160a01b03198216811783559216907f8be0079c531659141344cd1fd0a4f28419497f9722a3daafe3b4186f6b6457e09080a356fe608080604052600436101561001357600080fd5b60003560e01c90816301f28d911461140257508063039af9eb146113a857806306d47de91461133057806313b0be33146112fe5780631dd0c13f146112dc578063285eb37314611235578063328efc4714610ea25780633a5d8d6c14610e6a578063415f124014610c9b57806344dac75b14610c485780635662ecc714610c2a57806361d027b314610c01578063715018a614610ba857806373c5ca0914610a9f5780637437535914610a84578063752df2db14610976578063784aee35146109425780638da5cb5b1461091957806395ccea67146108b55780639c21c3a114610891578063a8311c3b1461086c578063a85c38ef1461079d578063a8841db914610778578063be0207521461071b578063d09ef24114610549578063e02ef56514610456578063e5eeb32c14610430578063ec14476f14610412578063f0f437b614610385578063f0f44260146102db578063f2fde38b14610212578063f7e590ee146101d45763fc0c546a1461018a57600080fd5b346101cf5760003660031901126101cf576040517f00000000000000000000000000000000000000000000000000000000000000006001600160a01b03168152602090f35b600080fd5b346101cf5760203660031901126101cf576001600160a01b036101f561146e565b166000526005602052602061ffff60406000205416604051908152f35b346101cf5760203660031901126101cf5761022b61146e565b6102336114cd565b6001600160a01b0390811690811561028757600054826bffffffffffffffffffffffff60a01b821617600055167f8be0079c531659141344cd1fd0a4f28419497f9722a3daafe3b4186f6b6457e0600080a3005b60405162461bcd60e51b815260206004820152602660248201527f4f776e61626c653a206e6577206f776e657220697320746865207a65726f206160448201526564647265737360d01b6064820152608490fd5b346101cf5760203660031901126101cf576102f461146e565b6102fc6114cd565b6001600160a01b03908116908115610353577f4ab5be82436d353e61ca18726e984e561f5c1cc7c6d38b29d2553c790434705a60406002549281519084168152846020820152a16001600160a01b03191617600255005b60405162461bcd60e51b815260206004820152600a602482015269074726561737572793d360b41b6044820152606490fd5b346101cf5760203660031901126101cf576004356103a16114cd565b6103a9611652565b6103b481151561161b565b6103e08130337f00000000000000000000000000000000000000000000000000000000000000006116a8565b6040519081527fbb9e497a5b82d1a37f9496dd70c6efb97ba0d98c66c3422d05010105d063359860203392a260018055005b346101cf5760003660031901126101cf576020600354604051908152f35b346101cf5760203660031901126101cf57602061044e600435611a4f565b604051908152f35b346101cf5760a03660031901126101cf576004356104726114bc565b6064359161ffff918284168094036101cf5761048c6114cd565b60065482101561051e577ffe2efe9272eb0deb4938823c5d646855a80e10848bf50af99ef34310d8f92b8d9360209361050a9216906104d8612710808411159081610513575b50611525565b604051916104e58361157a565b602435835285830152604082015260843560608201526105048361141d565b906115b8565b604051908152a1005b9050821115886104d2565b60405162461bcd60e51b81526020600482015260036024820152620d2c8f60eb1b6044820152606490fd5b346101cf5760203660031901126101cf5760006101a060405161056b8161155d565b8281528260208201528260408201528260608201528260808201528260a08201528260c08201528260e08201528261010082015282610120820152826101408201528261016082015282610180820152015260043560005260086020526101c060406000206101a06040516105df8161155d565b60ff600d60018060a01b038554169485845260018060a01b036001820154166020850152600281015460408501526003810154606085015260048101546080850152600581015460a0850152600681015460c0850152600781015460e085015260088101546101008501526009810154610120850152600a810154610140850152600b810154610160850152600c81015461018085015201541615158282015260405192835260018060a01b03602082015116602084015260408101516040840152606081015160608401526080810151608084015260a081015160a084015260c081015160c084015260e081015160e0840152610100810151610100840152610120810151610120840152610140810151610140840152610160810151610160840152610180810151610180840152015115156101a0820152f35b346101cf5760403660031901126101cf5761073461149a565b61073c6114ab565b6107446114cd565b61ffff63ffff00006007549260101b1692169063ffffffff19161717600755600080516020611c38833981519152600080a1005b346101cf5760003660031901126101cf57602061ffff60075460101c16604051908152f35b346101cf5760203660031901126101cf5760043560005260086020526101c0604060002060018060a01b039081815416916001820154169060028101546003820154600483015460058401546006850154600786015490600887015492600988015494600a89015496600b8a01549860ff600d600c8d01549c0154169b60206040519e8f908152015260408d015260608c015260808b015260a08a015260c089015260e088015261010087015261012086015261014085015261016084015261018083015215156101a0820152f35b346101cf5760003660031901126101cf57602061ffff60075460301c16604051908152f35b346101cf5760003660031901126101cf57602060075461ffff60405191831c168152f35b346101cf5760403660031901126101cf576109176108d161146e565b6108d96114cd565b6108ed6001600160a01b038216151561192e565b602435907f0000000000000000000000000000000000000000000000000000000000000000611960565b005b346101cf5760003660031901126101cf576000546040516001600160a01b039091168152602090f35b346101cf5760203660031901126101cf5761095b6114cd565b600435600355600080516020611c38833981519152600080a1005b346101cf5760403660031901126101cf5761098f61146e565b6109976114ab565b906109a06114cd565b6001600160a01b0316908115610a575761ffff8082166103e88111610a2557610a207ff0476f83a777b892446c4939723caba7d89f8de16505f4dfe3c17f8b1dda486893856000526005602052604060002080549361ffff198516179055604051938493168390602090939293604083019461ffff809216845216910152565b0390a2005b60405162461bcd60e51b815260206004820152600a602482015269073636f72653e313030360b41b6044820152606490fd5b60405162461bcd60e51b8152602060048201526005602482015264077686f3d360dc1b6044820152606490fd5b346101cf5760003660031901126101cf57602061044e6119be565b346101cf5760803660031901126101cf57610ab86114ab565b610ac06114bc565b90610ac96114cd565b61ffff80911691610ae6612710808511159081610b9b5750611525565b60405192610af38461157a565b6004358452602084015216604082015260643560608201526006549068010000000000000000821015610b8557610504826001610b33940160065561141d565b6006546000198101908111610b6f5760207ffe2efe9272eb0deb4938823c5d646855a80e10848bf50af99ef34310d8f92b8d91604051908152a1005b634e487b7160e01b600052601160045260246000fd5b634e487b7160e01b600052604160045260246000fd5b90508383161115856104d2565b346101cf5760003660031901126101cf57610bc16114cd565b600080546001600160a01b0319811682556001600160a01b03167f8be0079c531659141344cd1fd0a4f28419497f9722a3daafe3b4186f6b6457e08280a3005b346101cf5760003660031901126101cf576002546040516001600160a01b039091168152602090f35b346101cf5760003660031901126101cf576020600454604051908152f35b346101cf5760203660031901126101cf57610c6161149a565b610c696114cd565b65ffff000000006007549160201b169065ffff00000000191617600755600080516020611c38833981519152600080a1005b346101cf576020806003193601126101cf5760043590610cb9611652565b81600052600881526040600020600d81019060ff825416610e3c576006810154421115610e0957908160037f3c24207173ca3400f76eac3fa0d6f98e2ab53c0e661e5de8c3d9386b0249df32949301549182610dcc575b805460ff19166001179055546001600160a01b031660008181526005845260409020546007547ff0476f83a777b892446c4939723caba7d89f8de16505f4dfe3c17f8b1dda48689161ffff9081169160101c811680831115610dc457610d76908361160e565b1690836000526005865260406000208261ffff19825416179055610db46040519283928390602090939293604083019461ffff809216845216910152565b0390a2604051908152a260018055005b506000610d76565b600254610e049084906001600160a01b03167f0000000000000000000000000000000000000000000000000000000000000000611960565b610d10565b60405162461bcd60e51b815260048101849052600b60248201526a6e6f74206f76657264756560a81b6044820152606490fd5b60405162461bcd60e51b815260048101849052600660248201526518db1bdcd95960d21b6044820152606490fd5b346101cf5760203660031901126101cf5760043560005260086020526040806000206009600882015491015482519182526020820152f35b346101cf5760803660031901126101cf57600435610ebe611484565b6064916044919083358335610ed1611652565b6001600160a01b03841693841561120557610eed84151561161b565b428211156111d557600183106111a057600354841161116f57610f103385611ab4565b97909685610f1c6119be565b1061113a57505083610f549187611109575b7f0000000000000000000000000000000000000000000000000000000000000000611960565b60045495600187018711610b6f57866001602098016004556001610f78858761199e565b91610f83868561199e565b60405193610f908561155d565b338552898c8601528860408601528a60608601528560808601524260a08601528660c08601528760e086015261010085015261012084015260006101408401526000610160840152600061018084015260006101a084015201600052600888526101a0600d604060002060018060a01b038451166bffffffffffffffffffffffff60a01b9081835416178255600182019060018060a01b038d870151169082541617905560408401516002820155606084015160038201556080840151600482015560a0840151600582015560c0840151600682015560e0840151600782015561010084015160088201556101208401516009820155610140840151600a820155610160840151600b820155610180840151600c82015501910151151560ff801983541691161790556004549560405194855287850152604084015260608301526080820152827f7111179a6dc4e2e1d73cfbdd46690bffab838320ecaccd2d7836bd095f362ec960a03393a460018055604051908152f35b6111358830337f00000000000000000000000000000000000000000000000000000000000000006116a8565b610f2e565b701a5b9cdd59999a58da595b9d081c1bdbdb607a1b6040519162461bcd60e51b83526020600484015260116024840152820152fd5b60405162461bcd60e51b815260206004820152600b60248201526a065786365656473206361760ac1b818801528790fd5b60405162461bcd60e51b815260206004820152600f60248201526e696e7374616c6c6d656e74733e3d3160881b818801528790fd5b60405162461bcd60e51b815260206004820152600a60248201526964756541743c3d6e6f7760b01b818801528790fd5b60405162461bcd60e51b815260206004820152600a60248201526906d65726368616e743d360b41b818801528790fd5b346101cf5760203660031901126101cf5761124e61149a565b6112566114cd565b61ffff811680151590816112cf575b50156112a15767ffff0000000000006007549160301b169067ffff000000000000191617600755600080516020611c38833981519152600080a1005b60405162461bcd60e51b81526020600482015260066024820152656d696e42707360d01b6044820152606490fd5b6127109150111582611265565b346101cf5760003660031901126101cf57602061ffff60075416604051908152f35b346101cf5760403660031901126101cf57604061132461131c611484565b600435611ab4565b82519182526020820152f35b346101cf5760403660031901126101cf5761134961146e565b7fb1cce8684b4ffa8667b4577654e61ee3480d661ee9c27522ac80e211f6bd4d2560206024356113776114cd565b61137f611652565b6001600160a01b0384169361139b908290610f2e87151561192e565b604051908152a260018055005b346101cf5760203660031901126101cf576004356006548110156101cf576113d160809161141d565b50805490600260018201549101549060405192835261ffff90818116602085015260101c1660408301526060820152f35b346101cf5760003660031901126101cf576020906006548152f35b600654811015611458576003906006600052027ff652222313e28459528d920b65115c16c04f3efc82aaedc97be59f3f377c0d3f0190600090565b634e487b7160e01b600052603260045260246000fd5b600435906001600160a01b03821682036101cf57565b602435906001600160a01b03821682036101cf57565b6004359061ffff821682036101cf57565b6024359061ffff821682036101cf57565b6044359061ffff821682036101cf57565b6000546001600160a01b031633036114e157565b606460405162461bcd60e51b815260206004820152602060248201527f4f776e61626c653a2063616c6c6572206973206e6f7420746865206f776e65726044820152fd5b1561152c57565b60405162461bcd60e51b815260206004820152600960248201526806270733e31303030360bc1b6044820152606490fd5b6101c0810190811067ffffffffffffffff821117610b8557604052565b6080810190811067ffffffffffffffff821117610b8557604052565b90601f8019910116810190811067ffffffffffffffff821117610b8557604052565b91906115f8576060816002925184556001840161ffff60208301511681549063ffff0000604085015160101b169163ffffffff1916171790550151910155565b634e487b7160e01b600052600060045260246000fd5b91908203918211610b6f57565b1561162257565b60405162461bcd60e51b81526020600482015260086024820152670616d6f756e743d360c41b6044820152606490fd5b600260015414611663576002600155565b60405162461bcd60e51b815260206004820152601f60248201527f5265656e7472616e637947756172643a207265656e7472616e742063616c6c006044820152606490fd5b6040516323b872dd60e01b60208201526001600160a01b03928316602482015292909116604483015260648083019390935291815260a081019181831067ffffffffffffffff841117610b855761170192604052611703565b565b60018060a01b0316906040516040810167ffffffffffffffff9082811082821117610b85576040526020938483527f5361666545524332303a206c6f772d6c6576656c2063616c6c206661696c6564858401526000808587829751910182855af1903d1561184f573d92831161183b579061179e9392916040519261179188601f19601f8401160185611596565b83523d868885013e61185a565b805191821591848315611810575b5050509050156117b95750565b6084906040519062461bcd60e51b82526004820152602a60248201527f5361666545524332303a204552433230206f7065726174696f6e20646964206e6044820152691bdd081cdd58d8d9595960b21b6064820152fd5b919381809450010312611837578201519081151582036118345750803880846117ac565b80fd5b5080fd5b634e487b7160e01b85526041600452602485fd5b9061179e9392506060915b919290156118bc575081511561186e575090565b3b156118775790565b60405162461bcd60e51b815260206004820152601d60248201527f416464726573733a2063616c6c20746f206e6f6e2d636f6e74726163740000006044820152606490fd5b8251909150156118cf5750805190602001fd5b6040519062461bcd60e51b82528160208060048301528251908160248401526000935b828510611915575050604492506000838284010152601f80199101168101030190fd5b84810182015186860160440152938101938593506118f2565b1561193557565b606460405162461bcd60e51b81526020600482015260046024820152630746f3d360e41b6044820152fd5b60405163a9059cbb60e01b60208201526001600160a01b039092166024830152604480830193909352918152611701916119998261157a565b611703565b81156119a8570490565b634e487b7160e01b600052601260045260246000fd5b6040516370a0823160e01b81523060048201526020816024817f00000000000000000000000000000000000000000000000000000000000000006001600160a01b03165afa908115611a4357600091611a15575090565b906020823d8211611a3b575b81611a2e60209383611596565b8101031261183457505190565b3d9150611a21565b6040513d6000823e3d90fd5b6000526008602052604060002060ff600d82015416611a9b57611a8f611a7e6002830154600a8401549061160e565b91600b60048201549101549061160e565b8101809111610b6f5790565b50600090565b81810292918115918404141715610b6f57565b90611abe90611b6b565b9060608201518111611af657611af26127109161ffff602084611ae78360408901511685611aa1565b049501511690611aa1565b0491565b60405162461bcd60e51b815260206004820152601560248201527432bc31b2b2b239903a34b2b91036b0bc103637b0b760591b6044820152606490fd5b90604051611b408161157a565b60606002829480548452600181015461ffff90818116602087015260101c1660408501520154910152565b606090604051611b7a8161157a565b6000928184809352826020820152826040820152015260018060a01b03168152600560205261ffff604082205416908091600654925b838110611bef5750506000198201918211611bdb5750611bd2611bd89161141d565b50611b33565b90565b634e487b7160e01b81526011600452602490fd5b611bf88161141d565b5054821015611c26576000198114611c1257600101611bb0565b634e487b7160e01b83526011600452602483fd5b9050611bd89250611bd2915061141d56fe4e5005547c24dfd12003c2845fd20f2071c49fa3cd30b0be7a064e3f4c3f8d2aa2646970667358221220ead885263bd40a0ecbc7f00ea5f006b2c6d5936470a1109384e6571f0175ba5164736f6c63430008120033","opcodes":"PUSH1 0xA0 CALLVALUE PUSH3 0x2C0 JUMPI PUSH1 0x1F PUSH3 0x207A CODESIZE DUP2 SWAP1 SUB SWAP2 DUP3 ADD PUSH1 0x1F NOT AND DUP4 ADD SWAP3 SWAP2 SWAP1 PUSH1 0x1 PUSH1 0x1 PUSH1 0x40 SHL SUB DUP5 GT DUP4 DUP6 LT OR PUSH3 0x2C5 JUMPI DUP2 PUSH2 0x100 SWAP3 DUP5 SWAP3 PUSH1 0x40 SWAP7 DUP8 MSTORE DUP4 CODECOPY DUP2 ADD SUB SLT PUSH3 0x2C0 JUMPI PUSH3 0x52 DUP2 PUSH3 0x2FB JUMP JUMPDEST PUSH1 0x20 DUP1 DUP4 ADD MLOAD SWAP1 SWAP3 SWAP1 SWAP2 PUSH1 0x1 PUSH1 0x1 PUSH1 0xA0 SHL SUB SWAP2 SWAP1 DUP3 DUP5 AND DUP1 DUP6 SUB PUSH3 0x2C0 JUMPI PUSH3 0x7E DUP8 DUP5 ADD PUSH3 0x2FB JUMP JUMPDEST SWAP2 PUSH1 0x60 DUP5 ADD MLOAD SWAP6 PUSH3 0x93 PUSH1 0x80 DUP7 ADD PUSH3 0x310 JUMP JUMPDEST SWAP6 PUSH3 0xA2 PUSH1 0xA0 DUP8 ADD PUSH3 0x310 JUMP JUMPDEST SWAP5 PUSH3 0xBF PUSH1 0xE0 PUSH3 0xB7 PUSH1 0xC0 DUP11 ADD PUSH3 0x310 JUMP JUMPDEST SWAP9 ADD PUSH3 0x310 JUMP JUMPDEST SWAP5 PUSH3 0xCB CALLER PUSH3 0x3A5 JUMP JUMPDEST PUSH1 0x1 DUP1 SSTORE ISZERO PUSH3 0x292 JUMPI AND SWAP1 DUP2 ISZERO PUSH3 0x261 JUMPI PUSH2 0xFFFF SWAP3 DUP4 DUP6 AND DUP1 ISZERO ISZERO SWAP1 DUP2 PUSH3 0x253 JUMPI JUMPDEST POP ISZERO PUSH3 0x226 JUMPI SWAP4 PUSH6 0xFFFF00000000 SWAP4 PUSH1 0xA SWAP9 SWAP7 SWAP4 PUSH4 0xFFFF0000 SWAP4 PUSH3 0x11D PUSH3 0x1E5 SWAP14 SWAP13 SWAP11 SWAP9 PUSH3 0x3A5 JUMP JUMPDEST PUSH1 0x80 MSTORE PUSH1 0x1 DUP1 PUSH1 0xA0 SHL SUB NOT PUSH1 0x2 SLOAD AND OR PUSH1 0x2 SSTORE DUP8 PUSH1 0x3 SSTORE PUSH8 0xFFFF000000000000 PUSH1 0x7 SLOAD SWAP3 PUSH1 0x30 SHL AND SWAP7 AND SWAP1 PUSH1 0x1 DUP1 PUSH1 0x40 SHL SUB NOT AND OR SWAP2 PUSH1 0x10 SHL AND OR SWAP2 DUP7 SHL AND OR OR PUSH1 0x7 SSTORE PUSH3 0x18D PUSH3 0x16F PUSH3 0x2DB JUMP JUMPDEST PUSH2 0x2EE DUP2 MSTORE PUSH2 0x7D0 DUP6 DUP3 ADD MSTORE PUSH1 0xC8 DUP8 DUP3 ADD MSTORE DUP3 PUSH1 0x60 DUP3 ADD MSTORE PUSH3 0x320 JUMP JUMPDEST PUSH3 0x1BD PUSH3 0x19B PUSH3 0x2DB JUMP JUMPDEST PUSH2 0x258 DUP2 MSTORE PUSH2 0xFA0 DUP6 DUP3 ADD MSTORE PUSH2 0x190 DUP8 DUP3 ADD MSTORE DUP3 PUSH1 0x1 SHR PUSH1 0x60 DUP3 ADD MSTORE PUSH3 0x320 JUMP JUMPDEST PUSH2 0x1F40 PUSH3 0x1CA PUSH3 0x2DB JUMP JUMPDEST SWAP4 PUSH1 0x0 DUP6 MSTORE DUP5 ADD MSTORE PUSH2 0x320 DUP6 DUP5 ADD MSTORE DIV PUSH1 0x60 DUP3 ADD MSTORE PUSH3 0x320 JUMP JUMPDEST MLOAD PUSH2 0x1C8D SWAP1 DUP2 PUSH3 0x3ED DUP3 CODECOPY PUSH1 0x80 MLOAD DUP2 DUP2 DUP2 PUSH2 0x1A0 ADD MSTORE DUP2 DUP2 PUSH2 0x3BC ADD MSTORE DUP2 DUP2 PUSH2 0x8F3 ADD MSTORE DUP2 DUP2 PUSH2 0xDE0 ADD MSTORE DUP2 DUP2 PUSH2 0xF30 ADD MSTORE DUP2 DUP2 PUSH2 0x1111 ADD MSTORE PUSH2 0x19D9 ADD MSTORE RETURN JUMPDEST DUP11 MLOAD PUSH3 0x461BCD PUSH1 0xE5 SHL DUP2 MSTORE PUSH1 0x4 DUP2 ADD DUP12 SWAP1 MSTORE PUSH1 0x6 PUSH1 0x24 DUP3 ADD MSTORE PUSH6 0x6D696E427073 PUSH1 0xD0 SHL PUSH1 0x44 DUP3 ADD MSTORE PUSH1 0x64 SWAP1 REVERT JUMPDEST PUSH2 0x2710 SWAP2 POP GT ISZERO CODESIZE PUSH3 0xF0 JUMP JUMPDEST DUP10 MLOAD PUSH3 0x461BCD PUSH1 0xE5 SHL DUP2 MSTORE PUSH1 0x4 DUP2 ADD DUP11 SWAP1 MSTORE PUSH1 0xA PUSH1 0x24 DUP3 ADD MSTORE PUSH10 0x74726561737572793D3 PUSH1 0xB4 SHL PUSH1 0x44 DUP3 ADD MSTORE PUSH1 0x64 SWAP1 REVERT JUMPDEST DUP11 MLOAD PUSH3 0x461BCD PUSH1 0xE5 SHL DUP2 MSTORE PUSH1 0x4 DUP2 ADD DUP12 SWAP1 MSTORE PUSH1 0x7 PUSH1 0x24 DUP3 ADD MSTORE PUSH7 0x746F6B656E3D3 PUSH1 0xCC SHL PUSH1 0x44 DUP3 ADD MSTORE PUSH1 0x64 SWAP1 REVERT JUMPDEST PUSH1 0x0 DUP1 REVERT JUMPDEST PUSH4 0x4E487B71 PUSH1 0xE0 SHL PUSH1 0x0 MSTORE PUSH1 0x41 PUSH1 0x4 MSTORE PUSH1 0x24 PUSH1 0x0 REVERT JUMPDEST PUSH1 0x40 MLOAD SWAP1 PUSH1 0x80 DUP3 ADD PUSH1 0x1 PUSH1 0x1 PUSH1 0x40 SHL SUB DUP2 GT DUP4 DUP3 LT OR PUSH3 0x2C5 JUMPI PUSH1 0x40 MSTORE JUMP JUMPDEST MLOAD SWAP1 PUSH1 0x1 PUSH1 0x1 PUSH1 0xA0 SHL SUB DUP3 AND DUP3 SUB PUSH3 0x2C0 JUMPI JUMP JUMPDEST MLOAD SWAP1 PUSH2 0xFFFF DUP3 AND DUP3 SUB PUSH3 0x2C0 JUMPI JUMP JUMPDEST PUSH1 0x6 SLOAD PUSH9 0x10000000000000000 DUP2 LT ISZERO PUSH3 0x2C5 JUMPI PUSH1 0x1 DUP2 ADD DUP1 PUSH1 0x6 SSTORE DUP2 LT ISZERO PUSH3 0x38F JUMPI PUSH1 0x60 PUSH1 0x2 SWAP2 PUSH1 0x6 PUSH1 0x0 MSTORE PUSH1 0x3 PUSH1 0x20 PUSH1 0x0 KECCAK256 SWAP2 MUL ADD SWAP3 DUP1 MLOAD DUP5 SSTORE PUSH1 0x1 DUP5 ADD PUSH2 0xFFFF PUSH1 0x20 DUP4 ADD MLOAD AND DUP2 SLOAD SWAP1 PUSH4 0xFFFF0000 PUSH1 0x40 DUP6 ADD MLOAD PUSH1 0x10 SHL AND SWAP2 PUSH4 0xFFFFFFFF NOT AND OR OR SWAP1 SSTORE ADD MLOAD SWAP2 ADD SSTORE JUMP JUMPDEST PUSH4 0x4E487B71 PUSH1 0xE0 SHL PUSH1 0x0 MSTORE PUSH1 0x32 PUSH1 0x4 MSTORE PUSH1 0x24 PUSH1 0x0 REVERT JUMPDEST PUSH1 0x0 DUP1 SLOAD PUSH1 0x1 PUSH1 0x1 PUSH1 0xA0 SHL SUB SWAP3 DUP4 AND PUSH1 0x1 PUSH1 0x1 PUSH1 0xA0 SHL SUB NOT DUP3 AND DUP2 OR DUP4 SSTORE SWAP3 AND SWAP1 PUSH32 0x8BE0079C531659141344CD1FD0A4F28419497F9722A3DAAFE3B4186F6B6457E0 SWAP1 DUP1 LOG3 JUMP INVALID PUSH1 0x80 DUP1 PUSH1 0x40 MSTORE PUSH1 0x4 CALLDATASIZE LT ISZERO PUSH2 0x13 JUMPI PUSH1 0x0 DUP1 REVERT JUMPDEST PUSH1 0x0 CALLDATALOAD PUSH1 0xE0 SHR SWAP1 DUP2 PUSH4 0x1F28D91 EQ PUSH2 0x1402 JUMPI POP DUP1 PUSH4 0x39AF9EB EQ PUSH2 0x13A8 JUMPI DUP1 PUSH4 0x6D47DE9 EQ PUSH2 0x1330 JUMPI DUP1 PUSH4 0x13B0BE33 EQ PUSH2 0x12FE JUMPI DUP1 PUSH4 0x1DD0C13F EQ PUSH2 0x12DC JUMPI DUP1 PUSH4 0x285EB373 EQ PUSH2 0x1235 JUMPI DUP1 PUSH4 0x328EFC47 EQ PUSH2 0xEA2 JUMPI DUP1 PUSH4 0x3A5D8D6C EQ PUSH2 0xE6A JUMPI DUP1 PUSH4 0x415F1240 EQ PUSH2 0xC9B JUMPI DUP1 PUSH4 0x44DAC75B EQ PUSH2 0xC48 JUMPI DUP1 PUSH4 0x5662ECC7 EQ PUSH2 0xC2A JUMPI DUP1 PUSH4 0x61D027B3 EQ PUSH2 0xC01 JUMPI DUP1 PUSH4 0x715018A6 EQ PUSH2 0xBA8 JUMPI DUP1 PUSH4 0x73C5CA09 EQ PUSH2 0xA9F JUMPI DUP1 PUSH4 0x74375359 EQ PUSH2 0xA84 JUMPI DUP1 PUSH4 0x752DF2DB EQ PUSH2 0x976 JUMPI DUP1 PUSH4 0x784AEE35 EQ PUSH2 0x942 JUMPI DUP1 PUSH4 0x8DA5CB5B EQ PUSH2 0x919 JUMPI DUP1 PUSH4 0x95CCEA67 EQ PUSH2 0x8B5 JUMPI DUP1 PUSH4 0x9C21C3A1 EQ PUSH2 0x891 JUMPI DUP1 PUSH4 0xA8311C3B EQ PUSH2 0x86C JUMPI DUP1 PUSH4 0xA85C38EF EQ PUSH2 0x79D JUMPI DUP1 PUSH4 0xA8841DB9 EQ PUSH2 0x778 JUMPI DUP1 PUSH4 0xBE020752 EQ PUSH2 0x71B JUMPI DUP1 PUSH4 0xD09EF241 EQ PUSH2 0x549 JUMPI DUP1 PUSH4 0xE02EF565 EQ PUSH2 0x456 JUMPI DUP1 PUSH4 0xE5EEB32C EQ PUSH2 0x430 JUMPI DUP1 PUSH4 0xEC14476F EQ PUSH2 0x412 JUMPI DUP1 PUSH4 0xF0F437B6 EQ PUSH2 0x385 JUMPI DUP1 PUSH4 0xF0F44260 EQ PUSH2 0x2DB JUMPI DUP1 PUSH4 0xF2FDE38B EQ PUSH2 0x212 JUMPI DUP1 PUSH4 0xF7E590EE EQ PUSH2 0x1D4 JUMPI PUSH4 0xFC0C546A EQ PUSH2 0x18A JUMPI PUSH1 0x0 DUP1 REVERT JUMPDEST CALLVALUE PUSH2 0x1CF JUMPI PUSH1 0x0 CALLDATASIZE PUSH1 0x3 NOT ADD SLT PUSH2 0x1CF JUMPI PUSH1 0x40 MLOAD PUSH32 0x0 PUSH1 0x1 PUSH1 0x1 PUSH1 0xA0 SHL SUB AND DUP2 MSTORE PUSH1 0x20 SWAP1 RETURN JUMPDEST PUSH1 0x0 DUP1 REVERT JUMPDEST CALLVALUE PUSH2 0x1CF JUMPI PUSH1 0x20 CALLDATASIZE PUSH1 0x3 NOT ADD SLT PUSH2 0x1CF JUMPI PUSH1 0x1 PUSH1 0x1 PUSH1 0xA0 SHL SUB PUSH2 0x1F5 PUSH2 0x146E JUMP JUMPDEST AND PUSH1 0x0 MSTORE PUSH1 0x5 PUSH1 0x20 MSTORE PUSH1 0x20 PUSH2 0xFFFF PUSH1 0x40 PUSH1 0x0 KECCAK256 SLOAD AND PUSH1 0x40 MLOAD SWAP1 DUP2 MSTORE RETURN JUMPDEST CALLVALUE PUSH2 0x1CF JUMPI PUSH1 0x20 CALLDATASIZE PUSH1 0x3 NOT ADD SLT PUSH2 0x1CF JUMPI PUSH2 0x22B PUSH2 0x146E JUMP JUMPDEST PUSH2 0x233 PUSH2 0x14CD JUMP JUMPDEST PUSH1 0x1 PUSH1 0x1 PUSH1 0xA0 SHL SUB SWAP1 DUP2 AND SWAP1 DUP2 ISZERO PUSH2 0x287 JUMPI PUSH1 0x0 SLOAD DUP3 PUSH12 0xFFFFFFFFFFFFFFFFFFFFFFFF PUSH1 0xA0 SHL DUP3 AND OR PUSH1 0x0 SSTORE AND PUSH32 0x8BE0079C531659141344CD1FD0A4F28419497F9722A3DAAFE3B4186F6B6457E0 PUSH1 0x0 DUP1 LOG3 STOP JUMPDEST PUSH1 0x40 MLOAD PUSH3 0x461BCD PUSH1 0xE5 SHL DUP2 MSTORE PUSH1 0x20 PUSH1 0x4 DUP3 ADD MSTORE PUSH1 0x26 PUSH1 0x24 DUP3 ADD MSTORE PUSH32 0x4F776E61626C653A206E6577206F776E657220697320746865207A65726F2061 PUSH1 0x44 DUP3 ADD MSTORE PUSH6 0x646472657373 PUSH1 0xD0 SHL PUSH1 0x64 DUP3 ADD MSTORE PUSH1 0x84 SWAP1 REVERT JUMPDEST CALLVALUE PUSH2 0x1CF JUMPI PUSH1 0x20 CALLDATASIZE PUSH1 0x3 NOT ADD SLT PUSH2 0x1CF JUMPI PUSH2 0x2F4 PUSH2 0x146E JUMP JUMPDEST PUSH2 0x2FC PUSH2 0x14CD JUMP JUMPDEST PUSH1 0x1 PUSH1 0x1 PUSH1 0xA0 SHL SUB SWAP1 DUP2 AND SWAP1 DUP2 ISZERO PUSH2 0x353 JUMPI PUSH32 0x4AB5BE82436D353E61CA18726E984E561F5C1CC7C6D38B29D2553C790434705A PUSH1 0x40 PUSH1 0x2 SLOAD SWAP3 DUP2 MLOAD SWAP1 DUP5 AND DUP2 MSTORE DUP5 PUSH1 0x20 DUP3 ADD MSTORE LOG1 PUSH1 0x1 PUSH1 0x1 PUSH1 0xA0 SHL SUB NOT AND OR PUSH1 0x2 SSTORE STOP JUMPDEST PUSH1 0x40 MLOAD PUSH3 0x461BCD PUSH1 0xE5 SHL DUP2 MSTORE PUSH1 0x20 PUSH1 0x4 DUP3 ADD MSTORE PUSH1 0xA PUSH1 0x24 DUP3 ADD MSTORE PUSH10 0x74726561737572793D3 PUSH1 0xB4 SHL PUSH1 0x44 DUP3 ADD MSTORE PUSH1 0x64 SWAP1 REVERT JUMPDEST CALLVALUE PUSH2 0x1CF JUMPI PUSH1 0x20 CALLDATASIZE PUSH1 0x3 NOT ADD SLT PUSH2 0x1CF JUMPI PUSH1 0x4 CALLDATALOAD PUSH2 0x3A1 PUSH2 0x14CD JUMP JUMPDEST PUSH2 0x3A9 PUSH2 0x1652 JUMP JUMPDEST PUSH2 0x3B4 DUP2 ISZERO ISZERO PUSH2 0x161B JUMP JUMPDEST PUSH2 0x3E0 DUP2 ADDRESS CALLER PUSH32 0x0 PUSH2 0x16A8 JUMP JUMPDEST PUSH1 0x40 MLOAD SWAP1 DUP2 MSTORE PUSH32 0xBB9E497A5B82D1A37F9496DD70C6EFB97BA0D98C66C3422D05010105D0633598 PUSH1 0x20 CALLER SWAP3 LOG2 PUSH1 0x1 DUP1 SSTORE STOP JUMPDEST CALLVALUE PUSH2 0x1CF JUMPI PUSH1 0x0 CALLDATASIZE PUSH1 0x3 NOT ADD SLT PUSH2 0x1CF JUMPI PUSH1 0x20 PUSH1 0x3 SLOAD PUSH1 0x40 MLOAD SWAP1 DUP2 MSTORE RETURN JUMPDEST CALLVALUE PUSH2 0x1CF JUMPI PUSH1 0x20 CALLDATASIZE PUSH1 0x3 NOT ADD SLT PUSH2 0x1CF JUMPI PUSH1 0x20 PUSH2 0x44E PUSH1 0x4 CALLDATALOAD PUSH2 0x1A4F JUMP JUMPDEST PUSH1 0x40 MLOAD SWAP1 DUP2 MSTORE RETURN JUMPDEST CALLVALUE PUSH2 0x1CF JUMPI PUSH1 0xA0 CALLDATASIZE PUSH1 0x3 NOT ADD SLT PUSH2 0x1CF JUMPI PUSH1 0x4 CALLDATALOAD PUSH2 0x472 PUSH2 0x14BC JUMP JUMPDEST PUSH1 0x64 CALLDATALOAD SWAP2 PUSH2 0xFFFF SWAP2 DUP3 DUP5 AND DUP1 SWAP5 SUB PUSH2 0x1CF JUMPI PUSH2 0x48C PUSH2 0x14CD JUMP JUMPDEST PUSH1 0x6 SLOAD DUP3 LT ISZERO PUSH2 0x51E JUMPI PUSH32 0xFE2EFE9272EB0DEB4938823C5D646855A80E10848BF50AF99EF34310D8F92B8D SWAP4 PUSH1 0x20 SWAP4 PUSH2 0x50A SWAP3 AND SWAP1 PUSH2 0x4D8 PUSH2 0x2710 DUP1 DUP5 GT ISZERO SWAP1 DUP2 PUSH2 0x513 JUMPI JUMPDEST POP PUSH2 0x1525 JUMP JUMPDEST PUSH1 0x40 MLOAD SWAP2 PUSH2 0x4E5 DUP4 PUSH2 0x157A JUMP JUMPDEST PUSH1 0x24 CALLDATALOAD DUP4 MSTORE DUP6 DUP4 ADD MSTORE PUSH1 0x40 DUP3 ADD MSTORE PUSH1 0x84 CALLDATALOAD PUSH1 0x60 DUP3 ADD MSTORE PUSH2 0x504 DUP4 PUSH2 0x141D JUMP JUMPDEST SWAP1 PUSH2 0x15B8 JUMP JUMPDEST PUSH1 0x40 MLOAD SWAP1 DUP2 MSTORE LOG1 STOP JUMPDEST SWAP1 POP DUP3 GT ISZERO DUP9 PUSH2 0x4D2 JUMP JUMPDEST PUSH1 0x40 MLOAD PUSH3 0x461BCD PUSH1 0xE5 SHL DUP2 MSTORE PUSH1 0x20 PUSH1 0x4 DUP3 ADD MSTORE PUSH1 0x3 PUSH1 0x24 DUP3 ADD MSTORE PUSH3 0xD2C8F PUSH1 0xEB SHL PUSH1 0x44 DUP3 ADD MSTORE PUSH1 0x64 SWAP1 REVERT JUMPDEST CALLVALUE PUSH2 0x1CF JUMPI PUSH1 0x20 CALLDATASIZE PUSH1 0x3 NOT ADD SLT PUSH2 0x1CF JUMPI PUSH1 0x0 PUSH2 0x1A0 PUSH1 0x40 MLOAD PUSH2 0x56B DUP2 PUSH2 0x155D JUMP JUMPDEST DUP3 DUP2 MSTORE DUP3 PUSH1 0x20 DUP3 ADD MSTORE DUP3 PUSH1 0x40 DUP3 ADD MSTORE DUP3 PUSH1 0x60 DUP3 ADD MSTORE DUP3 PUSH1 0x80 DUP3 ADD MSTORE DUP3 PUSH1 0xA0 DUP3 ADD MSTORE DUP3 PUSH1 0xC0 DUP3 ADD MSTORE DUP3 PUSH1 0xE0 DUP3 ADD MSTORE DUP3 PUSH2 0x100 DUP3 ADD MSTORE DUP3 PUSH2 0x120 DUP3 ADD MSTORE DUP3 PUSH2 0x140 DUP3 ADD MSTORE DUP3 PUSH2 0x160 DUP3 ADD MSTORE DUP3 PUSH2 0x180 DUP3 ADD MSTORE ADD MSTORE PUSH1 0x4 CALLDATALOAD PUSH1 0x0 MSTORE PUSH1 0x8 PUSH1 0x20 MSTORE PUSH2 0x1C0 PUSH1 0x40 PUSH1 0x0 KECCAK256 PUSH2 0x1A0 PUSH1 0x40 MLOAD PUSH2 0x5DF DUP2 PUSH2 0x155D JUMP JUMPDEST PUSH1 0xFF PUSH1 0xD PUSH1 0x1 DUP1 PUSH1 0xA0 SHL SUB DUP6 SLOAD AND SWAP5 DUP6 DUP5 MSTORE PUSH1 0x1 DUP1 PUSH1 0xA0 SHL SUB PUSH1 0x1 DUP3 ADD SLOAD AND PUSH1 0x20 DUP6 ADD MSTORE PUSH1 0x2 DUP2 ADD SLOAD PUSH1 0x40 DUP6 ADD MSTORE PUSH1 0x3 DUP2 ADD SLOAD PUSH1 0x60 DUP6 ADD MSTORE PUSH1 0x4 DUP2 ADD SLOAD PUSH1 0x80 DUP6 ADD MSTORE PUSH1 0x5 DUP2 ADD SLOAD PUSH1 0xA0 DUP6 ADD MSTORE PUSH1 0x6 DUP2 ADD SLOAD PUSH1 0xC0 DUP6 ADD MSTORE PUSH1 0x7 DUP2 ADD SLOAD PUSH1 0xE0 DUP6 ADD MSTORE PUSH1 0x8 DUP2 ADD SLOAD PUSH2 0x100 DUP6 ADD MSTORE PUSH1 0x9 DUP2 ADD SLOAD PUSH2 0x120 DUP6 ADD MSTORE PUSH1 0xA DUP2 ADD SLOAD PUSH2 0x140 DUP6 ADD MSTORE PUSH1 0xB DUP2 ADD SLOAD PUSH2 0x160 DUP6 ADD MSTORE PUSH1 0xC DUP2 ADD SLOAD PUSH2 0x180 DUP6 ADD MSTORE ADD SLOAD AND ISZERO ISZERO DUP3 DUP3 ADD MSTORE PUSH1 0x40 MLOAD SWAP3 DUP4 MSTORE PUSH1 0x1 DUP1 PUSH1 0xA0 SHL SUB PUSH1 0x20 DUP3 ADD MLOAD AND PUSH1 0x20 DUP5 ADD MSTORE PUSH1 0x40 DUP2 ADD MLOAD PUSH1 0x40 DUP5 ADD MSTORE PUSH1 0x60 DUP2 ADD MLOAD PUSH1 0x60 DUP5 ADD MSTORE PUSH1 0x80 DUP2 ADD MLOAD PUSH1 0x80 DUP5 ADD MSTORE PUSH1 0xA0 DUP2 ADD MLOAD PUSH1 0xA0 DUP5 ADD MSTORE PUSH1 0xC0 DUP2 ADD MLOAD PUSH1 0xC0 DUP5 ADD MSTORE PUSH1 0xE0 DUP2 ADD MLOAD PUSH1 0xE0 DUP5 ADD MSTORE PUSH2 0x100 DUP2 ADD MLOAD PUSH2 0x100 DUP5 ADD MSTORE PUSH2 0x120 DUP2 ADD MLOAD PUSH2 0x120 DUP5 ADD MSTORE PUSH2 0x140 DUP2 ADD MLOAD PUSH2 0x140 DUP5 ADD MSTORE PUSH2 0x160 DUP2 ADD MLOAD PUSH2 0x160 DUP5 ADD MSTORE PUSH2 0x180 DUP2 ADD MLOAD PUSH2 0x180 DUP5 ADD MSTORE ADD MLOAD ISZERO ISZERO PUSH2 0x1A0 DUP3 ADD MSTORE RETURN JUMPDEST CALLVALUE PUSH2 0x1CF JUMPI PUSH1 0x40 CALLDATASIZE PUSH1 0x3 NOT ADD SLT PUSH2 0x1CF JUMPI PUSH2 0x734 PUSH2 0x149A JUMP JUMPDEST PUSH2 0x73C PUSH2 0x14AB JUMP JUMPDEST PUSH2 0x744 PUSH2 0x14CD JUMP JUMPDEST PUSH2 0xFFFF PUSH4 0xFFFF0000 PUSH1 0x7 SLOAD SWAP3 PUSH1 0x10 SHL AND SWAP3 AND SWAP1 PUSH4 0xFFFFFFFF NOT AND OR OR PUSH1 0x7 SSTORE PUSH1 0x0 DUP1 MLOAD PUSH1 0x20 PUSH2 0x1C38 DUP4 CODECOPY DUP2 MLOAD SWAP2 MSTORE PUSH1 0x0 DUP1 LOG1 STOP JUMPDEST CALLVALUE PUSH2 0x1CF JUMPI PUSH1 0x0 CALLDATASIZE PUSH1 0x3 NOT ADD SLT PUSH2 0x1CF JUMPI PUSH1 0x20 PUSH2 0xFFFF PUSH1 0x7 SLOAD PUSH1 0x10 SHR AND PUSH1 0x40 MLOAD SWAP1 DUP2 MSTORE RETURN JUMPDEST CALLVALUE PUSH2 0x1CF JUMPI PUSH1 0x20 CALLDATASIZE PUSH1 0x3 NOT ADD SLT PUSH2 0x1CF JUMPI PUSH1 0x4 CALLDATALOAD PUSH1 0x0 MSTORE PUSH1 0x8 PUSH1 0x20 MSTORE PUSH2 0x1C0 PUSH1 0x40 PUSH1 0x0 KECCAK256 PUSH1 0x1 DUP1 PUSH1 0xA0 SHL SUB SWAP1 DUP2 DUP2 SLOAD AND SWAP2 PUSH1 0x1 DUP3 ADD SLOAD AND SWAP1 PUSH1 0x2 DUP2 ADD SLOAD PUSH1 0x3 DUP3 ADD SLOAD PUSH1 0x4 DUP4 ADD SLOAD PUSH1 0x5 DUP5 ADD SLOAD PUSH1 0x6 DUP6 ADD SLOAD PUSH1 0x7 DUP7 ADD SLOAD SWAP1 PUSH1 0x8 DUP8 ADD SLOAD SWAP3 PUSH1 0x9 DUP9 ADD SLOAD SWAP5 PUSH1 0xA DUP10 ADD SLOAD SWAP7 PUSH1 0xB DUP11 ADD SLOAD SWAP9 PUSH1 0xFF PUSH1 0xD PUSH1 0xC DUP14 ADD SLOAD SWAP13 ADD SLOAD AND SWAP12 PUSH1 0x20 PUSH1 0x40 MLOAD SWAP15 DUP16 SWAP1 DUP2 MSTORE ADD MSTORE PUSH1 0x40 DUP14 ADD MSTORE PUSH1 0x60 DUP13 ADD MSTORE PUSH1 0x80 DUP12 ADD MSTORE PUSH1 0xA0 DUP11 ADD MSTORE PUSH1 0xC0 DUP10 ADD MSTORE PUSH1 0xE0 DUP9 ADD MSTORE PUSH2 0x100 DUP8 ADD MSTORE PUSH2 0x120 DUP7 ADD MSTORE PUSH2 0x140 DUP6 ADD MSTORE PUSH2 0x160 DUP5 ADD MSTORE PUSH2 0x180 DUP4 ADD MSTORE ISZERO ISZERO PUSH2 0x1A0 DUP3 ADD MSTORE RETURN JUMPDEST CALLVALUE PUSH2 0x1CF JUMPI PUSH1 0x0 CALLDATASIZE PUSH1 0x3 NOT ADD SLT PUSH2 0x1CF JUMPI PUSH1 0x20 PUSH2 0xFFFF PUSH1 0x7 SLOAD PUSH1 0x30 SHR AND PUSH1 0x40 MLOAD SWAP1 DUP2 MSTORE RETURN JUMPDEST CALLVALUE PUSH2 0x1CF JUMPI PUSH1 0x0 CALLDATASIZE PUSH1 0x3 NOT ADD SLT PUSH2 0x1CF JUMPI PUSH1 0x20 PUSH1 0x7 SLOAD PUSH2 0xFFFF PUSH1 0x40 MLOAD SWAP2 DUP4 SHR AND DUP2 MSTORE RETURN JUMPDEST CALLVALUE PUSH2 0x1CF JUMPI PUSH1 0x40 CALLDATASIZE PUSH1 0x3 NOT ADD SLT PUSH2 0x1CF JUMPI PUSH2 0x917 PUSH2 0x8D1 PUSH2 0x146E JUMP JUMPDEST PUSH2 0x8D9 PUSH2 0x14CD JUMP JUMPDEST PUSH2 0x8ED PUSH1 0x1 PUSH1 0x1 PUSH1 0xA0 SHL SUB DUP3 AND ISZERO ISZERO PUSH2 0x192E JUMP JUMPDEST PUSH1 0x24 CALLDATALOAD SWAP1 PUSH32 0x0 PUSH2 0x1960 JUMP JUMPDEST STOP JUMPDEST CALLVALUE PUSH2 0x1CF JUMPI PUSH1 0x0 CALLDATASIZE PUSH1 0x3 NOT ADD SLT PUSH2 0x1CF JUMPI PUSH1 0x0 SLOAD PUSH1 0x40 MLOAD PUSH1 0x1 PUSH1 0x1 PUSH1 0xA0 SHL SUB SWAP1 SWAP2 AND DUP2 MSTORE PUSH1 0x20 SWAP1 RETURN JUMPDEST CALLVALUE PUSH2 0x1CF JUMPI PUSH1 0x20 CALLDATASIZE PUSH1 0x3 NOT ADD SLT PUSH2 0x1CF JUMPI PUSH2 0x95B PUSH2 0x14CD JUMP JUMPDEST PUSH1 0x4 CALLDATALOAD PUSH1 0x3 SSTORE PUSH1 0x0 DUP1 MLOAD PUSH1 0x20 PUSH2 0x1C38 DUP4 CODECOPY DUP2 MLOAD SWAP2 MSTORE PUSH1 0x0 DUP1 LOG1 STOP JUMPDEST CALLVALUE PUSH2 0x1CF JUMPI PUSH1 0x40 CALLDATASIZE PUSH1 0x3 NOT ADD SLT PUSH2 0x1CF JUMPI PUSH2 0x98F PUSH2 0x146E JUMP JUMPDEST PUSH2 0x997 PUSH2 0x14AB JUMP JUMPDEST SWAP1 PUSH2 0x9A0 PUSH2 0x14CD JUMP JUMPDEST PUSH1 0x1 PUSH1 0x1 PUSH1 0xA0 SHL SUB AND SWAP1 DUP2 ISZERO PUSH2 0xA57 JUMPI PUSH2 0xFFFF DUP1 DUP3 AND PUSH2 0x3E8 DUP2 GT PUSH2 0xA25 JUMPI PUSH2 0xA20 PUSH32 0xF0476F83A777B892446C4939723CABA7D89F8DE16505F4DFE3C17F8B1DDA4868 SWAP4 DUP6 PUSH1 0x0 MSTORE PUSH1 0x5 PUSH1 0x20 MSTORE PUSH1 0x40 PUSH1 0x0 KECCAK256 DUP1 SLOAD SWAP4 PUSH2 0xFFFF NOT DUP6 AND OR SWAP1 SSTORE PUSH1 0x40 MLOAD SWAP4 DUP5 SWAP4 AND DUP4 SWAP1 PUSH1 0x20 SWAP1 SWAP4 SWAP3 SWAP4 PUSH1 0x40 DUP4 ADD SWAP5 PUSH2 0xFFFF DUP1 SWAP3 AND DUP5 MSTORE AND SWAP2 ADD MSTORE JUMP JUMPDEST SUB SWAP1 LOG2 STOP JUMPDEST PUSH1 0x40 MLOAD PUSH3 0x461BCD PUSH1 0xE5 SHL DUP2 MSTORE PUSH1 0x20 PUSH1 0x4 DUP3 ADD MSTORE PUSH1 0xA PUSH1 0x24 DUP3 ADD MSTORE PUSH10 0x73636F72653E3130303 PUSH1 0xB4 SHL PUSH1 0x44 DUP3 ADD MSTORE PUSH1 0x64 SWAP1 REVERT JUMPDEST PUSH1 0x40 MLOAD PUSH3 0x461BCD PUSH1 0xE5 SHL DUP2 MSTORE PUSH1 0x20 PUSH1 0x4 DUP3 ADD MSTORE PUSH1 0x5 PUSH1 0x24 DUP3 ADD MSTORE PUSH5 0x77686F3D3 PUSH1 0xDC SHL PUSH1 0x44 DUP3 ADD MSTORE PUSH1 0x64 SWAP1 REVERT JUMPDEST CALLVALUE PUSH2 0x1CF JUMPI PUSH1 0x0 CALLDATASIZE PUSH1 0x3 NOT ADD SLT PUSH2 0x1CF JUMPI PUSH1 0x20 PUSH2 0x44E PUSH2 0x19BE JUMP JUMPDEST CALLVALUE PUSH2 0x1CF JUMPI PUSH1 0x80 CALLDATASIZE PUSH1 0x3 NOT ADD SLT PUSH2 0x1CF JUMPI PUSH2 0xAB8 PUSH2 0x14AB JUMP JUMPDEST PUSH2 0xAC0 PUSH2 0x14BC JUMP JUMPDEST SWAP1 PUSH2 0xAC9 PUSH2 0x14CD JUMP JUMPDEST PUSH2 0xFFFF DUP1 SWAP2 AND SWAP2 PUSH2 0xAE6 PUSH2 0x2710 DUP1 DUP6 GT ISZERO SWAP1 DUP2 PUSH2 0xB9B JUMPI POP PUSH2 0x1525 JUMP JUMPDEST PUSH1 0x40 MLOAD SWAP3 PUSH2 0xAF3 DUP5 PUSH2 0x157A JUMP JUMPDEST PUSH1 0x4 CALLDATALOAD DUP5 MSTORE PUSH1 0x20 DUP5 ADD MSTORE AND PUSH1 0x40 DUP3 ADD MSTORE PUSH1 0x64 CALLDATALOAD PUSH1 0x60 DUP3 ADD MSTORE PUSH1 0x6 SLOAD SWAP1 PUSH9 0x10000000000000000 DUP3 LT ISZERO PUSH2 0xB85 JUMPI PUSH2 0x504 DUP3 PUSH1 0x1 PUSH2 0xB33 SWAP5 ADD PUSH1 0x6 SSTORE PUSH2 0x141D JUMP JUMPDEST PUSH1 0x6 SLOAD PUSH1 0x0 NOT DUP2 ADD SWAP1 DUP2 GT PUSH2 0xB6F JUMPI PUSH1 0x20 PUSH32 0xFE2EFE9272EB0DEB4938823C5D646855A80E10848BF50AF99EF34310D8F92B8D SWAP2 PUSH1 0x40 MLOAD SWAP1 DUP2 MSTORE LOG1 STOP JUMPDEST PUSH4 0x4E487B71 PUSH1 0xE0 SHL PUSH1 0x0 MSTORE PUSH1 0x11 PUSH1 0x4 MSTORE PUSH1 0x24 PUSH1 0x0 REVERT JUMPDEST PUSH4 0x4E487B71 PUSH1 0xE0 SHL PUSH1 0x0 MSTORE PUSH1 0x41 PUSH1 0x4 MSTORE PUSH1 0x24 PUSH1 0x0 REVERT JUMPDEST SWAP1 POP DUP4 DUP4 AND GT ISZERO DUP6 PUSH2 0x4D2 JUMP JUMPDEST CALLVALUE PUSH2 0x1CF JUMPI PUSH1 0x0 CALLDATASIZE PUSH1 0x3 NOT ADD SLT PUSH2 0x1CF JUMPI PUSH2 0xBC1 PUSH2 0x14CD JUMP JUMPDEST PUSH1 0x0 DUP1 SLOAD PUSH1 0x1 PUSH1 0x1 PUSH1 0xA0 SHL SUB NOT DUP2 AND DUP3 SSTORE PUSH1 0x1 PUSH1 0x1 PUSH1 0xA0 SHL SUB AND PUSH32 0x8BE0079C531659141344CD1FD0A4F28419497F9722A3DAAFE3B4186F6B6457E0 DUP3 DUP1 LOG3 STOP JUMPDEST CALLVALUE PUSH2 0x1CF JUMPI PUSH1 0x0 CALLDATASIZE PUSH1 0x3 NOT ADD SLT PUSH2 0x1CF JUMPI PUSH1 0x2 SLOAD PUSH1 0x40 MLOAD PUSH1 0x1 PUSH1 0x1 PUSH1 0xA0 SHL SUB SWAP1 SWAP2 AND DUP2 MSTORE PUSH1 0x20 SWAP1 RETURN JUMPDEST CALLVALUE PUSH2 0x1CF JUMPI PUSH1 0x0 CALLDATASIZE PUSH1 0x3 NOT ADD SLT PUSH2 0x1CF JUMPI PUSH1 0x20 PUSH1 0x4 SLOAD PUSH1 0x40 MLOAD SWAP1 DUP2 MSTORE RETURN JUMPDEST CALLVALUE PUSH2 0x1CF JUMPI PUSH1 0x20 CALLDATASIZE PUSH1 0x3 NOT ADD SLT PUSH2 0x1CF JUMPI PUSH2 0xC61 PUSH2 0x149A JUMP JUMPDEST PUSH2 0xC69 PUSH2 0x14CD JUMP JUMPDEST PUSH6 0xFFFF00000000 PUSH1 0x7 SLOAD SWAP2 PUSH1 0x20 SHL AND SWAP1 PUSH6 0xFFFF00000000 NOT AND OR PUSH1 0x7 SSTORE PUSH1 0x0 DUP1 MLOAD PUSH1 0x20 PUSH2 0x1C38 DUP4 CODECOPY DUP2 MLOAD SWAP2 MSTORE PUSH1 0x0 DUP1 LOG1 STOP JUMPDEST CALLVALUE PUSH2 0x1CF JUMPI PUSH1 0x20 DUP1 PUSH1 0x3 NOT CALLDATASIZE ADD SLT PUSH2 0x1CF JUMPI PUSH1 0x4 CALLDATALOAD SWAP1 PUSH2 0xCB9 PUSH2 0x1652 JUMP JUMPDEST DUP2 PUSH1 0x0 MSTORE PUSH1 0x8 DUP2 MSTORE PUSH1 0x40 PUSH1 0x0 KECCAK256 PUSH1 0xD DUP2 ADD SWAP1 PUSH1 0xFF DUP3 SLOAD AND PUSH2 0xE3C JUMPI PUSH1 0x6 DUP2 ADD SLOAD TIMESTAMP GT ISZERO PUSH2 0xE09 JUMPI SWAP1 DUP2 PUSH1 0x3 PUSH32 0x3C24207173CA3400F76EAC3FA0D6F98E2AB53C0E661E5DE8C3D9386B0249DF32 SWAP5 SWAP4 ADD SLOAD SWAP2 DUP3 PUSH2 0xDCC JUMPI JUMPDEST DUP1 SLOAD PUSH1 0xFF NOT AND PUSH1 0x1 OR SWAP1 SSTORE SLOAD PUSH1 0x1 PUSH1 0x1 PUSH1 0xA0 SHL SUB AND PUSH1 0x0 DUP2 DUP2 MSTORE PUSH1 0x5 DUP5 MSTORE PUSH1 0x40 SWAP1 KECCAK256 SLOAD PUSH1 0x7 SLOAD PUSH32 0xF0476F83A777B892446C4939723CABA7D89F8DE16505F4DFE3C17F8B1DDA4868 SWAP2 PUSH2 0xFFFF SWAP1 DUP2 AND SWAP2 PUSH1 0x10 SHR DUP2 AND DUP1 DUP4 GT ISZERO PUSH2 0xDC4 JUMPI PUSH2 0xD76 SWAP1 DUP4 PUSH2 0x160E JUMP JUMPDEST AND SWAP1 DUP4 PUSH1 0x0 MSTORE PUSH1 0x5 DUP7 MSTORE PUSH1 0x40 PUSH1 0x0 KECCAK256 DUP3 PUSH2 0xFFFF NOT DUP3 SLOAD AND OR SWAP1 SSTORE PUSH2 0xDB4 PUSH1 0x40 MLOAD SWAP3 DUP4 SWAP3 DUP4 SWAP1 PUSH1 0x20 SWAP1 SWAP4 SWAP3 SWAP4 PUSH1 0x40 DUP4 ADD SWAP5 PUSH2 0xFFFF DUP1 SWAP3 AND DUP5 MSTORE AND SWAP2 ADD MSTORE JUMP JUMPDEST SUB SWAP1 LOG2 PUSH1 0x40 MLOAD SWAP1 DUP2 MSTORE LOG2 PUSH1 0x1 DUP1 SSTORE STOP JUMPDEST POP PUSH1 0x0 PUSH2 0xD76 JUMP JUMPDEST PUSH1 0x2 SLOAD PUSH2 0xE04 SWAP1 DUP5 SWAP1 PUSH1 0x1 PUSH1 0x1 PUSH1 0xA0 SHL SUB AND PUSH32 0x0 PUSH2 0x1960 JUMP JUMPDEST PUSH2 0xD10 JUMP JUMPDEST PUSH1 0x40 MLOAD PUSH3 0x461BCD PUSH1 0xE5 SHL DUP2 MSTORE PUSH1 0x4 DUP2 ADD DUP5 SWAP1 MSTORE PUSH1 0xB PUSH1 0x24 DUP3 ADD MSTORE PUSH11 0x6E6F74206F766572647565 PUSH1 0xA8 SHL PUSH1 0x44 DUP3 ADD MSTORE PUSH1 0x64 SWAP1 REVERT JUMPDEST PUSH1 0x40 MLOAD PUSH3 0x461BCD PUSH1 0xE5 SHL DUP2 MSTORE PUSH1 0x4 DUP2 ADD DUP5 SWAP1 MSTORE PUSH1 0x6 PUSH1 0x24 DUP3 ADD MSTORE PUSH6 0x18DB1BDCD959 PUSH1 0xD2 SHL PUSH1 0x44 DUP3 ADD MSTORE PUSH1 0x64 SWAP1 REVERT JUMPDEST CALLVALUE PUSH2 0x1CF JUMPI PUSH1 0x20 CALLDATASIZE PUSH1 0x3 NOT ADD SLT PUSH2 0x1CF JUMPI PUSH1 0x4 CALLDATALOAD PUSH1 0x0 MSTORE PUSH1 0x8 PUSH1 0x20 MSTORE PUSH1 0x40 DUP1 PUSH1 0x0 KECCAK256 PUSH1 0x9 PUSH1 0x8 DUP3 ADD SLOAD SWAP2 ADD SLOAD DUP3 MLOAD SWAP2 DUP3 MSTORE PUSH1 0x20 DUP3 ADD MSTORE RETURN JUMPDEST CALLVALUE PUSH2 0x1CF JUMPI PUSH1 0x80 CALLDATASIZE PUSH1 0x3 NOT ADD SLT PUSH2 0x1CF JUMPI PUSH1 0x4 CALLDATALOAD PUSH2 0xEBE PUSH2 0x1484 JUMP JUMPDEST PUSH1 0x64 SWAP2 PUSH1 0x44 SWAP2 SWAP1 DUP4 CALLDATALOAD DUP4 CALLDATALOAD PUSH2 0xED1 PUSH2 0x1652 JUMP JUMPDEST PUSH1 0x1 PUSH1 0x1 PUSH1 0xA0 SHL SUB DUP5 AND SWAP4 DUP5 ISZERO PUSH2 0x1205 JUMPI PUSH2 0xEED DUP5 ISZERO ISZERO PUSH2 0x161B JUMP JUMPDEST TIMESTAMP DUP3 GT ISZERO PUSH2 0x11D5 JUMPI PUSH1 0x1 DUP4 LT PUSH2 0x11A0 JUMPI PUSH1 0x3 SLOAD DUP5 GT PUSH2 0x116F JUMPI PUSH2 0xF10 CALLER DUP6 PUSH2 0x1AB4 JUMP JUMPDEST SWAP8 SWAP1 SWAP7 DUP6 PUSH2 0xF1C PUSH2 0x19BE JUMP JUMPDEST LT PUSH2 0x113A JUMPI POP POP DUP4 PUSH2 0xF54 SWAP2 DUP8 PUSH2 0x1109 JUMPI JUMPDEST PUSH32 0x0 PUSH2 0x1960 JUMP JUMPDEST PUSH1 0x4 SLOAD SWAP6 PUSH1 0x1 DUP8 ADD DUP8 GT PUSH2 0xB6F JUMPI DUP7 PUSH1 0x1 PUSH1 0x20 SWAP9 ADD PUSH1 0x4 SSTORE PUSH1 0x1 PUSH2 0xF78 DUP6 DUP8 PUSH2 0x199E JUMP JUMPDEST SWAP2 PUSH2 0xF83 DUP7 DUP6 PUSH2 0x199E JUMP JUMPDEST PUSH1 0x40 MLOAD SWAP4 PUSH2 0xF90 DUP6 PUSH2 0x155D JUMP JUMPDEST CALLER DUP6 MSTORE DUP10 DUP13 DUP7 ADD MSTORE DUP9 PUSH1 0x40 DUP7 ADD MSTORE DUP11 PUSH1 0x60 DUP7 ADD MSTORE DUP6 PUSH1 0x80 DUP7 ADD MSTORE TIMESTAMP PUSH1 0xA0 DUP7 ADD MSTORE DUP7 PUSH1 0xC0 DUP7 ADD MSTORE DUP8 PUSH1 0xE0 DUP7 ADD MSTORE PUSH2 0x100 DUP6 ADD MSTORE PUSH2 0x120 DUP5 ADD MSTORE PUSH1 0x0 PUSH2 0x140 DUP5 ADD MSTORE PUSH1 0x0 PUSH2 0x160 DUP5 ADD MSTORE PUSH1 0x0 PUSH2 0x180 DUP5 ADD MSTORE PUSH1 0x0 PUSH2 0x1A0 DUP5 ADD MSTORE ADD PUSH1 0x0 MSTORE PUSH1 0x8 DUP9 MSTORE PUSH2 0x1A0 PUSH1 0xD PUSH1 0x40 PUSH1 0x0 KECCAK256 PUSH1 0x1 DUP1 PUSH1 0xA0 SHL SUB DUP5 MLOAD AND PUSH12 0xFFFFFFFFFFFFFFFFFFFFFFFF PUSH1 0xA0 SHL SWAP1 DUP2 DUP4 SLOAD AND OR DUP3 SSTORE PUSH1 0x1 DUP3 ADD SWAP1 PUSH1 0x1 DUP1 PUSH1 0xA0 SHL SUB DUP14 DUP8 ADD MLOAD AND SWAP1 DUP3 SLOAD AND OR SWAP1 SSTORE PUSH1 0x40 DUP5 ADD MLOAD PUSH1 0x2 DUP3 ADD SSTORE PUSH1 0x60 DUP5 ADD MLOAD PUSH1 0x3 DUP3 ADD SSTORE PUSH1 0x80 DUP5 ADD MLOAD PUSH1 0x4 DUP3 ADD SSTORE PUSH1 0xA0 DUP5 ADD MLOAD PUSH1 0x5 DUP3 ADD SSTORE PUSH1 0xC0 DUP5 ADD MLOAD PUSH1 0x6 DUP3 ADD SSTORE PUSH1 0xE0 DUP5 ADD MLOAD PUSH1 0x7 DUP3 ADD SSTORE PUSH2 0x100 DUP5 ADD MLOAD PUSH1 0x8 DUP3 ADD SSTORE PUSH2 0x120 DUP5 ADD MLOAD PUSH1 0x9 DUP3 ADD SSTORE PUSH2 0x140 DUP5 ADD MLOAD PUSH1 0xA DUP3 ADD SSTORE PUSH2 0x160 DUP5 ADD MLOAD PUSH1 0xB DUP3 ADD SSTORE PUSH2 0x180 DUP5 ADD MLOAD PUSH1 0xC DUP3 ADD SSTORE ADD SWAP2 ADD MLOAD ISZERO ISZERO PUSH1 0xFF DUP1 NOT DUP4 SLOAD AND SWAP2 AND OR SWAP1 SSTORE PUSH1 0x4 SLOAD SWAP6 PUSH1 0x40 MLOAD SWAP5 DUP6 MSTORE DUP8 DUP6 ADD MSTORE PUSH1 0x40 DUP5 ADD MSTORE PUSH1 0x60 DUP4 ADD MSTORE PUSH1 0x80 DUP3 ADD MSTORE DUP3 PUSH32 0x7111179A6DC4E2E1D73CFBDD46690BFFAB838320ECACCD2D7836BD095F362EC9 PUSH1 0xA0 CALLER SWAP4 LOG4 PUSH1 0x1 DUP1 SSTORE PUSH1 0x40 MLOAD SWAP1 DUP2 MSTORE RETURN JUMPDEST PUSH2 0x1135 DUP9 ADDRESS CALLER PUSH32 0x0 PUSH2 0x16A8 JUMP JUMPDEST PUSH2 0xF2E JUMP JUMPDEST PUSH17 0x1A5B9CDD59999A58DA595B9D081C1BDBDB PUSH1 0x7A SHL PUSH1 0x40 MLOAD SWAP2 PUSH3 0x461BCD PUSH1 0xE5 SHL DUP4 MSTORE PUSH1 0x20 PUSH1 0x4 DUP5 ADD MSTORE PUSH1 0x11 PUSH1 0x24 DUP5 ADD MSTORE DUP3 ADD MSTORE REVERT JUMPDEST PUSH1 0x40 MLOAD PUSH3 0x461BCD PUSH1 0xE5 SHL DUP2 MSTORE PUSH1 0x20 PUSH1 0x4 DUP3 ADD MSTORE PUSH1 0xB PUSH1 0x24 DUP3 ADD MSTORE PUSH11 0x657863656564732063617 PUSH1 0xAC SHL DUP2 DUP9 ADD MSTORE DUP8 SWAP1 REVERT JUMPDEST PUSH1 0x40 MLOAD PUSH3 0x461BCD PUSH1 0xE5 SHL DUP2 MSTORE PUSH1 0x20 PUSH1 0x4 DUP3 ADD MSTORE PUSH1 0xF PUSH1 0x24 DUP3 ADD MSTORE PUSH15 0x696E7374616C6C6D656E74733E3D31 PUSH1 0x88 SHL DUP2 DUP9 ADD MSTORE DUP8 SWAP1 REVERT JUMPDEST PUSH1 0x40 MLOAD PUSH3 0x461BCD PUSH1 0xE5 SHL DUP2 MSTORE PUSH1 0x20 PUSH1 0x4 DUP3 ADD MSTORE PUSH1 0xA PUSH1 0x24 DUP3 ADD MSTORE PUSH10 0x64756541743C3D6E6F77 PUSH1 0xB0 SHL DUP2 DUP9 ADD MSTORE DUP8 SWAP1 REVERT JUMPDEST PUSH1 0x40 MLOAD PUSH3 0x461BCD PUSH1 0xE5 SHL DUP2 MSTORE PUSH1 0x20 PUSH1 0x4 DUP3 ADD MSTORE PUSH1 0xA PUSH1 0x24 DUP3 ADD MSTORE PUSH10 0x6D65726368616E743D3 PUSH1 0xB4 SHL DUP2 DUP9 ADD MSTORE DUP8 SWAP1 REVERT JUMPDEST CALLVALUE PUSH2 0x1CF JUMPI PUSH1 0x20 CALLDATASIZE PUSH1 0x3 NOT ADD SLT PUSH2 0x1CF JUMPI PUSH2 0x124E PUSH2 0x149A JUMP JUMPDEST PUSH2 0x1256 PUSH2 0x14CD JUMP JUMPDEST PUSH2 0xFFFF DUP2 AND DUP1 ISZERO ISZERO SWAP1 DUP2 PUSH2 0x12CF JUMPI JUMPDEST POP ISZERO PUSH2 0x12A1 JUMPI PUSH8 0xFFFF000000000000 PUSH1 0x7 SLOAD SWAP2 PUSH1 0x30 SHL AND SWAP1 PUSH8 0xFFFF000000000000 NOT AND OR PUSH1 0x7 SSTORE PUSH1 0x0 DUP1 MLOAD PUSH1 0x20 PUSH2 0x1C38 DUP4 CODECOPY DUP2 MLOAD SWAP2 MSTORE PUSH1 0x0 DUP1 LOG1 STOP JUMPDEST PUSH1 0x40 MLOAD PUSH3 0x461BCD PUSH1 0xE5 SHL DUP2 MSTORE PUSH1 0x20 PUSH1 0x4 DUP3 ADD MSTORE PUSH1 0x6 PUSH1 0x24 DUP3 ADD MSTORE PUSH6 0x6D696E427073 PUSH1 0xD0 SHL PUSH1 0x44 DUP3 ADD MSTORE PUSH1 0x64 SWAP1 REVERT JUMPDEST PUSH2 0x2710 SWAP2 POP GT ISZERO DUP3 PUSH2 0x1265 JUMP JUMPDEST CALLVALUE PUSH2 0x1CF JUMPI PUSH1 0x0 CALLDATASIZE PUSH1 0x3 NOT ADD SLT PUSH2 0x1CF JUMPI PUSH1 0x20 PUSH2 0xFFFF PUSH1 0x7 SLOAD AND PUSH1 0x40 MLOAD SWAP1 DUP2 MSTORE RETURN JUMPDEST CALLVALUE PUSH2 0x1CF JUMPI PUSH1 0x40 CALLDATASIZE PUSH1 0x3 NOT ADD SLT PUSH2 0x1CF JUMPI PUSH1 0x40 PUSH2 0x1324 PUSH2 0x131C PUSH2 0x1484 JUMP JUMPDEST PUSH1 0x4 CALLDATALOAD PUSH2 0x1AB4 JUMP JUMPDEST DUP3 MLOAD SWAP2 DUP3 MSTORE PUSH1 0x20 DUP3 ADD MSTORE RETURN JUMPDEST CALLVALUE PUSH2 0x1CF JUMPI PUSH1 0x40 CALLDATASIZE PUSH1 0x3 NOT ADD SLT PUSH2 0x1CF JUMPI PUSH2 0x1349 PUSH2 0x146E JUMP JUMPDEST PUSH32 0xB1CCE8684B4FFA8667B4577654E61EE3480D661EE9C27522AC80E211F6BD4D25 PUSH1 0x20 PUSH1 0x24 CALLDATALOAD PUSH2 0x1377 PUSH2 0x14CD JUMP JUMPDEST PUSH2 0x137F PUSH2 0x1652 JUMP JUMPDEST PUSH1 0x1 PUSH1 0x1 PUSH1 0xA0 SHL SUB DUP5 AND SWAP4 PUSH2 0x139B SWAP1 DUP3 SWAP1 PUSH2 0xF2E DUP8 ISZERO ISZERO PUSH2 0x192E JUMP JUMPDEST PUSH1 0x40 MLOAD SWAP1 DUP2 MSTORE LOG2 PUSH1 0x1 DUP1 SSTORE STOP JUMPDEST CALLVALUE PUSH2 0x1CF JUMPI PUSH1 0x20 CALLDATASIZE PUSH1 0x3 NOT ADD SLT PUSH2 0x1CF JUMPI PUSH1 0x4 CALLDATALOAD PUSH1 0x6 SLOAD DUP2 LT ISZERO PUSH2 0x1CF JUMPI PUSH2 0x13D1 PUSH1 0x80 SWAP2 PUSH2 0x141D JUMP JUMPDEST POP DUP1 SLOAD SWAP1 PUSH1 0x2 PUSH1 0x1 DUP3 ADD SLOAD SWAP2 ADD SLOAD SWAP1 PUSH1 0x40 MLOAD SWAP3 DUP4 MSTORE PUSH2 0xFFFF SWAP1 DUP2 DUP2 AND PUSH1 0x20 DUP6 ADD MSTORE PUSH1 0x10 SHR AND PUSH1 0x40 DUP4 ADD MSTORE PUSH1 0x60 DUP3 ADD MSTORE RETURN JUMPDEST CALLVALUE PUSH2 0x1CF JUMPI PUSH1 0x0 CALLDATASIZE PUSH1 0x3 NOT ADD SLT PUSH2 0x1CF JUMPI PUSH1 0x20 SWAP1 PUSH1 0x6 SLOAD DUP2 MSTORE RETURN JUMPDEST PUSH1 0x6 SLOAD DUP2 LT ISZERO PUSH2 0x1458 JUMPI PUSH1 0x3 SWAP1 PUSH1 0x6 PUSH1 0x0 MSTORE MUL PUSH32 0xF652222313E28459528D920B65115C16C04F3EFC82AAEDC97BE59F3F377C0D3F ADD SWAP1 PUSH1 0x0 SWAP1 JUMP JUMPDEST PUSH4 0x4E487B71 PUSH1 0xE0 SHL PUSH1 0x0 MSTORE PUSH1 0x32 PUSH1 0x4 MSTORE PUSH1 0x24 PUSH1 0x0 REVERT JUMPDEST PUSH1 0x4 CALLDATALOAD SWAP1 PUSH1 0x1 PUSH1 0x1 PUSH1 0xA0 SHL SUB DUP3 AND DUP3 SUB PUSH2 0x1CF JUMPI JUMP JUMPDEST PUSH1 0x24 CALLDATALOAD SWAP1 PUSH1 0x1 PUSH1 0x1 PUSH1 0xA0 SHL SUB DUP3 AND DUP3 SUB PUSH2 0x1CF JUMPI JUMP JUMPDEST PUSH1 0x4 CALLDATALOAD SWAP1 PUSH2 0xFFFF DUP3 AND DUP3 SUB PUSH2 0x1CF JUMPI JUMP JUMPDEST PUSH1 0x24 CALLDATALOAD SWAP1 PUSH2 0xFFFF DUP3 AND DUP3 SUB PUSH2 0x1CF JUMPI JUMP JUMPDEST PUSH1 0x44 CALLDATALOAD SWAP1 PUSH2 0xFFFF DUP3 AND DUP3 SUB PUSH2 0x1CF JUMPI JUMP JUMPDEST PUSH1 0x0 SLOAD PUSH1 0x1 PUSH1 0x1 PUSH1 0xA0 SHL SUB AND CALLER SUB PUSH2 0x14E1 JUMPI JUMP JUMPDEST PUSH1 0x64 PUSH1 0x40 MLOAD PUSH3 0x461BCD PUSH1 0xE5 SHL DUP2 MSTORE PUSH1 0x20 PUSH1 0x4 DUP3 ADD MSTORE PUSH1 0x20 PUSH1 0x24 DUP3 ADD MSTORE PUSH32 0x4F776E61626C653A2063616C6C6572206973206E6F7420746865206F776E6572 PUSH1 0x44 DUP3 ADD MSTORE REVERT JUMPDEST ISZERO PUSH2 0x152C JUMPI JUMP JUMPDEST PUSH1 0x40 MLOAD PUSH3 0x461BCD PUSH1 0xE5 SHL DUP2 MSTORE PUSH1 0x20 PUSH1 0x4 DUP3 ADD MSTORE PUSH1 0x9 PUSH1 0x24 DUP3 ADD MSTORE PUSH9 0x6270733E313030303 PUSH1 0xBC SHL PUSH1 0x44 DUP3 ADD MSTORE PUSH1 0x64 SWAP1 REVERT JUMPDEST PUSH2 0x1C0 DUP2 ADD SWAP1 DUP2 LT PUSH8 0xFFFFFFFFFFFFFFFF DUP3 GT OR PUSH2 0xB85 JUMPI PUSH1 0x40 MSTORE JUMP JUMPDEST PUSH1 0x80 DUP2 ADD SWAP1 DUP2 LT PUSH8 0xFFFFFFFFFFFFFFFF DUP3 GT OR PUSH2 0xB85 JUMPI PUSH1 0x40 MSTORE JUMP JUMPDEST SWAP1 PUSH1 0x1F DUP1 NOT SWAP2 ADD AND DUP2 ADD SWAP1 DUP2 LT PUSH8 0xFFFFFFFFFFFFFFFF DUP3 GT OR PUSH2 0xB85 JUMPI PUSH1 0x40 MSTORE JUMP JUMPDEST SWAP2 SWAP1 PUSH2 0x15F8 JUMPI PUSH1 0x60 DUP2 PUSH1 0x2 SWAP3 MLOAD DUP5 SSTORE PUSH1 0x1 DUP5 ADD PUSH2 0xFFFF PUSH1 0x20 DUP4 ADD MLOAD AND DUP2 SLOAD SWAP1 PUSH4 0xFFFF0000 PUSH1 0x40 DUP6 ADD MLOAD PUSH1 0x10 SHL AND SWAP2 PUSH4 0xFFFFFFFF NOT AND OR OR SWAP1 SSTORE ADD MLOAD SWAP2 ADD SSTORE JUMP JUMPDEST PUSH4 0x4E487B71 PUSH1 0xE0 SHL PUSH1 0x0 MSTORE PUSH1 0x0 PUSH1 0x4 MSTORE PUSH1 0x24 PUSH1 0x0 REVERT JUMPDEST SWAP2 SWAP1 DUP3 SUB SWAP2 DUP3 GT PUSH2 0xB6F JUMPI JUMP JUMPDEST ISZERO PUSH2 0x1622 JUMPI JUMP JUMPDEST PUSH1 0x40 MLOAD PUSH3 0x461BCD PUSH1 0xE5 SHL DUP2 MSTORE PUSH1 0x20 PUSH1 0x4 DUP3 ADD MSTORE PUSH1 0x8 PUSH1 0x24 DUP3 ADD MSTORE PUSH8 0x616D6F756E743D3 PUSH1 0xC4 SHL PUSH1 0x44 DUP3 ADD MSTORE PUSH1 0x64 SWAP1 REVERT JUMPDEST PUSH1 0x2 PUSH1 0x1 SLOAD EQ PUSH2 0x1663 JUMPI PUSH1 0x2 PUSH1 0x1 SSTORE JUMP JUMPDEST PUSH1 0x40 MLOAD PUSH3 0x461BCD PUSH1 0xE5 SHL DUP2 MSTORE PUSH1 0x20 PUSH1 0x4 DUP3 ADD MSTORE PUSH1 0x1F PUSH1 0x24 DUP3 ADD MSTORE PUSH32 0x5265656E7472616E637947756172643A207265656E7472616E742063616C6C00 PUSH1 0x44 DUP3 ADD MSTORE PUSH1 0x64 SWAP1 REVERT JUMPDEST PUSH1 0x40 MLOAD PUSH4 0x23B872DD PUSH1 0xE0 SHL PUSH1 0x20 DUP3 ADD MSTORE PUSH1 0x1 PUSH1 0x1 PUSH1 0xA0 SHL SUB SWAP3 DUP4 AND PUSH1 0x24 DUP3 ADD MSTORE SWAP3 SWAP1 SWAP2 AND PUSH1 0x44 DUP4 ADD MSTORE PUSH1 0x64 DUP1 DUP4 ADD SWAP4 SWAP1 SWAP4 MSTORE SWAP2 DUP2 MSTORE PUSH1 0xA0 DUP2 ADD SWAP2 DUP2 DUP4 LT PUSH8 0xFFFFFFFFFFFFFFFF DUP5 GT OR PUSH2 0xB85 JUMPI PUSH2 0x1701 SWAP3 PUSH1 0x40 MSTORE PUSH2 0x1703 JUMP JUMPDEST JUMP JUMPDEST PUSH1 0x1 DUP1 PUSH1 0xA0 SHL SUB AND SWAP1 PUSH1 0x40 MLOAD PUSH1 0x40 DUP2 ADD PUSH8 0xFFFFFFFFFFFFFFFF SWAP1 DUP3 DUP2 LT DUP3 DUP3 GT OR PUSH2 0xB85 JUMPI PUSH1 0x40 MSTORE PUSH1 0x20 SWAP4 DUP5 DUP4 MSTORE PUSH32 0x5361666545524332303A206C6F772D6C6576656C2063616C6C206661696C6564 DUP6 DUP5 ADD MSTORE PUSH1 0x0 DUP1 DUP6 DUP8 DUP3 SWAP8 MLOAD SWAP2 ADD DUP3 DUP6 GAS CALL SWAP1 RETURNDATASIZE ISZERO PUSH2 0x184F JUMPI RETURNDATASIZE SWAP3 DUP4 GT PUSH2 0x183B JUMPI SWAP1 PUSH2 0x179E SWAP4 SWAP3 SWAP2 PUSH1 0x40 MLOAD SWAP3 PUSH2 0x1791 DUP9 PUSH1 0x1F NOT PUSH1 0x1F DUP5 ADD AND ADD DUP6 PUSH2 0x1596 JUMP JUMPDEST DUP4 MSTORE RETURNDATASIZE DUP7 DUP9 DUP6 ADD RETURNDATACOPY PUSH2 0x185A JUMP JUMPDEST DUP1 MLOAD SWAP2 DUP3 ISZERO SWAP2 DUP5 DUP4 ISZERO PUSH2 0x1810 JUMPI JUMPDEST POP POP POP SWAP1 POP ISZERO PUSH2 0x17B9 JUMPI POP JUMP JUMPDEST PUSH1 0x84 SWAP1 PUSH1 0x40 MLOAD SWAP1 PUSH3 0x461BCD PUSH1 0xE5 SHL DUP3 MSTORE PUSH1 0x4 DUP3 ADD MSTORE PUSH1 0x2A PUSH1 0x24 DUP3 ADD MSTORE PUSH32 0x5361666545524332303A204552433230206F7065726174696F6E20646964206E PUSH1 0x44 DUP3 ADD MSTORE PUSH10 0x1BDD081CDD58D8D95959 PUSH1 0xB2 SHL PUSH1 0x64 DUP3 ADD MSTORE REVERT JUMPDEST SWAP2 SWAP4 DUP2 DUP1 SWAP5 POP ADD SUB SLT PUSH2 0x1837 JUMPI DUP3 ADD MLOAD SWAP1 DUP2 ISZERO ISZERO DUP3 SUB PUSH2 0x1834 JUMPI POP DUP1 CODESIZE DUP1 DUP5 PUSH2 0x17AC JUMP JUMPDEST DUP1 REVERT JUMPDEST POP DUP1 REVERT JUMPDEST PUSH4 0x4E487B71 PUSH1 0xE0 SHL DUP6 MSTORE PUSH1 0x41 PUSH1 0x4 MSTORE PUSH1 0x24 DUP6 REVERT JUMPDEST SWAP1 PUSH2 0x179E SWAP4 SWAP3 POP PUSH1 0x60 SWAP2 JUMPDEST SWAP2 SWAP3 SWAP1 ISZERO PUSH2 0x18BC JUMPI POP DUP2 MLOAD ISZERO PUSH2 0x186E JUMPI POP SWAP1 JUMP JUMPDEST EXTCODESIZE ISZERO PUSH2 0x1877 JUMPI SWAP1 JUMP JUMPDEST PUSH1 0x40 MLOAD PUSH3 0x461BCD PUSH1 0xE5 SHL DUP2 MSTORE PUSH1 0x20 PUSH1 0x4 DUP3 ADD MSTORE PUSH1 0x1D PUSH1 0x24 DUP3 ADD MSTORE PUSH32 0x416464726573733A2063616C6C20746F206E6F6E2D636F6E7472616374000000 PUSH1 0x44 DUP3 ADD MSTORE PUSH1 0x64 SWAP1 REVERT JUMPDEST DUP3 MLOAD SWAP1 SWAP2 POP ISZERO PUSH2 0x18CF JUMPI POP DUP1 MLOAD SWAP1 PUSH1 0x20 ADD REVERT JUMPDEST PUSH1 0x40 MLOAD SWAP1 PUSH3 0x461BCD PUSH1 0xE5 SHL DUP3 MSTORE DUP2 PUSH1 0x20 DUP1 PUSH1 0x4 DUP4 ADD MSTORE DUP3 MLOAD SWAP1 DUP2 PUSH1 0x24 DUP5 ADD MSTORE PUSH1 0x0 SWAP4 JUMPDEST DUP3 DUP6 LT PUSH2 0x1915 JUMPI POP POP PUSH1 0x44 SWAP3 POP PUSH1 0x0 DUP4 DUP3 DUP5 ADD ADD MSTORE PUSH1 0x1F DUP1 NOT SWAP2 ADD AND DUP2 ADD SUB ADD SWAP1 REVERT JUMPDEST DUP5 DUP2 ADD DUP3 ADD MLOAD DUP7 DUP7 ADD PUSH1 0x44 ADD MSTORE SWAP4 DUP2 ADD SWAP4 DUP6 SWAP4 POP PUSH2 0x18F2 JUMP JUMPDEST ISZERO PUSH2 0x1935 JUMPI JUMP JUMPDEST PUSH1 0x64 PUSH1 0x40 MLOAD PUSH3 0x461BCD PUSH1 0xE5 SHL DUP2 MSTORE PUSH1 0x20 PUSH1 0x4 DUP3 ADD MSTORE PUSH1 0x4 PUSH1 0x24 DUP3 ADD MSTORE PUSH4 0x746F3D3 PUSH1 0xE4 SHL PUSH1 0x44 DUP3 ADD MSTORE REVERT JUMPDEST PUSH1 0x40 MLOAD PUSH4 0xA9059CBB PUSH1 0xE0 SHL PUSH1 0x20 DUP3 ADD MSTORE PUSH1 0x1 PUSH1 0x1 PUSH1 0xA0 SHL SUB SWAP1 SWAP3 AND PUSH1 0x24 DUP4 ADD MSTORE PUSH1 0x44 DUP1 DUP4 ADD SWAP4 SWAP1 SWAP4 MSTORE SWAP2 DUP2 MSTORE PUSH2 0x1701 SWAP2 PUSH2 0x1999 DUP3 PUSH2 0x157A JUMP JUMPDEST PUSH2 0x1703 JUMP JUMPDEST DUP2 ISZERO PUSH2 0x19A8 JUMPI DIV SWAP1 JUMP JUMPDEST PUSH4 0x4E487B71 PUSH1 0xE0 SHL PUSH1 0x0 MSTORE PUSH1 0x12 PUSH1 0x4 MSTORE PUSH1 0x24 PUSH1 0x0 REVERT JUMPDEST PUSH1 0x40 MLOAD PUSH4 0x70A08231 PUSH1 0xE0 SHL DUP2 MSTORE ADDRESS PUSH1 0x4 DUP3 ADD MSTORE PUSH1 0x20 DUP2 PUSH1 0x24 DUP2 PUSH32 0x0 PUSH1 0x1 PUSH1 0x1 PUSH1 0xA0 SHL SUB AND GAS STATICCALL SWAP1 DUP2 ISZERO PUSH2 0x1A43 JUMPI PUSH1 0x0 SWAP2 PUSH2 0x1A15 JUMPI POP SWAP1 JUMP JUMPDEST SWAP1 PUSH1 0x20 DUP3 RETURNDATASIZE DUP3 GT PUSH2 0x1A3B JUMPI JUMPDEST DUP2 PUSH2 0x1A2E PUSH1 0x20 SWAP4 DUP4 PUSH2 0x1596 JUMP JUMPDEST DUP2 ADD SUB SLT PUSH2 0x1834 JUMPI POP MLOAD SWAP1 JUMP JUMPDEST RETURNDATASIZE SWAP2 POP PUSH2 0x1A21 JUMP JUMPDEST PUSH1 0x40 MLOAD RETURNDATASIZE PUSH1 0x0 DUP3 RETURNDATACOPY RETURNDATASIZE SWAP1 REVERT JUMPDEST PUSH1 0x0 MSTORE PUSH1 0x8 PUSH1 0x20 MSTORE PUSH1 0x40 PUSH1 0x0 KECCAK256 PUSH1 0xFF PUSH1 0xD DUP3 ADD SLOAD AND PUSH2 0x1A9B JUMPI PUSH2 0x1A8F PUSH2 0x1A7E PUSH1 0x2 DUP4 ADD SLOAD PUSH1 0xA DUP5 ADD SLOAD SWAP1 PUSH2 0x160E JUMP JUMPDEST SWAP2 PUSH1 0xB PUSH1 0x4 DUP3 ADD SLOAD SWAP2 ADD SLOAD SWAP1 PUSH2 0x160E JUMP JUMPDEST DUP2 ADD DUP1 SWAP2 GT PUSH2 0xB6F JUMPI SWAP1 JUMP JUMPDEST POP PUSH1 0x0 SWAP1 JUMP JUMPDEST DUP2 DUP2 MUL SWAP3 SWAP2 DUP2 ISZERO SWAP2 DUP5 DIV EQ OR ISZERO PUSH2 0xB6F JUMPI JUMP JUMPDEST SWAP1 PUSH2 0x1ABE SWAP1 PUSH2 0x1B6B JUMP JUMPDEST SWAP1 PUSH1 0x60 DUP3 ADD MLOAD DUP2 GT PUSH2 0x1AF6 JUMPI PUSH2 0x1AF2 PUSH2 0x2710 SWAP2 PUSH2 0xFFFF PUSH1 0x20 DUP5 PUSH2 0x1AE7 DUP4 PUSH1 0x40 DUP10 ADD MLOAD AND DUP6 PUSH2 0x1AA1 JUMP JUMPDEST DIV SWAP6 ADD MLOAD AND SWAP1 PUSH2 0x1AA1 JUMP JUMPDEST DIV SWAP2 JUMP JUMPDEST PUSH1 0x40 MLOAD PUSH3 0x461BCD PUSH1 0xE5 SHL DUP2 MSTORE PUSH1 0x20 PUSH1 0x4 DUP3 ADD MSTORE PUSH1 0x15 PUSH1 0x24 DUP3 ADD MSTORE PUSH21 0x32BC31B2B2B239903A34B2B91036B0BC103637B0B7 PUSH1 0x59 SHL PUSH1 0x44 DUP3 ADD MSTORE PUSH1 0x64 SWAP1 REVERT JUMPDEST SWAP1 PUSH1 0x40 MLOAD PUSH2 0x1B40 DUP2 PUSH2 0x157A JUMP JUMPDEST PUSH1 0x60 PUSH1 0x2 DUP3 SWAP5 DUP1 SLOAD DUP5 MSTORE PUSH1 0x1 DUP2 ADD SLOAD PUSH2 0xFFFF SWAP1 DUP2 DUP2 AND PUSH1 0x20 DUP8 ADD MSTORE PUSH1 0x10 SHR AND PUSH1 0x40 DUP6 ADD MSTORE ADD SLOAD SWAP2 ADD MSTORE JUMP JUMPDEST PUSH1 0x60 SWAP1 PUSH1 0x40 MLOAD PUSH2 0x1B7A DUP2 PUSH2 0x157A JUMP JUMPDEST PUSH1 0x0 SWAP3 DUP2 DUP5 DUP1 SWAP4 MSTORE DUP3 PUSH1 0x20 DUP3 ADD MSTORE DUP3 PUSH1 0x40 DUP3 ADD MSTORE ADD MSTORE PUSH1 0x1 DUP1 PUSH1 0xA0 SHL SUB AND DUP2 MSTORE PUSH1 0x5 PUSH1 0x20 MSTORE PUSH2 0xFFFF PUSH1 0x40 DUP3 KECCAK256 SLOAD AND SWAP1 DUP1 SWAP2 PUSH1 0x6 SLOAD SWAP3 JUMPDEST DUP4 DUP2 LT PUSH2 0x1BEF JUMPI POP POP PUSH1 0x0 NOT DUP3 ADD SWAP2 DUP3 GT PUSH2 0x1BDB JUMPI POP PUSH2 0x1BD2 PUSH2 0x1BD8 SWAP2 PUSH2 0x141D JUMP JUMPDEST POP PUSH2 0x1B33 JUMP JUMPDEST SWAP1 JUMP JUMPDEST PUSH4 0x4E487B71 PUSH1 0xE0 SHL DUP2 MSTORE PUSH1 0x11 PUSH1 0x4 MSTORE PUSH1 0x24 SWAP1 REVERT JUMPDEST PUSH2 0x1BF8 DUP2 PUSH2 0x141D JUMP JUMPDEST POP SLOAD DUP3 LT ISZERO PUSH2 0x1C26 JUMPI PUSH1 0x0 NOT DUP2 EQ PUSH2 0x1C12 JUMPI PUSH1 0x1 ADD PUSH2 0x1BB0 JUMP JUMPDEST PUSH4 0x4E487B71 PUSH1 0xE0 SHL DUP4 MSTORE PUSH1 0x11 PUSH1 0x4 MSTORE PUSH1 0x24 DUP4 REVERT JUMPDEST SWAP1 POP PUSH2 0x1BD8 SWAP3 POP PUSH2 0x1BD2 SWAP2 POP PUSH2 0x141D JUMP INVALID 0x4E POP SDIV SLOAD PUSH29 0x24DFD12003C2845FD20F2071C49FA3CD30B0BE7A064E3F4C3F8D2AA264 PUSH10 0x70667358221220EAD885 0x26 EXTCODESIZE 0xD4 EXP 0xE 0xCB 0xC7 CREATE 0xE 0xA5 CREATE MOD 0xB2 0xC6 0xD5 SWAP4 PUSH5 0x70A1109384 0xE6 JUMPI 0x1F ADD PUSH22 0xBA5164736F6C63430008120033000000000000000000 "},"methodIdentifiers":{"addTier(uint256,uint16,uint16,uint256)":"73c5ca09","availableLiquidity()":"74375359","createOrder(uint256,address,uint256,uint256)":"328efc47","creditScore(address)":"f7e590ee","earlyRepayDiscountBps()":"9c21c3a1","emergencyWithdraw(address,uint256)":"95ccea67","fundLiquidity(uint256)":"f0f437b6","getOrder(uint256)":"d09ef241","getTiersCount()":"01f28d91","lastOrderId()":"5662ecc7","liquidate(uint256)":"415f1240","liquidateScoreDecrease()":"a8841db9","maxPurchasePerOrder()":"ec14476f","minInstallmentAmountBps()":"a8311c3b","nominalInstallment(uint256)":"3a5d8d6c","orders(uint256)":"a85c38ef","owner()":"8da5cb5b","quote(uint256,address)":"13b0be33","renounceOwnership()":"715018a6","repayScoreIncrease()":"1dd0c13f","setCreditScore(address,uint16)":"752df2db","setEarlyRepayDiscountBps(uint16)":"44dac75b","setMaxPurchasePerOrder(uint256)":"784aee35","setMinInstallmentAmountBps(uint16)":"285eb373","setScoreDeltas(uint16,uint16)":"be020752","setTier(uint256,uint256,uint16,uint16,uint256)":"e02ef565","setTreasury(address)":"f0f44260","tiers(uint256)":"039af9eb","token()":"fc0c546a","totalDue(uint256)":"e5eeb32c","transferOwnership(address)":"f2fde38b","treasury()":"61d027b3","withdrawLiquidity(address,uint256)":"06d47de9"}}}}}