{"src/buy-now-pay-later/BNPLAdmin.sol":{"BNPLAdmin":{"abi":[{"inputs":[{"internalType":"address","name":"initialOwner","type":"address"},{"internalType":"contract IERC20","name":"_token","type":"address"},{"internalType":"address","name":"_treasury","type":"address"},{"internalType":"uint256","name":"_maxPurchasePerOrder","type":"uint256"},{"internalType":"uint16","name":"_repayScoreIncrease","type":"uint16"},{"internalType":"uint16","name":"_liquidateScoreDecrease","type":"uint16"},{"internalType":"uint16","name":"_earlyRepayDiscountBps","type":"uint16"},{"internalType":"uint16","name":"_minInstallmentAmountBps","type":"uint16"}],"stateMutability":"nonpayable","type":"constructor"},{"anonymous":false,"inputs":[{"indexed":true,"internalType":"address","name":"who","type":"address"},{"indexed":false,"internalType":"uint16","name":"oldScore","type":"uint16"},{"indexed":false,"internalType":"uint16","name":"newScore","type":"uint16"}],"name":"CreditScoreUpdated","type":"event"},{"anonymous":false,"inputs":[{"indexed":true,"internalType":"uint256","name":"id","type":"uint256"},{"indexed":true,"internalType":"address","name":"payer","type":"address"},{"indexed":false,"internalType":"uint256","name":"amount","type":"uint256"},{"indexed":false,"internalType":"uint256","name":"paidPrincipal","type":"uint256"},{"indexed":false,"internalType":"uint256","name":"paidFee","type":"uint256"}],"name":"InstallmentPaid","type":"event"},{"anonymous":false,"inputs":[{"indexed":true,"internalType":"address","name":"from","type":"address"},{"indexed":false,"internalType":"uint256","name":"amount","type":"uint256"}],"name":"LiquidityFunded","type":"event"},{"anonymous":false,"inputs":[{"indexed":true,"internalType":"address","name":"to","type":"address"},{"indexed":false,"internalType":"uint256","name":"amount","type":"uint256"}],"name":"LiquidityWithdrawn","type":"event"},{"anonymous":false,"inputs":[{"indexed":true,"internalType":"uint256","name":"id","type":"uint256"},{"indexed":true,"internalType":"address","name":"buyer","type":"address"},{"indexed":true,"internalType":"address","name":"merchant","type":"address"},{"indexed":false,"internalType":"uint256","name":"principal","type":"uint256"},{"indexed":false,"internalType":"uint256","name":"collateral","type":"uint256"},{"indexed":false,"internalType":"uint256","name":"totalFee","type":"uint256"},{"indexed":false,"internalType":"uint256","name":"dueAt","type":"uint256"},{"indexed":false,"internalType":"uint256","name":"installments","type":"uint256"}],"name":"OrderCreated","type":"event"},{"anonymous":false,"inputs":[{"indexed":true,"internalType":"uint256","name":"id","type":"uint256"},{"indexed":true,"internalType":"address","name":"payer","type":"address"},{"indexed":false,"internalType":"uint256","name":"totalPaid","type":"uint256"},{"indexed":false,"internalType":"uint256","name":"feeDiscount","type":"uint256"}],"name":"OrderFullyRepaid","type":"event"},{"anonymous":false,"inputs":[{"indexed":true,"internalType":"uint256","name":"id","type":"uint256"},{"indexed":false,"internalType":"uint256","name":"seizedCollateral","type":"uint256"}],"name":"OrderLiquidated","type":"event"},{"anonymous":false,"inputs":[{"indexed":true,"internalType":"address","name":"previousOwner","type":"address"},{"indexed":true,"internalType":"address","name":"newOwner","type":"address"}],"name":"OwnershipTransferred","type":"event"},{"anonymous":false,"inputs":[],"name":"ParamsUpdated","type":"event"},{"anonymous":false,"inputs":[{"indexed":false,"internalType":"uint256","name":"idx","type":"uint256"}],"name":"TierUpdated","type":"event"},{"anonymous":false,"inputs":[{"indexed":false,"internalType":"address","name":"oldTreasury","type":"address"},{"indexed":false,"internalType":"address","name":"newTreasury","type":"address"}],"name":"TreasuryUpdated","type":"event"},{"inputs":[{"internalType":"uint256","name":"minScore","type":"uint256"},{"internalType":"uint16","name":"collateralBps","type":"uint16"},{"internalType":"uint16","name":"feeBps","type":"uint16"},{"internalType":"uint256","name":"maxLoan","type":"uint256"}],"name":"addTier","outputs":[],"stateMutability":"nonpayable","type":"function"},{"inputs":[],"name":"availableLiquidity","outputs":[{"internalType":"uint256","name":"","type":"uint256"}],"stateMutability":"view","type":"function"},{"inputs":[{"internalType":"address","name":"","type":"address"}],"name":"creditScore","outputs":[{"internalType":"uint16","name":"","type":"uint16"}],"stateMutability":"view","type":"function"},{"inputs":[],"name":"earlyRepayDiscountBps","outputs":[{"internalType":"uint16","name":"","type":"uint16"}],"stateMutability":"view","type":"function"},{"inputs":[{"internalType":"address","name":"to","type":"address"},{"internalType":"uint256","name":"amount","type":"uint256"}],"name":"emergencyWithdraw","outputs":[],"stateMutability":"nonpayable","type":"function"},{"inputs":[{"internalType":"uint256","name":"amount","type":"uint256"}],"name":"fundLiquidity","outputs":[],"stateMutability":"nonpayable","type":"function"},{"inputs":[{"internalType":"uint256","name":"id","type":"uint256"}],"name":"getOrder","outputs":[{"components":[{"internalType":"address","name":"buyer","type":"address"},{"internalType":"address","name":"merchant","type":"address"},{"internalType":"uint256","name":"principal","type":"uint256"},{"internalType":"uint256","name":"collateral","type":"uint256"},{"internalType":"uint256","name":"totalFee","type":"uint256"},{"internalType":"uint256","name":"createdAt","type":"uint256"},{"internalType":"uint256","name":"dueAt","type":"uint256"},{"internalType":"uint256","name":"installments","type":"uint256"},{"internalType":"uint256","name":"nominalPrincipal","type":"uint256"},{"internalType":"uint256","name":"nominalFee","type":"uint256"},{"internalType":"uint256","name":"paidPrincipal","type":"uint256"},{"internalType":"uint256","name":"paidFee","type":"uint256"},{"internalType":"uint256","name":"paidInstallments","type":"uint256"},{"internalType":"bool","name":"closed","type":"bool"}],"internalType":"struct IBNPLStructs.Order","name":"","type":"tuple"}],"stateMutability":"view","type":"function"},{"inputs":[],"name":"getTiersCount","outputs":[{"internalType":"uint256","name":"","type":"uint256"}],"stateMutability":"view","type":"function"},{"inputs":[],"name":"lastOrderId","outputs":[{"internalType":"uint256","name":"","type":"uint256"}],"stateMutability":"view","type":"function"},{"inputs":[],"name":"liquidateScoreDecrease","outputs":[{"internalType":"uint16","name":"","type":"uint16"}],"stateMutability":"view","type":"function"},{"inputs":[],"name":"maxPurchasePerOrder","outputs":[{"internalType":"uint256","name":"","type":"uint256"}],"stateMutability":"view","type":"function"},{"inputs":[],"name":"minInstallmentAmountBps","outputs":[{"internalType":"uint16","name":"","type":"uint16"}],"stateMutability":"view","type":"function"},{"inputs":[{"internalType":"uint256","name":"id","type":"uint256"}],"name":"nominalInstallment","outputs":[{"internalType":"uint256","name":"principalPart","type":"uint256"},{"internalType":"uint256","name":"feePart","type":"uint256"}],"stateMutability":"view","type":"function"},{"inputs":[{"internalType":"uint256","name":"","type":"uint256"}],"name":"orders","outputs":[{"internalType":"address","name":"buyer","type":"address"},{"internalType":"address","name":"merchant","type":"address"},{"internalType":"uint256","name":"principal","type":"uint256"},{"internalType":"uint256","name":"collateral","type":"uint256"},{"internalType":"uint256","name":"totalFee","type":"uint256"},{"internalType":"uint256","name":"createdAt","type":"uint256"},{"internalType":"uint256","name":"dueAt","type":"uint256"},{"internalType":"uint256","name":"installments","type":"uint256"},{"internalType":"uint256","name":"nominalPrincipal","type":"uint256"},{"internalType":"uint256","name":"nominalFee","type":"uint256"},{"internalType":"uint256","name":"paidPrincipal","type":"uint256"},{"internalType":"uint256","name":"paidFee","type":"uint256"},{"internalType":"uint256","name":"paidInstallments","type":"uint256"},{"internalType":"bool","name":"closed","type":"bool"}],"stateMutability":"view","type":"function"},{"inputs":[],"name":"owner","outputs":[{"internalType":"address","name":"","type":"address"}],"stateMutability":"view","type":"function"},{"inputs":[{"internalType":"uint256","name":"purchaseAmount","type":"uint256"},{"internalType":"address","name":"buyer","type":"address"}],"name":"quote","outputs":[{"internalType":"uint256","name":"collateralRequired","type":"uint256"},{"internalType":"uint256","name":"totalFee","type":"uint256"}],"stateMutability":"view","type":"function"},{"inputs":[],"name":"renounceOwnership","outputs":[],"stateMutability":"nonpayable","type":"function"},{"inputs":[],"name":"repayScoreIncrease","outputs":[{"internalType":"uint16","name":"","type":"uint16"}],"stateMutability":"view","type":"function"},{"inputs":[{"internalType":"address","name":"who","type":"address"},{"internalType":"uint16","name":"score","type":"uint16"}],"name":"setCreditScore","outputs":[],"stateMutability":"nonpayable","type":"function"},{"inputs":[{"internalType":"uint16","name":"bps","type":"uint16"}],"name":"setEarlyRepayDiscountBps","outputs":[],"stateMutability":"nonpayable","type":"function"},{"inputs":[{"internalType":"uint256","name":"_max","type":"uint256"}],"name":"setMaxPurchasePerOrder","outputs":[],"stateMutability":"nonpayable","type":"function"},{"inputs":[{"internalType":"uint16","name":"bps","type":"uint16"}],"name":"setMinInstallmentAmountBps","outputs":[],"stateMutability":"nonpayable","type":"function"},{"inputs":[{"internalType":"uint16","name":"repayInc","type":"uint16"},{"internalType":"uint16","name":"liqDec","type":"uint16"}],"name":"setScoreDeltas","outputs":[],"stateMutability":"nonpayable","type":"function"},{"inputs":[{"internalType":"uint256","name":"idx","type":"uint256"},{"internalType":"uint256","name":"minScore","type":"uint256"},{"internalType":"uint16","name":"collateralBps","type":"uint16"},{"internalType":"uint16","name":"feeBps","type":"uint16"},{"internalType":"uint256","name":"maxLoan","type":"uint256"}],"name":"setTier","outputs":[],"stateMutability":"nonpayable","type":"function"},{"inputs":[{"internalType":"address","name":"_treasury","type":"address"}],"name":"setTreasury","outputs":[],"stateMutability":"nonpayable","type":"function"},{"inputs":[{"internalType":"uint256","name":"","type":"uint256"}],"name":"tiers","outputs":[{"internalType":"uint256","name":"minScore","type":"uint256"},{"internalType":"uint16","name":"collateralBps","type":"uint16"},{"internalType":"uint16","name":"feeBps","type":"uint16"},{"internalType":"uint256","name":"maxLoan","type":"uint256"}],"stateMutability":"view","type":"function"},{"inputs":[],"name":"token","outputs":[{"internalType":"contract IERC20","name":"","type":"address"}],"stateMutability":"view","type":"function"},{"inputs":[{"internalType":"uint256","name":"id","type":"uint256"}],"name":"totalDue","outputs":[{"internalType":"uint256","name":"","type":"uint256"}],"stateMutability":"view","type":"function"},{"inputs":[{"internalType":"address","name":"newOwner","type":"address"}],"name":"transferOwnership","outputs":[],"stateMutability":"nonpayable","type":"function"},{"inputs":[],"name":"treasury","outputs":[{"internalType":"address","name":"","type":"address"}],"stateMutability":"view","type":"function"},{"inputs":[{"internalType":"address","name":"to","type":"address"},{"internalType":"uint256","name":"amount","type":"uint256"}],"name":"withdrawLiquidity","outputs":[],"stateMutability":"nonpayable","type":"function"}],"evm":{"bytecode":{"linkReferences":{},"object":"60a034620002b257601f62001af138819003918201601f191683019291906001600160401b03841183851017620002b757816101009284926040968752833981010312620002b2576200005281620002ed565b602080830151909290916001600160a01b039190828416808503620002b2576200007e878401620002ed565b91606084015195620000936080860162000302565b95620000a260a0870162000302565b94620000bf60e0620000b760c08a0162000302565b980162000302565b94620000cb3362000397565b6001805515620002845716908115620002535761ffff92838516801515908162000245575b501562000218579365ffff0000000093600a98969363ffff0000936200011d620001e59d9c9a9862000397565b60805260018060a01b031960025416176002558760035567ffff0000000000006007549260301b1696169060018060401b031916179160101b161791861b1617176007556200018d6200016f620002cd565b6102ee81526107d08582015260c88782015282606082015262000312565b620001bd6200019b620002cd565b6102588152610fa085820152610190878201528260011c606082015262000312565b611f40620001ca620002cd565b93600085528401526103208584015204606082015262000312565b516117129081620003df823960805181818161018b015281816103d90152818161095901528181610afe0152610fa40152f35b8a5162461bcd60e51b8152600481018b905260066024820152656d696e42707360d01b6044820152606490fd5b6127109150111538620000f0565b895162461bcd60e51b8152600481018a9052600a602482015269074726561737572793d360b41b6044820152606490fd5b8a5162461bcd60e51b8152600481018b905260076024820152660746f6b656e3d360cc1b6044820152606490fd5b600080fd5b634e487b7160e01b600052604160045260246000fd5b60405190608082016001600160401b03811183821017620002b757604052565b51906001600160a01b0382168203620002b257565b519061ffff82168203620002b257565b60065468010000000000000000811015620002b75760018101806006558110156200038157606060029160066000526003602060002091020192805184556001840161ffff60208301511681549063ffff0000604085015160101b169163ffffffff1916171790550151910155565b634e487b7160e01b600052603260045260246000fd5b600080546001600160a01b039283166001600160a01b03198216811783559216907f8be0079c531659141344cd1fd0a4f28419497f9722a3daafe3b4186f6b6457e09080a356fe608080604052600436101561001357600080fd5b600090813560e01c90816301f28d911461103257508063039af9eb14610fd657806306d47de914610f3657806313b0be3314610e825780631dd0c13f14610e60578063285eb37314610db85780633a5d8d6c14610d8157806344dac75b14610d2d5780635662ecc714610d0f57806361d027b314610ce6578063715018a614610c8c57806373c5ca0914610b855780637437535914610ad2578063752df2db146109dc578063784aee35146109a75780638da5cb5b1461098057806395ccea671461091a5780639c21c3a1146108f6578063a8311c3b146108d1578063a85c38ef14610803578063a8841db9146107de578063be02075214610780578063d09ef241146105b2578063e02ef565146104b9578063e5eeb32c14610492578063ec14476f14610474578063f0f437b614610368578063f0f44260146102bc578063f2fde38b146101fb578063f7e590ee146101bd5763fc0c546a1461017657600080fd5b346101ba57806003193601126101ba576040517f00000000000000000000000000000000000000000000000000000000000000006001600160a01b03168152602090f35b80fd5b50346101ba5760203660031901126101ba5760209061ffff906040906001600160a01b036101e961109f565b16815260058452205416604051908152f35b50346101ba5760203660031901126101ba5761021561109f565b61021d6110ed565b6001600160a01b039081169081156102685782546001600160a01b0319811683178455167f8be0079c531659141344cd1fd0a4f28419497f9722a3daafe3b4186f6b6457e08380a380f35b60405162461bcd60e51b815260206004820152602660248201527f4f776e61626c653a206e6577206f776e657220697320746865207a65726f206160448201526564647265737360d01b6064820152608490fd5b50346101ba5760203660031901126101ba576102d661109f565b6102de6110ed565b6001600160a01b03908116908115610336577f4ab5be82436d353e61ca18726e984e561f5c1cc7c6d38b29d2553c790434705a60406002549281519084168152846020820152a16001600160a01b0319161760025580f35b60405162461bcd60e51b815260206004820152600a602482015269074726561737572793d360b41b6044820152606490fd5b50346101ba5760203660031901126101ba576004356103856110ed565b61038d611267565b8015610444576040516323b872dd60e01b60208201523360248201523060448201526064808201839052815260a0810167ffffffffffffffff811182821017610430576040526103fd907f00000000000000000000000000000000000000000000000000000000000000006112bd565b6040519081527fbb9e497a5b82d1a37f9496dd70c6efb97ba0d98c66c3422d05010105d063359860203392a26001805580f35b634e487b7160e01b84526041600452602484fd5b60405162461bcd60e51b81526020600482015260086024820152670616d6f756e743d360c41b6044820152606490fd5b50346101ba57806003193601126101ba576020600354604051908152f35b50346101ba5760203660031901126101ba5760206104b1600435611553565b604051908152f35b50346101ba5760a03660031901126101ba576004356104d66110dc565b6064359161ffff918284168094036105ae576104f06110ed565b600654821015610583577ffe2efe9272eb0deb4938823c5d646855a80e10848bf50af99ef34310d8f92b8d9360209361056e92169061053c612710808411159081610578575b50611145565b604051916105498361117d565b602435835285830152604082015260843560608201526105688361104e565b906111ee565b604051908152a180f35b905082111538610536565b60405162461bcd60e51b81526020600482015260036024820152620d2c8f60eb1b6044820152606490fd5b8480fd5b50346101ba5760203660031901126101ba576040816101c0926101a083516105d9816111af565b82815282602082015282858201528260608201528260808201528260a08201528260c08201528260e08201528261010082015282610120820152826101408201528261016082015282610180820152015260043581526008602052206101a0604051610644816111af565b60ff600d60018060a01b038554169485845260018060a01b036001820154166020850152600281015460408501526003810154606085015260048101546080850152600581015460a0850152600681015460c0850152600781015460e085015260088101546101008501526009810154610120850152600a810154610140850152600b810154610160850152600c81015461018085015201541615158282015260405192835260018060a01b03602082015116602084015260408101516040840152606081015160608401526080810151608084015260a081015160a084015260c081015160c084015260e081015160e0840152610100810151610100840152610120810151610120840152610140810151610140840152610160810151610160840152610180810151610180840152015115156101a0820152f35b50346101ba5760403660031901126101ba5761079a6110ba565b6107a26110cb565b6107aa6110ed565b61ffff63ffff00006007549260101b1692169063ffffffff191617176007556000805160206116bd8339815191528180a180f35b50346101ba57806003193601126101ba57602061ffff60075460101c16604051908152f35b50346101ba5760203660031901126101ba5760406101c091600435815260086020522060018060a01b039081815416916001820154169060028101546003820154600483015460058401546006850154600786015490600887015492600988015494600a89015496600b8a01549860ff600d600c8d01549c0154169b60206040519e8f908152015260408d015260608c015260808b015260a08a015260c089015260e088015261010087015261012086015261014085015261016084015261018083015215156101a0820152f35b50346101ba57806003193601126101ba57602061ffff60075460301c16604051908152f35b50346101ba57806003193601126101ba57602060075461ffff60405191831c168152f35b50346101ba5760403660031901126101ba5761097d61093761109f565b61093f6110ed565b6109536001600160a01b03821615156114e1565b602435907f0000000000000000000000000000000000000000000000000000000000000000611513565b80f35b50346101ba57806003193601126101ba57546040516001600160a01b039091168152602090f35b50346101ba5760203660031901126101ba576109c16110ed565b6004356003556000805160206116bd8339815191528180a180f35b50346101ba5760403660031901126101ba576109f661109f565b6109fe6110cb565b90610a076110ed565b6001600160a01b0316908115610aa55761ffff8091166103e88111610a73577ff0476f83a777b892446c4939723caba7d89f8de16505f4dfe3c17f8b1dda4868916040918486526005602052828620918254928261ffff1985161790558351921682526020820152a280f35b60405162461bcd60e51b815260206004820152600a602482015269073636f72653e313030360b41b6044820152606490fd5b60405162461bcd60e51b8152602060048201526005602482015264077686f3d360dc1b6044820152606490fd5b50346101ba57806003193601126101ba576040516370a0823160e01b81523060048201526020816024817f00000000000000000000000000000000000000000000000000000000000000006001600160a01b03165afa908115610b7a578291610b41575b602082604051908152f35b90506020813d8211610b72575b81610b5b602093836111cc565b81010312610b6e57602091505138610b36565b5080fd5b3d9150610b4e565b6040513d84823e3d90fd5b50346101ba5760803660031901126101ba57610b9f6110cb565b610ba76110dc565b90610bb06110ed565b61ffff80911691610bcd612710808511159081610c7f5750611145565b60405192610bda8461117d565b60043584526020840152166040820152606435606082015260065468010000000000000000811015610c6b5790610568826001610c1a940160065561104e565b6006546000198101908111610c575760207ffe2efe9272eb0deb4938823c5d646855a80e10848bf50af99ef34310d8f92b8d91604051908152a180f35b634e487b7160e01b82526011600452602482fd5b634e487b7160e01b83526041600452602483fd5b9050838316111538610536565b50346101ba57806003193601126101ba57610ca56110ed565b80546001600160a01b03198116825581906001600160a01b03167f8be0079c531659141344cd1fd0a4f28419497f9722a3daafe3b4186f6b6457e08280a380f35b50346101ba57806003193601126101ba576002546040516001600160a01b039091168152602090f35b50346101ba57806003193601126101ba576020600454604051908152f35b50346101ba5760203660031901126101ba57610d476110ba565b610d4f6110ed565b65ffff000000006007549160201b169065ffff000000001916176007556000805160206116bd8339815191528180a180f35b50346101ba5760203660031901126101ba576040809160043581526008602052206009600882015491015482519182526020820152f35b50346101ba5760203660031901126101ba57610dd26110ba565b610dda6110ed565b61ffff81168015159081610e53575b5015610e255767ffff0000000000006007549160301b169067ffff0000000000001916176007556000805160206116bd8339815191528180a180f35b60405162461bcd60e51b81526020600482015260066024820152656d696e42707360d01b6044820152606490fd5b6127109150111538610de9565b50346101ba57806003193601126101ba57602061ffff60075416604051908152f35b50346101ba5760403660031901126101ba5760043590602435906001600160a01b03821682036101ba5750610eb6906115f0565b60608101518211610ef957604091610eeb6127109161ffff602084610ee0838989015116856115a5565b0495015116906115a5565b049082519182526020820152f35b60405162461bcd60e51b815260206004820152601560248201527432bc31b2b2b239903a34b2b91036b0bc103637b0b760591b6044820152606490fd5b50346101ba5760403660031901126101ba57610f5061109f565b7fb1cce8684b4ffa8667b4577654e61ee3480d661ee9c27522ac80e211f6bd4d256020602435610f7e6110ed565b610f86611267565b6001600160a01b03841693610fc8908290610fa28715156114e1565b7f0000000000000000000000000000000000000000000000000000000000000000611513565b604051908152a26001805580f35b50346101ba5760203660031901126101ba57600435906006548210156101ba5760806110018361104e565b50805490600260018201549101549060405192835261ffff90818116602085015260101c1660408301526060820152f35b905034610b6e5781600319360112610b6e576020906006548152f35b600654811015611089576003906006600052027ff652222313e28459528d920b65115c16c04f3efc82aaedc97be59f3f377c0d3f0190600090565b634e487b7160e01b600052603260045260246000fd5b600435906001600160a01b03821682036110b557565b600080fd5b6004359061ffff821682036110b557565b6024359061ffff821682036110b557565b6044359061ffff821682036110b557565b6000546001600160a01b0316330361110157565b606460405162461bcd60e51b815260206004820152602060248201527f4f776e61626c653a2063616c6c6572206973206e6f7420746865206f776e65726044820152fd5b1561114c57565b60405162461bcd60e51b815260206004820152600960248201526806270733e31303030360bc1b6044820152606490fd5b6080810190811067ffffffffffffffff82111761119957604052565b634e487b7160e01b600052604160045260246000fd5b6101c0810190811067ffffffffffffffff82111761119957604052565b90601f8019910116810190811067ffffffffffffffff82111761119957604052565b919061122e576060816002925184556001840161ffff60208301511681549063ffff0000604085015160101b169163ffffffff1916171790550151910155565b634e487b7160e01b600052600060045260246000fd5b9190820391821161125157565b634e487b7160e01b600052601160045260246000fd5b600260015414611278576002600155565b60405162461bcd60e51b815260206004820152601f60248201527f5265656e7472616e637947756172643a207265656e7472616e742063616c6c006044820152606490fd5b60018060a01b0316906040516040810167ffffffffffffffff9082811082821117611199576040526020938483527f5361666545524332303a206c6f772d6c6576656c2063616c6c206661696c6564858401526000808587829751910182855af1903d15611402573d9283116113ee57906113589392916040519261134b88601f19601f84011601856111cc565b83523d868885013e61140d565b8051918215918483156113ca575b5050509050156113735750565b6084906040519062461bcd60e51b82526004820152602a60248201527f5361666545524332303a204552433230206f7065726174696f6e20646964206e6044820152691bdd081cdd58d8d9595960b21b6064820152fd5b919381809450010312610b6e578201519081151582036101ba575080388084611366565b634e487b7160e01b85526041600452602485fd5b906113589392506060915b9192901561146f5750815115611421575090565b3b1561142a5790565b60405162461bcd60e51b815260206004820152601d60248201527f416464726573733a2063616c6c20746f206e6f6e2d636f6e74726163740000006044820152606490fd5b8251909150156114825750805190602001fd5b6040519062461bcd60e51b82528160208060048301528251908160248401526000935b8285106114c8575050604492506000838284010152601f80199101168101030190fd5b84810182015186860160440152938101938593506114a5565b156114e857565b606460405162461bcd60e51b81526020600482015260046024820152630746f3d360e41b6044820152fd5b60405163a9059cbb60e01b60208201526001600160a01b0390921660248301526044808301939093529181526115519161154c8261117d565b6112bd565b565b6000526008602052604060002060ff600d8201541661159f576115936115826002830154600a84015490611244565b91600b600482015491015490611244565b81018091116112515790565b50600090565b8181029291811591840414171561125157565b906040516115c58161117d565b60606002829480548452600181015461ffff90818116602087015260101c1660408501520154910152565b6060906040516115ff8161117d565b6000928184809352826020820152826040820152015260018060a01b03168152600560205261ffff604082205416908091600654925b8381106116745750506000198201918211611660575061165761165d9161104e565b506115b8565b90565b634e487b7160e01b81526011600452602490fd5b61167d8161104e565b50548210156116ab57600019811461169757600101611635565b634e487b7160e01b83526011600452602483fd5b905061165d9250611657915061104e56fe4e5005547c24dfd12003c2845fd20f2071c49fa3cd30b0be7a064e3f4c3f8d2aa2646970667358221220540f95bac372d1b62e7d6482b6ae9a853a84d0fc7432a564abfdea55e9a6af7964736f6c63430008120033","opcodes":"PUSH1 0xA0 CALLVALUE PUSH3 0x2B2 JUMPI PUSH1 0x1F PUSH3 0x1AF1 CODESIZE DUP2 SWAP1 SUB SWAP2 DUP3 ADD PUSH1 0x1F NOT AND DUP4 ADD SWAP3 SWAP2 SWAP1 PUSH1 0x1 PUSH1 0x1 PUSH1 0x40 SHL SUB DUP5 GT DUP4 DUP6 LT OR PUSH3 0x2B7 JUMPI DUP2 PUSH2 0x100 SWAP3 DUP5 SWAP3 PUSH1 0x40 SWAP7 DUP8 MSTORE DUP4 CODECOPY DUP2 ADD SUB SLT PUSH3 0x2B2 JUMPI PUSH3 0x52 DUP2 PUSH3 0x2ED JUMP JUMPDEST PUSH1 0x20 DUP1 DUP4 ADD MLOAD SWAP1 SWAP3 SWAP1 SWAP2 PUSH1 0x1 PUSH1 0x1 PUSH1 0xA0 SHL SUB SWAP2 SWAP1 DUP3 DUP5 AND DUP1 DUP6 SUB PUSH3 0x2B2 JUMPI PUSH3 0x7E DUP8 DUP5 ADD PUSH3 0x2ED JUMP JUMPDEST SWAP2 PUSH1 0x60 DUP5 ADD MLOAD SWAP6 PUSH3 0x93 PUSH1 0x80 DUP7 ADD PUSH3 0x302 JUMP JUMPDEST SWAP6 PUSH3 0xA2 PUSH1 0xA0 DUP8 ADD PUSH3 0x302 JUMP JUMPDEST SWAP5 PUSH3 0xBF PUSH1 0xE0 PUSH3 0xB7 PUSH1 0xC0 DUP11 ADD PUSH3 0x302 JUMP JUMPDEST SWAP9 ADD PUSH3 0x302 JUMP JUMPDEST SWAP5 PUSH3 0xCB CALLER PUSH3 0x397 JUMP JUMPDEST PUSH1 0x1 DUP1 SSTORE ISZERO PUSH3 0x284 JUMPI AND SWAP1 DUP2 ISZERO PUSH3 0x253 JUMPI PUSH2 0xFFFF SWAP3 DUP4 DUP6 AND DUP1 ISZERO ISZERO SWAP1 DUP2 PUSH3 0x245 JUMPI JUMPDEST POP ISZERO PUSH3 0x218 JUMPI SWAP4 PUSH6 0xFFFF00000000 SWAP4 PUSH1 0xA SWAP9 SWAP7 SWAP4 PUSH4 0xFFFF0000 SWAP4 PUSH3 0x11D PUSH3 0x1E5 SWAP14 SWAP13 SWAP11 SWAP9 PUSH3 0x397 JUMP JUMPDEST PUSH1 0x80 MSTORE PUSH1 0x1 DUP1 PUSH1 0xA0 SHL SUB NOT PUSH1 0x2 SLOAD AND OR PUSH1 0x2 SSTORE DUP8 PUSH1 0x3 SSTORE PUSH8 0xFFFF000000000000 PUSH1 0x7 SLOAD SWAP3 PUSH1 0x30 SHL AND SWAP7 AND SWAP1 PUSH1 0x1 DUP1 PUSH1 0x40 SHL SUB NOT AND OR SWAP2 PUSH1 0x10 SHL AND OR SWAP2 DUP7 SHL AND OR OR PUSH1 0x7 SSTORE PUSH3 0x18D PUSH3 0x16F PUSH3 0x2CD JUMP JUMPDEST PUSH2 0x2EE DUP2 MSTORE PUSH2 0x7D0 DUP6 DUP3 ADD MSTORE PUSH1 0xC8 DUP8 DUP3 ADD MSTORE DUP3 PUSH1 0x60 DUP3 ADD MSTORE PUSH3 0x312 JUMP JUMPDEST PUSH3 0x1BD PUSH3 0x19B PUSH3 0x2CD JUMP JUMPDEST PUSH2 0x258 DUP2 MSTORE PUSH2 0xFA0 DUP6 DUP3 ADD MSTORE PUSH2 0x190 DUP8 DUP3 ADD MSTORE DUP3 PUSH1 0x1 SHR PUSH1 0x60 DUP3 ADD MSTORE PUSH3 0x312 JUMP JUMPDEST PUSH2 0x1F40 PUSH3 0x1CA PUSH3 0x2CD JUMP JUMPDEST SWAP4 PUSH1 0x0 DUP6 MSTORE DUP5 ADD MSTORE PUSH2 0x320 DUP6 DUP5 ADD MSTORE DIV PUSH1 0x60 DUP3 ADD MSTORE PUSH3 0x312 JUMP JUMPDEST MLOAD PUSH2 0x1712 SWAP1 DUP2 PUSH3 0x3DF DUP3 CODECOPY PUSH1 0x80 MLOAD DUP2 DUP2 DUP2 PUSH2 0x18B ADD MSTORE DUP2 DUP2 PUSH2 0x3D9 ADD MSTORE DUP2 DUP2 PUSH2 0x959 ADD MSTORE DUP2 DUP2 PUSH2 0xAFE ADD MSTORE PUSH2 0xFA4 ADD MSTORE RETURN JUMPDEST DUP11 MLOAD PUSH3 0x461BCD PUSH1 0xE5 SHL DUP2 MSTORE PUSH1 0x4 DUP2 ADD DUP12 SWAP1 MSTORE PUSH1 0x6 PUSH1 0x24 DUP3 ADD MSTORE PUSH6 0x6D696E427073 PUSH1 0xD0 SHL PUSH1 0x44 DUP3 ADD MSTORE PUSH1 0x64 SWAP1 REVERT JUMPDEST PUSH2 0x2710 SWAP2 POP GT ISZERO CODESIZE PUSH3 0xF0 JUMP JUMPDEST DUP10 MLOAD PUSH3 0x461BCD PUSH1 0xE5 SHL DUP2 MSTORE PUSH1 0x4 DUP2 ADD DUP11 SWAP1 MSTORE PUSH1 0xA PUSH1 0x24 DUP3 ADD MSTORE PUSH10 0x74726561737572793D3 PUSH1 0xB4 SHL PUSH1 0x44 DUP3 ADD MSTORE PUSH1 0x64 SWAP1 REVERT JUMPDEST DUP11 MLOAD PUSH3 0x461BCD PUSH1 0xE5 SHL DUP2 MSTORE PUSH1 0x4 DUP2 ADD DUP12 SWAP1 MSTORE PUSH1 0x7 PUSH1 0x24 DUP3 ADD MSTORE PUSH7 0x746F6B656E3D3 PUSH1 0xCC SHL PUSH1 0x44 DUP3 ADD MSTORE PUSH1 0x64 SWAP1 REVERT JUMPDEST PUSH1 0x0 DUP1 REVERT JUMPDEST PUSH4 0x4E487B71 PUSH1 0xE0 SHL PUSH1 0x0 MSTORE PUSH1 0x41 PUSH1 0x4 MSTORE PUSH1 0x24 PUSH1 0x0 REVERT JUMPDEST PUSH1 0x40 MLOAD SWAP1 PUSH1 0x80 DUP3 ADD PUSH1 0x1 PUSH1 0x1 PUSH1 0x40 SHL SUB DUP2 GT DUP4 DUP3 LT OR PUSH3 0x2B7 JUMPI PUSH1 0x40 MSTORE JUMP JUMPDEST MLOAD SWAP1 PUSH1 0x1 PUSH1 0x1 PUSH1 0xA0 SHL SUB DUP3 AND DUP3 SUB PUSH3 0x2B2 JUMPI JUMP JUMPDEST MLOAD SWAP1 PUSH2 0xFFFF DUP3 AND DUP3 SUB PUSH3 0x2B2 JUMPI JUMP JUMPDEST PUSH1 0x6 SLOAD PUSH9 0x10000000000000000 DUP2 LT ISZERO PUSH3 0x2B7 JUMPI PUSH1 0x1 DUP2 ADD DUP1 PUSH1 0x6 SSTORE DUP2 LT ISZERO PUSH3 0x381 JUMPI PUSH1 0x60 PUSH1 0x2 SWAP2 PUSH1 0x6 PUSH1 0x0 MSTORE PUSH1 0x3 PUSH1 0x20 PUSH1 0x0 KECCAK256 SWAP2 MUL ADD SWAP3 DUP1 MLOAD DUP5 SSTORE PUSH1 0x1 DUP5 ADD PUSH2 0xFFFF PUSH1 0x20 DUP4 ADD MLOAD AND DUP2 SLOAD SWAP1 PUSH4 0xFFFF0000 PUSH1 0x40 DUP6 ADD MLOAD PUSH1 0x10 SHL AND SWAP2 PUSH4 0xFFFFFFFF NOT AND OR OR SWAP1 SSTORE ADD MLOAD SWAP2 ADD SSTORE JUMP JUMPDEST PUSH4 0x4E487B71 PUSH1 0xE0 SHL PUSH1 0x0 MSTORE PUSH1 0x32 PUSH1 0x4 MSTORE PUSH1 0x24 PUSH1 0x0 REVERT JUMPDEST PUSH1 0x0 DUP1 SLOAD PUSH1 0x1 PUSH1 0x1 PUSH1 0xA0 SHL SUB SWAP3 DUP4 AND PUSH1 0x1 PUSH1 0x1 PUSH1 0xA0 SHL SUB NOT DUP3 AND DUP2 OR DUP4 SSTORE SWAP3 AND SWAP1 PUSH32 0x8BE0079C531659141344CD1FD0A4F28419497F9722A3DAAFE3B4186F6B6457E0 SWAP1 DUP1 LOG3 JUMP INVALID PUSH1 0x80 DUP1 PUSH1 0x40 MSTORE PUSH1 0x4 CALLDATASIZE LT ISZERO PUSH2 0x13 JUMPI PUSH1 0x0 DUP1 REVERT JUMPDEST PUSH1 0x0 SWAP1 DUP2 CALLDATALOAD PUSH1 0xE0 SHR SWAP1 DUP2 PUSH4 0x1F28D91 EQ PUSH2 0x1032 JUMPI POP DUP1 PUSH4 0x39AF9EB EQ PUSH2 0xFD6 JUMPI DUP1 PUSH4 0x6D47DE9 EQ PUSH2 0xF36 JUMPI DUP1 PUSH4 0x13B0BE33 EQ PUSH2 0xE82 JUMPI DUP1 PUSH4 0x1DD0C13F EQ PUSH2 0xE60 JUMPI DUP1 PUSH4 0x285EB373 EQ PUSH2 0xDB8 JUMPI DUP1 PUSH4 0x3A5D8D6C EQ PUSH2 0xD81 JUMPI DUP1 PUSH4 0x44DAC75B EQ PUSH2 0xD2D JUMPI DUP1 PUSH4 0x5662ECC7 EQ PUSH2 0xD0F JUMPI DUP1 PUSH4 0x61D027B3 EQ PUSH2 0xCE6 JUMPI DUP1 PUSH4 0x715018A6 EQ PUSH2 0xC8C JUMPI DUP1 PUSH4 0x73C5CA09 EQ PUSH2 0xB85 JUMPI DUP1 PUSH4 0x74375359 EQ PUSH2 0xAD2 JUMPI DUP1 PUSH4 0x752DF2DB EQ PUSH2 0x9DC JUMPI DUP1 PUSH4 0x784AEE35 EQ PUSH2 0x9A7 JUMPI DUP1 PUSH4 0x8DA5CB5B EQ PUSH2 0x980 JUMPI DUP1 PUSH4 0x95CCEA67 EQ PUSH2 0x91A JUMPI DUP1 PUSH4 0x9C21C3A1 EQ PUSH2 0x8F6 JUMPI DUP1 PUSH4 0xA8311C3B EQ PUSH2 0x8D1 JUMPI DUP1 PUSH4 0xA85C38EF EQ PUSH2 0x803 JUMPI DUP1 PUSH4 0xA8841DB9 EQ PUSH2 0x7DE JUMPI DUP1 PUSH4 0xBE020752 EQ PUSH2 0x780 JUMPI DUP1 PUSH4 0xD09EF241 EQ PUSH2 0x5B2 JUMPI DUP1 PUSH4 0xE02EF565 EQ PUSH2 0x4B9 JUMPI DUP1 PUSH4 0xE5EEB32C EQ PUSH2 0x492 JUMPI DUP1 PUSH4 0xEC14476F EQ PUSH2 0x474 JUMPI DUP1 PUSH4 0xF0F437B6 EQ PUSH2 0x368 JUMPI DUP1 PUSH4 0xF0F44260 EQ PUSH2 0x2BC JUMPI DUP1 PUSH4 0xF2FDE38B EQ PUSH2 0x1FB JUMPI DUP1 PUSH4 0xF7E590EE EQ PUSH2 0x1BD JUMPI PUSH4 0xFC0C546A EQ PUSH2 0x176 JUMPI PUSH1 0x0 DUP1 REVERT JUMPDEST CALLVALUE PUSH2 0x1BA JUMPI DUP1 PUSH1 0x3 NOT CALLDATASIZE ADD SLT PUSH2 0x1BA JUMPI PUSH1 0x40 MLOAD PUSH32 0x0 PUSH1 0x1 PUSH1 0x1 PUSH1 0xA0 SHL SUB AND DUP2 MSTORE PUSH1 0x20 SWAP1 RETURN JUMPDEST DUP1 REVERT JUMPDEST POP CALLVALUE PUSH2 0x1BA JUMPI PUSH1 0x20 CALLDATASIZE PUSH1 0x3 NOT ADD SLT PUSH2 0x1BA JUMPI PUSH1 0x20 SWAP1 PUSH2 0xFFFF SWAP1 PUSH1 0x40 SWAP1 PUSH1 0x1 PUSH1 0x1 PUSH1 0xA0 SHL SUB PUSH2 0x1E9 PUSH2 0x109F JUMP JUMPDEST AND DUP2 MSTORE PUSH1 0x5 DUP5 MSTORE KECCAK256 SLOAD AND PUSH1 0x40 MLOAD SWAP1 DUP2 MSTORE RETURN JUMPDEST POP CALLVALUE PUSH2 0x1BA JUMPI PUSH1 0x20 CALLDATASIZE PUSH1 0x3 NOT ADD SLT PUSH2 0x1BA JUMPI PUSH2 0x215 PUSH2 0x109F JUMP JUMPDEST PUSH2 0x21D PUSH2 0x10ED JUMP JUMPDEST PUSH1 0x1 PUSH1 0x1 PUSH1 0xA0 SHL SUB SWAP1 DUP2 AND SWAP1 DUP2 ISZERO PUSH2 0x268 JUMPI DUP3 SLOAD PUSH1 0x1 PUSH1 0x1 PUSH1 0xA0 SHL SUB NOT DUP2 AND DUP4 OR DUP5 SSTORE AND PUSH32 0x8BE0079C531659141344CD1FD0A4F28419497F9722A3DAAFE3B4186F6B6457E0 DUP4 DUP1 LOG3 DUP1 RETURN JUMPDEST PUSH1 0x40 MLOAD PUSH3 0x461BCD PUSH1 0xE5 SHL DUP2 MSTORE PUSH1 0x20 PUSH1 0x4 DUP3 ADD MSTORE PUSH1 0x26 PUSH1 0x24 DUP3 ADD MSTORE PUSH32 0x4F776E61626C653A206E6577206F776E657220697320746865207A65726F2061 PUSH1 0x44 DUP3 ADD MSTORE PUSH6 0x646472657373 PUSH1 0xD0 SHL PUSH1 0x64 DUP3 ADD MSTORE PUSH1 0x84 SWAP1 REVERT JUMPDEST POP CALLVALUE PUSH2 0x1BA JUMPI PUSH1 0x20 CALLDATASIZE PUSH1 0x3 NOT ADD SLT PUSH2 0x1BA JUMPI PUSH2 0x2D6 PUSH2 0x109F JUMP JUMPDEST PUSH2 0x2DE PUSH2 0x10ED JUMP JUMPDEST PUSH1 0x1 PUSH1 0x1 PUSH1 0xA0 SHL SUB SWAP1 DUP2 AND SWAP1 DUP2 ISZERO PUSH2 0x336 JUMPI PUSH32 0x4AB5BE82436D353E61CA18726E984E561F5C1CC7C6D38B29D2553C790434705A PUSH1 0x40 PUSH1 0x2 SLOAD SWAP3 DUP2 MLOAD SWAP1 DUP5 AND DUP2 MSTORE DUP5 PUSH1 0x20 DUP3 ADD MSTORE LOG1 PUSH1 0x1 PUSH1 0x1 PUSH1 0xA0 SHL SUB NOT AND OR PUSH1 0x2 SSTORE DUP1 RETURN JUMPDEST PUSH1 0x40 MLOAD PUSH3 0x461BCD PUSH1 0xE5 SHL DUP2 MSTORE PUSH1 0x20 PUSH1 0x4 DUP3 ADD MSTORE PUSH1 0xA PUSH1 0x24 DUP3 ADD MSTORE PUSH10 0x74726561737572793D3 PUSH1 0xB4 SHL PUSH1 0x44 DUP3 ADD MSTORE PUSH1 0x64 SWAP1 REVERT JUMPDEST POP CALLVALUE PUSH2 0x1BA JUMPI PUSH1 0x20 CALLDATASIZE PUSH1 0x3 NOT ADD SLT PUSH2 0x1BA JUMPI PUSH1 0x4 CALLDATALOAD PUSH2 0x385 PUSH2 0x10ED JUMP JUMPDEST PUSH2 0x38D PUSH2 0x1267 JUMP JUMPDEST DUP1 ISZERO PUSH2 0x444 JUMPI PUSH1 0x40 MLOAD PUSH4 0x23B872DD PUSH1 0xE0 SHL PUSH1 0x20 DUP3 ADD MSTORE CALLER PUSH1 0x24 DUP3 ADD MSTORE ADDRESS PUSH1 0x44 DUP3 ADD MSTORE PUSH1 0x64 DUP1 DUP3 ADD DUP4 SWAP1 MSTORE DUP2 MSTORE PUSH1 0xA0 DUP2 ADD PUSH8 0xFFFFFFFFFFFFFFFF DUP2 GT DUP3 DUP3 LT OR PUSH2 0x430 JUMPI PUSH1 0x40 MSTORE PUSH2 0x3FD SWAP1 PUSH32 0x0 PUSH2 0x12BD JUMP JUMPDEST PUSH1 0x40 MLOAD SWAP1 DUP2 MSTORE PUSH32 0xBB9E497A5B82D1A37F9496DD70C6EFB97BA0D98C66C3422D05010105D0633598 PUSH1 0x20 CALLER SWAP3 LOG2 PUSH1 0x1 DUP1 SSTORE DUP1 RETURN JUMPDEST PUSH4 0x4E487B71 PUSH1 0xE0 SHL DUP5 MSTORE PUSH1 0x41 PUSH1 0x4 MSTORE PUSH1 0x24 DUP5 REVERT JUMPDEST PUSH1 0x40 MLOAD PUSH3 0x461BCD PUSH1 0xE5 SHL DUP2 MSTORE PUSH1 0x20 PUSH1 0x4 DUP3 ADD MSTORE PUSH1 0x8 PUSH1 0x24 DUP3 ADD MSTORE PUSH8 0x616D6F756E743D3 PUSH1 0xC4 SHL PUSH1 0x44 DUP3 ADD MSTORE PUSH1 0x64 SWAP1 REVERT JUMPDEST POP CALLVALUE PUSH2 0x1BA JUMPI DUP1 PUSH1 0x3 NOT CALLDATASIZE ADD SLT PUSH2 0x1BA JUMPI PUSH1 0x20 PUSH1 0x3 SLOAD PUSH1 0x40 MLOAD SWAP1 DUP2 MSTORE RETURN JUMPDEST POP CALLVALUE PUSH2 0x1BA JUMPI PUSH1 0x20 CALLDATASIZE PUSH1 0x3 NOT ADD SLT PUSH2 0x1BA JUMPI PUSH1 0x20 PUSH2 0x4B1 PUSH1 0x4 CALLDATALOAD PUSH2 0x1553 JUMP JUMPDEST PUSH1 0x40 MLOAD SWAP1 DUP2 MSTORE RETURN JUMPDEST POP CALLVALUE PUSH2 0x1BA JUMPI PUSH1 0xA0 CALLDATASIZE PUSH1 0x3 NOT ADD SLT PUSH2 0x1BA JUMPI PUSH1 0x4 CALLDATALOAD PUSH2 0x4D6 PUSH2 0x10DC JUMP JUMPDEST PUSH1 0x64 CALLDATALOAD SWAP2 PUSH2 0xFFFF SWAP2 DUP3 DUP5 AND DUP1 SWAP5 SUB PUSH2 0x5AE JUMPI PUSH2 0x4F0 PUSH2 0x10ED JUMP JUMPDEST PUSH1 0x6 SLOAD DUP3 LT ISZERO PUSH2 0x583 JUMPI PUSH32 0xFE2EFE9272EB0DEB4938823C5D646855A80E10848BF50AF99EF34310D8F92B8D SWAP4 PUSH1 0x20 SWAP4 PUSH2 0x56E SWAP3 AND SWAP1 PUSH2 0x53C PUSH2 0x2710 DUP1 DUP5 GT ISZERO SWAP1 DUP2 PUSH2 0x578 JUMPI JUMPDEST POP PUSH2 0x1145 JUMP JUMPDEST PUSH1 0x40 MLOAD SWAP2 PUSH2 0x549 DUP4 PUSH2 0x117D JUMP JUMPDEST PUSH1 0x24 CALLDATALOAD DUP4 MSTORE DUP6 DUP4 ADD MSTORE PUSH1 0x40 DUP3 ADD MSTORE PUSH1 0x84 CALLDATALOAD PUSH1 0x60 DUP3 ADD MSTORE PUSH2 0x568 DUP4 PUSH2 0x104E JUMP JUMPDEST SWAP1 PUSH2 0x11EE JUMP JUMPDEST PUSH1 0x40 MLOAD SWAP1 DUP2 MSTORE LOG1 DUP1 RETURN JUMPDEST SWAP1 POP DUP3 GT ISZERO CODESIZE PUSH2 0x536 JUMP JUMPDEST PUSH1 0x40 MLOAD PUSH3 0x461BCD PUSH1 0xE5 SHL DUP2 MSTORE PUSH1 0x20 PUSH1 0x4 DUP3 ADD MSTORE PUSH1 0x3 PUSH1 0x24 DUP3 ADD MSTORE PUSH3 0xD2C8F PUSH1 0xEB SHL PUSH1 0x44 DUP3 ADD MSTORE PUSH1 0x64 SWAP1 REVERT JUMPDEST DUP5 DUP1 REVERT JUMPDEST POP CALLVALUE PUSH2 0x1BA JUMPI PUSH1 0x20 CALLDATASIZE PUSH1 0x3 NOT ADD SLT PUSH2 0x1BA JUMPI PUSH1 0x40 DUP2 PUSH2 0x1C0 SWAP3 PUSH2 0x1A0 DUP4 MLOAD PUSH2 0x5D9 DUP2 PUSH2 0x11AF JUMP JUMPDEST DUP3 DUP2 MSTORE DUP3 PUSH1 0x20 DUP3 ADD MSTORE DUP3 DUP6 DUP3 ADD MSTORE DUP3 PUSH1 0x60 DUP3 ADD MSTORE DUP3 PUSH1 0x80 DUP3 ADD MSTORE DUP3 PUSH1 0xA0 DUP3 ADD MSTORE DUP3 PUSH1 0xC0 DUP3 ADD MSTORE DUP3 PUSH1 0xE0 DUP3 ADD MSTORE DUP3 PUSH2 0x100 DUP3 ADD MSTORE DUP3 PUSH2 0x120 DUP3 ADD MSTORE DUP3 PUSH2 0x140 DUP3 ADD MSTORE DUP3 PUSH2 0x160 DUP3 ADD MSTORE DUP3 PUSH2 0x180 DUP3 ADD MSTORE ADD MSTORE PUSH1 0x4 CALLDATALOAD DUP2 MSTORE PUSH1 0x8 PUSH1 0x20 MSTORE KECCAK256 PUSH2 0x1A0 PUSH1 0x40 MLOAD PUSH2 0x644 DUP2 PUSH2 0x11AF JUMP JUMPDEST PUSH1 0xFF PUSH1 0xD PUSH1 0x1 DUP1 PUSH1 0xA0 SHL SUB DUP6 SLOAD AND SWAP5 DUP6 DUP5 MSTORE PUSH1 0x1 DUP1 PUSH1 0xA0 SHL SUB PUSH1 0x1 DUP3 ADD SLOAD AND PUSH1 0x20 DUP6 ADD MSTORE PUSH1 0x2 DUP2 ADD SLOAD PUSH1 0x40 DUP6 ADD MSTORE PUSH1 0x3 DUP2 ADD SLOAD PUSH1 0x60 DUP6 ADD MSTORE PUSH1 0x4 DUP2 ADD SLOAD PUSH1 0x80 DUP6 ADD MSTORE PUSH1 0x5 DUP2 ADD SLOAD PUSH1 0xA0 DUP6 ADD MSTORE PUSH1 0x6 DUP2 ADD SLOAD PUSH1 0xC0 DUP6 ADD MSTORE PUSH1 0x7 DUP2 ADD SLOAD PUSH1 0xE0 DUP6 ADD MSTORE PUSH1 0x8 DUP2 ADD SLOAD PUSH2 0x100 DUP6 ADD MSTORE PUSH1 0x9 DUP2 ADD SLOAD PUSH2 0x120 DUP6 ADD MSTORE PUSH1 0xA DUP2 ADD SLOAD PUSH2 0x140 DUP6 ADD MSTORE PUSH1 0xB DUP2 ADD SLOAD PUSH2 0x160 DUP6 ADD MSTORE PUSH1 0xC DUP2 ADD SLOAD PUSH2 0x180 DUP6 ADD MSTORE ADD SLOAD AND ISZERO ISZERO DUP3 DUP3 ADD MSTORE PUSH1 0x40 MLOAD SWAP3 DUP4 MSTORE PUSH1 0x1 DUP1 PUSH1 0xA0 SHL SUB PUSH1 0x20 DUP3 ADD MLOAD AND PUSH1 0x20 DUP5 ADD MSTORE PUSH1 0x40 DUP2 ADD MLOAD PUSH1 0x40 DUP5 ADD MSTORE PUSH1 0x60 DUP2 ADD MLOAD PUSH1 0x60 DUP5 ADD MSTORE PUSH1 0x80 DUP2 ADD MLOAD PUSH1 0x80 DUP5 ADD MSTORE PUSH1 0xA0 DUP2 ADD MLOAD PUSH1 0xA0 DUP5 ADD MSTORE PUSH1 0xC0 DUP2 ADD MLOAD PUSH1 0xC0 DUP5 ADD MSTORE PUSH1 0xE0 DUP2 ADD MLOAD PUSH1 0xE0 DUP5 ADD MSTORE PUSH2 0x100 DUP2 ADD MLOAD PUSH2 0x100 DUP5 ADD MSTORE PUSH2 0x120 DUP2 ADD MLOAD PUSH2 0x120 DUP5 ADD MSTORE PUSH2 0x140 DUP2 ADD MLOAD PUSH2 0x140 DUP5 ADD MSTORE PUSH2 0x160 DUP2 ADD MLOAD PUSH2 0x160 DUP5 ADD MSTORE PUSH2 0x180 DUP2 ADD MLOAD PUSH2 0x180 DUP5 ADD MSTORE ADD MLOAD ISZERO ISZERO PUSH2 0x1A0 DUP3 ADD MSTORE RETURN JUMPDEST POP CALLVALUE PUSH2 0x1BA JUMPI PUSH1 0x40 CALLDATASIZE PUSH1 0x3 NOT ADD SLT PUSH2 0x1BA JUMPI PUSH2 0x79A PUSH2 0x10BA JUMP JUMPDEST PUSH2 0x7A2 PUSH2 0x10CB JUMP JUMPDEST PUSH2 0x7AA PUSH2 0x10ED JUMP JUMPDEST PUSH2 0xFFFF PUSH4 0xFFFF0000 PUSH1 0x7 SLOAD SWAP3 PUSH1 0x10 SHL AND SWAP3 AND SWAP1 PUSH4 0xFFFFFFFF NOT AND OR OR PUSH1 0x7 SSTORE PUSH1 0x0 DUP1 MLOAD PUSH1 0x20 PUSH2 0x16BD DUP4 CODECOPY DUP2 MLOAD SWAP2 MSTORE DUP2 DUP1 LOG1 DUP1 RETURN JUMPDEST POP CALLVALUE PUSH2 0x1BA JUMPI DUP1 PUSH1 0x3 NOT CALLDATASIZE ADD SLT PUSH2 0x1BA JUMPI PUSH1 0x20 PUSH2 0xFFFF PUSH1 0x7 SLOAD PUSH1 0x10 SHR AND PUSH1 0x40 MLOAD SWAP1 DUP2 MSTORE RETURN JUMPDEST POP CALLVALUE PUSH2 0x1BA JUMPI PUSH1 0x20 CALLDATASIZE PUSH1 0x3 NOT ADD SLT PUSH2 0x1BA JUMPI PUSH1 0x40 PUSH2 0x1C0 SWAP2 PUSH1 0x4 CALLDATALOAD DUP2 MSTORE PUSH1 0x8 PUSH1 0x20 MSTORE KECCAK256 PUSH1 0x1 DUP1 PUSH1 0xA0 SHL SUB SWAP1 DUP2 DUP2 SLOAD AND SWAP2 PUSH1 0x1 DUP3 ADD SLOAD AND SWAP1 PUSH1 0x2 DUP2 ADD SLOAD PUSH1 0x3 DUP3 ADD SLOAD PUSH1 0x4 DUP4 ADD SLOAD PUSH1 0x5 DUP5 ADD SLOAD PUSH1 0x6 DUP6 ADD SLOAD PUSH1 0x7 DUP7 ADD SLOAD SWAP1 PUSH1 0x8 DUP8 ADD SLOAD SWAP3 PUSH1 0x9 DUP9 ADD SLOAD SWAP5 PUSH1 0xA DUP10 ADD SLOAD SWAP7 PUSH1 0xB DUP11 ADD SLOAD SWAP9 PUSH1 0xFF PUSH1 0xD PUSH1 0xC DUP14 ADD SLOAD SWAP13 ADD SLOAD AND SWAP12 PUSH1 0x20 PUSH1 0x40 MLOAD SWAP15 DUP16 SWAP1 DUP2 MSTORE ADD MSTORE PUSH1 0x40 DUP14 ADD MSTORE PUSH1 0x60 DUP13 ADD MSTORE PUSH1 0x80 DUP12 ADD MSTORE PUSH1 0xA0 DUP11 ADD MSTORE PUSH1 0xC0 DUP10 ADD MSTORE PUSH1 0xE0 DUP9 ADD MSTORE PUSH2 0x100 DUP8 ADD MSTORE PUSH2 0x120 DUP7 ADD MSTORE PUSH2 0x140 DUP6 ADD MSTORE PUSH2 0x160 DUP5 ADD MSTORE PUSH2 0x180 DUP4 ADD MSTORE ISZERO ISZERO PUSH2 0x1A0 DUP3 ADD MSTORE RETURN JUMPDEST POP CALLVALUE PUSH2 0x1BA JUMPI DUP1 PUSH1 0x3 NOT CALLDATASIZE ADD SLT PUSH2 0x1BA JUMPI PUSH1 0x20 PUSH2 0xFFFF PUSH1 0x7 SLOAD PUSH1 0x30 SHR AND PUSH1 0x40 MLOAD SWAP1 DUP2 MSTORE RETURN JUMPDEST POP CALLVALUE PUSH2 0x1BA JUMPI DUP1 PUSH1 0x3 NOT CALLDATASIZE ADD SLT PUSH2 0x1BA JUMPI PUSH1 0x20 PUSH1 0x7 SLOAD PUSH2 0xFFFF PUSH1 0x40 MLOAD SWAP2 DUP4 SHR AND DUP2 MSTORE RETURN JUMPDEST POP CALLVALUE PUSH2 0x1BA JUMPI PUSH1 0x40 CALLDATASIZE PUSH1 0x3 NOT ADD SLT PUSH2 0x1BA JUMPI PUSH2 0x97D PUSH2 0x937 PUSH2 0x109F JUMP JUMPDEST PUSH2 0x93F PUSH2 0x10ED JUMP JUMPDEST PUSH2 0x953 PUSH1 0x1 PUSH1 0x1 PUSH1 0xA0 SHL SUB DUP3 AND ISZERO ISZERO PUSH2 0x14E1 JUMP JUMPDEST PUSH1 0x24 CALLDATALOAD SWAP1 PUSH32 0x0 PUSH2 0x1513 JUMP JUMPDEST DUP1 RETURN JUMPDEST POP CALLVALUE PUSH2 0x1BA JUMPI DUP1 PUSH1 0x3 NOT CALLDATASIZE ADD SLT PUSH2 0x1BA JUMPI SLOAD PUSH1 0x40 MLOAD PUSH1 0x1 PUSH1 0x1 PUSH1 0xA0 SHL SUB SWAP1 SWAP2 AND DUP2 MSTORE PUSH1 0x20 SWAP1 RETURN JUMPDEST POP CALLVALUE PUSH2 0x1BA JUMPI PUSH1 0x20 CALLDATASIZE PUSH1 0x3 NOT ADD SLT PUSH2 0x1BA JUMPI PUSH2 0x9C1 PUSH2 0x10ED JUMP JUMPDEST PUSH1 0x4 CALLDATALOAD PUSH1 0x3 SSTORE PUSH1 0x0 DUP1 MLOAD PUSH1 0x20 PUSH2 0x16BD DUP4 CODECOPY DUP2 MLOAD SWAP2 MSTORE DUP2 DUP1 LOG1 DUP1 RETURN JUMPDEST POP CALLVALUE PUSH2 0x1BA JUMPI PUSH1 0x40 CALLDATASIZE PUSH1 0x3 NOT ADD SLT PUSH2 0x1BA JUMPI PUSH2 0x9F6 PUSH2 0x109F JUMP JUMPDEST PUSH2 0x9FE PUSH2 0x10CB JUMP JUMPDEST SWAP1 PUSH2 0xA07 PUSH2 0x10ED JUMP JUMPDEST PUSH1 0x1 PUSH1 0x1 PUSH1 0xA0 SHL SUB AND SWAP1 DUP2 ISZERO PUSH2 0xAA5 JUMPI PUSH2 0xFFFF DUP1 SWAP2 AND PUSH2 0x3E8 DUP2 GT PUSH2 0xA73 JUMPI PUSH32 0xF0476F83A777B892446C4939723CABA7D89F8DE16505F4DFE3C17F8B1DDA4868 SWAP2 PUSH1 0x40 SWAP2 DUP5 DUP7 MSTORE PUSH1 0x5 PUSH1 0x20 MSTORE DUP3 DUP7 KECCAK256 SWAP2 DUP3 SLOAD SWAP3 DUP3 PUSH2 0xFFFF NOT DUP6 AND OR SWAP1 SSTORE DUP4 MLOAD SWAP3 AND DUP3 MSTORE PUSH1 0x20 DUP3 ADD MSTORE LOG2 DUP1 RETURN JUMPDEST PUSH1 0x40 MLOAD PUSH3 0x461BCD PUSH1 0xE5 SHL DUP2 MSTORE PUSH1 0x20 PUSH1 0x4 DUP3 ADD MSTORE PUSH1 0xA PUSH1 0x24 DUP3 ADD MSTORE PUSH10 0x73636F72653E3130303 PUSH1 0xB4 SHL PUSH1 0x44 DUP3 ADD MSTORE PUSH1 0x64 SWAP1 REVERT JUMPDEST PUSH1 0x40 MLOAD PUSH3 0x461BCD PUSH1 0xE5 SHL DUP2 MSTORE PUSH1 0x20 PUSH1 0x4 DUP3 ADD MSTORE PUSH1 0x5 PUSH1 0x24 DUP3 ADD MSTORE PUSH5 0x77686F3D3 PUSH1 0xDC SHL PUSH1 0x44 DUP3 ADD MSTORE PUSH1 0x64 SWAP1 REVERT JUMPDEST POP CALLVALUE PUSH2 0x1BA JUMPI DUP1 PUSH1 0x3 NOT CALLDATASIZE ADD SLT PUSH2 0x1BA JUMPI PUSH1 0x40 MLOAD PUSH4 0x70A08231 PUSH1 0xE0 SHL DUP2 MSTORE ADDRESS PUSH1 0x4 DUP3 ADD MSTORE PUSH1 0x20 DUP2 PUSH1 0x24 DUP2 PUSH32 0x0 PUSH1 0x1 PUSH1 0x1 PUSH1 0xA0 SHL SUB AND GAS STATICCALL SWAP1 DUP2 ISZERO PUSH2 0xB7A JUMPI DUP3 SWAP2 PUSH2 0xB41 JUMPI JUMPDEST PUSH1 0x20 DUP3 PUSH1 0x40 MLOAD SWAP1 DUP2 MSTORE RETURN JUMPDEST SWAP1 POP PUSH1 0x20 DUP2 RETURNDATASIZE DUP3 GT PUSH2 0xB72 JUMPI JUMPDEST DUP2 PUSH2 0xB5B PUSH1 0x20 SWAP4 DUP4 PUSH2 0x11CC JUMP JUMPDEST DUP2 ADD SUB SLT PUSH2 0xB6E JUMPI PUSH1 0x20 SWAP2 POP MLOAD CODESIZE PUSH2 0xB36 JUMP JUMPDEST POP DUP1 REVERT JUMPDEST RETURNDATASIZE SWAP2 POP PUSH2 0xB4E JUMP JUMPDEST PUSH1 0x40 MLOAD RETURNDATASIZE DUP5 DUP3 RETURNDATACOPY RETURNDATASIZE SWAP1 REVERT JUMPDEST POP CALLVALUE PUSH2 0x1BA JUMPI PUSH1 0x80 CALLDATASIZE PUSH1 0x3 NOT ADD SLT PUSH2 0x1BA JUMPI PUSH2 0xB9F PUSH2 0x10CB JUMP JUMPDEST PUSH2 0xBA7 PUSH2 0x10DC JUMP JUMPDEST SWAP1 PUSH2 0xBB0 PUSH2 0x10ED JUMP JUMPDEST PUSH2 0xFFFF DUP1 SWAP2 AND SWAP2 PUSH2 0xBCD PUSH2 0x2710 DUP1 DUP6 GT ISZERO SWAP1 DUP2 PUSH2 0xC7F JUMPI POP PUSH2 0x1145 JUMP JUMPDEST PUSH1 0x40 MLOAD SWAP3 PUSH2 0xBDA DUP5 PUSH2 0x117D JUMP JUMPDEST PUSH1 0x4 CALLDATALOAD DUP5 MSTORE PUSH1 0x20 DUP5 ADD MSTORE AND PUSH1 0x40 DUP3 ADD MSTORE PUSH1 0x64 CALLDATALOAD PUSH1 0x60 DUP3 ADD MSTORE PUSH1 0x6 SLOAD PUSH9 0x10000000000000000 DUP2 LT ISZERO PUSH2 0xC6B JUMPI SWAP1 PUSH2 0x568 DUP3 PUSH1 0x1 PUSH2 0xC1A SWAP5 ADD PUSH1 0x6 SSTORE PUSH2 0x104E JUMP JUMPDEST PUSH1 0x6 SLOAD PUSH1 0x0 NOT DUP2 ADD SWAP1 DUP2 GT PUSH2 0xC57 JUMPI PUSH1 0x20 PUSH32 0xFE2EFE9272EB0DEB4938823C5D646855A80E10848BF50AF99EF34310D8F92B8D SWAP2 PUSH1 0x40 MLOAD SWAP1 DUP2 MSTORE LOG1 DUP1 RETURN JUMPDEST PUSH4 0x4E487B71 PUSH1 0xE0 SHL DUP3 MSTORE PUSH1 0x11 PUSH1 0x4 MSTORE PUSH1 0x24 DUP3 REVERT JUMPDEST PUSH4 0x4E487B71 PUSH1 0xE0 SHL DUP4 MSTORE PUSH1 0x41 PUSH1 0x4 MSTORE PUSH1 0x24 DUP4 REVERT JUMPDEST SWAP1 POP DUP4 DUP4 AND GT ISZERO CODESIZE PUSH2 0x536 JUMP JUMPDEST POP CALLVALUE PUSH2 0x1BA JUMPI DUP1 PUSH1 0x3 NOT CALLDATASIZE ADD SLT PUSH2 0x1BA JUMPI PUSH2 0xCA5 PUSH2 0x10ED JUMP JUMPDEST DUP1 SLOAD PUSH1 0x1 PUSH1 0x1 PUSH1 0xA0 SHL SUB NOT DUP2 AND DUP3 SSTORE DUP2 SWAP1 PUSH1 0x1 PUSH1 0x1 PUSH1 0xA0 SHL SUB AND PUSH32 0x8BE0079C531659141344CD1FD0A4F28419497F9722A3DAAFE3B4186F6B6457E0 DUP3 DUP1 LOG3 DUP1 RETURN JUMPDEST POP CALLVALUE PUSH2 0x1BA JUMPI DUP1 PUSH1 0x3 NOT CALLDATASIZE ADD SLT PUSH2 0x1BA JUMPI PUSH1 0x2 SLOAD PUSH1 0x40 MLOAD PUSH1 0x1 PUSH1 0x1 PUSH1 0xA0 SHL SUB SWAP1 SWAP2 AND DUP2 MSTORE PUSH1 0x20 SWAP1 RETURN JUMPDEST POP CALLVALUE PUSH2 0x1BA JUMPI DUP1 PUSH1 0x3 NOT CALLDATASIZE ADD SLT PUSH2 0x1BA JUMPI PUSH1 0x20 PUSH1 0x4 SLOAD PUSH1 0x40 MLOAD SWAP1 DUP2 MSTORE RETURN JUMPDEST POP CALLVALUE PUSH2 0x1BA JUMPI PUSH1 0x20 CALLDATASIZE PUSH1 0x3 NOT ADD SLT PUSH2 0x1BA JUMPI PUSH2 0xD47 PUSH2 0x10BA JUMP JUMPDEST PUSH2 0xD4F PUSH2 0x10ED JUMP JUMPDEST PUSH6 0xFFFF00000000 PUSH1 0x7 SLOAD SWAP2 PUSH1 0x20 SHL AND SWAP1 PUSH6 0xFFFF00000000 NOT AND OR PUSH1 0x7 SSTORE PUSH1 0x0 DUP1 MLOAD PUSH1 0x20 PUSH2 0x16BD DUP4 CODECOPY DUP2 MLOAD SWAP2 MSTORE DUP2 DUP1 LOG1 DUP1 RETURN JUMPDEST POP CALLVALUE PUSH2 0x1BA JUMPI PUSH1 0x20 CALLDATASIZE PUSH1 0x3 NOT ADD SLT PUSH2 0x1BA JUMPI PUSH1 0x40 DUP1 SWAP2 PUSH1 0x4 CALLDATALOAD DUP2 MSTORE PUSH1 0x8 PUSH1 0x20 MSTORE KECCAK256 PUSH1 0x9 PUSH1 0x8 DUP3 ADD SLOAD SWAP2 ADD SLOAD DUP3 MLOAD SWAP2 DUP3 MSTORE PUSH1 0x20 DUP3 ADD MSTORE RETURN JUMPDEST POP CALLVALUE PUSH2 0x1BA JUMPI PUSH1 0x20 CALLDATASIZE PUSH1 0x3 NOT ADD SLT PUSH2 0x1BA JUMPI PUSH2 0xDD2 PUSH2 0x10BA JUMP JUMPDEST PUSH2 0xDDA PUSH2 0x10ED JUMP JUMPDEST PUSH2 0xFFFF DUP2 AND DUP1 ISZERO ISZERO SWAP1 DUP2 PUSH2 0xE53 JUMPI JUMPDEST POP ISZERO PUSH2 0xE25 JUMPI PUSH8 0xFFFF000000000000 PUSH1 0x7 SLOAD SWAP2 PUSH1 0x30 SHL AND SWAP1 PUSH8 0xFFFF000000000000 NOT AND OR PUSH1 0x7 SSTORE PUSH1 0x0 DUP1 MLOAD PUSH1 0x20 PUSH2 0x16BD DUP4 CODECOPY DUP2 MLOAD SWAP2 MSTORE DUP2 DUP1 LOG1 DUP1 RETURN JUMPDEST PUSH1 0x40 MLOAD PUSH3 0x461BCD PUSH1 0xE5 SHL DUP2 MSTORE PUSH1 0x20 PUSH1 0x4 DUP3 ADD MSTORE PUSH1 0x6 PUSH1 0x24 DUP3 ADD MSTORE PUSH6 0x6D696E427073 PUSH1 0xD0 SHL PUSH1 0x44 DUP3 ADD MSTORE PUSH1 0x64 SWAP1 REVERT JUMPDEST PUSH2 0x2710 SWAP2 POP GT ISZERO CODESIZE PUSH2 0xDE9 JUMP JUMPDEST POP CALLVALUE PUSH2 0x1BA JUMPI DUP1 PUSH1 0x3 NOT CALLDATASIZE ADD SLT PUSH2 0x1BA JUMPI PUSH1 0x20 PUSH2 0xFFFF PUSH1 0x7 SLOAD AND PUSH1 0x40 MLOAD SWAP1 DUP2 MSTORE RETURN JUMPDEST POP CALLVALUE PUSH2 0x1BA JUMPI PUSH1 0x40 CALLDATASIZE PUSH1 0x3 NOT ADD SLT PUSH2 0x1BA JUMPI PUSH1 0x4 CALLDATALOAD SWAP1 PUSH1 0x24 CALLDATALOAD SWAP1 PUSH1 0x1 PUSH1 0x1 PUSH1 0xA0 SHL SUB DUP3 AND DUP3 SUB PUSH2 0x1BA JUMPI POP PUSH2 0xEB6 SWAP1 PUSH2 0x15F0 JUMP JUMPDEST PUSH1 0x60 DUP2 ADD MLOAD DUP3 GT PUSH2 0xEF9 JUMPI PUSH1 0x40 SWAP2 PUSH2 0xEEB PUSH2 0x2710 SWAP2 PUSH2 0xFFFF PUSH1 0x20 DUP5 PUSH2 0xEE0 DUP4 DUP10 DUP10 ADD MLOAD AND DUP6 PUSH2 0x15A5 JUMP JUMPDEST DIV SWAP6 ADD MLOAD AND SWAP1 PUSH2 0x15A5 JUMP JUMPDEST DIV SWAP1 DUP3 MLOAD SWAP2 DUP3 MSTORE PUSH1 0x20 DUP3 ADD MSTORE RETURN JUMPDEST PUSH1 0x40 MLOAD PUSH3 0x461BCD PUSH1 0xE5 SHL DUP2 MSTORE PUSH1 0x20 PUSH1 0x4 DUP3 ADD MSTORE PUSH1 0x15 PUSH1 0x24 DUP3 ADD MSTORE PUSH21 0x32BC31B2B2B239903A34B2B91036B0BC103637B0B7 PUSH1 0x59 SHL PUSH1 0x44 DUP3 ADD MSTORE PUSH1 0x64 SWAP1 REVERT JUMPDEST POP CALLVALUE PUSH2 0x1BA JUMPI PUSH1 0x40 CALLDATASIZE PUSH1 0x3 NOT ADD SLT PUSH2 0x1BA JUMPI PUSH2 0xF50 PUSH2 0x109F JUMP JUMPDEST PUSH32 0xB1CCE8684B4FFA8667B4577654E61EE3480D661EE9C27522AC80E211F6BD4D25 PUSH1 0x20 PUSH1 0x24 CALLDATALOAD PUSH2 0xF7E PUSH2 0x10ED JUMP JUMPDEST PUSH2 0xF86 PUSH2 0x1267 JUMP JUMPDEST PUSH1 0x1 PUSH1 0x1 PUSH1 0xA0 SHL SUB DUP5 AND SWAP4 PUSH2 0xFC8 SWAP1 DUP3 SWAP1 PUSH2 0xFA2 DUP8 ISZERO ISZERO PUSH2 0x14E1 JUMP JUMPDEST PUSH32 0x0 PUSH2 0x1513 JUMP JUMPDEST PUSH1 0x40 MLOAD SWAP1 DUP2 MSTORE LOG2 PUSH1 0x1 DUP1 SSTORE DUP1 RETURN JUMPDEST POP CALLVALUE PUSH2 0x1BA JUMPI PUSH1 0x20 CALLDATASIZE PUSH1 0x3 NOT ADD SLT PUSH2 0x1BA JUMPI PUSH1 0x4 CALLDATALOAD SWAP1 PUSH1 0x6 SLOAD DUP3 LT ISZERO PUSH2 0x1BA JUMPI PUSH1 0x80 PUSH2 0x1001 DUP4 PUSH2 0x104E JUMP JUMPDEST POP DUP1 SLOAD SWAP1 PUSH1 0x2 PUSH1 0x1 DUP3 ADD SLOAD SWAP2 ADD SLOAD SWAP1 PUSH1 0x40 MLOAD SWAP3 DUP4 MSTORE PUSH2 0xFFFF SWAP1 DUP2 DUP2 AND PUSH1 0x20 DUP6 ADD MSTORE PUSH1 0x10 SHR AND PUSH1 0x40 DUP4 ADD MSTORE PUSH1 0x60 DUP3 ADD MSTORE RETURN JUMPDEST SWAP1 POP CALLVALUE PUSH2 0xB6E JUMPI DUP2 PUSH1 0x3 NOT CALLDATASIZE ADD SLT PUSH2 0xB6E JUMPI PUSH1 0x20 SWAP1 PUSH1 0x6 SLOAD DUP2 MSTORE RETURN JUMPDEST PUSH1 0x6 SLOAD DUP2 LT ISZERO PUSH2 0x1089 JUMPI PUSH1 0x3 SWAP1 PUSH1 0x6 PUSH1 0x0 MSTORE MUL PUSH32 0xF652222313E28459528D920B65115C16C04F3EFC82AAEDC97BE59F3F377C0D3F ADD SWAP1 PUSH1 0x0 SWAP1 JUMP JUMPDEST PUSH4 0x4E487B71 PUSH1 0xE0 SHL PUSH1 0x0 MSTORE PUSH1 0x32 PUSH1 0x4 MSTORE PUSH1 0x24 PUSH1 0x0 REVERT JUMPDEST PUSH1 0x4 CALLDATALOAD SWAP1 PUSH1 0x1 PUSH1 0x1 PUSH1 0xA0 SHL SUB DUP3 AND DUP3 SUB PUSH2 0x10B5 JUMPI JUMP JUMPDEST PUSH1 0x0 DUP1 REVERT JUMPDEST PUSH1 0x4 CALLDATALOAD SWAP1 PUSH2 0xFFFF DUP3 AND DUP3 SUB PUSH2 0x10B5 JUMPI JUMP JUMPDEST PUSH1 0x24 CALLDATALOAD SWAP1 PUSH2 0xFFFF DUP3 AND DUP3 SUB PUSH2 0x10B5 JUMPI JUMP JUMPDEST PUSH1 0x44 CALLDATALOAD SWAP1 PUSH2 0xFFFF DUP3 AND DUP3 SUB PUSH2 0x10B5 JUMPI JUMP JUMPDEST PUSH1 0x0 SLOAD PUSH1 0x1 PUSH1 0x1 PUSH1 0xA0 SHL SUB AND CALLER SUB PUSH2 0x1101 JUMPI JUMP JUMPDEST PUSH1 0x64 PUSH1 0x40 MLOAD PUSH3 0x461BCD PUSH1 0xE5 SHL DUP2 MSTORE PUSH1 0x20 PUSH1 0x4 DUP3 ADD MSTORE PUSH1 0x20 PUSH1 0x24 DUP3 ADD MSTORE PUSH32 0x4F776E61626C653A2063616C6C6572206973206E6F7420746865206F776E6572 PUSH1 0x44 DUP3 ADD MSTORE REVERT JUMPDEST ISZERO PUSH2 0x114C JUMPI JUMP JUMPDEST PUSH1 0x40 MLOAD PUSH3 0x461BCD PUSH1 0xE5 SHL DUP2 MSTORE PUSH1 0x20 PUSH1 0x4 DUP3 ADD MSTORE PUSH1 0x9 PUSH1 0x24 DUP3 ADD MSTORE PUSH9 0x6270733E313030303 PUSH1 0xBC SHL PUSH1 0x44 DUP3 ADD MSTORE PUSH1 0x64 SWAP1 REVERT JUMPDEST PUSH1 0x80 DUP2 ADD SWAP1 DUP2 LT PUSH8 0xFFFFFFFFFFFFFFFF DUP3 GT OR PUSH2 0x1199 JUMPI PUSH1 0x40 MSTORE JUMP JUMPDEST PUSH4 0x4E487B71 PUSH1 0xE0 SHL PUSH1 0x0 MSTORE PUSH1 0x41 PUSH1 0x4 MSTORE PUSH1 0x24 PUSH1 0x0 REVERT JUMPDEST PUSH2 0x1C0 DUP2 ADD SWAP1 DUP2 LT PUSH8 0xFFFFFFFFFFFFFFFF DUP3 GT OR PUSH2 0x1199 JUMPI PUSH1 0x40 MSTORE JUMP JUMPDEST SWAP1 PUSH1 0x1F DUP1 NOT SWAP2 ADD AND DUP2 ADD SWAP1 DUP2 LT PUSH8 0xFFFFFFFFFFFFFFFF DUP3 GT OR PUSH2 0x1199 JUMPI PUSH1 0x40 MSTORE JUMP JUMPDEST SWAP2 SWAP1 PUSH2 0x122E JUMPI PUSH1 0x60 DUP2 PUSH1 0x2 SWAP3 MLOAD DUP5 SSTORE PUSH1 0x1 DUP5 ADD PUSH2 0xFFFF PUSH1 0x20 DUP4 ADD MLOAD AND DUP2 SLOAD SWAP1 PUSH4 0xFFFF0000 PUSH1 0x40 DUP6 ADD MLOAD PUSH1 0x10 SHL AND SWAP2 PUSH4 0xFFFFFFFF NOT AND OR OR SWAP1 SSTORE ADD MLOAD SWAP2 ADD SSTORE JUMP JUMPDEST PUSH4 0x4E487B71 PUSH1 0xE0 SHL PUSH1 0x0 MSTORE PUSH1 0x0 PUSH1 0x4 MSTORE PUSH1 0x24 PUSH1 0x0 REVERT JUMPDEST SWAP2 SWAP1 DUP3 SUB SWAP2 DUP3 GT PUSH2 0x1251 JUMPI JUMP JUMPDEST PUSH4 0x4E487B71 PUSH1 0xE0 SHL PUSH1 0x0 MSTORE PUSH1 0x11 PUSH1 0x4 MSTORE PUSH1 0x24 PUSH1 0x0 REVERT JUMPDEST PUSH1 0x2 PUSH1 0x1 SLOAD EQ PUSH2 0x1278 JUMPI PUSH1 0x2 PUSH1 0x1 SSTORE JUMP JUMPDEST PUSH1 0x40 MLOAD PUSH3 0x461BCD PUSH1 0xE5 SHL DUP2 MSTORE PUSH1 0x20 PUSH1 0x4 DUP3 ADD MSTORE PUSH1 0x1F PUSH1 0x24 DUP3 ADD MSTORE PUSH32 0x5265656E7472616E637947756172643A207265656E7472616E742063616C6C00 PUSH1 0x44 DUP3 ADD MSTORE PUSH1 0x64 SWAP1 REVERT JUMPDEST PUSH1 0x1 DUP1 PUSH1 0xA0 SHL SUB AND SWAP1 PUSH1 0x40 MLOAD PUSH1 0x40 DUP2 ADD PUSH8 0xFFFFFFFFFFFFFFFF SWAP1 DUP3 DUP2 LT DUP3 DUP3 GT OR PUSH2 0x1199 JUMPI PUSH1 0x40 MSTORE PUSH1 0x20 SWAP4 DUP5 DUP4 MSTORE PUSH32 0x5361666545524332303A206C6F772D6C6576656C2063616C6C206661696C6564 DUP6 DUP5 ADD MSTORE PUSH1 0x0 DUP1 DUP6 DUP8 DUP3 SWAP8 MLOAD SWAP2 ADD DUP3 DUP6 GAS CALL SWAP1 RETURNDATASIZE ISZERO PUSH2 0x1402 JUMPI RETURNDATASIZE SWAP3 DUP4 GT PUSH2 0x13EE JUMPI SWAP1 PUSH2 0x1358 SWAP4 SWAP3 SWAP2 PUSH1 0x40 MLOAD SWAP3 PUSH2 0x134B DUP9 PUSH1 0x1F NOT PUSH1 0x1F DUP5 ADD AND ADD DUP6 PUSH2 0x11CC JUMP JUMPDEST DUP4 MSTORE RETURNDATASIZE DUP7 DUP9 DUP6 ADD RETURNDATACOPY PUSH2 0x140D JUMP JUMPDEST DUP1 MLOAD SWAP2 DUP3 ISZERO SWAP2 DUP5 DUP4 ISZERO PUSH2 0x13CA JUMPI JUMPDEST POP POP POP SWAP1 POP ISZERO PUSH2 0x1373 JUMPI POP JUMP JUMPDEST PUSH1 0x84 SWAP1 PUSH1 0x40 MLOAD SWAP1 PUSH3 0x461BCD PUSH1 0xE5 SHL DUP3 MSTORE PUSH1 0x4 DUP3 ADD MSTORE PUSH1 0x2A PUSH1 0x24 DUP3 ADD MSTORE PUSH32 0x5361666545524332303A204552433230206F7065726174696F6E20646964206E PUSH1 0x44 DUP3 ADD MSTORE PUSH10 0x1BDD081CDD58D8D95959 PUSH1 0xB2 SHL PUSH1 0x64 DUP3 ADD MSTORE REVERT JUMPDEST SWAP2 SWAP4 DUP2 DUP1 SWAP5 POP ADD SUB SLT PUSH2 0xB6E JUMPI DUP3 ADD MLOAD SWAP1 DUP2 ISZERO ISZERO DUP3 SUB PUSH2 0x1BA JUMPI POP DUP1 CODESIZE DUP1 DUP5 PUSH2 0x1366 JUMP JUMPDEST PUSH4 0x4E487B71 PUSH1 0xE0 SHL DUP6 MSTORE PUSH1 0x41 PUSH1 0x4 MSTORE PUSH1 0x24 DUP6 REVERT JUMPDEST SWAP1 PUSH2 0x1358 SWAP4 SWAP3 POP PUSH1 0x60 SWAP2 JUMPDEST SWAP2 SWAP3 SWAP1 ISZERO PUSH2 0x146F JUMPI POP DUP2 MLOAD ISZERO PUSH2 0x1421 JUMPI POP SWAP1 JUMP JUMPDEST EXTCODESIZE ISZERO PUSH2 0x142A JUMPI SWAP1 JUMP JUMPDEST PUSH1 0x40 MLOAD PUSH3 0x461BCD PUSH1 0xE5 SHL DUP2 MSTORE PUSH1 0x20 PUSH1 0x4 DUP3 ADD MSTORE PUSH1 0x1D PUSH1 0x24 DUP3 ADD MSTORE PUSH32 0x416464726573733A2063616C6C20746F206E6F6E2D636F6E7472616374000000 PUSH1 0x44 DUP3 ADD MSTORE PUSH1 0x64 SWAP1 REVERT JUMPDEST DUP3 MLOAD SWAP1 SWAP2 POP ISZERO PUSH2 0x1482 JUMPI POP DUP1 MLOAD SWAP1 PUSH1 0x20 ADD REVERT JUMPDEST PUSH1 0x40 MLOAD SWAP1 PUSH3 0x461BCD PUSH1 0xE5 SHL DUP3 MSTORE DUP2 PUSH1 0x20 DUP1 PUSH1 0x4 DUP4 ADD MSTORE DUP3 MLOAD SWAP1 DUP2 PUSH1 0x24 DUP5 ADD MSTORE PUSH1 0x0 SWAP4 JUMPDEST DUP3 DUP6 LT PUSH2 0x14C8 JUMPI POP POP PUSH1 0x44 SWAP3 POP PUSH1 0x0 DUP4 DUP3 DUP5 ADD ADD MSTORE PUSH1 0x1F DUP1 NOT SWAP2 ADD AND DUP2 ADD SUB ADD SWAP1 REVERT JUMPDEST DUP5 DUP2 ADD DUP3 ADD MLOAD DUP7 DUP7 ADD PUSH1 0x44 ADD MSTORE SWAP4 DUP2 ADD SWAP4 DUP6 SWAP4 POP PUSH2 0x14A5 JUMP JUMPDEST ISZERO PUSH2 0x14E8 JUMPI JUMP JUMPDEST PUSH1 0x64 PUSH1 0x40 MLOAD PUSH3 0x461BCD PUSH1 0xE5 SHL DUP2 MSTORE PUSH1 0x20 PUSH1 0x4 DUP3 ADD MSTORE PUSH1 0x4 PUSH1 0x24 DUP3 ADD MSTORE PUSH4 0x746F3D3 PUSH1 0xE4 SHL PUSH1 0x44 DUP3 ADD MSTORE REVERT JUMPDEST PUSH1 0x40 MLOAD PUSH4 0xA9059CBB PUSH1 0xE0 SHL PUSH1 0x20 DUP3 ADD MSTORE PUSH1 0x1 PUSH1 0x1 PUSH1 0xA0 SHL SUB SWAP1 SWAP3 AND PUSH1 0x24 DUP4 ADD MSTORE PUSH1 0x44 DUP1 DUP4 ADD SWAP4 SWAP1 SWAP4 MSTORE SWAP2 DUP2 MSTORE PUSH2 0x1551 SWAP2 PUSH2 0x154C DUP3 PUSH2 0x117D JUMP JUMPDEST PUSH2 0x12BD JUMP JUMPDEST JUMP JUMPDEST PUSH1 0x0 MSTORE PUSH1 0x8 PUSH1 0x20 MSTORE PUSH1 0x40 PUSH1 0x0 KECCAK256 PUSH1 0xFF PUSH1 0xD DUP3 ADD SLOAD AND PUSH2 0x159F JUMPI PUSH2 0x1593 PUSH2 0x1582 PUSH1 0x2 DUP4 ADD SLOAD PUSH1 0xA DUP5 ADD SLOAD SWAP1 PUSH2 0x1244 JUMP JUMPDEST SWAP2 PUSH1 0xB PUSH1 0x4 DUP3 ADD SLOAD SWAP2 ADD SLOAD SWAP1 PUSH2 0x1244 JUMP JUMPDEST DUP2 ADD DUP1 SWAP2 GT PUSH2 0x1251 JUMPI SWAP1 JUMP JUMPDEST POP PUSH1 0x0 SWAP1 JUMP JUMPDEST DUP2 DUP2 MUL SWAP3 SWAP2 DUP2 ISZERO SWAP2 DUP5 DIV EQ OR ISZERO PUSH2 0x1251 JUMPI JUMP JUMPDEST SWAP1 PUSH1 0x40 MLOAD PUSH2 0x15C5 DUP2 PUSH2 0x117D JUMP JUMPDEST PUSH1 0x60 PUSH1 0x2 DUP3 SWAP5 DUP1 SLOAD DUP5 MSTORE PUSH1 0x1 DUP2 ADD SLOAD PUSH2 0xFFFF SWAP1 DUP2 DUP2 AND PUSH1 0x20 DUP8 ADD MSTORE PUSH1 0x10 SHR AND PUSH1 0x40 DUP6 ADD MSTORE ADD SLOAD SWAP2 ADD MSTORE JUMP JUMPDEST PUSH1 0x60 SWAP1 PUSH1 0x40 MLOAD PUSH2 0x15FF DUP2 PUSH2 0x117D JUMP JUMPDEST PUSH1 0x0 SWAP3 DUP2 DUP5 DUP1 SWAP4 MSTORE DUP3 PUSH1 0x20 DUP3 ADD MSTORE DUP3 PUSH1 0x40 DUP3 ADD MSTORE ADD MSTORE PUSH1 0x1 DUP1 PUSH1 0xA0 SHL SUB AND DUP2 MSTORE PUSH1 0x5 PUSH1 0x20 MSTORE PUSH2 0xFFFF PUSH1 0x40 DUP3 KECCAK256 SLOAD AND SWAP1 DUP1 SWAP2 PUSH1 0x6 SLOAD SWAP3 JUMPDEST DUP4 DUP2 LT PUSH2 0x1674 JUMPI POP POP PUSH1 0x0 NOT DUP3 ADD SWAP2 DUP3 GT PUSH2 0x1660 JUMPI POP PUSH2 0x1657 PUSH2 0x165D SWAP2 PUSH2 0x104E JUMP JUMPDEST POP PUSH2 0x15B8 JUMP JUMPDEST SWAP1 JUMP JUMPDEST PUSH4 0x4E487B71 PUSH1 0xE0 SHL DUP2 MSTORE PUSH1 0x11 PUSH1 0x4 MSTORE PUSH1 0x24 SWAP1 REVERT JUMPDEST PUSH2 0x167D DUP2 PUSH2 0x104E JUMP JUMPDEST POP SLOAD DUP3 LT ISZERO PUSH2 0x16AB JUMPI PUSH1 0x0 NOT DUP2 EQ PUSH2 0x1697 JUMPI PUSH1 0x1 ADD PUSH2 0x1635 JUMP JUMPDEST PUSH4 0x4E487B71 PUSH1 0xE0 SHL DUP4 MSTORE PUSH1 0x11 PUSH1 0x4 MSTORE PUSH1 0x24 DUP4 REVERT JUMPDEST SWAP1 POP PUSH2 0x165D SWAP3 POP PUSH2 0x1657 SWAP2 POP PUSH2 0x104E JUMP INVALID 0x4E POP SDIV SLOAD PUSH29 0x24DFD12003C2845FD20F2071C49FA3CD30B0BE7A064E3F4C3F8D2AA264 PUSH10 0x70667358221220540F95 0xBA 0xC3 PUSH19 0xD1B62E7D6482B6AE9A853A84D0FC7432A564AB REVERT 0xEA SSTORE 0xE9 0xA6 0xAF PUSH26 0x64736F6C63430008120033000000000000000000000000000000 "},"methodIdentifiers":{"addTier(uint256,uint16,uint16,uint256)":"73c5ca09","availableLiquidity()":"74375359","creditScore(address)":"f7e590ee","earlyRepayDiscountBps()":"9c21c3a1","emergencyWithdraw(address,uint256)":"95ccea67","fundLiquidity(uint256)":"f0f437b6","getOrder(uint256)":"d09ef241","getTiersCount()":"01f28d91","lastOrderId()":"5662ecc7","liquidateScoreDecrease()":"a8841db9","maxPurchasePerOrder()":"ec14476f","minInstallmentAmountBps()":"a8311c3b","nominalInstallment(uint256)":"3a5d8d6c","orders(uint256)":"a85c38ef","owner()":"8da5cb5b","quote(uint256,address)":"13b0be33","renounceOwnership()":"715018a6","repayScoreIncrease()":"1dd0c13f","setCreditScore(address,uint16)":"752df2db","setEarlyRepayDiscountBps(uint16)":"44dac75b","setMaxPurchasePerOrder(uint256)":"784aee35","setMinInstallmentAmountBps(uint16)":"285eb373","setScoreDeltas(uint16,uint16)":"be020752","setTier(uint256,uint256,uint16,uint16,uint256)":"e02ef565","setTreasury(address)":"f0f44260","tiers(uint256)":"039af9eb","token()":"fc0c546a","totalDue(uint256)":"e5eeb32c","transferOwnership(address)":"f2fde38b","treasury()":"61d027b3","withdrawLiquidity(address,uint256)":"06d47de9"}}}}}