{
  "_format": "hh-sol-artifact-1",
  "contractName": "BNPLScoring",
  "sourceName": "src/buy-now-pay-later/BNPLScoring.sol",
  "abi": [
    {
      "inputs": [
        {
          "internalType": "address",
          "name": "initialOwner",
          "type": "address"
        },
        {
          "internalType": "contract IERC20",
          "name": "_token",
          "type": "address"
        },
        {
          "internalType": "address",
          "name": "_treasury",
          "type": "address"
        },
        {
          "internalType": "uint256",
          "name": "_maxPurchasePerOrder",
          "type": "uint256"
        },
        {
          "internalType": "uint16",
          "name": "_repayScoreIncrease",
          "type": "uint16"
        },
        {
          "internalType": "uint16",
          "name": "_liquidateScoreDecrease",
          "type": "uint16"
        },
        {
          "internalType": "uint16",
          "name": "_earlyRepayDiscountBps",
          "type": "uint16"
        },
        {
          "internalType": "uint16",
          "name": "_minInstallmentAmountBps",
          "type": "uint16"
        }
      ],
      "stateMutability": "nonpayable",
      "type": "constructor"
    },
    {
      "anonymous": false,
      "inputs": [
        {
          "indexed": true,
          "internalType": "address",
          "name": "who",
          "type": "address"
        },
        {
          "indexed": false,
          "internalType": "uint16",
          "name": "oldScore",
          "type": "uint16"
        },
        {
          "indexed": false,
          "internalType": "uint16",
          "name": "newScore",
          "type": "uint16"
        }
      ],
      "name": "CreditScoreUpdated",
      "type": "event"
    },
    {
      "anonymous": false,
      "inputs": [
        {
          "indexed": true,
          "internalType": "uint256",
          "name": "id",
          "type": "uint256"
        },
        {
          "indexed": true,
          "internalType": "address",
          "name": "payer",
          "type": "address"
        },
        {
          "indexed": false,
          "internalType": "uint256",
          "name": "amount",
          "type": "uint256"
        },
        {
          "indexed": false,
          "internalType": "uint256",
          "name": "paidPrincipal",
          "type": "uint256"
        },
        {
          "indexed": false,
          "internalType": "uint256",
          "name": "paidFee",
          "type": "uint256"
        }
      ],
      "name": "InstallmentPaid",
      "type": "event"
    },
    {
      "anonymous": false,
      "inputs": [
        {
          "indexed": true,
          "internalType": "address",
          "name": "from",
          "type": "address"
        },
        {
          "indexed": false,
          "internalType": "uint256",
          "name": "amount",
          "type": "uint256"
        }
      ],
      "name": "LiquidityFunded",
      "type": "event"
    },
    {
      "anonymous": false,
      "inputs": [
        {
          "indexed": true,
          "internalType": "address",
          "name": "to",
          "type": "address"
        },
        {
          "indexed": false,
          "internalType": "uint256",
          "name": "amount",
          "type": "uint256"
        }
      ],
      "name": "LiquidityWithdrawn",
      "type": "event"
    },
    {
      "anonymous": false,
      "inputs": [
        {
          "indexed": true,
          "internalType": "uint256",
          "name": "id",
          "type": "uint256"
        },
        {
          "indexed": true,
          "internalType": "address",
          "name": "buyer",
          "type": "address"
        },
        {
          "indexed": true,
          "internalType": "address",
          "name": "merchant",
          "type": "address"
        },
        {
          "indexed": false,
          "internalType": "uint256",
          "name": "principal",
          "type": "uint256"
        },
        {
          "indexed": false,
          "internalType": "uint256",
          "name": "collateral",
          "type": "uint256"
        },
        {
          "indexed": false,
          "internalType": "uint256",
          "name": "totalFee",
          "type": "uint256"
        },
        {
          "indexed": false,
          "internalType": "uint256",
          "name": "dueAt",
          "type": "uint256"
        },
        {
          "indexed": false,
          "internalType": "uint256",
          "name": "installments",
          "type": "uint256"
        }
      ],
      "name": "OrderCreated",
      "type": "event"
    },
    {
      "anonymous": false,
      "inputs": [
        {
          "indexed": true,
          "internalType": "uint256",
          "name": "id",
          "type": "uint256"
        },
        {
          "indexed": true,
          "internalType": "address",
          "name": "payer",
          "type": "address"
        },
        {
          "indexed": false,
          "internalType": "uint256",
          "name": "totalPaid",
          "type": "uint256"
        },
        {
          "indexed": false,
          "internalType": "uint256",
          "name": "feeDiscount",
          "type": "uint256"
        }
      ],
      "name": "OrderFullyRepaid",
      "type": "event"
    },
    {
      "anonymous": false,
      "inputs": [
        {
          "indexed": true,
          "internalType": "uint256",
          "name": "id",
          "type": "uint256"
        },
        {
          "indexed": false,
          "internalType": "uint256",
          "name": "seizedCollateral",
          "type": "uint256"
        }
      ],
      "name": "OrderLiquidated",
      "type": "event"
    },
    {
      "anonymous": false,
      "inputs": [
        {
          "indexed": true,
          "internalType": "address",
          "name": "previousOwner",
          "type": "address"
        },
        {
          "indexed": true,
          "internalType": "address",
          "name": "newOwner",
          "type": "address"
        }
      ],
      "name": "OwnershipTransferred",
      "type": "event"
    },
    {
      "anonymous": false,
      "inputs": [],
      "name": "ParamsUpdated",
      "type": "event"
    },
    {
      "anonymous": false,
      "inputs": [
        {
          "indexed": false,
          "internalType": "uint256",
          "name": "idx",
          "type": "uint256"
        }
      ],
      "name": "TierUpdated",
      "type": "event"
    },
    {
      "anonymous": false,
      "inputs": [
        {
          "indexed": false,
          "internalType": "address",
          "name": "oldTreasury",
          "type": "address"
        },
        {
          "indexed": false,
          "internalType": "address",
          "name": "newTreasury",
          "type": "address"
        }
      ],
      "name": "TreasuryUpdated",
      "type": "event"
    },
    {
      "inputs": [
        {
          "internalType": "uint256",
          "name": "minScore",
          "type": "uint256"
        },
        {
          "internalType": "uint16",
          "name": "collateralBps",
          "type": "uint16"
        },
        {
          "internalType": "uint16",
          "name": "feeBps",
          "type": "uint16"
        },
        {
          "internalType": "uint256",
          "name": "maxLoan",
          "type": "uint256"
        }
      ],
      "name": "addTier",
      "outputs": [],
      "stateMutability": "nonpayable",
      "type": "function"
    },
    {
      "inputs": [],
      "name": "availableLiquidity",
      "outputs": [
        {
          "internalType": "uint256",
          "name": "",
          "type": "uint256"
        }
      ],
      "stateMutability": "view",
      "type": "function"
    },
    {
      "inputs": [
        {
          "internalType": "address",
          "name": "",
          "type": "address"
        }
      ],
      "name": "creditScore",
      "outputs": [
        {
          "internalType": "uint16",
          "name": "",
          "type": "uint16"
        }
      ],
      "stateMutability": "view",
      "type": "function"
    },
    {
      "inputs": [],
      "name": "earlyRepayDiscountBps",
      "outputs": [
        {
          "internalType": "uint16",
          "name": "",
          "type": "uint16"
        }
      ],
      "stateMutability": "view",
      "type": "function"
    },
    {
      "inputs": [
        {
          "internalType": "address",
          "name": "to",
          "type": "address"
        },
        {
          "internalType": "uint256",
          "name": "amount",
          "type": "uint256"
        }
      ],
      "name": "emergencyWithdraw",
      "outputs": [],
      "stateMutability": "nonpayable",
      "type": "function"
    },
    {
      "inputs": [
        {
          "internalType": "uint256",
          "name": "amount",
          "type": "uint256"
        }
      ],
      "name": "fundLiquidity",
      "outputs": [],
      "stateMutability": "nonpayable",
      "type": "function"
    },
    {
      "inputs": [
        {
          "internalType": "uint256",
          "name": "id",
          "type": "uint256"
        }
      ],
      "name": "getOrder",
      "outputs": [
        {
          "components": [
            {
              "internalType": "address",
              "name": "buyer",
              "type": "address"
            },
            {
              "internalType": "address",
              "name": "merchant",
              "type": "address"
            },
            {
              "internalType": "uint256",
              "name": "principal",
              "type": "uint256"
            },
            {
              "internalType": "uint256",
              "name": "collateral",
              "type": "uint256"
            },
            {
              "internalType": "uint256",
              "name": "totalFee",
              "type": "uint256"
            },
            {
              "internalType": "uint256",
              "name": "createdAt",
              "type": "uint256"
            },
            {
              "internalType": "uint256",
              "name": "dueAt",
              "type": "uint256"
            },
            {
              "internalType": "uint256",
              "name": "installments",
              "type": "uint256"
            },
            {
              "internalType": "uint256",
              "name": "nominalPrincipal",
              "type": "uint256"
            },
            {
              "internalType": "uint256",
              "name": "nominalFee",
              "type": "uint256"
            },
            {
              "internalType": "uint256",
              "name": "paidPrincipal",
              "type": "uint256"
            },
            {
              "internalType": "uint256",
              "name": "paidFee",
              "type": "uint256"
            },
            {
              "internalType": "uint256",
              "name": "paidInstallments",
              "type": "uint256"
            },
            {
              "internalType": "bool",
              "name": "closed",
              "type": "bool"
            }
          ],
          "internalType": "struct IBNPLStructs.Order",
          "name": "",
          "type": "tuple"
        }
      ],
      "stateMutability": "view",
      "type": "function"
    },
    {
      "inputs": [],
      "name": "getTiersCount",
      "outputs": [
        {
          "internalType": "uint256",
          "name": "",
          "type": "uint256"
        }
      ],
      "stateMutability": "view",
      "type": "function"
    },
    {
      "inputs": [],
      "name": "lastOrderId",
      "outputs": [
        {
          "internalType": "uint256",
          "name": "",
          "type": "uint256"
        }
      ],
      "stateMutability": "view",
      "type": "function"
    },
    {
      "inputs": [],
      "name": "liquidateScoreDecrease",
      "outputs": [
        {
          "internalType": "uint16",
          "name": "",
          "type": "uint16"
        }
      ],
      "stateMutability": "view",
      "type": "function"
    },
    {
      "inputs": [],
      "name": "maxPurchasePerOrder",
      "outputs": [
        {
          "internalType": "uint256",
          "name": "",
          "type": "uint256"
        }
      ],
      "stateMutability": "view",
      "type": "function"
    },
    {
      "inputs": [],
      "name": "minInstallmentAmountBps",
      "outputs": [
        {
          "internalType": "uint16",
          "name": "",
          "type": "uint16"
        }
      ],
      "stateMutability": "view",
      "type": "function"
    },
    {
      "inputs": [
        {
          "internalType": "uint256",
          "name": "id",
          "type": "uint256"
        }
      ],
      "name": "nominalInstallment",
      "outputs": [
        {
          "internalType": "uint256",
          "name": "principalPart",
          "type": "uint256"
        },
        {
          "internalType": "uint256",
          "name": "feePart",
          "type": "uint256"
        }
      ],
      "stateMutability": "view",
      "type": "function"
    },
    {
      "inputs": [
        {
          "internalType": "uint256",
          "name": "",
          "type": "uint256"
        }
      ],
      "name": "orders",
      "outputs": [
        {
          "internalType": "address",
          "name": "buyer",
          "type": "address"
        },
        {
          "internalType": "address",
          "name": "merchant",
          "type": "address"
        },
        {
          "internalType": "uint256",
          "name": "principal",
          "type": "uint256"
        },
        {
          "internalType": "uint256",
          "name": "collateral",
          "type": "uint256"
        },
        {
          "internalType": "uint256",
          "name": "totalFee",
          "type": "uint256"
        },
        {
          "internalType": "uint256",
          "name": "createdAt",
          "type": "uint256"
        },
        {
          "internalType": "uint256",
          "name": "dueAt",
          "type": "uint256"
        },
        {
          "internalType": "uint256",
          "name": "installments",
          "type": "uint256"
        },
        {
          "internalType": "uint256",
          "name": "nominalPrincipal",
          "type": "uint256"
        },
        {
          "internalType": "uint256",
          "name": "nominalFee",
          "type": "uint256"
        },
        {
          "internalType": "uint256",
          "name": "paidPrincipal",
          "type": "uint256"
        },
        {
          "internalType": "uint256",
          "name": "paidFee",
          "type": "uint256"
        },
        {
          "internalType": "uint256",
          "name": "paidInstallments",
          "type": "uint256"
        },
        {
          "internalType": "bool",
          "name": "closed",
          "type": "bool"
        }
      ],
      "stateMutability": "view",
      "type": "function"
    },
    {
      "inputs": [],
      "name": "owner",
      "outputs": [
        {
          "internalType": "address",
          "name": "",
          "type": "address"
        }
      ],
      "stateMutability": "view",
      "type": "function"
    },
    {
      "inputs": [
        {
          "internalType": "uint256",
          "name": "purchaseAmount",
          "type": "uint256"
        },
        {
          "internalType": "address",
          "name": "buyer",
          "type": "address"
        }
      ],
      "name": "quote",
      "outputs": [
        {
          "internalType": "uint256",
          "name": "collateralRequired",
          "type": "uint256"
        },
        {
          "internalType": "uint256",
          "name": "totalFee",
          "type": "uint256"
        }
      ],
      "stateMutability": "view",
      "type": "function"
    },
    {
      "inputs": [],
      "name": "renounceOwnership",
      "outputs": [],
      "stateMutability": "nonpayable",
      "type": "function"
    },
    {
      "inputs": [],
      "name": "repayScoreIncrease",
      "outputs": [
        {
          "internalType": "uint16",
          "name": "",
          "type": "uint16"
        }
      ],
      "stateMutability": "view",
      "type": "function"
    },
    {
      "inputs": [
        {
          "internalType": "address",
          "name": "who",
          "type": "address"
        },
        {
          "internalType": "uint16",
          "name": "score",
          "type": "uint16"
        }
      ],
      "name": "setCreditScore",
      "outputs": [],
      "stateMutability": "nonpayable",
      "type": "function"
    },
    {
      "inputs": [
        {
          "internalType": "uint16",
          "name": "bps",
          "type": "uint16"
        }
      ],
      "name": "setEarlyRepayDiscountBps",
      "outputs": [],
      "stateMutability": "nonpayable",
      "type": "function"
    },
    {
      "inputs": [
        {
          "internalType": "uint256",
          "name": "_max",
          "type": "uint256"
        }
      ],
      "name": "setMaxPurchasePerOrder",
      "outputs": [],
      "stateMutability": "nonpayable",
      "type": "function"
    },
    {
      "inputs": [
        {
          "internalType": "uint16",
          "name": "bps",
          "type": "uint16"
        }
      ],
      "name": "setMinInstallmentAmountBps",
      "outputs": [],
      "stateMutability": "nonpayable",
      "type": "function"
    },
    {
      "inputs": [
        {
          "internalType": "uint16",
          "name": "repayInc",
          "type": "uint16"
        },
        {
          "internalType": "uint16",
          "name": "liqDec",
          "type": "uint16"
        }
      ],
      "name": "setScoreDeltas",
      "outputs": [],
      "stateMutability": "nonpayable",
      "type": "function"
    },
    {
      "inputs": [
        {
          "internalType": "uint256",
          "name": "idx",
          "type": "uint256"
        },
        {
          "internalType": "uint256",
          "name": "minScore",
          "type": "uint256"
        },
        {
          "internalType": "uint16",
          "name": "collateralBps",
          "type": "uint16"
        },
        {
          "internalType": "uint16",
          "name": "feeBps",
          "type": "uint16"
        },
        {
          "internalType": "uint256",
          "name": "maxLoan",
          "type": "uint256"
        }
      ],
      "name": "setTier",
      "outputs": [],
      "stateMutability": "nonpayable",
      "type": "function"
    },
    {
      "inputs": [
        {
          "internalType": "address",
          "name": "_treasury",
          "type": "address"
        }
      ],
      "name": "setTreasury",
      "outputs": [],
      "stateMutability": "nonpayable",
      "type": "function"
    },
    {
      "inputs": [
        {
          "internalType": "uint256",
          "name": "",
          "type": "uint256"
        }
      ],
      "name": "tiers",
      "outputs": [
        {
          "internalType": "uint256",
          "name": "minScore",
          "type": "uint256"
        },
        {
          "internalType": "uint16",
          "name": "collateralBps",
          "type": "uint16"
        },
        {
          "internalType": "uint16",
          "name": "feeBps",
          "type": "uint16"
        },
        {
          "internalType": "uint256",
          "name": "maxLoan",
          "type": "uint256"
        }
      ],
      "stateMutability": "view",
      "type": "function"
    },
    {
      "inputs": [],
      "name": "token",
      "outputs": [
        {
          "internalType": "contract IERC20",
          "name": "",
          "type": "address"
        }
      ],
      "stateMutability": "view",
      "type": "function"
    },
    {
      "inputs": [
        {
          "internalType": "uint256",
          "name": "id",
          "type": "uint256"
        }
      ],
      "name": "totalDue",
      "outputs": [
        {
          "internalType": "uint256",
          "name": "",
          "type": "uint256"
        }
      ],
      "stateMutability": "view",
      "type": "function"
    },
    {
      "inputs": [
        {
          "internalType": "address",
          "name": "newOwner",
          "type": "address"
        }
      ],
      "name": "transferOwnership",
      "outputs": [],
      "stateMutability": "nonpayable",
      "type": "function"
    },
    {
      "inputs": [],
      "name": "treasury",
      "outputs": [
        {
          "internalType": "address",
          "name": "",
          "type": "address"
        }
      ],
      "stateMutability": "view",
      "type": "function"
    },
    {
      "inputs": [
        {
          "internalType": "address",
          "name": "to",
          "type": "address"
        },
        {
          "internalType": "uint256",
          "name": "amount",
          "type": "uint256"
        }
      ],
      "name": "withdrawLiquidity",
      "outputs": [],
      "stateMutability": "nonpayable",
      "type": "function"
    }
  ],
  "bytecode": "0x60a034620002b257601f62001af138819003918201601f191683019291906001600160401b03841183851017620002b757816101009284926040968752833981010312620002b2576200005281620002ed565b602080830151909290916001600160a01b039190828416808503620002b2576200007e878401620002ed565b91606084015195620000936080860162000302565b95620000a260a0870162000302565b94620000bf60e0620000b760c08a0162000302565b980162000302565b94620000cb3362000397565b6001805515620002845716908115620002535761ffff92838516801515908162000245575b501562000218579365ffff0000000093600a98969363ffff0000936200011d620001e59d9c9a9862000397565b60805260018060a01b031960025416176002558760035567ffff0000000000006007549260301b1696169060018060401b031916179160101b161791861b1617176007556200018d6200016f620002cd565b6102ee81526107d08582015260c88782015282606082015262000312565b620001bd6200019b620002cd565b6102588152610fa085820152610190878201528260011c606082015262000312565b611f40620001ca620002cd565b93600085528401526103208584015204606082015262000312565b516117129081620003df823960805181818161018b015281816103d90152818161095901528181610afe0152610fa40152f35b8a5162461bcd60e51b8152600481018b905260066024820152656d696e42707360d01b6044820152606490fd5b6127109150111538620000f0565b895162461bcd60e51b8152600481018a9052600a602482015269074726561737572793d360b41b6044820152606490fd5b8a5162461bcd60e51b8152600481018b905260076024820152660746f6b656e3d360cc1b6044820152606490fd5b600080fd5b634e487b7160e01b600052604160045260246000fd5b60405190608082016001600160401b03811183821017620002b757604052565b51906001600160a01b0382168203620002b257565b519061ffff82168203620002b257565b60065468010000000000000000811015620002b75760018101806006558110156200038157606060029160066000526003602060002091020192805184556001840161ffff60208301511681549063ffff0000604085015160101b169163ffffffff1916171790550151910155565b634e487b7160e01b600052603260045260246000fd5b600080546001600160a01b039283166001600160a01b03198216811783559216907f8be0079c531659141344cd1fd0a4f28419497f9722a3daafe3b4186f6b6457e09080a356fe608080604052600436101561001357600080fd5b600090813560e01c90816301f28d911461103257508063039af9eb14610fd657806306d47de914610f3657806313b0be3314610e825780631dd0c13f14610e60578063285eb37314610db85780633a5d8d6c14610d8157806344dac75b14610d2d5780635662ecc714610d0f57806361d027b314610ce6578063715018a614610c8c57806373c5ca0914610b855780637437535914610ad2578063752df2db146109dc578063784aee35146109a75780638da5cb5b1461098057806395ccea671461091a5780639c21c3a1146108f6578063a8311c3b146108d1578063a85c38ef14610803578063a8841db9146107de578063be02075214610780578063d09ef241146105b2578063e02ef565146104b9578063e5eeb32c14610492578063ec14476f14610474578063f0f437b614610368578063f0f44260146102bc578063f2fde38b146101fb578063f7e590ee146101bd5763fc0c546a1461017657600080fd5b346101ba57806003193601126101ba576040517f00000000000000000000000000000000000000000000000000000000000000006001600160a01b03168152602090f35b80fd5b50346101ba5760203660031901126101ba5760209061ffff906040906001600160a01b036101e961109f565b16815260058452205416604051908152f35b50346101ba5760203660031901126101ba5761021561109f565b61021d6110ed565b6001600160a01b039081169081156102685782546001600160a01b0319811683178455167f8be0079c531659141344cd1fd0a4f28419497f9722a3daafe3b4186f6b6457e08380a380f35b60405162461bcd60e51b815260206004820152602660248201527f4f776e61626c653a206e6577206f776e657220697320746865207a65726f206160448201526564647265737360d01b6064820152608490fd5b50346101ba5760203660031901126101ba576102d661109f565b6102de6110ed565b6001600160a01b03908116908115610336577f4ab5be82436d353e61ca18726e984e561f5c1cc7c6d38b29d2553c790434705a60406002549281519084168152846020820152a16001600160a01b0319161760025580f35b60405162461bcd60e51b815260206004820152600a602482015269074726561737572793d360b41b6044820152606490fd5b50346101ba5760203660031901126101ba576004356103856110ed565b61038d611267565b8015610444576040516323b872dd60e01b60208201523360248201523060448201526064808201839052815260a0810167ffffffffffffffff811182821017610430576040526103fd907f00000000000000000000000000000000000000000000000000000000000000006112bd565b6040519081527fbb9e497a5b82d1a37f9496dd70c6efb97ba0d98c66c3422d05010105d063359860203392a26001805580f35b634e487b7160e01b84526041600452602484fd5b60405162461bcd60e51b81526020600482015260086024820152670616d6f756e743d360c41b6044820152606490fd5b50346101ba57806003193601126101ba576020600354604051908152f35b50346101ba5760203660031901126101ba5760206104b1600435611553565b604051908152f35b50346101ba5760a03660031901126101ba576004356104d66110dc565b6064359161ffff918284168094036105ae576104f06110ed565b600654821015610583577ffe2efe9272eb0deb4938823c5d646855a80e10848bf50af99ef34310d8f92b8d9360209361056e92169061053c612710808411159081610578575b50611145565b604051916105498361117d565b602435835285830152604082015260843560608201526105688361104e565b906111ee565b604051908152a180f35b905082111538610536565b60405162461bcd60e51b81526020600482015260036024820152620d2c8f60eb1b6044820152606490fd5b8480fd5b50346101ba5760203660031901126101ba576040816101c0926101a083516105d9816111af565b82815282602082015282858201528260608201528260808201528260a08201528260c08201528260e08201528261010082015282610120820152826101408201528261016082015282610180820152015260043581526008602052206101a0604051610644816111af565b60ff600d60018060a01b038554169485845260018060a01b036001820154166020850152600281015460408501526003810154606085015260048101546080850152600581015460a0850152600681015460c0850152600781015460e085015260088101546101008501526009810154610120850152600a810154610140850152600b810154610160850152600c81015461018085015201541615158282015260405192835260018060a01b03602082015116602084015260408101516040840152606081015160608401526080810151608084015260a081015160a084015260c081015160c084015260e081015160e0840152610100810151610100840152610120810151610120840152610140810151610140840152610160810151610160840152610180810151610180840152015115156101a0820152f35b50346101ba5760403660031901126101ba5761079a6110ba565b6107a26110cb565b6107aa6110ed565b61ffff63ffff00006007549260101b1692169063ffffffff191617176007556000805160206116bd8339815191528180a180f35b50346101ba57806003193601126101ba57602061ffff60075460101c16604051908152f35b50346101ba5760203660031901126101ba5760406101c091600435815260086020522060018060a01b039081815416916001820154169060028101546003820154600483015460058401546006850154600786015490600887015492600988015494600a89015496600b8a01549860ff600d600c8d01549c0154169b60206040519e8f908152015260408d015260608c015260808b015260a08a015260c089015260e088015261010087015261012086015261014085015261016084015261018083015215156101a0820152f35b50346101ba57806003193601126101ba57602061ffff60075460301c16604051908152f35b50346101ba57806003193601126101ba57602060075461ffff60405191831c168152f35b50346101ba5760403660031901126101ba5761097d61093761109f565b61093f6110ed565b6109536001600160a01b03821615156114e1565b602435907f0000000000000000000000000000000000000000000000000000000000000000611513565b80f35b50346101ba57806003193601126101ba57546040516001600160a01b039091168152602090f35b50346101ba5760203660031901126101ba576109c16110ed565b6004356003556000805160206116bd8339815191528180a180f35b50346101ba5760403660031901126101ba576109f661109f565b6109fe6110cb565b90610a076110ed565b6001600160a01b0316908115610aa55761ffff8091166103e88111610a73577ff0476f83a777b892446c4939723caba7d89f8de16505f4dfe3c17f8b1dda4868916040918486526005602052828620918254928261ffff1985161790558351921682526020820152a280f35b60405162461bcd60e51b815260206004820152600a602482015269073636f72653e313030360b41b6044820152606490fd5b60405162461bcd60e51b8152602060048201526005602482015264077686f3d360dc1b6044820152606490fd5b50346101ba57806003193601126101ba576040516370a0823160e01b81523060048201526020816024817f00000000000000000000000000000000000000000000000000000000000000006001600160a01b03165afa908115610b7a578291610b41575b602082604051908152f35b90506020813d8211610b72575b81610b5b602093836111cc565b81010312610b6e57602091505138610b36565b5080fd5b3d9150610b4e565b6040513d84823e3d90fd5b50346101ba5760803660031901126101ba57610b9f6110cb565b610ba76110dc565b90610bb06110ed565b61ffff80911691610bcd612710808511159081610c7f5750611145565b60405192610bda8461117d565b60043584526020840152166040820152606435606082015260065468010000000000000000811015610c6b5790610568826001610c1a940160065561104e565b6006546000198101908111610c575760207ffe2efe9272eb0deb4938823c5d646855a80e10848bf50af99ef34310d8f92b8d91604051908152a180f35b634e487b7160e01b82526011600452602482fd5b634e487b7160e01b83526041600452602483fd5b9050838316111538610536565b50346101ba57806003193601126101ba57610ca56110ed565b80546001600160a01b03198116825581906001600160a01b03167f8be0079c531659141344cd1fd0a4f28419497f9722a3daafe3b4186f6b6457e08280a380f35b50346101ba57806003193601126101ba576002546040516001600160a01b039091168152602090f35b50346101ba57806003193601126101ba576020600454604051908152f35b50346101ba5760203660031901126101ba57610d476110ba565b610d4f6110ed565b65ffff000000006007549160201b169065ffff000000001916176007556000805160206116bd8339815191528180a180f35b50346101ba5760203660031901126101ba576040809160043581526008602052206009600882015491015482519182526020820152f35b50346101ba5760203660031901126101ba57610dd26110ba565b610dda6110ed565b61ffff81168015159081610e53575b5015610e255767ffff0000000000006007549160301b169067ffff0000000000001916176007556000805160206116bd8339815191528180a180f35b60405162461bcd60e51b81526020600482015260066024820152656d696e42707360d01b6044820152606490fd5b6127109150111538610de9565b50346101ba57806003193601126101ba57602061ffff60075416604051908152f35b50346101ba5760403660031901126101ba5760043590602435906001600160a01b03821682036101ba5750610eb6906115f0565b60608101518211610ef957604091610eeb6127109161ffff602084610ee0838989015116856115a5565b0495015116906115a5565b049082519182526020820152f35b60405162461bcd60e51b815260206004820152601560248201527432bc31b2b2b239903a34b2b91036b0bc103637b0b760591b6044820152606490fd5b50346101ba5760403660031901126101ba57610f5061109f565b7fb1cce8684b4ffa8667b4577654e61ee3480d661ee9c27522ac80e211f6bd4d256020602435610f7e6110ed565b610f86611267565b6001600160a01b03841693610fc8908290610fa28715156114e1565b7f0000000000000000000000000000000000000000000000000000000000000000611513565b604051908152a26001805580f35b50346101ba5760203660031901126101ba57600435906006548210156101ba5760806110018361104e565b50805490600260018201549101549060405192835261ffff90818116602085015260101c1660408301526060820152f35b905034610b6e5781600319360112610b6e576020906006548152f35b600654811015611089576003906006600052027ff652222313e28459528d920b65115c16c04f3efc82aaedc97be59f3f377c0d3f0190600090565b634e487b7160e01b600052603260045260246000fd5b600435906001600160a01b03821682036110b557565b600080fd5b6004359061ffff821682036110b557565b6024359061ffff821682036110b557565b6044359061ffff821682036110b557565b6000546001600160a01b0316330361110157565b606460405162461bcd60e51b815260206004820152602060248201527f4f776e61626c653a2063616c6c6572206973206e6f7420746865206f776e65726044820152fd5b1561114c57565b60405162461bcd60e51b815260206004820152600960248201526806270733e31303030360bc1b6044820152606490fd5b6080810190811067ffffffffffffffff82111761119957604052565b634e487b7160e01b600052604160045260246000fd5b6101c0810190811067ffffffffffffffff82111761119957604052565b90601f8019910116810190811067ffffffffffffffff82111761119957604052565b919061122e576060816002925184556001840161ffff60208301511681549063ffff0000604085015160101b169163ffffffff1916171790550151910155565b634e487b7160e01b600052600060045260246000fd5b9190820391821161125157565b634e487b7160e01b600052601160045260246000fd5b600260015414611278576002600155565b60405162461bcd60e51b815260206004820152601f60248201527f5265656e7472616e637947756172643a207265656e7472616e742063616c6c006044820152606490fd5b60018060a01b0316906040516040810167ffffffffffffffff9082811082821117611199576040526020938483527f5361666545524332303a206c6f772d6c6576656c2063616c6c206661696c6564858401526000808587829751910182855af1903d15611402573d9283116113ee57906113589392916040519261134b88601f19601f84011601856111cc565b83523d868885013e61140d565b8051918215918483156113ca575b5050509050156113735750565b6084906040519062461bcd60e51b82526004820152602a60248201527f5361666545524332303a204552433230206f7065726174696f6e20646964206e6044820152691bdd081cdd58d8d9595960b21b6064820152fd5b919381809450010312610b6e578201519081151582036101ba575080388084611366565b634e487b7160e01b85526041600452602485fd5b906113589392506060915b9192901561146f5750815115611421575090565b3b1561142a5790565b60405162461bcd60e51b815260206004820152601d60248201527f416464726573733a2063616c6c20746f206e6f6e2d636f6e74726163740000006044820152606490fd5b8251909150156114825750805190602001fd5b6040519062461bcd60e51b82528160208060048301528251908160248401526000935b8285106114c8575050604492506000838284010152601f80199101168101030190fd5b84810182015186860160440152938101938593506114a5565b156114e857565b606460405162461bcd60e51b81526020600482015260046024820152630746f3d360e41b6044820152fd5b60405163a9059cbb60e01b60208201526001600160a01b0390921660248301526044808301939093529181526115519161154c8261117d565b6112bd565b565b6000526008602052604060002060ff600d8201541661159f576115936115826002830154600a84015490611244565b91600b600482015491015490611244565b81018091116112515790565b50600090565b8181029291811591840414171561125157565b906040516115c58161117d565b60606002829480548452600181015461ffff90818116602087015260101c1660408501520154910152565b6060906040516115ff8161117d565b6000928184809352826020820152826040820152015260018060a01b03168152600560205261ffff604082205416908091600654925b8381106116745750506000198201918211611660575061165761165d9161104e565b506115b8565b90565b634e487b7160e01b81526011600452602490fd5b61167d8161104e565b50548210156116ab57600019811461169757600101611635565b634e487b7160e01b83526011600452602483fd5b905061165d9250611657915061104e56fe4e5005547c24dfd12003c2845fd20f2071c49fa3cd30b0be7a064e3f4c3f8d2aa2646970667358221220dca437c704ef01455e569368dbd22e557d77a5feb416d839f9bcdc4ef3ecf19064736f6c63430008120033",
  "linkReferences": {},
  "deployedLinkReferences": {}
}