{
  "_format": "hh-sol-artifact-1",
  "contractName": "BNPLOrders",
  "sourceName": "src/buy-now-pay-later/BNPLOrders.sol",
  "abi": [
    {
      "inputs": [
        {
          "internalType": "address",
          "name": "initialOwner",
          "type": "address"
        },
        {
          "internalType": "contract IERC20",
          "name": "_token",
          "type": "address"
        },
        {
          "internalType": "address",
          "name": "_treasury",
          "type": "address"
        },
        {
          "internalType": "uint256",
          "name": "_maxPurchasePerOrder",
          "type": "uint256"
        },
        {
          "internalType": "uint16",
          "name": "_repayScoreIncrease",
          "type": "uint16"
        },
        {
          "internalType": "uint16",
          "name": "_liquidateScoreDecrease",
          "type": "uint16"
        },
        {
          "internalType": "uint16",
          "name": "_earlyRepayDiscountBps",
          "type": "uint16"
        },
        {
          "internalType": "uint16",
          "name": "_minInstallmentAmountBps",
          "type": "uint16"
        }
      ],
      "stateMutability": "nonpayable",
      "type": "constructor"
    },
    {
      "anonymous": false,
      "inputs": [
        {
          "indexed": true,
          "internalType": "address",
          "name": "who",
          "type": "address"
        },
        {
          "indexed": false,
          "internalType": "uint16",
          "name": "oldScore",
          "type": "uint16"
        },
        {
          "indexed": false,
          "internalType": "uint16",
          "name": "newScore",
          "type": "uint16"
        }
      ],
      "name": "CreditScoreUpdated",
      "type": "event"
    },
    {
      "anonymous": false,
      "inputs": [
        {
          "indexed": true,
          "internalType": "uint256",
          "name": "id",
          "type": "uint256"
        },
        {
          "indexed": true,
          "internalType": "address",
          "name": "payer",
          "type": "address"
        },
        {
          "indexed": false,
          "internalType": "uint256",
          "name": "amount",
          "type": "uint256"
        },
        {
          "indexed": false,
          "internalType": "uint256",
          "name": "paidPrincipal",
          "type": "uint256"
        },
        {
          "indexed": false,
          "internalType": "uint256",
          "name": "paidFee",
          "type": "uint256"
        }
      ],
      "name": "InstallmentPaid",
      "type": "event"
    },
    {
      "anonymous": false,
      "inputs": [
        {
          "indexed": true,
          "internalType": "address",
          "name": "from",
          "type": "address"
        },
        {
          "indexed": false,
          "internalType": "uint256",
          "name": "amount",
          "type": "uint256"
        }
      ],
      "name": "LiquidityFunded",
      "type": "event"
    },
    {
      "anonymous": false,
      "inputs": [
        {
          "indexed": true,
          "internalType": "address",
          "name": "to",
          "type": "address"
        },
        {
          "indexed": false,
          "internalType": "uint256",
          "name": "amount",
          "type": "uint256"
        }
      ],
      "name": "LiquidityWithdrawn",
      "type": "event"
    },
    {
      "anonymous": false,
      "inputs": [
        {
          "indexed": true,
          "internalType": "uint256",
          "name": "id",
          "type": "uint256"
        },
        {
          "indexed": true,
          "internalType": "address",
          "name": "buyer",
          "type": "address"
        },
        {
          "indexed": true,
          "internalType": "address",
          "name": "merchant",
          "type": "address"
        },
        {
          "indexed": false,
          "internalType": "uint256",
          "name": "principal",
          "type": "uint256"
        },
        {
          "indexed": false,
          "internalType": "uint256",
          "name": "collateral",
          "type": "uint256"
        },
        {
          "indexed": false,
          "internalType": "uint256",
          "name": "totalFee",
          "type": "uint256"
        },
        {
          "indexed": false,
          "internalType": "uint256",
          "name": "dueAt",
          "type": "uint256"
        },
        {
          "indexed": false,
          "internalType": "uint256",
          "name": "installments",
          "type": "uint256"
        }
      ],
      "name": "OrderCreated",
      "type": "event"
    },
    {
      "anonymous": false,
      "inputs": [
        {
          "indexed": true,
          "internalType": "uint256",
          "name": "id",
          "type": "uint256"
        },
        {
          "indexed": true,
          "internalType": "address",
          "name": "payer",
          "type": "address"
        },
        {
          "indexed": false,
          "internalType": "uint256",
          "name": "totalPaid",
          "type": "uint256"
        },
        {
          "indexed": false,
          "internalType": "uint256",
          "name": "feeDiscount",
          "type": "uint256"
        }
      ],
      "name": "OrderFullyRepaid",
      "type": "event"
    },
    {
      "anonymous": false,
      "inputs": [
        {
          "indexed": true,
          "internalType": "uint256",
          "name": "id",
          "type": "uint256"
        },
        {
          "indexed": false,
          "internalType": "uint256",
          "name": "seizedCollateral",
          "type": "uint256"
        }
      ],
      "name": "OrderLiquidated",
      "type": "event"
    },
    {
      "anonymous": false,
      "inputs": [
        {
          "indexed": true,
          "internalType": "address",
          "name": "previousOwner",
          "type": "address"
        },
        {
          "indexed": true,
          "internalType": "address",
          "name": "newOwner",
          "type": "address"
        }
      ],
      "name": "OwnershipTransferred",
      "type": "event"
    },
    {
      "anonymous": false,
      "inputs": [],
      "name": "ParamsUpdated",
      "type": "event"
    },
    {
      "anonymous": false,
      "inputs": [
        {
          "indexed": false,
          "internalType": "uint256",
          "name": "idx",
          "type": "uint256"
        }
      ],
      "name": "TierUpdated",
      "type": "event"
    },
    {
      "anonymous": false,
      "inputs": [
        {
          "indexed": false,
          "internalType": "address",
          "name": "oldTreasury",
          "type": "address"
        },
        {
          "indexed": false,
          "internalType": "address",
          "name": "newTreasury",
          "type": "address"
        }
      ],
      "name": "TreasuryUpdated",
      "type": "event"
    },
    {
      "inputs": [
        {
          "internalType": "uint256",
          "name": "minScore",
          "type": "uint256"
        },
        {
          "internalType": "uint16",
          "name": "collateralBps",
          "type": "uint16"
        },
        {
          "internalType": "uint16",
          "name": "feeBps",
          "type": "uint16"
        },
        {
          "internalType": "uint256",
          "name": "maxLoan",
          "type": "uint256"
        }
      ],
      "name": "addTier",
      "outputs": [],
      "stateMutability": "nonpayable",
      "type": "function"
    },
    {
      "inputs": [],
      "name": "availableLiquidity",
      "outputs": [
        {
          "internalType": "uint256",
          "name": "",
          "type": "uint256"
        }
      ],
      "stateMutability": "view",
      "type": "function"
    },
    {
      "inputs": [
        {
          "internalType": "uint256",
          "name": "purchaseAmount",
          "type": "uint256"
        },
        {
          "internalType": "address",
          "name": "merchant",
          "type": "address"
        },
        {
          "internalType": "uint256",
          "name": "dueAt",
          "type": "uint256"
        },
        {
          "internalType": "uint256",
          "name": "installments",
          "type": "uint256"
        }
      ],
      "name": "createOrder",
      "outputs": [
        {
          "internalType": "uint256",
          "name": "",
          "type": "uint256"
        }
      ],
      "stateMutability": "nonpayable",
      "type": "function"
    },
    {
      "inputs": [
        {
          "internalType": "address",
          "name": "",
          "type": "address"
        }
      ],
      "name": "creditScore",
      "outputs": [
        {
          "internalType": "uint16",
          "name": "",
          "type": "uint16"
        }
      ],
      "stateMutability": "view",
      "type": "function"
    },
    {
      "inputs": [],
      "name": "earlyRepayDiscountBps",
      "outputs": [
        {
          "internalType": "uint16",
          "name": "",
          "type": "uint16"
        }
      ],
      "stateMutability": "view",
      "type": "function"
    },
    {
      "inputs": [
        {
          "internalType": "address",
          "name": "to",
          "type": "address"
        },
        {
          "internalType": "uint256",
          "name": "amount",
          "type": "uint256"
        }
      ],
      "name": "emergencyWithdraw",
      "outputs": [],
      "stateMutability": "nonpayable",
      "type": "function"
    },
    {
      "inputs": [
        {
          "internalType": "uint256",
          "name": "amount",
          "type": "uint256"
        }
      ],
      "name": "fundLiquidity",
      "outputs": [],
      "stateMutability": "nonpayable",
      "type": "function"
    },
    {
      "inputs": [
        {
          "internalType": "uint256",
          "name": "id",
          "type": "uint256"
        }
      ],
      "name": "getOrder",
      "outputs": [
        {
          "components": [
            {
              "internalType": "address",
              "name": "buyer",
              "type": "address"
            },
            {
              "internalType": "address",
              "name": "merchant",
              "type": "address"
            },
            {
              "internalType": "uint256",
              "name": "principal",
              "type": "uint256"
            },
            {
              "internalType": "uint256",
              "name": "collateral",
              "type": "uint256"
            },
            {
              "internalType": "uint256",
              "name": "totalFee",
              "type": "uint256"
            },
            {
              "internalType": "uint256",
              "name": "createdAt",
              "type": "uint256"
            },
            {
              "internalType": "uint256",
              "name": "dueAt",
              "type": "uint256"
            },
            {
              "internalType": "uint256",
              "name": "installments",
              "type": "uint256"
            },
            {
              "internalType": "uint256",
              "name": "nominalPrincipal",
              "type": "uint256"
            },
            {
              "internalType": "uint256",
              "name": "nominalFee",
              "type": "uint256"
            },
            {
              "internalType": "uint256",
              "name": "paidPrincipal",
              "type": "uint256"
            },
            {
              "internalType": "uint256",
              "name": "paidFee",
              "type": "uint256"
            },
            {
              "internalType": "uint256",
              "name": "paidInstallments",
              "type": "uint256"
            },
            {
              "internalType": "bool",
              "name": "closed",
              "type": "bool"
            }
          ],
          "internalType": "struct IBNPLStructs.Order",
          "name": "",
          "type": "tuple"
        }
      ],
      "stateMutability": "view",
      "type": "function"
    },
    {
      "inputs": [],
      "name": "getTiersCount",
      "outputs": [
        {
          "internalType": "uint256",
          "name": "",
          "type": "uint256"
        }
      ],
      "stateMutability": "view",
      "type": "function"
    },
    {
      "inputs": [],
      "name": "lastOrderId",
      "outputs": [
        {
          "internalType": "uint256",
          "name": "",
          "type": "uint256"
        }
      ],
      "stateMutability": "view",
      "type": "function"
    },
    {
      "inputs": [
        {
          "internalType": "uint256",
          "name": "id",
          "type": "uint256"
        }
      ],
      "name": "liquidate",
      "outputs": [],
      "stateMutability": "nonpayable",
      "type": "function"
    },
    {
      "inputs": [],
      "name": "liquidateScoreDecrease",
      "outputs": [
        {
          "internalType": "uint16",
          "name": "",
          "type": "uint16"
        }
      ],
      "stateMutability": "view",
      "type": "function"
    },
    {
      "inputs": [],
      "name": "maxPurchasePerOrder",
      "outputs": [
        {
          "internalType": "uint256",
          "name": "",
          "type": "uint256"
        }
      ],
      "stateMutability": "view",
      "type": "function"
    },
    {
      "inputs": [],
      "name": "minInstallmentAmountBps",
      "outputs": [
        {
          "internalType": "uint16",
          "name": "",
          "type": "uint16"
        }
      ],
      "stateMutability": "view",
      "type": "function"
    },
    {
      "inputs": [
        {
          "internalType": "uint256",
          "name": "id",
          "type": "uint256"
        }
      ],
      "name": "nominalInstallment",
      "outputs": [
        {
          "internalType": "uint256",
          "name": "principalPart",
          "type": "uint256"
        },
        {
          "internalType": "uint256",
          "name": "feePart",
          "type": "uint256"
        }
      ],
      "stateMutability": "view",
      "type": "function"
    },
    {
      "inputs": [
        {
          "internalType": "uint256",
          "name": "",
          "type": "uint256"
        }
      ],
      "name": "orders",
      "outputs": [
        {
          "internalType": "address",
          "name": "buyer",
          "type": "address"
        },
        {
          "internalType": "address",
          "name": "merchant",
          "type": "address"
        },
        {
          "internalType": "uint256",
          "name": "principal",
          "type": "uint256"
        },
        {
          "internalType": "uint256",
          "name": "collateral",
          "type": "uint256"
        },
        {
          "internalType": "uint256",
          "name": "totalFee",
          "type": "uint256"
        },
        {
          "internalType": "uint256",
          "name": "createdAt",
          "type": "uint256"
        },
        {
          "internalType": "uint256",
          "name": "dueAt",
          "type": "uint256"
        },
        {
          "internalType": "uint256",
          "name": "installments",
          "type": "uint256"
        },
        {
          "internalType": "uint256",
          "name": "nominalPrincipal",
          "type": "uint256"
        },
        {
          "internalType": "uint256",
          "name": "nominalFee",
          "type": "uint256"
        },
        {
          "internalType": "uint256",
          "name": "paidPrincipal",
          "type": "uint256"
        },
        {
          "internalType": "uint256",
          "name": "paidFee",
          "type": "uint256"
        },
        {
          "internalType": "uint256",
          "name": "paidInstallments",
          "type": "uint256"
        },
        {
          "internalType": "bool",
          "name": "closed",
          "type": "bool"
        }
      ],
      "stateMutability": "view",
      "type": "function"
    },
    {
      "inputs": [],
      "name": "owner",
      "outputs": [
        {
          "internalType": "address",
          "name": "",
          "type": "address"
        }
      ],
      "stateMutability": "view",
      "type": "function"
    },
    {
      "inputs": [
        {
          "internalType": "uint256",
          "name": "purchaseAmount",
          "type": "uint256"
        },
        {
          "internalType": "address",
          "name": "buyer",
          "type": "address"
        }
      ],
      "name": "quote",
      "outputs": [
        {
          "internalType": "uint256",
          "name": "collateralRequired",
          "type": "uint256"
        },
        {
          "internalType": "uint256",
          "name": "totalFee",
          "type": "uint256"
        }
      ],
      "stateMutability": "view",
      "type": "function"
    },
    {
      "inputs": [],
      "name": "renounceOwnership",
      "outputs": [],
      "stateMutability": "nonpayable",
      "type": "function"
    },
    {
      "inputs": [],
      "name": "repayScoreIncrease",
      "outputs": [
        {
          "internalType": "uint16",
          "name": "",
          "type": "uint16"
        }
      ],
      "stateMutability": "view",
      "type": "function"
    },
    {
      "inputs": [
        {
          "internalType": "address",
          "name": "who",
          "type": "address"
        },
        {
          "internalType": "uint16",
          "name": "score",
          "type": "uint16"
        }
      ],
      "name": "setCreditScore",
      "outputs": [],
      "stateMutability": "nonpayable",
      "type": "function"
    },
    {
      "inputs": [
        {
          "internalType": "uint16",
          "name": "bps",
          "type": "uint16"
        }
      ],
      "name": "setEarlyRepayDiscountBps",
      "outputs": [],
      "stateMutability": "nonpayable",
      "type": "function"
    },
    {
      "inputs": [
        {
          "internalType": "uint256",
          "name": "_max",
          "type": "uint256"
        }
      ],
      "name": "setMaxPurchasePerOrder",
      "outputs": [],
      "stateMutability": "nonpayable",
      "type": "function"
    },
    {
      "inputs": [
        {
          "internalType": "uint16",
          "name": "bps",
          "type": "uint16"
        }
      ],
      "name": "setMinInstallmentAmountBps",
      "outputs": [],
      "stateMutability": "nonpayable",
      "type": "function"
    },
    {
      "inputs": [
        {
          "internalType": "uint16",
          "name": "repayInc",
          "type": "uint16"
        },
        {
          "internalType": "uint16",
          "name": "liqDec",
          "type": "uint16"
        }
      ],
      "name": "setScoreDeltas",
      "outputs": [],
      "stateMutability": "nonpayable",
      "type": "function"
    },
    {
      "inputs": [
        {
          "internalType": "uint256",
          "name": "idx",
          "type": "uint256"
        },
        {
          "internalType": "uint256",
          "name": "minScore",
          "type": "uint256"
        },
        {
          "internalType": "uint16",
          "name": "collateralBps",
          "type": "uint16"
        },
        {
          "internalType": "uint16",
          "name": "feeBps",
          "type": "uint16"
        },
        {
          "internalType": "uint256",
          "name": "maxLoan",
          "type": "uint256"
        }
      ],
      "name": "setTier",
      "outputs": [],
      "stateMutability": "nonpayable",
      "type": "function"
    },
    {
      "inputs": [
        {
          "internalType": "address",
          "name": "_treasury",
          "type": "address"
        }
      ],
      "name": "setTreasury",
      "outputs": [],
      "stateMutability": "nonpayable",
      "type": "function"
    },
    {
      "inputs": [
        {
          "internalType": "uint256",
          "name": "",
          "type": "uint256"
        }
      ],
      "name": "tiers",
      "outputs": [
        {
          "internalType": "uint256",
          "name": "minScore",
          "type": "uint256"
        },
        {
          "internalType": "uint16",
          "name": "collateralBps",
          "type": "uint16"
        },
        {
          "internalType": "uint16",
          "name": "feeBps",
          "type": "uint16"
        },
        {
          "internalType": "uint256",
          "name": "maxLoan",
          "type": "uint256"
        }
      ],
      "stateMutability": "view",
      "type": "function"
    },
    {
      "inputs": [],
      "name": "token",
      "outputs": [
        {
          "internalType": "contract IERC20",
          "name": "",
          "type": "address"
        }
      ],
      "stateMutability": "view",
      "type": "function"
    },
    {
      "inputs": [
        {
          "internalType": "uint256",
          "name": "id",
          "type": "uint256"
        }
      ],
      "name": "totalDue",
      "outputs": [
        {
          "internalType": "uint256",
          "name": "",
          "type": "uint256"
        }
      ],
      "stateMutability": "view",
      "type": "function"
    },
    {
      "inputs": [
        {
          "internalType": "address",
          "name": "newOwner",
          "type": "address"
        }
      ],
      "name": "transferOwnership",
      "outputs": [],
      "stateMutability": "nonpayable",
      "type": "function"
    },
    {
      "inputs": [],
      "name": "treasury",
      "outputs": [
        {
          "internalType": "address",
          "name": "",
          "type": "address"
        }
      ],
      "stateMutability": "view",
      "type": "function"
    },
    {
      "inputs": [
        {
          "internalType": "address",
          "name": "to",
          "type": "address"
        },
        {
          "internalType": "uint256",
          "name": "amount",
          "type": "uint256"
        }
      ],
      "name": "withdrawLiquidity",
      "outputs": [],
      "stateMutability": "nonpayable",
      "type": "function"
    }
  ],
  "bytecode": "0x60a034620002c057601f6200207a38819003918201601f191683019291906001600160401b03841183851017620002c557816101009284926040968752833981010312620002c0576200005281620002fb565b602080830151909290916001600160a01b039190828416808503620002c0576200007e878401620002fb565b91606084015195620000936080860162000310565b95620000a260a0870162000310565b94620000bf60e0620000b760c08a0162000310565b980162000310565b94620000cb33620003a5565b6001805515620002925716908115620002615761ffff92838516801515908162000253575b501562000226579365ffff0000000093600a98969363ffff0000936200011d620001e59d9c9a98620003a5565b60805260018060a01b031960025416176002558760035567ffff0000000000006007549260301b1696169060018060401b031916179160101b161791861b1617176007556200018d6200016f620002db565b6102ee81526107d08582015260c88782015282606082015262000320565b620001bd6200019b620002db565b6102588152610fa085820152610190878201528260011c606082015262000320565b611f40620001ca620002db565b93600085528401526103208584015204606082015262000320565b51611c8d9081620003ed82396080518181816101a0015281816103bc015281816108f301528181610de001528181610f300152818161111101526119d90152f35b8a5162461bcd60e51b8152600481018b905260066024820152656d696e42707360d01b6044820152606490fd5b6127109150111538620000f0565b895162461bcd60e51b8152600481018a9052600a602482015269074726561737572793d360b41b6044820152606490fd5b8a5162461bcd60e51b8152600481018b905260076024820152660746f6b656e3d360cc1b6044820152606490fd5b600080fd5b634e487b7160e01b600052604160045260246000fd5b60405190608082016001600160401b03811183821017620002c557604052565b51906001600160a01b0382168203620002c057565b519061ffff82168203620002c057565b60065468010000000000000000811015620002c55760018101806006558110156200038f57606060029160066000526003602060002091020192805184556001840161ffff60208301511681549063ffff0000604085015160101b169163ffffffff1916171790550151910155565b634e487b7160e01b600052603260045260246000fd5b600080546001600160a01b039283166001600160a01b03198216811783559216907f8be0079c531659141344cd1fd0a4f28419497f9722a3daafe3b4186f6b6457e09080a356fe608080604052600436101561001357600080fd5b60003560e01c90816301f28d911461140257508063039af9eb146113a857806306d47de91461133057806313b0be33146112fe5780631dd0c13f146112dc578063285eb37314611235578063328efc4714610ea25780633a5d8d6c14610e6a578063415f124014610c9b57806344dac75b14610c485780635662ecc714610c2a57806361d027b314610c01578063715018a614610ba857806373c5ca0914610a9f5780637437535914610a84578063752df2db14610976578063784aee35146109425780638da5cb5b1461091957806395ccea67146108b55780639c21c3a114610891578063a8311c3b1461086c578063a85c38ef1461079d578063a8841db914610778578063be0207521461071b578063d09ef24114610549578063e02ef56514610456578063e5eeb32c14610430578063ec14476f14610412578063f0f437b614610385578063f0f44260146102db578063f2fde38b14610212578063f7e590ee146101d45763fc0c546a1461018a57600080fd5b346101cf5760003660031901126101cf576040517f00000000000000000000000000000000000000000000000000000000000000006001600160a01b03168152602090f35b600080fd5b346101cf5760203660031901126101cf576001600160a01b036101f561146e565b166000526005602052602061ffff60406000205416604051908152f35b346101cf5760203660031901126101cf5761022b61146e565b6102336114cd565b6001600160a01b0390811690811561028757600054826bffffffffffffffffffffffff60a01b821617600055167f8be0079c531659141344cd1fd0a4f28419497f9722a3daafe3b4186f6b6457e0600080a3005b60405162461bcd60e51b815260206004820152602660248201527f4f776e61626c653a206e6577206f776e657220697320746865207a65726f206160448201526564647265737360d01b6064820152608490fd5b346101cf5760203660031901126101cf576102f461146e565b6102fc6114cd565b6001600160a01b03908116908115610353577f4ab5be82436d353e61ca18726e984e561f5c1cc7c6d38b29d2553c790434705a60406002549281519084168152846020820152a16001600160a01b03191617600255005b60405162461bcd60e51b815260206004820152600a602482015269074726561737572793d360b41b6044820152606490fd5b346101cf5760203660031901126101cf576004356103a16114cd565b6103a9611652565b6103b481151561161b565b6103e08130337f00000000000000000000000000000000000000000000000000000000000000006116a8565b6040519081527fbb9e497a5b82d1a37f9496dd70c6efb97ba0d98c66c3422d05010105d063359860203392a260018055005b346101cf5760003660031901126101cf576020600354604051908152f35b346101cf5760203660031901126101cf57602061044e600435611a4f565b604051908152f35b346101cf5760a03660031901126101cf576004356104726114bc565b6064359161ffff918284168094036101cf5761048c6114cd565b60065482101561051e577ffe2efe9272eb0deb4938823c5d646855a80e10848bf50af99ef34310d8f92b8d9360209361050a9216906104d8612710808411159081610513575b50611525565b604051916104e58361157a565b602435835285830152604082015260843560608201526105048361141d565b906115b8565b604051908152a1005b9050821115886104d2565b60405162461bcd60e51b81526020600482015260036024820152620d2c8f60eb1b6044820152606490fd5b346101cf5760203660031901126101cf5760006101a060405161056b8161155d565b8281528260208201528260408201528260608201528260808201528260a08201528260c08201528260e08201528261010082015282610120820152826101408201528261016082015282610180820152015260043560005260086020526101c060406000206101a06040516105df8161155d565b60ff600d60018060a01b038554169485845260018060a01b036001820154166020850152600281015460408501526003810154606085015260048101546080850152600581015460a0850152600681015460c0850152600781015460e085015260088101546101008501526009810154610120850152600a810154610140850152600b810154610160850152600c81015461018085015201541615158282015260405192835260018060a01b03602082015116602084015260408101516040840152606081015160608401526080810151608084015260a081015160a084015260c081015160c084015260e081015160e0840152610100810151610100840152610120810151610120840152610140810151610140840152610160810151610160840152610180810151610180840152015115156101a0820152f35b346101cf5760403660031901126101cf5761073461149a565b61073c6114ab565b6107446114cd565b61ffff63ffff00006007549260101b1692169063ffffffff19161717600755600080516020611c38833981519152600080a1005b346101cf5760003660031901126101cf57602061ffff60075460101c16604051908152f35b346101cf5760203660031901126101cf5760043560005260086020526101c0604060002060018060a01b039081815416916001820154169060028101546003820154600483015460058401546006850154600786015490600887015492600988015494600a89015496600b8a01549860ff600d600c8d01549c0154169b60206040519e8f908152015260408d015260608c015260808b015260a08a015260c089015260e088015261010087015261012086015261014085015261016084015261018083015215156101a0820152f35b346101cf5760003660031901126101cf57602061ffff60075460301c16604051908152f35b346101cf5760003660031901126101cf57602060075461ffff60405191831c168152f35b346101cf5760403660031901126101cf576109176108d161146e565b6108d96114cd565b6108ed6001600160a01b038216151561192e565b602435907f0000000000000000000000000000000000000000000000000000000000000000611960565b005b346101cf5760003660031901126101cf576000546040516001600160a01b039091168152602090f35b346101cf5760203660031901126101cf5761095b6114cd565b600435600355600080516020611c38833981519152600080a1005b346101cf5760403660031901126101cf5761098f61146e565b6109976114ab565b906109a06114cd565b6001600160a01b0316908115610a575761ffff8082166103e88111610a2557610a207ff0476f83a777b892446c4939723caba7d89f8de16505f4dfe3c17f8b1dda486893856000526005602052604060002080549361ffff198516179055604051938493168390602090939293604083019461ffff809216845216910152565b0390a2005b60405162461bcd60e51b815260206004820152600a602482015269073636f72653e313030360b41b6044820152606490fd5b60405162461bcd60e51b8152602060048201526005602482015264077686f3d360dc1b6044820152606490fd5b346101cf5760003660031901126101cf57602061044e6119be565b346101cf5760803660031901126101cf57610ab86114ab565b610ac06114bc565b90610ac96114cd565b61ffff80911691610ae6612710808511159081610b9b5750611525565b60405192610af38461157a565b6004358452602084015216604082015260643560608201526006549068010000000000000000821015610b8557610504826001610b33940160065561141d565b6006546000198101908111610b6f5760207ffe2efe9272eb0deb4938823c5d646855a80e10848bf50af99ef34310d8f92b8d91604051908152a1005b634e487b7160e01b600052601160045260246000fd5b634e487b7160e01b600052604160045260246000fd5b90508383161115856104d2565b346101cf5760003660031901126101cf57610bc16114cd565b600080546001600160a01b0319811682556001600160a01b03167f8be0079c531659141344cd1fd0a4f28419497f9722a3daafe3b4186f6b6457e08280a3005b346101cf5760003660031901126101cf576002546040516001600160a01b039091168152602090f35b346101cf5760003660031901126101cf576020600454604051908152f35b346101cf5760203660031901126101cf57610c6161149a565b610c696114cd565b65ffff000000006007549160201b169065ffff00000000191617600755600080516020611c38833981519152600080a1005b346101cf576020806003193601126101cf5760043590610cb9611652565b81600052600881526040600020600d81019060ff825416610e3c576006810154421115610e0957908160037f3c24207173ca3400f76eac3fa0d6f98e2ab53c0e661e5de8c3d9386b0249df32949301549182610dcc575b805460ff19166001179055546001600160a01b031660008181526005845260409020546007547ff0476f83a777b892446c4939723caba7d89f8de16505f4dfe3c17f8b1dda48689161ffff9081169160101c811680831115610dc457610d76908361160e565b1690836000526005865260406000208261ffff19825416179055610db46040519283928390602090939293604083019461ffff809216845216910152565b0390a2604051908152a260018055005b506000610d76565b600254610e049084906001600160a01b03167f0000000000000000000000000000000000000000000000000000000000000000611960565b610d10565b60405162461bcd60e51b815260048101849052600b60248201526a6e6f74206f76657264756560a81b6044820152606490fd5b60405162461bcd60e51b815260048101849052600660248201526518db1bdcd95960d21b6044820152606490fd5b346101cf5760203660031901126101cf5760043560005260086020526040806000206009600882015491015482519182526020820152f35b346101cf5760803660031901126101cf57600435610ebe611484565b6064916044919083358335610ed1611652565b6001600160a01b03841693841561120557610eed84151561161b565b428211156111d557600183106111a057600354841161116f57610f103385611ab4565b97909685610f1c6119be565b1061113a57505083610f549187611109575b7f0000000000000000000000000000000000000000000000000000000000000000611960565b60045495600187018711610b6f57866001602098016004556001610f78858761199e565b91610f83868561199e565b60405193610f908561155d565b338552898c8601528860408601528a60608601528560808601524260a08601528660c08601528760e086015261010085015261012084015260006101408401526000610160840152600061018084015260006101a084015201600052600888526101a0600d604060002060018060a01b038451166bffffffffffffffffffffffff60a01b9081835416178255600182019060018060a01b038d870151169082541617905560408401516002820155606084015160038201556080840151600482015560a0840151600582015560c0840151600682015560e0840151600782015561010084015160088201556101208401516009820155610140840151600a820155610160840151600b820155610180840151600c82015501910151151560ff801983541691161790556004549560405194855287850152604084015260608301526080820152827f7111179a6dc4e2e1d73cfbdd46690bffab838320ecaccd2d7836bd095f362ec960a03393a460018055604051908152f35b6111358830337f00000000000000000000000000000000000000000000000000000000000000006116a8565b610f2e565b701a5b9cdd59999a58da595b9d081c1bdbdb607a1b6040519162461bcd60e51b83526020600484015260116024840152820152fd5b60405162461bcd60e51b815260206004820152600b60248201526a065786365656473206361760ac1b818801528790fd5b60405162461bcd60e51b815260206004820152600f60248201526e696e7374616c6c6d656e74733e3d3160881b818801528790fd5b60405162461bcd60e51b815260206004820152600a60248201526964756541743c3d6e6f7760b01b818801528790fd5b60405162461bcd60e51b815260206004820152600a60248201526906d65726368616e743d360b41b818801528790fd5b346101cf5760203660031901126101cf5761124e61149a565b6112566114cd565b61ffff811680151590816112cf575b50156112a15767ffff0000000000006007549160301b169067ffff000000000000191617600755600080516020611c38833981519152600080a1005b60405162461bcd60e51b81526020600482015260066024820152656d696e42707360d01b6044820152606490fd5b6127109150111582611265565b346101cf5760003660031901126101cf57602061ffff60075416604051908152f35b346101cf5760403660031901126101cf57604061132461131c611484565b600435611ab4565b82519182526020820152f35b346101cf5760403660031901126101cf5761134961146e565b7fb1cce8684b4ffa8667b4577654e61ee3480d661ee9c27522ac80e211f6bd4d2560206024356113776114cd565b61137f611652565b6001600160a01b0384169361139b908290610f2e87151561192e565b604051908152a260018055005b346101cf5760203660031901126101cf576004356006548110156101cf576113d160809161141d565b50805490600260018201549101549060405192835261ffff90818116602085015260101c1660408301526060820152f35b346101cf5760003660031901126101cf576020906006548152f35b600654811015611458576003906006600052027ff652222313e28459528d920b65115c16c04f3efc82aaedc97be59f3f377c0d3f0190600090565b634e487b7160e01b600052603260045260246000fd5b600435906001600160a01b03821682036101cf57565b602435906001600160a01b03821682036101cf57565b6004359061ffff821682036101cf57565b6024359061ffff821682036101cf57565b6044359061ffff821682036101cf57565b6000546001600160a01b031633036114e157565b606460405162461bcd60e51b815260206004820152602060248201527f4f776e61626c653a2063616c6c6572206973206e6f7420746865206f776e65726044820152fd5b1561152c57565b60405162461bcd60e51b815260206004820152600960248201526806270733e31303030360bc1b6044820152606490fd5b6101c0810190811067ffffffffffffffff821117610b8557604052565b6080810190811067ffffffffffffffff821117610b8557604052565b90601f8019910116810190811067ffffffffffffffff821117610b8557604052565b91906115f8576060816002925184556001840161ffff60208301511681549063ffff0000604085015160101b169163ffffffff1916171790550151910155565b634e487b7160e01b600052600060045260246000fd5b91908203918211610b6f57565b1561162257565b60405162461bcd60e51b81526020600482015260086024820152670616d6f756e743d360c41b6044820152606490fd5b600260015414611663576002600155565b60405162461bcd60e51b815260206004820152601f60248201527f5265656e7472616e637947756172643a207265656e7472616e742063616c6c006044820152606490fd5b6040516323b872dd60e01b60208201526001600160a01b03928316602482015292909116604483015260648083019390935291815260a081019181831067ffffffffffffffff841117610b855761170192604052611703565b565b60018060a01b0316906040516040810167ffffffffffffffff9082811082821117610b85576040526020938483527f5361666545524332303a206c6f772d6c6576656c2063616c6c206661696c6564858401526000808587829751910182855af1903d1561184f573d92831161183b579061179e9392916040519261179188601f19601f8401160185611596565b83523d868885013e61185a565b805191821591848315611810575b5050509050156117b95750565b6084906040519062461bcd60e51b82526004820152602a60248201527f5361666545524332303a204552433230206f7065726174696f6e20646964206e6044820152691bdd081cdd58d8d9595960b21b6064820152fd5b919381809450010312611837578201519081151582036118345750803880846117ac565b80fd5b5080fd5b634e487b7160e01b85526041600452602485fd5b9061179e9392506060915b919290156118bc575081511561186e575090565b3b156118775790565b60405162461bcd60e51b815260206004820152601d60248201527f416464726573733a2063616c6c20746f206e6f6e2d636f6e74726163740000006044820152606490fd5b8251909150156118cf5750805190602001fd5b6040519062461bcd60e51b82528160208060048301528251908160248401526000935b828510611915575050604492506000838284010152601f80199101168101030190fd5b84810182015186860160440152938101938593506118f2565b1561193557565b606460405162461bcd60e51b81526020600482015260046024820152630746f3d360e41b6044820152fd5b60405163a9059cbb60e01b60208201526001600160a01b039092166024830152604480830193909352918152611701916119998261157a565b611703565b81156119a8570490565b634e487b7160e01b600052601260045260246000fd5b6040516370a0823160e01b81523060048201526020816024817f00000000000000000000000000000000000000000000000000000000000000006001600160a01b03165afa908115611a4357600091611a15575090565b906020823d8211611a3b575b81611a2e60209383611596565b8101031261183457505190565b3d9150611a21565b6040513d6000823e3d90fd5b6000526008602052604060002060ff600d82015416611a9b57611a8f611a7e6002830154600a8401549061160e565b91600b60048201549101549061160e565b8101809111610b6f5790565b50600090565b81810292918115918404141715610b6f57565b90611abe90611b6b565b9060608201518111611af657611af26127109161ffff602084611ae78360408901511685611aa1565b049501511690611aa1565b0491565b60405162461bcd60e51b815260206004820152601560248201527432bc31b2b2b239903a34b2b91036b0bc103637b0b760591b6044820152606490fd5b90604051611b408161157a565b60606002829480548452600181015461ffff90818116602087015260101c1660408501520154910152565b606090604051611b7a8161157a565b6000928184809352826020820152826040820152015260018060a01b03168152600560205261ffff604082205416908091600654925b838110611bef5750506000198201918211611bdb5750611bd2611bd89161141d565b50611b33565b90565b634e487b7160e01b81526011600452602490fd5b611bf88161141d565b5054821015611c26576000198114611c1257600101611bb0565b634e487b7160e01b83526011600452602483fd5b9050611bd89250611bd2915061141d56fe4e5005547c24dfd12003c2845fd20f2071c49fa3cd30b0be7a064e3f4c3f8d2aa2646970667358221220ead885263bd40a0ecbc7f00ea5f006b2c6d5936470a1109384e6571f0175ba5164736f6c63430008120033",
  "linkReferences": {},
  "deployedLinkReferences": {}
}